{
	"contracts/SurveyRewardSystem.sol": {
		"SurveyRewardSystem": {
			"abi": [
				{
					"inputs": [
						{
							"internalType": "contract IERC20",
							"name": "_token",
							"type": "address"
						}
					],
					"stateMutability": "nonpayable",
					"type": "constructor"
				},
				{
					"anonymous": false,
					"inputs": [
						{
							"indexed": false,
							"internalType": "string",
							"name": "surveyCid",
							"type": "string"
						},
						{
							"indexed": false,
							"internalType": "bytes32",
							"name": "respondentHash",
							"type": "bytes32"
						},
						{
							"indexed": false,
							"internalType": "string",
							"name": "answerCid",
							"type": "string"
						}
					],
					"name": "SurveyAnswered",
					"type": "event"
				},
				{
					"anonymous": false,
					"inputs": [
						{
							"indexed": false,
							"internalType": "string",
							"name": "surveyCid",
							"type": "string"
						}
					],
					"name": "SurveyCancelled",
					"type": "event"
				},
				{
					"anonymous": false,
					"inputs": [
						{
							"indexed": false,
							"internalType": "string",
							"name": "surveyCid",
							"type": "string"
						},
						{
							"indexed": false,
							"internalType": "uint256",
							"name": "rewardPool",
							"type": "uint256"
						},
						{
							"indexed": false,
							"internalType": "uint256",
							"name": "expectedRespondents",
							"type": "uint256"
						},
						{
							"indexed": false,
							"internalType": "string",
							"name": "encryptionKey",
							"type": "string"
						},
						{
							"indexed": false,
							"internalType": "address",
							"name": "creator",
							"type": "address"
						}
					],
					"name": "SurveyCreated",
					"type": "event"
				},
				{
					"inputs": [
						{
							"internalType": "string",
							"name": "surveyCid",
							"type": "string"
						},
						{
							"internalType": "string",
							"name": "encryptedAnswerCid",
							"type": "string"
						}
					],
					"name": "answerSurvey",
					"outputs": [],
					"stateMutability": "nonpayable",
					"type": "function"
				},
				{
					"inputs": [
						{
							"internalType": "string",
							"name": "surveyCid",
							"type": "string"
						}
					],
					"name": "cancelSurvey",
					"outputs": [],
					"stateMutability": "nonpayable",
					"type": "function"
				},
				{
					"inputs": [
						{
							"internalType": "string",
							"name": "surveyCid",
							"type": "string"
						},
						{
							"internalType": "uint256",
							"name": "individualReward",
							"type": "uint256"
						},
						{
							"internalType": "uint256",
							"name": "expectedRespondents",
							"type": "uint256"
						},
						{
							"internalType": "string",
							"name": "encryptionKey",
							"type": "string"
						}
					],
					"name": "createSurvey",
					"outputs": [],
					"stateMutability": "nonpayable",
					"type": "function"
				},
				{
					"inputs": [
						{
							"internalType": "string",
							"name": "",
							"type": "string"
						}
					],
					"name": "surveys",
					"outputs": [
						{
							"internalType": "string",
							"name": "surveyCid",
							"type": "string"
						},
						{
							"internalType": "uint256",
							"name": "individualReward",
							"type": "uint256"
						},
						{
							"internalType": "uint256",
							"name": "expectedRespondents",
							"type": "uint256"
						},
						{
							"internalType": "uint256",
							"name": "actualRespondents",
							"type": "uint256"
						},
						{
							"internalType": "address",
							"name": "creator",
							"type": "address"
						},
						{
							"internalType": "string",
							"name": "encryptionKey",
							"type": "string"
						},
						{
							"internalType": "bool",
							"name": "exists",
							"type": "bool"
						}
					],
					"stateMutability": "view",
					"type": "function"
				},
				{
					"inputs": [],
					"name": "token",
					"outputs": [
						{
							"internalType": "contract IERC20",
							"name": "",
							"type": "address"
						}
					],
					"stateMutability": "view",
					"type": "function"
				}
			],
			"devdoc": {
				"kind": "dev",
				"methods": {},
				"version": 1
			},
			"evm": {
				"assembly": "    /* \"contracts/SurveyRewardSystem.sol\":184:3435  contract SurveyRewardSystem {... */\n  mstore(0x40, 0x80)\n    /* \"contracts/SurveyRewardSystem.sol\":991:1051  constructor(IERC20 _token) {... */\n  callvalue\n  dup1\n  iszero\n  tag_1\n  jumpi\n  0x00\n  dup1\n  revert\ntag_1:\n  pop\n  mload(0x40)\n  sub(codesize, bytecodeSize)\n  dup1\n  bytecodeSize\n  dup4\n  codecopy\n  dup2\n  dup2\n  add\n  0x40\n  mstore\n  dup2\n  add\n  swap1\n  tag_2\n  swap2\n  swap1\n  tag_3\n  jump\t// in\ntag_2:\n    /* \"contracts/SurveyRewardSystem.sol\":1037:1043  _token */\n  dup1\n    /* \"contracts/SurveyRewardSystem.sol\":1029:1034  token */\n  0x00\n  dup1\n    /* \"contracts/SurveyRewardSystem.sol\":1029:1043  token = _token */\n  0x0100\n  exp\n  dup2\n  sload\n  dup2\n  0xffffffffffffffffffffffffffffffffffffffff\n  mul\n  not\n  and\n  swap1\n  dup4\n  0xffffffffffffffffffffffffffffffffffffffff\n  and\n  mul\n  or\n  swap1\n  sstore\n  pop\n    /* \"contracts/SurveyRewardSystem.sol\":991:1051  constructor(IERC20 _token) {... */\n  pop\n    /* \"contracts/SurveyRewardSystem.sol\":184:3435  contract SurveyRewardSystem {... */\n  jump(tag_6)\n    /* \"#utility.yul\":88:205   */\ntag_8:\n    /* \"#utility.yul\":197:198   */\n  0x00\n    /* \"#utility.yul\":194:195   */\n  dup1\n    /* \"#utility.yul\":187:199   */\n  revert\n    /* \"#utility.yul\":334:460   */\ntag_10:\n    /* \"#utility.yul\":371:378   */\n  0x00\n    /* \"#utility.yul\":411:453   */\n  0xffffffffffffffffffffffffffffffffffffffff\n    /* \"#utility.yul\":404:409   */\n  dup3\n    /* \"#utility.yul\":400:454   */\n  and\n    /* \"#utility.yul\":389:454   */\n  swap1\n  pop\n    /* \"#utility.yul\":334:460   */\n  swap2\n  swap1\n  pop\n  jump\t// out\n    /* \"#utility.yul\":466:562   */\ntag_11:\n    /* \"#utility.yul\":503:510   */\n  0x00\n    /* \"#utility.yul\":532:556   */\n  tag_21\n    /* \"#utility.yul\":550:555   */\n  dup3\n    /* \"#utility.yul\":532:556   */\n  tag_10\n  jump\t// in\ntag_21:\n    /* \"#utility.yul\":521:556   */\n  swap1\n  pop\n    /* \"#utility.yul\":466:562   */\n  swap2\n  swap1\n  pop\n  jump\t// out\n    /* \"#utility.yul\":568:677   */\ntag_12:\n    /* \"#utility.yul\":618:625   */\n  0x00\n    /* \"#utility.yul\":647:671   */\n  tag_23\n    /* \"#utility.yul\":665:670   */\n  dup3\n    /* \"#utility.yul\":647:671   */\n  tag_11\n  jump\t// in\ntag_23:\n    /* \"#utility.yul\":636:671   */\n  swap1\n  pop\n    /* \"#utility.yul\":568:677   */\n  swap2\n  swap1\n  pop\n  jump\t// out\n    /* \"#utility.yul\":683:831   */\ntag_13:\n    /* \"#utility.yul\":769:806   */\n  tag_25\n    /* \"#utility.yul\":800:805   */\n  dup2\n    /* \"#utility.yul\":769:806   */\n  tag_12\n  jump\t// in\ntag_25:\n    /* \"#utility.yul\":762:767   */\n  dup2\n    /* \"#utility.yul\":759:807   */\n  eq\n    /* \"#utility.yul\":749:825   */\n  tag_26\n  jumpi\n    /* \"#utility.yul\":821:822   */\n  0x00\n    /* \"#utility.yul\":818:819   */\n  dup1\n    /* \"#utility.yul\":811:823   */\n  revert\n    /* \"#utility.yul\":749:825   */\ntag_26:\n    /* \"#utility.yul\":683:831   */\n  pop\n  jump\t// out\n    /* \"#utility.yul\":837:1006   */\ntag_14:\n    /* \"#utility.yul\":907:912   */\n  0x00\n    /* \"#utility.yul\":938:944   */\n  dup2\n    /* \"#utility.yul\":932:945   */\n  mload\n    /* \"#utility.yul\":923:945   */\n  swap1\n  pop\n    /* \"#utility.yul\":954:1000   */\n  tag_28\n    /* \"#utility.yul\":994:999   */\n  dup2\n    /* \"#utility.yul\":954:1000   */\n  tag_13\n  jump\t// in\ntag_28:\n    /* \"#utility.yul\":837:1006   */\n  swap3\n  swap2\n  pop\n  pop\n  jump\t// out\n    /* \"#utility.yul\":1012:1389   */\ntag_3:\n    /* \"#utility.yul\":1095:1101   */\n  0x00\n    /* \"#utility.yul\":1144:1146   */\n  0x20\n    /* \"#utility.yul\":1132:1141   */\n  dup3\n    /* \"#utility.yul\":1123:1130   */\n  dup5\n    /* \"#utility.yul\":1119:1142   */\n  sub\n    /* \"#utility.yul\":1115:1147   */\n  slt\n    /* \"#utility.yul\":1112:1231   */\n  iszero\n  tag_30\n  jumpi\n    /* \"#utility.yul\":1150:1229   */\n  tag_31\n  tag_8\n  jump\t// in\ntag_31:\n    /* \"#utility.yul\":1112:1231   */\ntag_30:\n    /* \"#utility.yul\":1270:1271   */\n  0x00\n    /* \"#utility.yul\":1295:1372   */\n  tag_32\n    /* \"#utility.yul\":1364:1371   */\n  dup5\n    /* \"#utility.yul\":1355:1361   */\n  dup3\n    /* \"#utility.yul\":1344:1353   */\n  dup6\n    /* \"#utility.yul\":1340:1362   */\n  add\n    /* \"#utility.yul\":1295:1372   */\n  tag_14\n  jump\t// in\ntag_32:\n    /* \"#utility.yul\":1285:1372   */\n  swap2\n  pop\n    /* \"#utility.yul\":1241:1382   */\n  pop\n    /* \"#utility.yul\":1012:1389   */\n  swap3\n  swap2\n  pop\n  pop\n  jump\t// out\n    /* \"contracts/SurveyRewardSystem.sol\":184:3435  contract SurveyRewardSystem {... */\ntag_6:\n  dataSize(sub_0)\n  dup1\n  dataOffset(sub_0)\n  0x00\n  codecopy\n  0x00\n  return\nstop\n\nsub_0: assembly {\n        /* \"contracts/SurveyRewardSystem.sol\":184:3435  contract SurveyRewardSystem {... */\n      mstore(0x40, 0x80)\n      callvalue\n      dup1\n      iszero\n      tag_1\n      jumpi\n      0x00\n      dup1\n      revert\n    tag_1:\n      pop\n      jumpi(tag_2, lt(calldatasize, 0x04))\n      shr(0xe0, calldataload(0x00))\n      dup1\n      0x1d88311d\n      eq\n      tag_3\n      jumpi\n      dup1\n      0x741022d5\n      eq\n      tag_4\n      jumpi\n      dup1\n      0xc5b44712\n      eq\n      tag_5\n      jumpi\n      dup1\n      0xf76c9e2a\n      eq\n      tag_6\n      jumpi\n      dup1\n      0xfc0c546a\n      eq\n      tag_7\n      jumpi\n    tag_2:\n      0x00\n      dup1\n      revert\n        /* \"contracts/SurveyRewardSystem.sol\":2846:3432  function cancelSurvey(string memory surveyCid) public {... */\n    tag_3:\n      tag_8\n      0x04\n      dup1\n      calldatasize\n      sub\n      dup2\n      add\n      swap1\n      tag_9\n      swap2\n      swap1\n      tag_10\n      jump\t// in\n    tag_9:\n      tag_11\n      jump\t// in\n    tag_8:\n      stop\n        /* \"contracts/SurveyRewardSystem.sol\":675:715  mapping(string => Survey) public surveys */\n    tag_4:\n      tag_12\n      0x04\n      dup1\n      calldatasize\n      sub\n      dup2\n      add\n      swap1\n      tag_13\n      swap2\n      swap1\n      tag_10\n      jump\t// in\n    tag_13:\n      tag_14\n      jump\t// in\n    tag_12:\n      mload(0x40)\n      tag_15\n      swap8\n      swap7\n      swap6\n      swap5\n      swap4\n      swap3\n      swap2\n      swap1\n      tag_16\n      jump\t// in\n    tag_15:\n      mload(0x40)\n      dup1\n      swap2\n      sub\n      swap1\n      return\n        /* \"contracts/SurveyRewardSystem.sol\":1937:2838  function answerSurvey(string memory surveyCid, string memory encryptedAnswerCid) public {... */\n    tag_5:\n      tag_17\n      0x04\n      dup1\n      calldatasize\n      sub\n      dup2\n      add\n      swap1\n      tag_18\n      swap2\n      swap1\n      tag_19\n      jump\t// in\n    tag_18:\n      tag_20\n      jump\t// in\n    tag_17:\n      stop\n        /* \"contracts/SurveyRewardSystem.sol\":1059:1929  function createSurvey(string memory surveyCid, uint256 individualReward, uint256 expectedRespondents, string memory encryptionKey) public {... */\n    tag_6:\n      tag_21\n      0x04\n      dup1\n      calldatasize\n      sub\n      dup2\n      add\n      swap1\n      tag_22\n      swap2\n      swap1\n      tag_23\n      jump\t// in\n    tag_22:\n      tag_24\n      jump\t// in\n    tag_21:\n      stop\n        /* \"contracts/SurveyRewardSystem.sol\":219:238  IERC20 public token */\n    tag_7:\n      tag_25\n      tag_26\n      jump\t// in\n    tag_25:\n      mload(0x40)\n      tag_27\n      swap2\n      swap1\n      tag_28\n      jump\t// in\n    tag_27:\n      mload(0x40)\n      dup1\n      swap2\n      sub\n      swap1\n      return\n        /* \"contracts/SurveyRewardSystem.sol\":2846:3432  function cancelSurvey(string memory surveyCid) public {... */\n    tag_11:\n        /* \"contracts/SurveyRewardSystem.sol\":2919:2926  surveys */\n      0x01\n        /* \"contracts/SurveyRewardSystem.sol\":2927:2936  surveyCid */\n      dup2\n        /* \"contracts/SurveyRewardSystem.sol\":2919:2937  surveys[surveyCid] */\n      mload(0x40)\n      tag_30\n      swap2\n      swap1\n      tag_31\n      jump\t// in\n    tag_30:\n      swap1\n      dup2\n      mstore\n      0x20\n      add\n      mload(0x40)\n      dup1\n      swap2\n      sub\n      swap1\n      keccak256\n        /* \"contracts/SurveyRewardSystem.sol\":2919:2944  surveys[surveyCid].exists */\n      0x06\n      add\n      0x00\n      swap1\n      sload\n      swap1\n      0x0100\n      exp\n      swap1\n      div\n      0xff\n      and\n        /* \"contracts/SurveyRewardSystem.sol\":2911:2971  require(surveys[surveyCid].exists, \"Survey does not exist.\") */\n      tag_32\n      jumpi\n      mload(0x40)\n      0x08c379a000000000000000000000000000000000000000000000000000000000\n      dup2\n      mstore\n      0x04\n      add\n      tag_33\n      swap1\n      tag_34\n      jump\t// in\n    tag_33:\n      mload(0x40)\n      dup1\n      swap2\n      sub\n      swap1\n      revert\n    tag_32:\n        /* \"contracts/SurveyRewardSystem.sol\":2982:3003  Survey storage survey */\n      0x00\n        /* \"contracts/SurveyRewardSystem.sol\":3006:3013  surveys */\n      0x01\n        /* \"contracts/SurveyRewardSystem.sol\":3014:3023  surveyCid */\n      dup3\n        /* \"contracts/SurveyRewardSystem.sol\":3006:3024  surveys[surveyCid] */\n      mload(0x40)\n      tag_35\n      swap2\n      swap1\n      tag_31\n      jump\t// in\n    tag_35:\n      swap1\n      dup2\n      mstore\n      0x20\n      add\n      mload(0x40)\n      dup1\n      swap2\n      sub\n      swap1\n      keccak256\n        /* \"contracts/SurveyRewardSystem.sol\":2982:3024  Survey storage survey = surveys[surveyCid] */\n      swap1\n      pop\n        /* \"contracts/SurveyRewardSystem.sol\":3057:3063  survey */\n      dup1\n        /* \"contracts/SurveyRewardSystem.sol\":3057:3071  survey.creator */\n      0x04\n      add\n      0x00\n      swap1\n      sload\n      swap1\n      0x0100\n      exp\n      swap1\n      div\n      0xffffffffffffffffffffffffffffffffffffffff\n      and\n        /* \"contracts/SurveyRewardSystem.sol\":3043:3071  msg.sender == survey.creator */\n      0xffffffffffffffffffffffffffffffffffffffff\n      and\n        /* \"contracts/SurveyRewardSystem.sol\":3043:3053  msg.sender */\n      caller\n        /* \"contracts/SurveyRewardSystem.sol\":3043:3071  msg.sender == survey.creator */\n      0xffffffffffffffffffffffffffffffffffffffff\n      and\n      eq\n        /* \"contracts/SurveyRewardSystem.sol\":3035:3122  require(msg.sender == survey.creator, \"Only the survey creator can cancel the survey.\") */\n      tag_36\n      jumpi\n      mload(0x40)\n      0x08c379a000000000000000000000000000000000000000000000000000000000\n      dup2\n      mstore\n      0x04\n      add\n      tag_37\n      swap1\n      tag_38\n      jump\t// in\n    tag_37:\n      mload(0x40)\n      dup1\n      swap2\n      sub\n      swap1\n      revert\n    tag_36:\n        /* \"contracts/SurveyRewardSystem.sol\":3135:3159  uint256 remainingRewards */\n      0x00\n        /* \"contracts/SurveyRewardSystem.sol\":3218:3224  survey */\n      dup2\n        /* \"contracts/SurveyRewardSystem.sol\":3218:3242  survey.actualRespondents */\n      0x03\n      add\n      sload\n        /* \"contracts/SurveyRewardSystem.sol\":3189:3195  survey */\n      dup3\n        /* \"contracts/SurveyRewardSystem.sol\":3189:3215  survey.expectedRespondents */\n      0x02\n      add\n      sload\n        /* \"contracts/SurveyRewardSystem.sol\":3189:3242  survey.expectedRespondents - survey.actualRespondents */\n      tag_39\n      swap2\n      swap1\n      tag_40\n      jump\t// in\n    tag_39:\n        /* \"contracts/SurveyRewardSystem.sol\":3162:3168  survey */\n      dup3\n        /* \"contracts/SurveyRewardSystem.sol\":3162:3185  survey.individualReward */\n      0x01\n      add\n      sload\n        /* \"contracts/SurveyRewardSystem.sol\":3162:3243  survey.individualReward * (survey.expectedRespondents - survey.actualRespondents) */\n      tag_41\n      swap2\n      swap1\n      tag_42\n      jump\t// in\n    tag_41:\n        /* \"contracts/SurveyRewardSystem.sol\":3135:3243  uint256 remainingRewards = survey.individualReward * (survey.expectedRespondents - survey.actualRespondents) */\n      swap1\n      pop\n        /* \"contracts/SurveyRewardSystem.sol\":3270:3275  false */\n      0x00\n        /* \"contracts/SurveyRewardSystem.sol\":3254:3260  survey */\n      dup3\n        /* \"contracts/SurveyRewardSystem.sol\":3254:3267  survey.exists */\n      0x06\n      add\n      0x00\n        /* \"contracts/SurveyRewardSystem.sol\":3254:3275  survey.exists = false */\n      0x0100\n      exp\n      dup2\n      sload\n      dup2\n      0xff\n      mul\n      not\n      and\n      swap1\n      dup4\n      iszero\n      iszero\n      mul\n      or\n      swap1\n      sstore\n      pop\n        /* \"contracts/SurveyRewardSystem.sol\":3294:3299  token */\n      0x00\n      dup1\n      sload\n      swap1\n      0x0100\n      exp\n      swap1\n      div\n      0xffffffffffffffffffffffffffffffffffffffff\n      and\n        /* \"contracts/SurveyRewardSystem.sol\":3294:3308  token.transfer */\n      0xffffffffffffffffffffffffffffffffffffffff\n      and\n      0xa9059cbb\n        /* \"contracts/SurveyRewardSystem.sol\":3309:3315  survey */\n      dup4\n        /* \"contracts/SurveyRewardSystem.sol\":3309:3323  survey.creator */\n      0x04\n      add\n      0x00\n      swap1\n      sload\n      swap1\n      0x0100\n      exp\n      swap1\n      div\n      0xffffffffffffffffffffffffffffffffffffffff\n      and\n        /* \"contracts/SurveyRewardSystem.sol\":3325:3341  remainingRewards */\n      dup4\n        /* \"contracts/SurveyRewardSystem.sol\":3294:3342  token.transfer(survey.creator, remainingRewards) */\n      mload(0x40)\n      dup4\n      0xffffffff\n      and\n      0xe0\n      shl\n      dup2\n      mstore\n      0x04\n      add\n      tag_43\n      swap3\n      swap2\n      swap1\n      tag_44\n      jump\t// in\n    tag_43:\n      0x20\n      mload(0x40)\n      dup1\n      dup4\n      sub\n      dup2\n      0x00\n      dup8\n      gas\n      call\n      iszero\n      dup1\n      iszero\n      tag_46\n      jumpi\n      returndatasize\n      0x00\n      dup1\n      returndatacopy\n      revert(0x00, returndatasize)\n    tag_46:\n      pop\n      pop\n      pop\n      pop\n      mload(0x40)\n      returndatasize\n      not(0x1f)\n      0x1f\n      dup3\n      add\n      and\n      dup3\n      add\n      dup1\n      0x40\n      mstore\n      pop\n      dup2\n      add\n      swap1\n      tag_47\n      swap2\n      swap1\n      tag_48\n      jump\t// in\n    tag_47:\n        /* \"contracts/SurveyRewardSystem.sol\":3286:3382  require(token.transfer(survey.creator, remainingRewards), \"Failed to return remaining rewards.\") */\n      tag_49\n      jumpi\n      mload(0x40)\n      0x08c379a000000000000000000000000000000000000000000000000000000000\n      dup2\n      mstore\n      0x04\n      add\n      tag_50\n      swap1\n      tag_51\n      jump\t// in\n    tag_50:\n      mload(0x40)\n      dup1\n      swap2\n      sub\n      swap1\n      revert\n    tag_49:\n        /* \"contracts/SurveyRewardSystem.sol\":3398:3424  SurveyCancelled(surveyCid) */\n      0x198f037423587a92bc0a6dabea768d107117cb1d9fc913a1899ea410c2f38958\n        /* \"contracts/SurveyRewardSystem.sol\":3414:3423  surveyCid */\n      dup4\n        /* \"contracts/SurveyRewardSystem.sol\":3398:3424  SurveyCancelled(surveyCid) */\n      mload(0x40)\n      tag_52\n      swap2\n      swap1\n      tag_53\n      jump\t// in\n    tag_52:\n      mload(0x40)\n      dup1\n      swap2\n      sub\n      swap1\n      log1\n        /* \"contracts/SurveyRewardSystem.sol\":2900:3432  {... */\n      pop\n      pop\n        /* \"contracts/SurveyRewardSystem.sol\":2846:3432  function cancelSurvey(string memory surveyCid) public {... */\n      pop\n      jump\t// out\n        /* \"contracts/SurveyRewardSystem.sol\":675:715  mapping(string => Survey) public surveys */\n    tag_14:\n      0x01\n      dup2\n      dup1\n      mload\n      0x20\n      dup2\n      add\n      dup3\n      add\n      dup1\n      mload\n      dup5\n      dup3\n      mstore\n      0x20\n      dup4\n      add\n      0x20\n      dup6\n      add\n      keccak256\n      dup2\n      dup4\n      mstore\n      dup1\n      swap6\n      pop\n      pop\n      pop\n      pop\n      pop\n      pop\n      0x00\n      swap2\n      pop\n      swap1\n      pop\n      dup1\n      0x00\n      add\n      dup1\n      sload\n      tag_54\n      swap1\n      tag_55\n      jump\t// in\n    tag_54:\n      dup1\n      0x1f\n      add\n      0x20\n      dup1\n      swap2\n      div\n      mul\n      0x20\n      add\n      mload(0x40)\n      swap1\n      dup2\n      add\n      0x40\n      mstore\n      dup1\n      swap3\n      swap2\n      swap1\n      dup2\n      dup2\n      mstore\n      0x20\n      add\n      dup3\n      dup1\n      sload\n      tag_56\n      swap1\n      tag_55\n      jump\t// in\n    tag_56:\n      dup1\n      iszero\n      tag_57\n      jumpi\n      dup1\n      0x1f\n      lt\n      tag_58\n      jumpi\n      0x0100\n      dup1\n      dup4\n      sload\n      div\n      mul\n      dup4\n      mstore\n      swap2\n      0x20\n      add\n      swap2\n      jump(tag_57)\n    tag_58:\n      dup3\n      add\n      swap2\n      swap1\n      0x00\n      mstore\n      keccak256(0x00, 0x20)\n      swap1\n    tag_59:\n      dup2\n      sload\n      dup2\n      mstore\n      swap1\n      0x01\n      add\n      swap1\n      0x20\n      add\n      dup1\n      dup4\n      gt\n      tag_59\n      jumpi\n      dup3\n      swap1\n      sub\n      0x1f\n      and\n      dup3\n      add\n      swap2\n    tag_57:\n      pop\n      pop\n      pop\n      pop\n      pop\n      swap1\n      dup1\n      0x01\n      add\n      sload\n      swap1\n      dup1\n      0x02\n      add\n      sload\n      swap1\n      dup1\n      0x03\n      add\n      sload\n      swap1\n      dup1\n      0x04\n      add\n      0x00\n      swap1\n      sload\n      swap1\n      0x0100\n      exp\n      swap1\n      div\n      0xffffffffffffffffffffffffffffffffffffffff\n      and\n      swap1\n      dup1\n      0x05\n      add\n      dup1\n      sload\n      tag_60\n      swap1\n      tag_55\n      jump\t// in\n    tag_60:\n      dup1\n      0x1f\n      add\n      0x20\n      dup1\n      swap2\n      div\n      mul\n      0x20\n      add\n      mload(0x40)\n      swap1\n      dup2\n      add\n      0x40\n      mstore\n      dup1\n      swap3\n      swap2\n      swap1\n      dup2\n      dup2\n      mstore\n      0x20\n      add\n      dup3\n      dup1\n      sload\n      tag_61\n      swap1\n      tag_55\n      jump\t// in\n    tag_61:\n      dup1\n      iszero\n      tag_62\n      jumpi\n      dup1\n      0x1f\n      lt\n      tag_63\n      jumpi\n      0x0100\n      dup1\n      dup4\n      sload\n      div\n      mul\n      dup4\n      mstore\n      swap2\n      0x20\n      add\n      swap2\n      jump(tag_62)\n    tag_63:\n      dup3\n      add\n      swap2\n      swap1\n      0x00\n      mstore\n      keccak256(0x00, 0x20)\n      swap1\n    tag_64:\n      dup2\n      sload\n      dup2\n      mstore\n      swap1\n      0x01\n      add\n      swap1\n      0x20\n      add\n      dup1\n      dup4\n      gt\n      tag_64\n      jumpi\n      dup3\n      swap1\n      sub\n      0x1f\n      and\n      dup3\n      add\n      swap2\n    tag_62:\n      pop\n      pop\n      pop\n      pop\n      pop\n      swap1\n      dup1\n      0x06\n      add\n      0x00\n      swap1\n      sload\n      swap1\n      0x0100\n      exp\n      swap1\n      div\n      0xff\n      and\n      swap1\n      pop\n      dup8\n      jump\t// out\n        /* \"contracts/SurveyRewardSystem.sol\":1937:2838  function answerSurvey(string memory surveyCid, string memory encryptedAnswerCid) public {... */\n    tag_20:\n        /* \"contracts/SurveyRewardSystem.sol\":2044:2051  surveys */\n      0x01\n        /* \"contracts/SurveyRewardSystem.sol\":2052:2061  surveyCid */\n      dup3\n        /* \"contracts/SurveyRewardSystem.sol\":2044:2062  surveys[surveyCid] */\n      mload(0x40)\n      tag_66\n      swap2\n      swap1\n      tag_31\n      jump\t// in\n    tag_66:\n      swap1\n      dup2\n      mstore\n      0x20\n      add\n      mload(0x40)\n      dup1\n      swap2\n      sub\n      swap1\n      keccak256\n        /* \"contracts/SurveyRewardSystem.sol\":2044:2069  surveys[surveyCid].exists */\n      0x06\n      add\n      0x00\n      swap1\n      sload\n      swap1\n      0x0100\n      exp\n      swap1\n      div\n      0xff\n      and\n        /* \"contracts/SurveyRewardSystem.sol\":2036:2096  require(surveys[surveyCid].exists, \"Survey does not exist.\") */\n      tag_67\n      jumpi\n      mload(0x40)\n      0x08c379a000000000000000000000000000000000000000000000000000000000\n      dup2\n      mstore\n      0x04\n      add\n      tag_68\n      swap1\n      tag_34\n      jump\t// in\n    tag_68:\n      mload(0x40)\n      dup1\n      swap2\n      sub\n      swap1\n      revert\n    tag_67:\n        /* \"contracts/SurveyRewardSystem.sol\":2107:2129  bytes32 respondentHash */\n      0x00\n        /* \"contracts/SurveyRewardSystem.sol\":2159:2169  msg.sender */\n      caller\n        /* \"contracts/SurveyRewardSystem.sol\":2142:2170  abi.encodePacked(msg.sender) */\n      add(0x20, mload(0x40))\n      tag_69\n      swap2\n      swap1\n      tag_70\n      jump\t// in\n    tag_69:\n      mload(0x40)\n      0x20\n      dup2\n      dup4\n      sub\n      sub\n      dup2\n      mstore\n      swap1\n      0x40\n      mstore\n        /* \"contracts/SurveyRewardSystem.sol\":2132:2171  keccak256(abi.encodePacked(msg.sender)) */\n      dup1\n      mload\n      swap1\n      0x20\n      add\n      keccak256\n        /* \"contracts/SurveyRewardSystem.sol\":2107:2171  bytes32 respondentHash = keccak256(abi.encodePacked(msg.sender)) */\n      swap1\n      pop\n        /* \"contracts/SurveyRewardSystem.sol\":2259:2260  0 */\n      0x00\n        /* \"contracts/SurveyRewardSystem.sol\":2196:2203  surveys */\n      0x01\n        /* \"contracts/SurveyRewardSystem.sol\":2204:2213  surveyCid */\n      dup5\n        /* \"contracts/SurveyRewardSystem.sol\":2196:2214  surveys[surveyCid] */\n      mload(0x40)\n      tag_71\n      swap2\n      swap1\n      tag_31\n      jump\t// in\n    tag_71:\n      swap1\n      dup2\n      mstore\n      0x20\n      add\n      mload(0x40)\n      dup1\n      swap2\n      sub\n      swap1\n      keccak256\n        /* \"contracts/SurveyRewardSystem.sol\":2196:2231  surveys[surveyCid].encryptedAnswers */\n      0x07\n      add\n        /* \"contracts/SurveyRewardSystem.sol\":2196:2247  surveys[surveyCid].encryptedAnswers[respondentHash] */\n      0x00\n        /* \"contracts/SurveyRewardSystem.sol\":2232:2246  respondentHash */\n      dup4\n        /* \"contracts/SurveyRewardSystem.sol\":2196:2247  surveys[surveyCid].encryptedAnswers[respondentHash] */\n      dup2\n      mstore\n      0x20\n      add\n      swap1\n      dup2\n      mstore\n      0x20\n      add\n      0x00\n      keccak256\n        /* \"contracts/SurveyRewardSystem.sol\":2190:2255  bytes(surveys[surveyCid].encryptedAnswers[respondentHash]).length */\n      dup1\n      sload\n      tag_72\n      swap1\n      tag_55\n      jump\t// in\n    tag_72:\n      swap1\n      pop\n        /* \"contracts/SurveyRewardSystem.sol\":2190:2260  bytes(surveys[surveyCid].encryptedAnswers[respondentHash]).length == 0 */\n      eq\n        /* \"contracts/SurveyRewardSystem.sol\":2182:2308  require(bytes(surveys[surveyCid].encryptedAnswers[respondentHash]).length == 0, \"Responder has already answered this survey.\") */\n      tag_73\n      jumpi\n      mload(0x40)\n      0x08c379a000000000000000000000000000000000000000000000000000000000\n      dup2\n      mstore\n      0x04\n      add\n      tag_74\n      swap1\n      tag_75\n      jump\t// in\n    tag_74:\n      mload(0x40)\n      dup1\n      swap2\n      sub\n      swap1\n      revert\n    tag_73:\n        /* \"contracts/SurveyRewardSystem.sol\":2321:2342  Survey storage survey */\n      0x00\n        /* \"contracts/SurveyRewardSystem.sol\":2345:2352  surveys */\n      0x01\n        /* \"contracts/SurveyRewardSystem.sol\":2353:2362  surveyCid */\n      dup5\n        /* \"contracts/SurveyRewardSystem.sol\":2345:2363  surveys[surveyCid] */\n      mload(0x40)\n      tag_76\n      swap2\n      swap1\n      tag_31\n      jump\t// in\n    tag_76:\n      swap1\n      dup2\n      mstore\n      0x20\n      add\n      mload(0x40)\n      dup1\n      swap2\n      sub\n      swap1\n      keccak256\n        /* \"contracts/SurveyRewardSystem.sol\":2321:2363  Survey storage survey = surveys[surveyCid] */\n      swap1\n      pop\n        /* \"contracts/SurveyRewardSystem.sol\":2409:2415  survey */\n      dup1\n        /* \"contracts/SurveyRewardSystem.sol\":2409:2435  survey.expectedRespondents */\n      0x02\n      add\n      sload\n        /* \"contracts/SurveyRewardSystem.sol\":2382:2388  survey */\n      dup2\n        /* \"contracts/SurveyRewardSystem.sol\":2382:2406  survey.actualRespondents */\n      0x03\n      add\n      sload\n        /* \"contracts/SurveyRewardSystem.sol\":2382:2435  survey.actualRespondents < survey.expectedRespondents */\n      lt\n        /* \"contracts/SurveyRewardSystem.sol\":2374:2492  require(survey.actualRespondents < survey.expectedRespondents, \"Survey has already reached its expected respondents.\") */\n      tag_77\n      jumpi\n      mload(0x40)\n      0x08c379a000000000000000000000000000000000000000000000000000000000\n      dup2\n      mstore\n      0x04\n      add\n      tag_78\n      swap1\n      tag_79\n      jump\t// in\n    tag_78:\n      mload(0x40)\n      dup1\n      swap2\n      sub\n      swap1\n      revert\n    tag_77:\n        /* \"contracts/SurveyRewardSystem.sol\":2547:2565  encryptedAnswerCid */\n      dup3\n        /* \"contracts/SurveyRewardSystem.sol\":2505:2511  survey */\n      dup2\n        /* \"contracts/SurveyRewardSystem.sol\":2505:2528  survey.encryptedAnswers */\n      0x07\n      add\n        /* \"contracts/SurveyRewardSystem.sol\":2505:2544  survey.encryptedAnswers[respondentHash] */\n      0x00\n        /* \"contracts/SurveyRewardSystem.sol\":2529:2543  respondentHash */\n      dup5\n        /* \"contracts/SurveyRewardSystem.sol\":2505:2544  survey.encryptedAnswers[respondentHash] */\n      dup2\n      mstore\n      0x20\n      add\n      swap1\n      dup2\n      mstore\n      0x20\n      add\n      0x00\n      keccak256\n        /* \"contracts/SurveyRewardSystem.sol\":2505:2565  survey.encryptedAnswers[respondentHash] = encryptedAnswerCid */\n      swap1\n      dup2\n      tag_80\n      swap2\n      swap1\n      tag_81\n      jump\t// in\n    tag_80:\n      pop\n        /* \"contracts/SurveyRewardSystem.sol\":2576:2582  survey */\n      dup1\n        /* \"contracts/SurveyRewardSystem.sol\":2576:2600  survey.actualRespondents */\n      0x03\n      add\n      0x00\n        /* \"contracts/SurveyRewardSystem.sol\":2576:2602  survey.actualRespondents++ */\n      dup2\n      sload\n      dup1\n      swap3\n      swap2\n      swap1\n      tag_82\n      swap1\n      tag_83\n      jump\t// in\n    tag_82:\n      swap2\n      swap1\n      pop\n      sstore\n      pop\n        /* \"contracts/SurveyRewardSystem.sol\":2613:2633  uint256 rewardAmount */\n      0x00\n        /* \"contracts/SurveyRewardSystem.sol\":2636:2642  survey */\n      dup2\n        /* \"contracts/SurveyRewardSystem.sol\":2636:2659  survey.individualReward */\n      0x01\n      add\n      sload\n        /* \"contracts/SurveyRewardSystem.sol\":2613:2659  uint256 rewardAmount = survey.individualReward */\n      swap1\n      pop\n        /* \"contracts/SurveyRewardSystem.sol\":2678:2683  token */\n      0x00\n      dup1\n      sload\n      swap1\n      0x0100\n      exp\n      swap1\n      div\n      0xffffffffffffffffffffffffffffffffffffffff\n      and\n        /* \"contracts/SurveyRewardSystem.sol\":2678:2692  token.transfer */\n      0xffffffffffffffffffffffffffffffffffffffff\n      and\n      0xa9059cbb\n        /* \"contracts/SurveyRewardSystem.sol\":2693:2703  msg.sender */\n      caller\n        /* \"contracts/SurveyRewardSystem.sol\":2705:2717  rewardAmount */\n      dup4\n        /* \"contracts/SurveyRewardSystem.sol\":2678:2718  token.transfer(msg.sender, rewardAmount) */\n      mload(0x40)\n      dup4\n      0xffffffff\n      and\n      0xe0\n      shl\n      dup2\n      mstore\n      0x04\n      add\n      tag_84\n      swap3\n      swap2\n      swap1\n      tag_44\n      jump\t// in\n    tag_84:\n      0x20\n      mload(0x40)\n      dup1\n      dup4\n      sub\n      dup2\n      0x00\n      dup8\n      gas\n      call\n      iszero\n      dup1\n      iszero\n      tag_86\n      jumpi\n      returndatasize\n      0x00\n      dup1\n      returndatacopy\n      revert(0x00, returndatasize)\n    tag_86:\n      pop\n      pop\n      pop\n      pop\n      mload(0x40)\n      returndatasize\n      not(0x1f)\n      0x1f\n      dup3\n      add\n      and\n      dup3\n      add\n      dup1\n      0x40\n      mstore\n      pop\n      dup2\n      add\n      swap1\n      tag_87\n      swap2\n      swap1\n      tag_48\n      jump\t// in\n    tag_87:\n        /* \"contracts/SurveyRewardSystem.sol\":2670:2751  require(token.transfer(msg.sender, rewardAmount), \"Failed to distribute reward.\") */\n      tag_88\n      jumpi\n      mload(0x40)\n      0x08c379a000000000000000000000000000000000000000000000000000000000\n      dup2\n      mstore\n      0x04\n      add\n      tag_89\n      swap1\n      tag_90\n      jump\t// in\n    tag_89:\n      mload(0x40)\n      dup1\n      swap2\n      sub\n      swap1\n      revert\n    tag_88:\n        /* \"contracts/SurveyRewardSystem.sol\":2769:2830  SurveyAnswered(surveyCid, respondentHash, encryptedAnswerCid) */\n      0x2d233f452d91aed0a629e2b7f21a3deb523feb9f61d4bb8be2b5d8cc07de1251\n        /* \"contracts/SurveyRewardSystem.sol\":2784:2793  surveyCid */\n      dup6\n        /* \"contracts/SurveyRewardSystem.sol\":2795:2809  respondentHash */\n      dup5\n        /* \"contracts/SurveyRewardSystem.sol\":2811:2829  encryptedAnswerCid */\n      dup7\n        /* \"contracts/SurveyRewardSystem.sol\":2769:2830  SurveyAnswered(surveyCid, respondentHash, encryptedAnswerCid) */\n      mload(0x40)\n      tag_91\n      swap4\n      swap3\n      swap2\n      swap1\n      tag_92\n      jump\t// in\n    tag_91:\n      mload(0x40)\n      dup1\n      swap2\n      sub\n      swap1\n      log1\n        /* \"contracts/SurveyRewardSystem.sol\":2025:2838  {... */\n      pop\n      pop\n      pop\n        /* \"contracts/SurveyRewardSystem.sol\":1937:2838  function answerSurvey(string memory surveyCid, string memory encryptedAnswerCid) public {... */\n      pop\n      pop\n      jump\t// out\n        /* \"contracts/SurveyRewardSystem.sol\":1059:1929  function createSurvey(string memory surveyCid, uint256 individualReward, uint256 expectedRespondents, string memory encryptionKey) public {... */\n    tag_24:\n        /* \"contracts/SurveyRewardSystem.sol\":1217:1224  surveys */\n      0x01\n        /* \"contracts/SurveyRewardSystem.sol\":1225:1234  surveyCid */\n      dup5\n        /* \"contracts/SurveyRewardSystem.sol\":1217:1235  surveys[surveyCid] */\n      mload(0x40)\n      tag_94\n      swap2\n      swap1\n      tag_31\n      jump\t// in\n    tag_94:\n      swap1\n      dup2\n      mstore\n      0x20\n      add\n      mload(0x40)\n      dup1\n      swap2\n      sub\n      swap1\n      keccak256\n        /* \"contracts/SurveyRewardSystem.sol\":1217:1242  surveys[surveyCid].exists */\n      0x06\n      add\n      0x00\n      swap1\n      sload\n      swap1\n      0x0100\n      exp\n      swap1\n      div\n      0xff\n      and\n        /* \"contracts/SurveyRewardSystem.sol\":1216:1242  !surveys[surveyCid].exists */\n      iszero\n        /* \"contracts/SurveyRewardSystem.sol\":1208:1269  require(!surveys[surveyCid].exists, \"Survey already exists.\") */\n      tag_95\n      jumpi\n      mload(0x40)\n      0x08c379a000000000000000000000000000000000000000000000000000000000\n      dup2\n      mstore\n      0x04\n      add\n      tag_96\n      swap1\n      tag_97\n      jump\t// in\n    tag_96:\n      mload(0x40)\n      dup1\n      swap2\n      sub\n      swap1\n      revert\n    tag_95:\n        /* \"contracts/SurveyRewardSystem.sol\":1290:1311  Survey storage survey */\n      0x00\n        /* \"contracts/SurveyRewardSystem.sol\":1314:1321  surveys */\n      0x01\n        /* \"contracts/SurveyRewardSystem.sol\":1322:1331  surveyCid */\n      dup6\n        /* \"contracts/SurveyRewardSystem.sol\":1314:1332  surveys[surveyCid] */\n      mload(0x40)\n      tag_98\n      swap2\n      swap1\n      tag_31\n      jump\t// in\n    tag_98:\n      swap1\n      dup2\n      mstore\n      0x20\n      add\n      mload(0x40)\n      dup1\n      swap2\n      sub\n      swap1\n      keccak256\n        /* \"contracts/SurveyRewardSystem.sol\":1290:1332  Survey storage survey = surveys[surveyCid] */\n      swap1\n      pop\n        /* \"contracts/SurveyRewardSystem.sol\":1362:1371  surveyCid */\n      dup5\n        /* \"contracts/SurveyRewardSystem.sol\":1343:1349  survey */\n      dup2\n        /* \"contracts/SurveyRewardSystem.sol\":1343:1359  survey.surveyCid */\n      0x00\n      add\n        /* \"contracts/SurveyRewardSystem.sol\":1343:1371  survey.surveyCid = surveyCid */\n      swap1\n      dup2\n      tag_99\n      swap2\n      swap1\n      tag_81\n      jump\t// in\n    tag_99:\n      pop\n        /* \"contracts/SurveyRewardSystem.sol\":1408:1424  individualReward */\n      dup4\n        /* \"contracts/SurveyRewardSystem.sol\":1382:1388  survey */\n      dup2\n        /* \"contracts/SurveyRewardSystem.sol\":1382:1405  survey.individualReward */\n      0x01\n      add\n        /* \"contracts/SurveyRewardSystem.sol\":1382:1424  survey.individualReward = individualReward */\n      dup2\n      swap1\n      sstore\n      pop\n        /* \"contracts/SurveyRewardSystem.sol\":1464:1483  expectedRespondents */\n      dup3\n        /* \"contracts/SurveyRewardSystem.sol\":1435:1441  survey */\n      dup2\n        /* \"contracts/SurveyRewardSystem.sol\":1435:1461  survey.expectedRespondents */\n      0x02\n      add\n        /* \"contracts/SurveyRewardSystem.sol\":1435:1483  survey.expectedRespondents = expectedRespondents */\n      dup2\n      swap1\n      sstore\n      pop\n        /* \"contracts/SurveyRewardSystem.sol\":1521:1522  0 */\n      0x00\n        /* \"contracts/SurveyRewardSystem.sol\":1494:1500  survey */\n      dup2\n        /* \"contracts/SurveyRewardSystem.sol\":1494:1518  survey.actualRespondents */\n      0x03\n      add\n        /* \"contracts/SurveyRewardSystem.sol\":1494:1522  survey.actualRespondents = 0 */\n      dup2\n      swap1\n      sstore\n      pop\n        /* \"contracts/SurveyRewardSystem.sol\":1550:1560  msg.sender */\n      caller\n        /* \"contracts/SurveyRewardSystem.sol\":1533:1539  survey */\n      dup2\n        /* \"contracts/SurveyRewardSystem.sol\":1533:1547  survey.creator */\n      0x04\n      add\n      0x00\n        /* \"contracts/SurveyRewardSystem.sol\":1533:1560  survey.creator = msg.sender */\n      0x0100\n      exp\n      dup2\n      sload\n      dup2\n      0xffffffffffffffffffffffffffffffffffffffff\n      mul\n      not\n      and\n      swap1\n      dup4\n      0xffffffffffffffffffffffffffffffffffffffff\n      and\n      mul\n      or\n      swap1\n      sstore\n      pop\n        /* \"contracts/SurveyRewardSystem.sol\":1594:1607  encryptionKey */\n      dup2\n        /* \"contracts/SurveyRewardSystem.sol\":1571:1577  survey */\n      dup2\n        /* \"contracts/SurveyRewardSystem.sol\":1571:1591  survey.encryptionKey */\n      0x05\n      add\n        /* \"contracts/SurveyRewardSystem.sol\":1571:1607  survey.encryptionKey = encryptionKey */\n      swap1\n      dup2\n      tag_100\n      swap2\n      swap1\n      tag_81\n      jump\t// in\n    tag_100:\n      pop\n        /* \"contracts/SurveyRewardSystem.sol\":1634:1638  true */\n      0x01\n        /* \"contracts/SurveyRewardSystem.sol\":1618:1624  survey */\n      dup2\n        /* \"contracts/SurveyRewardSystem.sol\":1618:1631  survey.exists */\n      0x06\n      add\n      0x00\n        /* \"contracts/SurveyRewardSystem.sol\":1618:1638  survey.exists = true */\n      0x0100\n      exp\n      dup2\n      sload\n      dup2\n      0xff\n      mul\n      not\n      and\n      swap1\n      dup4\n      iszero\n      iszero\n      mul\n      or\n      swap1\n      sstore\n      pop\n        /* \"contracts/SurveyRewardSystem.sol\":1651:1669  uint256 rewardPool */\n      0x00\n        /* \"contracts/SurveyRewardSystem.sol\":1691:1710  expectedRespondents */\n      dup4\n        /* \"contracts/SurveyRewardSystem.sol\":1672:1688  individualReward */\n      dup6\n        /* \"contracts/SurveyRewardSystem.sol\":1672:1710  individualReward * expectedRespondents */\n      tag_101\n      swap2\n      swap1\n      tag_42\n      jump\t// in\n    tag_101:\n        /* \"contracts/SurveyRewardSystem.sol\":1651:1710  uint256 rewardPool = individualReward * expectedRespondents */\n      swap1\n      pop\n        /* \"contracts/SurveyRewardSystem.sol\":1729:1734  token */\n      0x00\n      dup1\n      sload\n      swap1\n      0x0100\n      exp\n      swap1\n      div\n      0xffffffffffffffffffffffffffffffffffffffff\n      and\n        /* \"contracts/SurveyRewardSystem.sol\":1729:1747  token.transferFrom */\n      0xffffffffffffffffffffffffffffffffffffffff\n      and\n      0x23b872dd\n        /* \"contracts/SurveyRewardSystem.sol\":1748:1758  msg.sender */\n      caller\n        /* \"contracts/SurveyRewardSystem.sol\":1768:1772  this */\n      address\n        /* \"contracts/SurveyRewardSystem.sol\":1775:1785  rewardPool */\n      dup5\n        /* \"contracts/SurveyRewardSystem.sol\":1729:1786  token.transferFrom(msg.sender, address(this), rewardPool) */\n      mload(0x40)\n      dup5\n      0xffffffff\n      and\n      0xe0\n      shl\n      dup2\n      mstore\n      0x04\n      add\n      tag_102\n      swap4\n      swap3\n      swap2\n      swap1\n      tag_103\n      jump\t// in\n    tag_102:\n      0x20\n      mload(0x40)\n      dup1\n      dup4\n      sub\n      dup2\n      0x00\n      dup8\n      gas\n      call\n      iszero\n      dup1\n      iszero\n      tag_105\n      jumpi\n      returndatasize\n      0x00\n      dup1\n      returndatacopy\n      revert(0x00, returndatasize)\n    tag_105:\n      pop\n      pop\n      pop\n      pop\n      mload(0x40)\n      returndatasize\n      not(0x1f)\n      0x1f\n      dup3\n      add\n      and\n      dup3\n      add\n      dup1\n      0x40\n      mstore\n      pop\n      dup2\n      add\n      swap1\n      tag_106\n      swap2\n      swap1\n      tag_48\n      jump\t// in\n    tag_106:\n        /* \"contracts/SurveyRewardSystem.sol\":1721:1821  require(token.transferFrom(msg.sender, address(this), rewardPool), \"Failed to lock survey rewards.\") */\n      tag_107\n      jumpi\n      mload(0x40)\n      0x08c379a000000000000000000000000000000000000000000000000000000000\n      dup2\n      mstore\n      0x04\n      add\n      tag_108\n      swap1\n      tag_109\n      jump\t// in\n    tag_108:\n      mload(0x40)\n      dup1\n      swap2\n      sub\n      swap1\n      revert\n    tag_107:\n        /* \"contracts/SurveyRewardSystem.sol\":1837:1921  SurveyCreated(surveyCid, rewardPool, expectedRespondents, encryptionKey, msg.sender) */\n      0x8723cdc1e702a6d604ab7836dd76d51ee5190e8aa5437910f8317d2e8f6a00b1\n        /* \"contracts/SurveyRewardSystem.sol\":1851:1860  surveyCid */\n      dup7\n        /* \"contracts/SurveyRewardSystem.sol\":1862:1872  rewardPool */\n      dup3\n        /* \"contracts/SurveyRewardSystem.sol\":1874:1893  expectedRespondents */\n      dup7\n        /* \"contracts/SurveyRewardSystem.sol\":1895:1908  encryptionKey */\n      dup7\n        /* \"contracts/SurveyRewardSystem.sol\":1910:1920  msg.sender */\n      caller\n        /* \"contracts/SurveyRewardSystem.sol\":1837:1921  SurveyCreated(surveyCid, rewardPool, expectedRespondents, encryptionKey, msg.sender) */\n      mload(0x40)\n      tag_110\n      swap6\n      swap5\n      swap4\n      swap3\n      swap2\n      swap1\n      tag_111\n      jump\t// in\n    tag_110:\n      mload(0x40)\n      dup1\n      swap2\n      sub\n      swap1\n      log1\n        /* \"contracts/SurveyRewardSystem.sol\":1197:1929  {... */\n      pop\n      pop\n        /* \"contracts/SurveyRewardSystem.sol\":1059:1929  function createSurvey(string memory surveyCid, uint256 individualReward, uint256 expectedRespondents, string memory encryptionKey) public {... */\n      pop\n      pop\n      pop\n      pop\n      jump\t// out\n        /* \"contracts/SurveyRewardSystem.sol\":219:238  IERC20 public token */\n    tag_26:\n      0x00\n      dup1\n      sload\n      swap1\n      0x0100\n      exp\n      swap1\n      div\n      0xffffffffffffffffffffffffffffffffffffffff\n      and\n      dup2\n      jump\t// out\n        /* \"#utility.yul\":7:82   */\n    tag_112:\n        /* \"#utility.yul\":40:46   */\n      0x00\n        /* \"#utility.yul\":73:75   */\n      0x40\n        /* \"#utility.yul\":67:76   */\n      mload\n        /* \"#utility.yul\":57:76   */\n      swap1\n      pop\n        /* \"#utility.yul\":7:82   */\n      swap1\n      jump\t// out\n        /* \"#utility.yul\":88:205   */\n    tag_113:\n        /* \"#utility.yul\":197:198   */\n      0x00\n        /* \"#utility.yul\":194:195   */\n      dup1\n        /* \"#utility.yul\":187:199   */\n      revert\n        /* \"#utility.yul\":211:328   */\n    tag_114:\n        /* \"#utility.yul\":320:321   */\n      0x00\n        /* \"#utility.yul\":317:318   */\n      dup1\n        /* \"#utility.yul\":310:322   */\n      revert\n        /* \"#utility.yul\":334:451   */\n    tag_115:\n        /* \"#utility.yul\":443:444   */\n      0x00\n        /* \"#utility.yul\":440:441   */\n      dup1\n        /* \"#utility.yul\":433:445   */\n      revert\n        /* \"#utility.yul\":457:574   */\n    tag_116:\n        /* \"#utility.yul\":566:567   */\n      0x00\n        /* \"#utility.yul\":563:564   */\n      dup1\n        /* \"#utility.yul\":556:568   */\n      revert\n        /* \"#utility.yul\":580:682   */\n    tag_117:\n        /* \"#utility.yul\":621:627   */\n      0x00\n        /* \"#utility.yul\":672:674   */\n      0x1f\n        /* \"#utility.yul\":668:675   */\n      not\n        /* \"#utility.yul\":663:665   */\n      0x1f\n        /* \"#utility.yul\":656:661   */\n      dup4\n        /* \"#utility.yul\":652:666   */\n      add\n        /* \"#utility.yul\":648:676   */\n      and\n        /* \"#utility.yul\":638:676   */\n      swap1\n      pop\n        /* \"#utility.yul\":580:682   */\n      swap2\n      swap1\n      pop\n      jump\t// out\n        /* \"#utility.yul\":688:868   */\n    tag_118:\n        /* \"#utility.yul\":736:813   */\n      0x4e487b7100000000000000000000000000000000000000000000000000000000\n        /* \"#utility.yul\":733:734   */\n      0x00\n        /* \"#utility.yul\":726:814   */\n      mstore\n        /* \"#utility.yul\":833:837   */\n      0x41\n        /* \"#utility.yul\":830:831   */\n      0x04\n        /* \"#utility.yul\":823:838   */\n      mstore\n        /* \"#utility.yul\":857:861   */\n      0x24\n        /* \"#utility.yul\":854:855   */\n      0x00\n        /* \"#utility.yul\":847:862   */\n      revert\n        /* \"#utility.yul\":874:1155   */\n    tag_119:\n        /* \"#utility.yul\":957:984   */\n      tag_194\n        /* \"#utility.yul\":979:983   */\n      dup3\n        /* \"#utility.yul\":957:984   */\n      tag_117\n      jump\t// in\n    tag_194:\n        /* \"#utility.yul\":949:955   */\n      dup2\n        /* \"#utility.yul\":945:985   */\n      add\n        /* \"#utility.yul\":1087:1093   */\n      dup2\n        /* \"#utility.yul\":1075:1085   */\n      dup2\n        /* \"#utility.yul\":1072:1094   */\n      lt\n        /* \"#utility.yul\":1051:1069   */\n      0xffffffffffffffff\n        /* \"#utility.yul\":1039:1049   */\n      dup3\n        /* \"#utility.yul\":1036:1070   */\n      gt\n        /* \"#utility.yul\":1033:1095   */\n      or\n        /* \"#utility.yul\":1030:1118   */\n      iszero\n      tag_195\n      jumpi\n        /* \"#utility.yul\":1098:1116   */\n      tag_196\n      tag_118\n      jump\t// in\n    tag_196:\n        /* \"#utility.yul\":1030:1118   */\n    tag_195:\n        /* \"#utility.yul\":1138:1148   */\n      dup1\n        /* \"#utility.yul\":1134:1136   */\n      0x40\n        /* \"#utility.yul\":1127:1149   */\n      mstore\n        /* \"#utility.yul\":917:1155   */\n      pop\n        /* \"#utility.yul\":874:1155   */\n      pop\n      pop\n      jump\t// out\n        /* \"#utility.yul\":1161:1290   */\n    tag_120:\n        /* \"#utility.yul\":1195:1201   */\n      0x00\n        /* \"#utility.yul\":1222:1242   */\n      tag_198\n      tag_112\n      jump\t// in\n    tag_198:\n        /* \"#utility.yul\":1212:1242   */\n      swap1\n      pop\n        /* \"#utility.yul\":1251:1284   */\n      tag_199\n        /* \"#utility.yul\":1279:1283   */\n      dup3\n        /* \"#utility.yul\":1271:1277   */\n      dup3\n        /* \"#utility.yul\":1251:1284   */\n      tag_119\n      jump\t// in\n    tag_199:\n        /* \"#utility.yul\":1161:1290   */\n      swap2\n      swap1\n      pop\n      jump\t// out\n        /* \"#utility.yul\":1296:1604   */\n    tag_121:\n        /* \"#utility.yul\":1358:1362   */\n      0x00\n        /* \"#utility.yul\":1448:1466   */\n      0xffffffffffffffff\n        /* \"#utility.yul\":1440:1446   */\n      dup3\n        /* \"#utility.yul\":1437:1467   */\n      gt\n        /* \"#utility.yul\":1434:1490   */\n      iszero\n      tag_201\n      jumpi\n        /* \"#utility.yul\":1470:1488   */\n      tag_202\n      tag_118\n      jump\t// in\n    tag_202:\n        /* \"#utility.yul\":1434:1490   */\n    tag_201:\n        /* \"#utility.yul\":1508:1537   */\n      tag_203\n        /* \"#utility.yul\":1530:1536   */\n      dup3\n        /* \"#utility.yul\":1508:1537   */\n      tag_117\n      jump\t// in\n    tag_203:\n        /* \"#utility.yul\":1500:1537   */\n      swap1\n      pop\n        /* \"#utility.yul\":1592:1596   */\n      0x20\n        /* \"#utility.yul\":1586:1590   */\n      dup2\n        /* \"#utility.yul\":1582:1597   */\n      add\n        /* \"#utility.yul\":1574:1597   */\n      swap1\n      pop\n        /* \"#utility.yul\":1296:1604   */\n      swap2\n      swap1\n      pop\n      jump\t// out\n        /* \"#utility.yul\":1610:1756   */\n    tag_122:\n        /* \"#utility.yul\":1707:1713   */\n      dup3\n        /* \"#utility.yul\":1702:1705   */\n      dup2\n        /* \"#utility.yul\":1697:1700   */\n      dup4\n        /* \"#utility.yul\":1684:1714   */\n      calldatacopy\n        /* \"#utility.yul\":1748:1749   */\n      0x00\n        /* \"#utility.yul\":1739:1745   */\n      dup4\n        /* \"#utility.yul\":1734:1737   */\n      dup4\n        /* \"#utility.yul\":1730:1746   */\n      add\n        /* \"#utility.yul\":1723:1750   */\n      mstore\n        /* \"#utility.yul\":1610:1756   */\n      pop\n      pop\n      pop\n      jump\t// out\n        /* \"#utility.yul\":1762:2187   */\n    tag_123:\n        /* \"#utility.yul\":1840:1845   */\n      0x00\n        /* \"#utility.yul\":1865:1931   */\n      tag_206\n        /* \"#utility.yul\":1881:1930   */\n      tag_207\n        /* \"#utility.yul\":1923:1929   */\n      dup5\n        /* \"#utility.yul\":1881:1930   */\n      tag_121\n      jump\t// in\n    tag_207:\n        /* \"#utility.yul\":1865:1931   */\n      tag_120\n      jump\t// in\n    tag_206:\n        /* \"#utility.yul\":1856:1931   */\n      swap1\n      pop\n        /* \"#utility.yul\":1954:1960   */\n      dup3\n        /* \"#utility.yul\":1947:1952   */\n      dup2\n        /* \"#utility.yul\":1940:1961   */\n      mstore\n        /* \"#utility.yul\":1992:1996   */\n      0x20\n        /* \"#utility.yul\":1985:1990   */\n      dup2\n        /* \"#utility.yul\":1981:1997   */\n      add\n        /* \"#utility.yul\":2030:2033   */\n      dup5\n        /* \"#utility.yul\":2021:2027   */\n      dup5\n        /* \"#utility.yul\":2016:2019   */\n      dup5\n        /* \"#utility.yul\":2012:2028   */\n      add\n        /* \"#utility.yul\":2009:2034   */\n      gt\n        /* \"#utility.yul\":2006:2118   */\n      iszero\n      tag_208\n      jumpi\n        /* \"#utility.yul\":2037:2116   */\n      tag_209\n      tag_116\n      jump\t// in\n    tag_209:\n        /* \"#utility.yul\":2006:2118   */\n    tag_208:\n        /* \"#utility.yul\":2127:2181   */\n      tag_210\n        /* \"#utility.yul\":2174:2180   */\n      dup5\n        /* \"#utility.yul\":2169:2172   */\n      dup3\n        /* \"#utility.yul\":2164:2167   */\n      dup6\n        /* \"#utility.yul\":2127:2181   */\n      tag_122\n      jump\t// in\n    tag_210:\n        /* \"#utility.yul\":1846:2187   */\n      pop\n        /* \"#utility.yul\":1762:2187   */\n      swap4\n      swap3\n      pop\n      pop\n      pop\n      jump\t// out\n        /* \"#utility.yul\":2207:2547   */\n    tag_124:\n        /* \"#utility.yul\":2263:2268   */\n      0x00\n        /* \"#utility.yul\":2312:2315   */\n      dup3\n        /* \"#utility.yul\":2305:2309   */\n      0x1f\n        /* \"#utility.yul\":2297:2303   */\n      dup4\n        /* \"#utility.yul\":2293:2310   */\n      add\n        /* \"#utility.yul\":2289:2316   */\n      slt\n        /* \"#utility.yul\":2279:2401   */\n      tag_212\n      jumpi\n        /* \"#utility.yul\":2320:2399   */\n      tag_213\n      tag_115\n      jump\t// in\n    tag_213:\n        /* \"#utility.yul\":2279:2401   */\n    tag_212:\n        /* \"#utility.yul\":2437:2443   */\n      dup2\n        /* \"#utility.yul\":2424:2444   */\n      calldataload\n        /* \"#utility.yul\":2462:2541   */\n      tag_214\n        /* \"#utility.yul\":2537:2540   */\n      dup5\n        /* \"#utility.yul\":2529:2535   */\n      dup3\n        /* \"#utility.yul\":2522:2526   */\n      0x20\n        /* \"#utility.yul\":2514:2520   */\n      dup7\n        /* \"#utility.yul\":2510:2527   */\n      add\n        /* \"#utility.yul\":2462:2541   */\n      tag_123\n      jump\t// in\n    tag_214:\n        /* \"#utility.yul\":2453:2541   */\n      swap2\n      pop\n        /* \"#utility.yul\":2269:2547   */\n      pop\n        /* \"#utility.yul\":2207:2547   */\n      swap3\n      swap2\n      pop\n      pop\n      jump\t// out\n        /* \"#utility.yul\":2553:3062   */\n    tag_10:\n        /* \"#utility.yul\":2622:2628   */\n      0x00\n        /* \"#utility.yul\":2671:2673   */\n      0x20\n        /* \"#utility.yul\":2659:2668   */\n      dup3\n        /* \"#utility.yul\":2650:2657   */\n      dup5\n        /* \"#utility.yul\":2646:2669   */\n      sub\n        /* \"#utility.yul\":2642:2674   */\n      slt\n        /* \"#utility.yul\":2639:2758   */\n      iszero\n      tag_216\n      jumpi\n        /* \"#utility.yul\":2677:2756   */\n      tag_217\n      tag_113\n      jump\t// in\n    tag_217:\n        /* \"#utility.yul\":2639:2758   */\n    tag_216:\n        /* \"#utility.yul\":2825:2826   */\n      0x00\n        /* \"#utility.yul\":2814:2823   */\n      dup3\n        /* \"#utility.yul\":2810:2827   */\n      add\n        /* \"#utility.yul\":2797:2828   */\n      calldataload\n        /* \"#utility.yul\":2855:2873   */\n      0xffffffffffffffff\n        /* \"#utility.yul\":2847:2853   */\n      dup2\n        /* \"#utility.yul\":2844:2874   */\n      gt\n        /* \"#utility.yul\":2841:2958   */\n      iszero\n      tag_218\n      jumpi\n        /* \"#utility.yul\":2877:2956   */\n      tag_219\n      tag_114\n      jump\t// in\n    tag_219:\n        /* \"#utility.yul\":2841:2958   */\n    tag_218:\n        /* \"#utility.yul\":2982:3045   */\n      tag_220\n        /* \"#utility.yul\":3037:3044   */\n      dup5\n        /* \"#utility.yul\":3028:3034   */\n      dup3\n        /* \"#utility.yul\":3017:3026   */\n      dup6\n        /* \"#utility.yul\":3013:3035   */\n      add\n        /* \"#utility.yul\":2982:3045   */\n      tag_124\n      jump\t// in\n    tag_220:\n        /* \"#utility.yul\":2972:3045   */\n      swap2\n      pop\n        /* \"#utility.yul\":2768:3055   */\n      pop\n        /* \"#utility.yul\":2553:3062   */\n      swap3\n      swap2\n      pop\n      pop\n      jump\t// out\n        /* \"#utility.yul\":3068:3167   */\n    tag_125:\n        /* \"#utility.yul\":3120:3126   */\n      0x00\n        /* \"#utility.yul\":3154:3159   */\n      dup2\n        /* \"#utility.yul\":3148:3160   */\n      mload\n        /* \"#utility.yul\":3138:3160   */\n      swap1\n      pop\n        /* \"#utility.yul\":3068:3167   */\n      swap2\n      swap1\n      pop\n      jump\t// out\n        /* \"#utility.yul\":3173:3342   */\n    tag_126:\n        /* \"#utility.yul\":3257:3268   */\n      0x00\n        /* \"#utility.yul\":3291:3297   */\n      dup3\n        /* \"#utility.yul\":3286:3289   */\n      dup3\n        /* \"#utility.yul\":3279:3298   */\n      mstore\n        /* \"#utility.yul\":3331:3335   */\n      0x20\n        /* \"#utility.yul\":3326:3329   */\n      dup3\n        /* \"#utility.yul\":3322:3336   */\n      add\n        /* \"#utility.yul\":3307:3336   */\n      swap1\n      pop\n        /* \"#utility.yul\":3173:3342   */\n      swap3\n      swap2\n      pop\n      pop\n      jump\t// out\n        /* \"#utility.yul\":3348:3594   */\n    tag_127:\n        /* \"#utility.yul\":3429:3430   */\n      0x00\n        /* \"#utility.yul\":3439:3552   */\n    tag_224:\n        /* \"#utility.yul\":3453:3459   */\n      dup4\n        /* \"#utility.yul\":3450:3451   */\n      dup2\n        /* \"#utility.yul\":3447:3460   */\n      lt\n        /* \"#utility.yul\":3439:3552   */\n      iszero\n      tag_226\n      jumpi\n        /* \"#utility.yul\":3538:3539   */\n      dup1\n        /* \"#utility.yul\":3533:3536   */\n      dup3\n        /* \"#utility.yul\":3529:3540   */\n      add\n        /* \"#utility.yul\":3523:3541   */\n      mload\n        /* \"#utility.yul\":3519:3520   */\n      dup2\n        /* \"#utility.yul\":3514:3517   */\n      dup5\n        /* \"#utility.yul\":3510:3521   */\n      add\n        /* \"#utility.yul\":3503:3542   */\n      mstore\n        /* \"#utility.yul\":3475:3477   */\n      0x20\n        /* \"#utility.yul\":3472:3473   */\n      dup2\n        /* \"#utility.yul\":3468:3478   */\n      add\n        /* \"#utility.yul\":3463:3478   */\n      swap1\n      pop\n        /* \"#utility.yul\":3439:3552   */\n      jump(tag_224)\n    tag_226:\n        /* \"#utility.yul\":3586:3587   */\n      0x00\n        /* \"#utility.yul\":3577:3583   */\n      dup5\n        /* \"#utility.yul\":3572:3575   */\n      dup5\n        /* \"#utility.yul\":3568:3584   */\n      add\n        /* \"#utility.yul\":3561:3588   */\n      mstore\n        /* \"#utility.yul\":3410:3594   */\n      pop\n        /* \"#utility.yul\":3348:3594   */\n      pop\n      pop\n      pop\n      jump\t// out\n        /* \"#utility.yul\":3600:3977   */\n    tag_128:\n        /* \"#utility.yul\":3688:3691   */\n      0x00\n        /* \"#utility.yul\":3716:3755   */\n      tag_228\n        /* \"#utility.yul\":3749:3754   */\n      dup3\n        /* \"#utility.yul\":3716:3755   */\n      tag_125\n      jump\t// in\n    tag_228:\n        /* \"#utility.yul\":3771:3842   */\n      tag_229\n        /* \"#utility.yul\":3835:3841   */\n      dup2\n        /* \"#utility.yul\":3830:3833   */\n      dup6\n        /* \"#utility.yul\":3771:3842   */\n      tag_126\n      jump\t// in\n    tag_229:\n        /* \"#utility.yul\":3764:3842   */\n      swap4\n      pop\n        /* \"#utility.yul\":3851:3916   */\n      tag_230\n        /* \"#utility.yul\":3909:3915   */\n      dup2\n        /* \"#utility.yul\":3904:3907   */\n      dup6\n        /* \"#utility.yul\":3897:3901   */\n      0x20\n        /* \"#utility.yul\":3890:3895   */\n      dup7\n        /* \"#utility.yul\":3886:3902   */\n      add\n        /* \"#utility.yul\":3851:3916   */\n      tag_127\n      jump\t// in\n    tag_230:\n        /* \"#utility.yul\":3941:3970   */\n      tag_231\n        /* \"#utility.yul\":3963:3969   */\n      dup2\n        /* \"#utility.yul\":3941:3970   */\n      tag_117\n      jump\t// in\n    tag_231:\n        /* \"#utility.yul\":3936:3939   */\n      dup5\n        /* \"#utility.yul\":3932:3971   */\n      add\n        /* \"#utility.yul\":3925:3971   */\n      swap2\n      pop\n        /* \"#utility.yul\":3692:3977   */\n      pop\n        /* \"#utility.yul\":3600:3977   */\n      swap3\n      swap2\n      pop\n      pop\n      jump\t// out\n        /* \"#utility.yul\":3983:4060   */\n    tag_129:\n        /* \"#utility.yul\":4020:4027   */\n      0x00\n        /* \"#utility.yul\":4049:4054   */\n      dup2\n        /* \"#utility.yul\":4038:4054   */\n      swap1\n      pop\n        /* \"#utility.yul\":3983:4060   */\n      swap2\n      swap1\n      pop\n      jump\t// out\n        /* \"#utility.yul\":4066:4184   */\n    tag_130:\n        /* \"#utility.yul\":4153:4177   */\n      tag_234\n        /* \"#utility.yul\":4171:4176   */\n      dup2\n        /* \"#utility.yul\":4153:4177   */\n      tag_129\n      jump\t// in\n    tag_234:\n        /* \"#utility.yul\":4148:4151   */\n      dup3\n        /* \"#utility.yul\":4141:4178   */\n      mstore\n        /* \"#utility.yul\":4066:4184   */\n      pop\n      pop\n      jump\t// out\n        /* \"#utility.yul\":4190:4316   */\n    tag_131:\n        /* \"#utility.yul\":4227:4234   */\n      0x00\n        /* \"#utility.yul\":4267:4309   */\n      0xffffffffffffffffffffffffffffffffffffffff\n        /* \"#utility.yul\":4260:4265   */\n      dup3\n        /* \"#utility.yul\":4256:4310   */\n      and\n        /* \"#utility.yul\":4245:4310   */\n      swap1\n      pop\n        /* \"#utility.yul\":4190:4316   */\n      swap2\n      swap1\n      pop\n      jump\t// out\n        /* \"#utility.yul\":4322:4418   */\n    tag_132:\n        /* \"#utility.yul\":4359:4366   */\n      0x00\n        /* \"#utility.yul\":4388:4412   */\n      tag_237\n        /* \"#utility.yul\":4406:4411   */\n      dup3\n        /* \"#utility.yul\":4388:4412   */\n      tag_131\n      jump\t// in\n    tag_237:\n        /* \"#utility.yul\":4377:4412   */\n      swap1\n      pop\n        /* \"#utility.yul\":4322:4418   */\n      swap2\n      swap1\n      pop\n      jump\t// out\n        /* \"#utility.yul\":4424:4542   */\n    tag_133:\n        /* \"#utility.yul\":4511:4535   */\n      tag_239\n        /* \"#utility.yul\":4529:4534   */\n      dup2\n        /* \"#utility.yul\":4511:4535   */\n      tag_132\n      jump\t// in\n    tag_239:\n        /* \"#utility.yul\":4506:4509   */\n      dup3\n        /* \"#utility.yul\":4499:4536   */\n      mstore\n        /* \"#utility.yul\":4424:4542   */\n      pop\n      pop\n      jump\t// out\n        /* \"#utility.yul\":4548:4638   */\n    tag_134:\n        /* \"#utility.yul\":4582:4589   */\n      0x00\n        /* \"#utility.yul\":4625:4630   */\n      dup2\n        /* \"#utility.yul\":4618:4631   */\n      iszero\n        /* \"#utility.yul\":4611:4632   */\n      iszero\n        /* \"#utility.yul\":4600:4632   */\n      swap1\n      pop\n        /* \"#utility.yul\":4548:4638   */\n      swap2\n      swap1\n      pop\n      jump\t// out\n        /* \"#utility.yul\":4644:4753   */\n    tag_135:\n        /* \"#utility.yul\":4725:4746   */\n      tag_242\n        /* \"#utility.yul\":4740:4745   */\n      dup2\n        /* \"#utility.yul\":4725:4746   */\n      tag_134\n      jump\t// in\n    tag_242:\n        /* \"#utility.yul\":4720:4723   */\n      dup3\n        /* \"#utility.yul\":4713:4747   */\n      mstore\n        /* \"#utility.yul\":4644:4753   */\n      pop\n      pop\n      jump\t// out\n        /* \"#utility.yul\":4759:5815   */\n    tag_16:\n        /* \"#utility.yul\":5054:5058   */\n      0x00\n        /* \"#utility.yul\":5092:5095   */\n      0xe0\n        /* \"#utility.yul\":5081:5090   */\n      dup3\n        /* \"#utility.yul\":5077:5096   */\n      add\n        /* \"#utility.yul\":5069:5096   */\n      swap1\n      pop\n        /* \"#utility.yul\":5142:5151   */\n      dup2\n        /* \"#utility.yul\":5136:5140   */\n      dup2\n        /* \"#utility.yul\":5132:5152   */\n      sub\n        /* \"#utility.yul\":5128:5129   */\n      0x00\n        /* \"#utility.yul\":5117:5126   */\n      dup4\n        /* \"#utility.yul\":5113:5130   */\n      add\n        /* \"#utility.yul\":5106:5153   */\n      mstore\n        /* \"#utility.yul\":5170:5248   */\n      tag_244\n        /* \"#utility.yul\":5243:5247   */\n      dup2\n        /* \"#utility.yul\":5234:5240   */\n      dup11\n        /* \"#utility.yul\":5170:5248   */\n      tag_128\n      jump\t// in\n    tag_244:\n        /* \"#utility.yul\":5162:5248   */\n      swap1\n      pop\n        /* \"#utility.yul\":5258:5330   */\n      tag_245\n        /* \"#utility.yul\":5326:5328   */\n      0x20\n        /* \"#utility.yul\":5315:5324   */\n      dup4\n        /* \"#utility.yul\":5311:5329   */\n      add\n        /* \"#utility.yul\":5302:5308   */\n      dup10\n        /* \"#utility.yul\":5258:5330   */\n      tag_130\n      jump\t// in\n    tag_245:\n        /* \"#utility.yul\":5340:5412   */\n      tag_246\n        /* \"#utility.yul\":5408:5410   */\n      0x40\n        /* \"#utility.yul\":5397:5406   */\n      dup4\n        /* \"#utility.yul\":5393:5411   */\n      add\n        /* \"#utility.yul\":5384:5390   */\n      dup9\n        /* \"#utility.yul\":5340:5412   */\n      tag_130\n      jump\t// in\n    tag_246:\n        /* \"#utility.yul\":5422:5494   */\n      tag_247\n        /* \"#utility.yul\":5490:5492   */\n      0x60\n        /* \"#utility.yul\":5479:5488   */\n      dup4\n        /* \"#utility.yul\":5475:5493   */\n      add\n        /* \"#utility.yul\":5466:5472   */\n      dup8\n        /* \"#utility.yul\":5422:5494   */\n      tag_130\n      jump\t// in\n    tag_247:\n        /* \"#utility.yul\":5504:5577   */\n      tag_248\n        /* \"#utility.yul\":5572:5575   */\n      0x80\n        /* \"#utility.yul\":5561:5570   */\n      dup4\n        /* \"#utility.yul\":5557:5576   */\n      add\n        /* \"#utility.yul\":5548:5554   */\n      dup7\n        /* \"#utility.yul\":5504:5577   */\n      tag_133\n      jump\t// in\n    tag_248:\n        /* \"#utility.yul\":5625:5634   */\n      dup2\n        /* \"#utility.yul\":5619:5623   */\n      dup2\n        /* \"#utility.yul\":5615:5635   */\n      sub\n        /* \"#utility.yul\":5609:5612   */\n      0xa0\n        /* \"#utility.yul\":5598:5607   */\n      dup4\n        /* \"#utility.yul\":5594:5613   */\n      add\n        /* \"#utility.yul\":5587:5636   */\n      mstore\n        /* \"#utility.yul\":5653:5731   */\n      tag_249\n        /* \"#utility.yul\":5726:5730   */\n      dup2\n        /* \"#utility.yul\":5717:5723   */\n      dup6\n        /* \"#utility.yul\":5653:5731   */\n      tag_128\n      jump\t// in\n    tag_249:\n        /* \"#utility.yul\":5645:5731   */\n      swap1\n      pop\n        /* \"#utility.yul\":5741:5808   */\n      tag_250\n        /* \"#utility.yul\":5803:5806   */\n      0xc0\n        /* \"#utility.yul\":5792:5801   */\n      dup4\n        /* \"#utility.yul\":5788:5807   */\n      add\n        /* \"#utility.yul\":5779:5785   */\n      dup5\n        /* \"#utility.yul\":5741:5808   */\n      tag_135\n      jump\t// in\n    tag_250:\n        /* \"#utility.yul\":4759:5815   */\n      swap9\n      swap8\n      pop\n      pop\n      pop\n      pop\n      pop\n      pop\n      pop\n      pop\n      jump\t// out\n        /* \"#utility.yul\":5821:6655   */\n    tag_19:\n        /* \"#utility.yul\":5909:5915   */\n      0x00\n        /* \"#utility.yul\":5917:5923   */\n      dup1\n        /* \"#utility.yul\":5966:5968   */\n      0x40\n        /* \"#utility.yul\":5954:5963   */\n      dup4\n        /* \"#utility.yul\":5945:5952   */\n      dup6\n        /* \"#utility.yul\":5941:5964   */\n      sub\n        /* \"#utility.yul\":5937:5969   */\n      slt\n        /* \"#utility.yul\":5934:6053   */\n      iszero\n      tag_252\n      jumpi\n        /* \"#utility.yul\":5972:6051   */\n      tag_253\n      tag_113\n      jump\t// in\n    tag_253:\n        /* \"#utility.yul\":5934:6053   */\n    tag_252:\n        /* \"#utility.yul\":6120:6121   */\n      0x00\n        /* \"#utility.yul\":6109:6118   */\n      dup4\n        /* \"#utility.yul\":6105:6122   */\n      add\n        /* \"#utility.yul\":6092:6123   */\n      calldataload\n        /* \"#utility.yul\":6150:6168   */\n      0xffffffffffffffff\n        /* \"#utility.yul\":6142:6148   */\n      dup2\n        /* \"#utility.yul\":6139:6169   */\n      gt\n        /* \"#utility.yul\":6136:6253   */\n      iszero\n      tag_254\n      jumpi\n        /* \"#utility.yul\":6172:6251   */\n      tag_255\n      tag_114\n      jump\t// in\n    tag_255:\n        /* \"#utility.yul\":6136:6253   */\n    tag_254:\n        /* \"#utility.yul\":6277:6340   */\n      tag_256\n        /* \"#utility.yul\":6332:6339   */\n      dup6\n        /* \"#utility.yul\":6323:6329   */\n      dup3\n        /* \"#utility.yul\":6312:6321   */\n      dup7\n        /* \"#utility.yul\":6308:6330   */\n      add\n        /* \"#utility.yul\":6277:6340   */\n      tag_124\n      jump\t// in\n    tag_256:\n        /* \"#utility.yul\":6267:6340   */\n      swap3\n      pop\n        /* \"#utility.yul\":6063:6350   */\n      pop\n        /* \"#utility.yul\":6417:6419   */\n      0x20\n        /* \"#utility.yul\":6406:6415   */\n      dup4\n        /* \"#utility.yul\":6402:6420   */\n      add\n        /* \"#utility.yul\":6389:6421   */\n      calldataload\n        /* \"#utility.yul\":6448:6466   */\n      0xffffffffffffffff\n        /* \"#utility.yul\":6440:6446   */\n      dup2\n        /* \"#utility.yul\":6437:6467   */\n      gt\n        /* \"#utility.yul\":6434:6551   */\n      iszero\n      tag_257\n      jumpi\n        /* \"#utility.yul\":6470:6549   */\n      tag_258\n      tag_114\n      jump\t// in\n    tag_258:\n        /* \"#utility.yul\":6434:6551   */\n    tag_257:\n        /* \"#utility.yul\":6575:6638   */\n      tag_259\n        /* \"#utility.yul\":6630:6637   */\n      dup6\n        /* \"#utility.yul\":6621:6627   */\n      dup3\n        /* \"#utility.yul\":6610:6619   */\n      dup7\n        /* \"#utility.yul\":6606:6628   */\n      add\n        /* \"#utility.yul\":6575:6638   */\n      tag_124\n      jump\t// in\n    tag_259:\n        /* \"#utility.yul\":6565:6638   */\n      swap2\n      pop\n        /* \"#utility.yul\":6360:6648   */\n      pop\n        /* \"#utility.yul\":5821:6655   */\n      swap3\n      pop\n      swap3\n      swap1\n      pop\n      jump\t// out\n        /* \"#utility.yul\":6661:6783   */\n    tag_136:\n        /* \"#utility.yul\":6734:6758   */\n      tag_261\n        /* \"#utility.yul\":6752:6757   */\n      dup2\n        /* \"#utility.yul\":6734:6758   */\n      tag_129\n      jump\t// in\n    tag_261:\n        /* \"#utility.yul\":6727:6732   */\n      dup2\n        /* \"#utility.yul\":6724:6759   */\n      eq\n        /* \"#utility.yul\":6714:6777   */\n      tag_262\n      jumpi\n        /* \"#utility.yul\":6773:6774   */\n      0x00\n        /* \"#utility.yul\":6770:6771   */\n      dup1\n        /* \"#utility.yul\":6763:6775   */\n      revert\n        /* \"#utility.yul\":6714:6777   */\n    tag_262:\n        /* \"#utility.yul\":6661:6783   */\n      pop\n      jump\t// out\n        /* \"#utility.yul\":6789:6928   */\n    tag_137:\n        /* \"#utility.yul\":6835:6840   */\n      0x00\n        /* \"#utility.yul\":6873:6879   */\n      dup2\n        /* \"#utility.yul\":6860:6880   */\n      calldataload\n        /* \"#utility.yul\":6851:6880   */\n      swap1\n      pop\n        /* \"#utility.yul\":6889:6922   */\n      tag_264\n        /* \"#utility.yul\":6916:6921   */\n      dup2\n        /* \"#utility.yul\":6889:6922   */\n      tag_136\n      jump\t// in\n    tag_264:\n        /* \"#utility.yul\":6789:6928   */\n      swap3\n      swap2\n      pop\n      pop\n      jump\t// out\n        /* \"#utility.yul\":6934:8059   */\n    tag_23:\n        /* \"#utility.yul\":7040:7046   */\n      0x00\n        /* \"#utility.yul\":7048:7054   */\n      dup1\n        /* \"#utility.yul\":7056:7062   */\n      0x00\n        /* \"#utility.yul\":7064:7070   */\n      dup1\n        /* \"#utility.yul\":7113:7116   */\n      0x80\n        /* \"#utility.yul\":7101:7110   */\n      dup6\n        /* \"#utility.yul\":7092:7099   */\n      dup8\n        /* \"#utility.yul\":7088:7111   */\n      sub\n        /* \"#utility.yul\":7084:7117   */\n      slt\n        /* \"#utility.yul\":7081:7201   */\n      iszero\n      tag_266\n      jumpi\n        /* \"#utility.yul\":7120:7199   */\n      tag_267\n      tag_113\n      jump\t// in\n    tag_267:\n        /* \"#utility.yul\":7081:7201   */\n    tag_266:\n        /* \"#utility.yul\":7268:7269   */\n      0x00\n        /* \"#utility.yul\":7257:7266   */\n      dup6\n        /* \"#utility.yul\":7253:7270   */\n      add\n        /* \"#utility.yul\":7240:7271   */\n      calldataload\n        /* \"#utility.yul\":7298:7316   */\n      0xffffffffffffffff\n        /* \"#utility.yul\":7290:7296   */\n      dup2\n        /* \"#utility.yul\":7287:7317   */\n      gt\n        /* \"#utility.yul\":7284:7401   */\n      iszero\n      tag_268\n      jumpi\n        /* \"#utility.yul\":7320:7399   */\n      tag_269\n      tag_114\n      jump\t// in\n    tag_269:\n        /* \"#utility.yul\":7284:7401   */\n    tag_268:\n        /* \"#utility.yul\":7425:7488   */\n      tag_270\n        /* \"#utility.yul\":7480:7487   */\n      dup8\n        /* \"#utility.yul\":7471:7477   */\n      dup3\n        /* \"#utility.yul\":7460:7469   */\n      dup9\n        /* \"#utility.yul\":7456:7478   */\n      add\n        /* \"#utility.yul\":7425:7488   */\n      tag_124\n      jump\t// in\n    tag_270:\n        /* \"#utility.yul\":7415:7488   */\n      swap5\n      pop\n        /* \"#utility.yul\":7211:7498   */\n      pop\n        /* \"#utility.yul\":7537:7539   */\n      0x20\n        /* \"#utility.yul\":7563:7616   */\n      tag_271\n        /* \"#utility.yul\":7608:7615   */\n      dup8\n        /* \"#utility.yul\":7599:7605   */\n      dup3\n        /* \"#utility.yul\":7588:7597   */\n      dup9\n        /* \"#utility.yul\":7584:7606   */\n      add\n        /* \"#utility.yul\":7563:7616   */\n      tag_137\n      jump\t// in\n    tag_271:\n        /* \"#utility.yul\":7553:7616   */\n      swap4\n      pop\n        /* \"#utility.yul\":7508:7626   */\n      pop\n        /* \"#utility.yul\":7665:7667   */\n      0x40\n        /* \"#utility.yul\":7691:7744   */\n      tag_272\n        /* \"#utility.yul\":7736:7743   */\n      dup8\n        /* \"#utility.yul\":7727:7733   */\n      dup3\n        /* \"#utility.yul\":7716:7725   */\n      dup9\n        /* \"#utility.yul\":7712:7734   */\n      add\n        /* \"#utility.yul\":7691:7744   */\n      tag_137\n      jump\t// in\n    tag_272:\n        /* \"#utility.yul\":7681:7744   */\n      swap3\n      pop\n        /* \"#utility.yul\":7636:7754   */\n      pop\n        /* \"#utility.yul\":7821:7823   */\n      0x60\n        /* \"#utility.yul\":7810:7819   */\n      dup6\n        /* \"#utility.yul\":7806:7824   */\n      add\n        /* \"#utility.yul\":7793:7825   */\n      calldataload\n        /* \"#utility.yul\":7852:7870   */\n      0xffffffffffffffff\n        /* \"#utility.yul\":7844:7850   */\n      dup2\n        /* \"#utility.yul\":7841:7871   */\n      gt\n        /* \"#utility.yul\":7838:7955   */\n      iszero\n      tag_273\n      jumpi\n        /* \"#utility.yul\":7874:7953   */\n      tag_274\n      tag_114\n      jump\t// in\n    tag_274:\n        /* \"#utility.yul\":7838:7955   */\n    tag_273:\n        /* \"#utility.yul\":7979:8042   */\n      tag_275\n        /* \"#utility.yul\":8034:8041   */\n      dup8\n        /* \"#utility.yul\":8025:8031   */\n      dup3\n        /* \"#utility.yul\":8014:8023   */\n      dup9\n        /* \"#utility.yul\":8010:8032   */\n      add\n        /* \"#utility.yul\":7979:8042   */\n      tag_124\n      jump\t// in\n    tag_275:\n        /* \"#utility.yul\":7969:8042   */\n      swap2\n      pop\n        /* \"#utility.yul\":7764:8052   */\n      pop\n        /* \"#utility.yul\":6934:8059   */\n      swap3\n      swap6\n      swap2\n      swap5\n      pop\n      swap3\n      pop\n      jump\t// out\n        /* \"#utility.yul\":8065:8125   */\n    tag_138:\n        /* \"#utility.yul\":8093:8096   */\n      0x00\n        /* \"#utility.yul\":8114:8119   */\n      dup2\n        /* \"#utility.yul\":8107:8119   */\n      swap1\n      pop\n        /* \"#utility.yul\":8065:8125   */\n      swap2\n      swap1\n      pop\n      jump\t// out\n        /* \"#utility.yul\":8131:8273   */\n    tag_139:\n        /* \"#utility.yul\":8181:8190   */\n      0x00\n        /* \"#utility.yul\":8214:8267   */\n      tag_278\n        /* \"#utility.yul\":8232:8266   */\n      tag_279\n        /* \"#utility.yul\":8241:8265   */\n      tag_280\n        /* \"#utility.yul\":8259:8264   */\n      dup5\n        /* \"#utility.yul\":8241:8265   */\n      tag_131\n      jump\t// in\n    tag_280:\n        /* \"#utility.yul\":8232:8266   */\n      tag_138\n      jump\t// in\n    tag_279:\n        /* \"#utility.yul\":8214:8267   */\n      tag_131\n      jump\t// in\n    tag_278:\n        /* \"#utility.yul\":8201:8267   */\n      swap1\n      pop\n        /* \"#utility.yul\":8131:8273   */\n      swap2\n      swap1\n      pop\n      jump\t// out\n        /* \"#utility.yul\":8279:8405   */\n    tag_140:\n        /* \"#utility.yul\":8329:8338   */\n      0x00\n        /* \"#utility.yul\":8362:8399   */\n      tag_282\n        /* \"#utility.yul\":8393:8398   */\n      dup3\n        /* \"#utility.yul\":8362:8399   */\n      tag_139\n      jump\t// in\n    tag_282:\n        /* \"#utility.yul\":8349:8399   */\n      swap1\n      pop\n        /* \"#utility.yul\":8279:8405   */\n      swap2\n      swap1\n      pop\n      jump\t// out\n        /* \"#utility.yul\":8411:8550   */\n    tag_141:\n        /* \"#utility.yul\":8474:8483   */\n      0x00\n        /* \"#utility.yul\":8507:8544   */\n      tag_284\n        /* \"#utility.yul\":8538:8543   */\n      dup3\n        /* \"#utility.yul\":8507:8544   */\n      tag_140\n      jump\t// in\n    tag_284:\n        /* \"#utility.yul\":8494:8544   */\n      swap1\n      pop\n        /* \"#utility.yul\":8411:8550   */\n      swap2\n      swap1\n      pop\n      jump\t// out\n        /* \"#utility.yul\":8556:8713   */\n    tag_142:\n        /* \"#utility.yul\":8656:8706   */\n      tag_286\n        /* \"#utility.yul\":8700:8705   */\n      dup2\n        /* \"#utility.yul\":8656:8706   */\n      tag_141\n      jump\t// in\n    tag_286:\n        /* \"#utility.yul\":8651:8654   */\n      dup3\n        /* \"#utility.yul\":8644:8707   */\n      mstore\n        /* \"#utility.yul\":8556:8713   */\n      pop\n      pop\n      jump\t// out\n        /* \"#utility.yul\":8719:8967   */\n    tag_28:\n        /* \"#utility.yul\":8825:8829   */\n      0x00\n        /* \"#utility.yul\":8863:8865   */\n      0x20\n        /* \"#utility.yul\":8852:8861   */\n      dup3\n        /* \"#utility.yul\":8848:8866   */\n      add\n        /* \"#utility.yul\":8840:8866   */\n      swap1\n      pop\n        /* \"#utility.yul\":8876:8960   */\n      tag_288\n        /* \"#utility.yul\":8957:8958   */\n      0x00\n        /* \"#utility.yul\":8946:8955   */\n      dup4\n        /* \"#utility.yul\":8942:8959   */\n      add\n        /* \"#utility.yul\":8933:8939   */\n      dup5\n        /* \"#utility.yul\":8876:8960   */\n      tag_142\n      jump\t// in\n    tag_288:\n        /* \"#utility.yul\":8719:8967   */\n      swap3\n      swap2\n      pop\n      pop\n      jump\t// out\n        /* \"#utility.yul\":8973:9121   */\n    tag_143:\n        /* \"#utility.yul\":9075:9086   */\n      0x00\n        /* \"#utility.yul\":9112:9115   */\n      dup2\n        /* \"#utility.yul\":9097:9115   */\n      swap1\n      pop\n        /* \"#utility.yul\":8973:9121   */\n      swap3\n      swap2\n      pop\n      pop\n      jump\t// out\n        /* \"#utility.yul\":9127:9517   */\n    tag_144:\n        /* \"#utility.yul\":9233:9236   */\n      0x00\n        /* \"#utility.yul\":9261:9300   */\n      tag_291\n        /* \"#utility.yul\":9294:9299   */\n      dup3\n        /* \"#utility.yul\":9261:9300   */\n      tag_125\n      jump\t// in\n    tag_291:\n        /* \"#utility.yul\":9316:9405   */\n      tag_292\n        /* \"#utility.yul\":9398:9404   */\n      dup2\n        /* \"#utility.yul\":9393:9396   */\n      dup6\n        /* \"#utility.yul\":9316:9405   */\n      tag_143\n      jump\t// in\n    tag_292:\n        /* \"#utility.yul\":9309:9405   */\n      swap4\n      pop\n        /* \"#utility.yul\":9414:9479   */\n      tag_293\n        /* \"#utility.yul\":9472:9478   */\n      dup2\n        /* \"#utility.yul\":9467:9470   */\n      dup6\n        /* \"#utility.yul\":9460:9464   */\n      0x20\n        /* \"#utility.yul\":9453:9458   */\n      dup7\n        /* \"#utility.yul\":9449:9465   */\n      add\n        /* \"#utility.yul\":9414:9479   */\n      tag_127\n      jump\t// in\n    tag_293:\n        /* \"#utility.yul\":9504:9510   */\n      dup1\n        /* \"#utility.yul\":9499:9502   */\n      dup5\n        /* \"#utility.yul\":9495:9511   */\n      add\n        /* \"#utility.yul\":9488:9511   */\n      swap2\n      pop\n        /* \"#utility.yul\":9237:9517   */\n      pop\n        /* \"#utility.yul\":9127:9517   */\n      swap3\n      swap2\n      pop\n      pop\n      jump\t// out\n        /* \"#utility.yul\":9523:9798   */\n    tag_31:\n        /* \"#utility.yul\":9655:9658   */\n      0x00\n        /* \"#utility.yul\":9677:9772   */\n      tag_295\n        /* \"#utility.yul\":9768:9771   */\n      dup3\n        /* \"#utility.yul\":9759:9765   */\n      dup5\n        /* \"#utility.yul\":9677:9772   */\n      tag_144\n      jump\t// in\n    tag_295:\n        /* \"#utility.yul\":9670:9772   */\n      swap2\n      pop\n        /* \"#utility.yul\":9789:9792   */\n      dup2\n        /* \"#utility.yul\":9782:9792   */\n      swap1\n      pop\n        /* \"#utility.yul\":9523:9798   */\n      swap3\n      swap2\n      pop\n      pop\n      jump\t// out\n        /* \"#utility.yul\":9804:9976   */\n    tag_145:\n        /* \"#utility.yul\":9944:9968   */\n      0x53757276657920646f6573206e6f742065786973742e00000000000000000000\n        /* \"#utility.yul\":9940:9941   */\n      0x00\n        /* \"#utility.yul\":9932:9938   */\n      dup3\n        /* \"#utility.yul\":9928:9942   */\n      add\n        /* \"#utility.yul\":9921:9969   */\n      mstore\n        /* \"#utility.yul\":9804:9976   */\n      pop\n      jump\t// out\n        /* \"#utility.yul\":9982:10348   */\n    tag_146:\n        /* \"#utility.yul\":10124:10127   */\n      0x00\n        /* \"#utility.yul\":10145:10212   */\n      tag_298\n        /* \"#utility.yul\":10209:10211   */\n      0x16\n        /* \"#utility.yul\":10204:10207   */\n      dup4\n        /* \"#utility.yul\":10145:10212   */\n      tag_126\n      jump\t// in\n    tag_298:\n        /* \"#utility.yul\":10138:10212   */\n      swap2\n      pop\n        /* \"#utility.yul\":10221:10314   */\n      tag_299\n        /* \"#utility.yul\":10310:10313   */\n      dup3\n        /* \"#utility.yul\":10221:10314   */\n      tag_145\n      jump\t// in\n    tag_299:\n        /* \"#utility.yul\":10339:10341   */\n      0x20\n        /* \"#utility.yul\":10334:10337   */\n      dup3\n        /* \"#utility.yul\":10330:10342   */\n      add\n        /* \"#utility.yul\":10323:10342   */\n      swap1\n      pop\n        /* \"#utility.yul\":9982:10348   */\n      swap2\n      swap1\n      pop\n      jump\t// out\n        /* \"#utility.yul\":10354:10773   */\n    tag_34:\n        /* \"#utility.yul\":10520:10524   */\n      0x00\n        /* \"#utility.yul\":10558:10560   */\n      0x20\n        /* \"#utility.yul\":10547:10556   */\n      dup3\n        /* \"#utility.yul\":10543:10561   */\n      add\n        /* \"#utility.yul\":10535:10561   */\n      swap1\n      pop\n        /* \"#utility.yul\":10607:10616   */\n      dup2\n        /* \"#utility.yul\":10601:10605   */\n      dup2\n        /* \"#utility.yul\":10597:10617   */\n      sub\n        /* \"#utility.yul\":10593:10594   */\n      0x00\n        /* \"#utility.yul\":10582:10591   */\n      dup4\n        /* \"#utility.yul\":10578:10595   */\n      add\n        /* \"#utility.yul\":10571:10618   */\n      mstore\n        /* \"#utility.yul\":10635:10766   */\n      tag_301\n        /* \"#utility.yul\":10761:10765   */\n      dup2\n        /* \"#utility.yul\":10635:10766   */\n      tag_146\n      jump\t// in\n    tag_301:\n        /* \"#utility.yul\":10627:10766   */\n      swap1\n      pop\n        /* \"#utility.yul\":10354:10773   */\n      swap2\n      swap1\n      pop\n      jump\t// out\n        /* \"#utility.yul\":10779:11012   */\n    tag_147:\n        /* \"#utility.yul\":10919:10953   */\n      0x4f6e6c7920746865207375727665792063726561746f722063616e2063616e63\n        /* \"#utility.yul\":10915:10916   */\n      0x00\n        /* \"#utility.yul\":10907:10913   */\n      dup3\n        /* \"#utility.yul\":10903:10917   */\n      add\n        /* \"#utility.yul\":10896:10954   */\n      mstore\n        /* \"#utility.yul\":10988:11004   */\n      0x656c20746865207375727665792e000000000000000000000000000000000000\n        /* \"#utility.yul\":10983:10985   */\n      0x20\n        /* \"#utility.yul\":10975:10981   */\n      dup3\n        /* \"#utility.yul\":10971:10986   */\n      add\n        /* \"#utility.yul\":10964:11005   */\n      mstore\n        /* \"#utility.yul\":10779:11012   */\n      pop\n      jump\t// out\n        /* \"#utility.yul\":11018:11384   */\n    tag_148:\n        /* \"#utility.yul\":11160:11163   */\n      0x00\n        /* \"#utility.yul\":11181:11248   */\n      tag_304\n        /* \"#utility.yul\":11245:11247   */\n      0x2e\n        /* \"#utility.yul\":11240:11243   */\n      dup4\n        /* \"#utility.yul\":11181:11248   */\n      tag_126\n      jump\t// in\n    tag_304:\n        /* \"#utility.yul\":11174:11248   */\n      swap2\n      pop\n        /* \"#utility.yul\":11257:11350   */\n      tag_305\n        /* \"#utility.yul\":11346:11349   */\n      dup3\n        /* \"#utility.yul\":11257:11350   */\n      tag_147\n      jump\t// in\n    tag_305:\n        /* \"#utility.yul\":11375:11377   */\n      0x40\n        /* \"#utility.yul\":11370:11373   */\n      dup3\n        /* \"#utility.yul\":11366:11378   */\n      add\n        /* \"#utility.yul\":11359:11378   */\n      swap1\n      pop\n        /* \"#utility.yul\":11018:11384   */\n      swap2\n      swap1\n      pop\n      jump\t// out\n        /* \"#utility.yul\":11390:11809   */\n    tag_38:\n        /* \"#utility.yul\":11556:11560   */\n      0x00\n        /* \"#utility.yul\":11594:11596   */\n      0x20\n        /* \"#utility.yul\":11583:11592   */\n      dup3\n        /* \"#utility.yul\":11579:11597   */\n      add\n        /* \"#utility.yul\":11571:11597   */\n      swap1\n      pop\n        /* \"#utility.yul\":11643:11652   */\n      dup2\n        /* \"#utility.yul\":11637:11641   */\n      dup2\n        /* \"#utility.yul\":11633:11653   */\n      sub\n        /* \"#utility.yul\":11629:11630   */\n      0x00\n        /* \"#utility.yul\":11618:11627   */\n      dup4\n        /* \"#utility.yul\":11614:11631   */\n      add\n        /* \"#utility.yul\":11607:11654   */\n      mstore\n        /* \"#utility.yul\":11671:11802   */\n      tag_307\n        /* \"#utility.yul\":11797:11801   */\n      dup2\n        /* \"#utility.yul\":11671:11802   */\n      tag_148\n      jump\t// in\n    tag_307:\n        /* \"#utility.yul\":11663:11802   */\n      swap1\n      pop\n        /* \"#utility.yul\":11390:11809   */\n      swap2\n      swap1\n      pop\n      jump\t// out\n        /* \"#utility.yul\":11815:11995   */\n    tag_149:\n        /* \"#utility.yul\":11863:11940   */\n      0x4e487b7100000000000000000000000000000000000000000000000000000000\n        /* \"#utility.yul\":11860:11861   */\n      0x00\n        /* \"#utility.yul\":11853:11941   */\n      mstore\n        /* \"#utility.yul\":11960:11964   */\n      0x11\n        /* \"#utility.yul\":11957:11958   */\n      0x04\n        /* \"#utility.yul\":11950:11965   */\n      mstore\n        /* \"#utility.yul\":11984:11988   */\n      0x24\n        /* \"#utility.yul\":11981:11982   */\n      0x00\n        /* \"#utility.yul\":11974:11989   */\n      revert\n        /* \"#utility.yul\":12001:12195   */\n    tag_40:\n        /* \"#utility.yul\":12041:12045   */\n      0x00\n        /* \"#utility.yul\":12061:12081   */\n      tag_310\n        /* \"#utility.yul\":12079:12080   */\n      dup3\n        /* \"#utility.yul\":12061:12081   */\n      tag_129\n      jump\t// in\n    tag_310:\n        /* \"#utility.yul\":12056:12081   */\n      swap2\n      pop\n        /* \"#utility.yul\":12095:12115   */\n      tag_311\n        /* \"#utility.yul\":12113:12114   */\n      dup4\n        /* \"#utility.yul\":12095:12115   */\n      tag_129\n      jump\t// in\n    tag_311:\n        /* \"#utility.yul\":12090:12115   */\n      swap3\n      pop\n        /* \"#utility.yul\":12139:12140   */\n      dup3\n        /* \"#utility.yul\":12136:12137   */\n      dup3\n        /* \"#utility.yul\":12132:12141   */\n      sub\n        /* \"#utility.yul\":12124:12141   */\n      swap1\n      pop\n        /* \"#utility.yul\":12163:12164   */\n      dup2\n        /* \"#utility.yul\":12157:12161   */\n      dup2\n        /* \"#utility.yul\":12154:12165   */\n      gt\n        /* \"#utility.yul\":12151:12188   */\n      iszero\n      tag_312\n      jumpi\n        /* \"#utility.yul\":12168:12186   */\n      tag_313\n      tag_149\n      jump\t// in\n    tag_313:\n        /* \"#utility.yul\":12151:12188   */\n    tag_312:\n        /* \"#utility.yul\":12001:12195   */\n      swap3\n      swap2\n      pop\n      pop\n      jump\t// out\n        /* \"#utility.yul\":12201:12611   */\n    tag_42:\n        /* \"#utility.yul\":12241:12248   */\n      0x00\n        /* \"#utility.yul\":12264:12284   */\n      tag_315\n        /* \"#utility.yul\":12282:12283   */\n      dup3\n        /* \"#utility.yul\":12264:12284   */\n      tag_129\n      jump\t// in\n    tag_315:\n        /* \"#utility.yul\":12259:12284   */\n      swap2\n      pop\n        /* \"#utility.yul\":12298:12318   */\n      tag_316\n        /* \"#utility.yul\":12316:12317   */\n      dup4\n        /* \"#utility.yul\":12298:12318   */\n      tag_129\n      jump\t// in\n    tag_316:\n        /* \"#utility.yul\":12293:12318   */\n      swap3\n      pop\n        /* \"#utility.yul\":12353:12354   */\n      dup3\n        /* \"#utility.yul\":12350:12351   */\n      dup3\n        /* \"#utility.yul\":12346:12355   */\n      mul\n        /* \"#utility.yul\":12375:12405   */\n      tag_317\n        /* \"#utility.yul\":12393:12404   */\n      dup2\n        /* \"#utility.yul\":12375:12405   */\n      tag_129\n      jump\t// in\n    tag_317:\n        /* \"#utility.yul\":12364:12405   */\n      swap2\n      pop\n        /* \"#utility.yul\":12554:12555   */\n      dup3\n        /* \"#utility.yul\":12545:12552   */\n      dup3\n        /* \"#utility.yul\":12541:12556   */\n      div\n        /* \"#utility.yul\":12538:12539   */\n      dup5\n        /* \"#utility.yul\":12535:12557   */\n      eq\n        /* \"#utility.yul\":12515:12516   */\n      dup4\n        /* \"#utility.yul\":12508:12517   */\n      iszero\n        /* \"#utility.yul\":12488:12571   */\n      or\n        /* \"#utility.yul\":12465:12604   */\n      tag_318\n      jumpi\n        /* \"#utility.yul\":12584:12602   */\n      tag_319\n      tag_149\n      jump\t// in\n    tag_319:\n        /* \"#utility.yul\":12465:12604   */\n    tag_318:\n        /* \"#utility.yul\":12249:12611   */\n      pop\n        /* \"#utility.yul\":12201:12611   */\n      swap3\n      swap2\n      pop\n      pop\n      jump\t// out\n        /* \"#utility.yul\":12617:12949   */\n    tag_44:\n        /* \"#utility.yul\":12738:12742   */\n      0x00\n        /* \"#utility.yul\":12776:12778   */\n      0x40\n        /* \"#utility.yul\":12765:12774   */\n      dup3\n        /* \"#utility.yul\":12761:12779   */\n      add\n        /* \"#utility.yul\":12753:12779   */\n      swap1\n      pop\n        /* \"#utility.yul\":12789:12860   */\n      tag_321\n        /* \"#utility.yul\":12857:12858   */\n      0x00\n        /* \"#utility.yul\":12846:12855   */\n      dup4\n        /* \"#utility.yul\":12842:12859   */\n      add\n        /* \"#utility.yul\":12833:12839   */\n      dup6\n        /* \"#utility.yul\":12789:12860   */\n      tag_133\n      jump\t// in\n    tag_321:\n        /* \"#utility.yul\":12870:12942   */\n      tag_322\n        /* \"#utility.yul\":12938:12940   */\n      0x20\n        /* \"#utility.yul\":12927:12936   */\n      dup4\n        /* \"#utility.yul\":12923:12941   */\n      add\n        /* \"#utility.yul\":12914:12920   */\n      dup5\n        /* \"#utility.yul\":12870:12942   */\n      tag_130\n      jump\t// in\n    tag_322:\n        /* \"#utility.yul\":12617:12949   */\n      swap4\n      swap3\n      pop\n      pop\n      pop\n      jump\t// out\n        /* \"#utility.yul\":12955:13071   */\n    tag_150:\n        /* \"#utility.yul\":13025:13046   */\n      tag_324\n        /* \"#utility.yul\":13040:13045   */\n      dup2\n        /* \"#utility.yul\":13025:13046   */\n      tag_134\n      jump\t// in\n    tag_324:\n        /* \"#utility.yul\":13018:13023   */\n      dup2\n        /* \"#utility.yul\":13015:13047   */\n      eq\n        /* \"#utility.yul\":13005:13065   */\n      tag_325\n      jumpi\n        /* \"#utility.yul\":13061:13062   */\n      0x00\n        /* \"#utility.yul\":13058:13059   */\n      dup1\n        /* \"#utility.yul\":13051:13063   */\n      revert\n        /* \"#utility.yul\":13005:13065   */\n    tag_325:\n        /* \"#utility.yul\":12955:13071   */\n      pop\n      jump\t// out\n        /* \"#utility.yul\":13077:13214   */\n    tag_151:\n        /* \"#utility.yul\":13131:13136   */\n      0x00\n        /* \"#utility.yul\":13162:13168   */\n      dup2\n        /* \"#utility.yul\":13156:13169   */\n      mload\n        /* \"#utility.yul\":13147:13169   */\n      swap1\n      pop\n        /* \"#utility.yul\":13178:13208   */\n      tag_327\n        /* \"#utility.yul\":13202:13207   */\n      dup2\n        /* \"#utility.yul\":13178:13208   */\n      tag_150\n      jump\t// in\n    tag_327:\n        /* \"#utility.yul\":13077:13214   */\n      swap3\n      swap2\n      pop\n      pop\n      jump\t// out\n        /* \"#utility.yul\":13220:13565   */\n    tag_48:\n        /* \"#utility.yul\":13287:13293   */\n      0x00\n        /* \"#utility.yul\":13336:13338   */\n      0x20\n        /* \"#utility.yul\":13324:13333   */\n      dup3\n        /* \"#utility.yul\":13315:13322   */\n      dup5\n        /* \"#utility.yul\":13311:13334   */\n      sub\n        /* \"#utility.yul\":13307:13339   */\n      slt\n        /* \"#utility.yul\":13304:13423   */\n      iszero\n      tag_329\n      jumpi\n        /* \"#utility.yul\":13342:13421   */\n      tag_330\n      tag_113\n      jump\t// in\n    tag_330:\n        /* \"#utility.yul\":13304:13423   */\n    tag_329:\n        /* \"#utility.yul\":13462:13463   */\n      0x00\n        /* \"#utility.yul\":13487:13548   */\n      tag_331\n        /* \"#utility.yul\":13540:13547   */\n      dup5\n        /* \"#utility.yul\":13531:13537   */\n      dup3\n        /* \"#utility.yul\":13520:13529   */\n      dup6\n        /* \"#utility.yul\":13516:13538   */\n      add\n        /* \"#utility.yul\":13487:13548   */\n      tag_151\n      jump\t// in\n    tag_331:\n        /* \"#utility.yul\":13477:13548   */\n      swap2\n      pop\n        /* \"#utility.yul\":13433:13558   */\n      pop\n        /* \"#utility.yul\":13220:13565   */\n      swap3\n      swap2\n      pop\n      pop\n      jump\t// out\n        /* \"#utility.yul\":13571:13793   */\n    tag_152:\n        /* \"#utility.yul\":13711:13745   */\n      0x4661696c656420746f2072657475726e2072656d61696e696e67207265776172\n        /* \"#utility.yul\":13707:13708   */\n      0x00\n        /* \"#utility.yul\":13699:13705   */\n      dup3\n        /* \"#utility.yul\":13695:13709   */\n      add\n        /* \"#utility.yul\":13688:13746   */\n      mstore\n        /* \"#utility.yul\":13780:13785   */\n      0x64732e0000000000000000000000000000000000000000000000000000000000\n        /* \"#utility.yul\":13775:13777   */\n      0x20\n        /* \"#utility.yul\":13767:13773   */\n      dup3\n        /* \"#utility.yul\":13763:13778   */\n      add\n        /* \"#utility.yul\":13756:13786   */\n      mstore\n        /* \"#utility.yul\":13571:13793   */\n      pop\n      jump\t// out\n        /* \"#utility.yul\":13799:14165   */\n    tag_153:\n        /* \"#utility.yul\":13941:13944   */\n      0x00\n        /* \"#utility.yul\":13962:14029   */\n      tag_334\n        /* \"#utility.yul\":14026:14028   */\n      0x23\n        /* \"#utility.yul\":14021:14024   */\n      dup4\n        /* \"#utility.yul\":13962:14029   */\n      tag_126\n      jump\t// in\n    tag_334:\n        /* \"#utility.yul\":13955:14029   */\n      swap2\n      pop\n        /* \"#utility.yul\":14038:14131   */\n      tag_335\n        /* \"#utility.yul\":14127:14130   */\n      dup3\n        /* \"#utility.yul\":14038:14131   */\n      tag_152\n      jump\t// in\n    tag_335:\n        /* \"#utility.yul\":14156:14158   */\n      0x40\n        /* \"#utility.yul\":14151:14154   */\n      dup3\n        /* \"#utility.yul\":14147:14159   */\n      add\n        /* \"#utility.yul\":14140:14159   */\n      swap1\n      pop\n        /* \"#utility.yul\":13799:14165   */\n      swap2\n      swap1\n      pop\n      jump\t// out\n        /* \"#utility.yul\":14171:14590   */\n    tag_51:\n        /* \"#utility.yul\":14337:14341   */\n      0x00\n        /* \"#utility.yul\":14375:14377   */\n      0x20\n        /* \"#utility.yul\":14364:14373   */\n      dup3\n        /* \"#utility.yul\":14360:14378   */\n      add\n        /* \"#utility.yul\":14352:14378   */\n      swap1\n      pop\n        /* \"#utility.yul\":14424:14433   */\n      dup2\n        /* \"#utility.yul\":14418:14422   */\n      dup2\n        /* \"#utility.yul\":14414:14434   */\n      sub\n        /* \"#utility.yul\":14410:14411   */\n      0x00\n        /* \"#utility.yul\":14399:14408   */\n      dup4\n        /* \"#utility.yul\":14395:14412   */\n      add\n        /* \"#utility.yul\":14388:14435   */\n      mstore\n        /* \"#utility.yul\":14452:14583   */\n      tag_337\n        /* \"#utility.yul\":14578:14582   */\n      dup2\n        /* \"#utility.yul\":14452:14583   */\n      tag_153\n      jump\t// in\n    tag_337:\n        /* \"#utility.yul\":14444:14583   */\n      swap1\n      pop\n        /* \"#utility.yul\":14171:14590   */\n      swap2\n      swap1\n      pop\n      jump\t// out\n        /* \"#utility.yul\":14596:14909   */\n    tag_53:\n        /* \"#utility.yul\":14709:14713   */\n      0x00\n        /* \"#utility.yul\":14747:14749   */\n      0x20\n        /* \"#utility.yul\":14736:14745   */\n      dup3\n        /* \"#utility.yul\":14732:14750   */\n      add\n        /* \"#utility.yul\":14724:14750   */\n      swap1\n      pop\n        /* \"#utility.yul\":14796:14805   */\n      dup2\n        /* \"#utility.yul\":14790:14794   */\n      dup2\n        /* \"#utility.yul\":14786:14806   */\n      sub\n        /* \"#utility.yul\":14782:14783   */\n      0x00\n        /* \"#utility.yul\":14771:14780   */\n      dup4\n        /* \"#utility.yul\":14767:14784   */\n      add\n        /* \"#utility.yul\":14760:14807   */\n      mstore\n        /* \"#utility.yul\":14824:14902   */\n      tag_339\n        /* \"#utility.yul\":14897:14901   */\n      dup2\n        /* \"#utility.yul\":14888:14894   */\n      dup5\n        /* \"#utility.yul\":14824:14902   */\n      tag_128\n      jump\t// in\n    tag_339:\n        /* \"#utility.yul\":14816:14902   */\n      swap1\n      pop\n        /* \"#utility.yul\":14596:14909   */\n      swap3\n      swap2\n      pop\n      pop\n      jump\t// out\n        /* \"#utility.yul\":14915:15095   */\n    tag_154:\n        /* \"#utility.yul\":14963:15040   */\n      0x4e487b7100000000000000000000000000000000000000000000000000000000\n        /* \"#utility.yul\":14960:14961   */\n      0x00\n        /* \"#utility.yul\":14953:15041   */\n      mstore\n        /* \"#utility.yul\":15060:15064   */\n      0x22\n        /* \"#utility.yul\":15057:15058   */\n      0x04\n        /* \"#utility.yul\":15050:15065   */\n      mstore\n        /* \"#utility.yul\":15084:15088   */\n      0x24\n        /* \"#utility.yul\":15081:15082   */\n      0x00\n        /* \"#utility.yul\":15074:15089   */\n      revert\n        /* \"#utility.yul\":15101:15421   */\n    tag_55:\n        /* \"#utility.yul\":15145:15151   */\n      0x00\n        /* \"#utility.yul\":15182:15183   */\n      0x02\n        /* \"#utility.yul\":15176:15180   */\n      dup3\n        /* \"#utility.yul\":15172:15184   */\n      div\n        /* \"#utility.yul\":15162:15184   */\n      swap1\n      pop\n        /* \"#utility.yul\":15229:15230   */\n      0x01\n        /* \"#utility.yul\":15223:15227   */\n      dup3\n        /* \"#utility.yul\":15219:15231   */\n      and\n        /* \"#utility.yul\":15250:15268   */\n      dup1\n        /* \"#utility.yul\":15240:15321   */\n      tag_342\n      jumpi\n        /* \"#utility.yul\":15306:15310   */\n      0x7f\n        /* \"#utility.yul\":15298:15304   */\n      dup3\n        /* \"#utility.yul\":15294:15311   */\n      and\n        /* \"#utility.yul\":15284:15311   */\n      swap2\n      pop\n        /* \"#utility.yul\":15240:15321   */\n    tag_342:\n        /* \"#utility.yul\":15368:15370   */\n      0x20\n        /* \"#utility.yul\":15360:15366   */\n      dup3\n        /* \"#utility.yul\":15357:15371   */\n      lt\n        /* \"#utility.yul\":15337:15355   */\n      dup2\n        /* \"#utility.yul\":15334:15372   */\n      sub\n        /* \"#utility.yul\":15331:15415   */\n      tag_343\n      jumpi\n        /* \"#utility.yul\":15387:15405   */\n      tag_344\n      tag_154\n      jump\t// in\n    tag_344:\n        /* \"#utility.yul\":15331:15415   */\n    tag_343:\n        /* \"#utility.yul\":15152:15421   */\n      pop\n        /* \"#utility.yul\":15101:15421   */\n      swap2\n      swap1\n      pop\n      jump\t// out\n        /* \"#utility.yul\":15427:15521   */\n    tag_155:\n        /* \"#utility.yul\":15460:15468   */\n      0x00\n        /* \"#utility.yul\":15508:15513   */\n      dup2\n        /* \"#utility.yul\":15504:15506   */\n      0x60\n        /* \"#utility.yul\":15500:15514   */\n      shl\n        /* \"#utility.yul\":15479:15514   */\n      swap1\n      pop\n        /* \"#utility.yul\":15427:15521   */\n      swap2\n      swap1\n      pop\n      jump\t// out\n        /* \"#utility.yul\":15527:15621   */\n    tag_156:\n        /* \"#utility.yul\":15566:15573   */\n      0x00\n        /* \"#utility.yul\":15595:15615   */\n      tag_347\n        /* \"#utility.yul\":15609:15614   */\n      dup3\n        /* \"#utility.yul\":15595:15615   */\n      tag_155\n      jump\t// in\n    tag_347:\n        /* \"#utility.yul\":15584:15615   */\n      swap1\n      pop\n        /* \"#utility.yul\":15527:15621   */\n      swap2\n      swap1\n      pop\n      jump\t// out\n        /* \"#utility.yul\":15627:15727   */\n    tag_157:\n        /* \"#utility.yul\":15666:15673   */\n      0x00\n        /* \"#utility.yul\":15695:15721   */\n      tag_349\n        /* \"#utility.yul\":15715:15720   */\n      dup3\n        /* \"#utility.yul\":15695:15721   */\n      tag_156\n      jump\t// in\n    tag_349:\n        /* \"#utility.yul\":15684:15721   */\n      swap1\n      pop\n        /* \"#utility.yul\":15627:15727   */\n      swap2\n      swap1\n      pop\n      jump\t// out\n        /* \"#utility.yul\":15733:15890   */\n    tag_158:\n        /* \"#utility.yul\":15838:15883   */\n      tag_351\n        /* \"#utility.yul\":15858:15882   */\n      tag_352\n        /* \"#utility.yul\":15876:15881   */\n      dup3\n        /* \"#utility.yul\":15858:15882   */\n      tag_132\n      jump\t// in\n    tag_352:\n        /* \"#utility.yul\":15838:15883   */\n      tag_157\n      jump\t// in\n    tag_351:\n        /* \"#utility.yul\":15833:15836   */\n      dup3\n        /* \"#utility.yul\":15826:15884   */\n      mstore\n        /* \"#utility.yul\":15733:15890   */\n      pop\n      pop\n      jump\t// out\n        /* \"#utility.yul\":15896:16152   */\n    tag_70:\n        /* \"#utility.yul\":16008:16011   */\n      0x00\n        /* \"#utility.yul\":16023:16098   */\n      tag_354\n        /* \"#utility.yul\":16094:16097   */\n      dup3\n        /* \"#utility.yul\":16085:16091   */\n      dup5\n        /* \"#utility.yul\":16023:16098   */\n      tag_158\n      jump\t// in\n    tag_354:\n        /* \"#utility.yul\":16123:16125   */\n      0x14\n        /* \"#utility.yul\":16118:16121   */\n      dup3\n        /* \"#utility.yul\":16114:16126   */\n      add\n        /* \"#utility.yul\":16107:16126   */\n      swap2\n      pop\n        /* \"#utility.yul\":16143:16146   */\n      dup2\n        /* \"#utility.yul\":16136:16146   */\n      swap1\n      pop\n        /* \"#utility.yul\":15896:16152   */\n      swap3\n      swap2\n      pop\n      pop\n      jump\t// out\n        /* \"#utility.yul\":16158:16388   */\n    tag_159:\n        /* \"#utility.yul\":16298:16332   */\n      0x526573706f6e6465722068617320616c726561647920616e7377657265642074\n        /* \"#utility.yul\":16294:16295   */\n      0x00\n        /* \"#utility.yul\":16286:16292   */\n      dup3\n        /* \"#utility.yul\":16282:16296   */\n      add\n        /* \"#utility.yul\":16275:16333   */\n      mstore\n        /* \"#utility.yul\":16367:16380   */\n      0x686973207375727665792e000000000000000000000000000000000000000000\n        /* \"#utility.yul\":16362:16364   */\n      0x20\n        /* \"#utility.yul\":16354:16360   */\n      dup3\n        /* \"#utility.yul\":16350:16365   */\n      add\n        /* \"#utility.yul\":16343:16381   */\n      mstore\n        /* \"#utility.yul\":16158:16388   */\n      pop\n      jump\t// out\n        /* \"#utility.yul\":16394:16760   */\n    tag_160:\n        /* \"#utility.yul\":16536:16539   */\n      0x00\n        /* \"#utility.yul\":16557:16624   */\n      tag_357\n        /* \"#utility.yul\":16621:16623   */\n      0x2b\n        /* \"#utility.yul\":16616:16619   */\n      dup4\n        /* \"#utility.yul\":16557:16624   */\n      tag_126\n      jump\t// in\n    tag_357:\n        /* \"#utility.yul\":16550:16624   */\n      swap2\n      pop\n        /* \"#utility.yul\":16633:16726   */\n      tag_358\n        /* \"#utility.yul\":16722:16725   */\n      dup3\n        /* \"#utility.yul\":16633:16726   */\n      tag_159\n      jump\t// in\n    tag_358:\n        /* \"#utility.yul\":16751:16753   */\n      0x40\n        /* \"#utility.yul\":16746:16749   */\n      dup3\n        /* \"#utility.yul\":16742:16754   */\n      add\n        /* \"#utility.yul\":16735:16754   */\n      swap1\n      pop\n        /* \"#utility.yul\":16394:16760   */\n      swap2\n      swap1\n      pop\n      jump\t// out\n        /* \"#utility.yul\":16766:17185   */\n    tag_75:\n        /* \"#utility.yul\":16932:16936   */\n      0x00\n        /* \"#utility.yul\":16970:16972   */\n      0x20\n        /* \"#utility.yul\":16959:16968   */\n      dup3\n        /* \"#utility.yul\":16955:16973   */\n      add\n        /* \"#utility.yul\":16947:16973   */\n      swap1\n      pop\n        /* \"#utility.yul\":17019:17028   */\n      dup2\n        /* \"#utility.yul\":17013:17017   */\n      dup2\n        /* \"#utility.yul\":17009:17029   */\n      sub\n        /* \"#utility.yul\":17005:17006   */\n      0x00\n        /* \"#utility.yul\":16994:17003   */\n      dup4\n        /* \"#utility.yul\":16990:17007   */\n      add\n        /* \"#utility.yul\":16983:17030   */\n      mstore\n        /* \"#utility.yul\":17047:17178   */\n      tag_360\n        /* \"#utility.yul\":17173:17177   */\n      dup2\n        /* \"#utility.yul\":17047:17178   */\n      tag_160\n      jump\t// in\n    tag_360:\n        /* \"#utility.yul\":17039:17178   */\n      swap1\n      pop\n        /* \"#utility.yul\":16766:17185   */\n      swap2\n      swap1\n      pop\n      jump\t// out\n        /* \"#utility.yul\":17191:17430   */\n    tag_161:\n        /* \"#utility.yul\":17331:17365   */\n      0x5375727665792068617320616c72656164792072656163686564206974732065\n        /* \"#utility.yul\":17327:17328   */\n      0x00\n        /* \"#utility.yul\":17319:17325   */\n      dup3\n        /* \"#utility.yul\":17315:17329   */\n      add\n        /* \"#utility.yul\":17308:17366   */\n      mstore\n        /* \"#utility.yul\":17400:17422   */\n      0x7870656374656420726573706f6e64656e74732e000000000000000000000000\n        /* \"#utility.yul\":17395:17397   */\n      0x20\n        /* \"#utility.yul\":17387:17393   */\n      dup3\n        /* \"#utility.yul\":17383:17398   */\n      add\n        /* \"#utility.yul\":17376:17423   */\n      mstore\n        /* \"#utility.yul\":17191:17430   */\n      pop\n      jump\t// out\n        /* \"#utility.yul\":17436:17802   */\n    tag_162:\n        /* \"#utility.yul\":17578:17581   */\n      0x00\n        /* \"#utility.yul\":17599:17666   */\n      tag_363\n        /* \"#utility.yul\":17663:17665   */\n      0x34\n        /* \"#utility.yul\":17658:17661   */\n      dup4\n        /* \"#utility.yul\":17599:17666   */\n      tag_126\n      jump\t// in\n    tag_363:\n        /* \"#utility.yul\":17592:17666   */\n      swap2\n      pop\n        /* \"#utility.yul\":17675:17768   */\n      tag_364\n        /* \"#utility.yul\":17764:17767   */\n      dup3\n        /* \"#utility.yul\":17675:17768   */\n      tag_161\n      jump\t// in\n    tag_364:\n        /* \"#utility.yul\":17793:17795   */\n      0x40\n        /* \"#utility.yul\":17788:17791   */\n      dup3\n        /* \"#utility.yul\":17784:17796   */\n      add\n        /* \"#utility.yul\":17777:17796   */\n      swap1\n      pop\n        /* \"#utility.yul\":17436:17802   */\n      swap2\n      swap1\n      pop\n      jump\t// out\n        /* \"#utility.yul\":17808:18227   */\n    tag_79:\n        /* \"#utility.yul\":17974:17978   */\n      0x00\n        /* \"#utility.yul\":18012:18014   */\n      0x20\n        /* \"#utility.yul\":18001:18010   */\n      dup3\n        /* \"#utility.yul\":17997:18015   */\n      add\n        /* \"#utility.yul\":17989:18015   */\n      swap1\n      pop\n        /* \"#utility.yul\":18061:18070   */\n      dup2\n        /* \"#utility.yul\":18055:18059   */\n      dup2\n        /* \"#utility.yul\":18051:18071   */\n      sub\n        /* \"#utility.yul\":18047:18048   */\n      0x00\n        /* \"#utility.yul\":18036:18045   */\n      dup4\n        /* \"#utility.yul\":18032:18049   */\n      add\n        /* \"#utility.yul\":18025:18072   */\n      mstore\n        /* \"#utility.yul\":18089:18220   */\n      tag_366\n        /* \"#utility.yul\":18215:18219   */\n      dup2\n        /* \"#utility.yul\":18089:18220   */\n      tag_162\n      jump\t// in\n    tag_366:\n        /* \"#utility.yul\":18081:18220   */\n      swap1\n      pop\n        /* \"#utility.yul\":17808:18227   */\n      swap2\n      swap1\n      pop\n      jump\t// out\n        /* \"#utility.yul\":18233:18374   */\n    tag_163:\n        /* \"#utility.yul\":18282:18286   */\n      0x00\n        /* \"#utility.yul\":18305:18308   */\n      dup2\n        /* \"#utility.yul\":18297:18308   */\n      swap1\n      pop\n        /* \"#utility.yul\":18328:18331   */\n      dup2\n        /* \"#utility.yul\":18325:18326   */\n      0x00\n        /* \"#utility.yul\":18318:18332   */\n      mstore\n        /* \"#utility.yul\":18362:18366   */\n      0x20\n        /* \"#utility.yul\":18359:18360   */\n      0x00\n        /* \"#utility.yul\":18349:18367   */\n      keccak256\n        /* \"#utility.yul\":18341:18367   */\n      swap1\n      pop\n        /* \"#utility.yul\":18233:18374   */\n      swap2\n      swap1\n      pop\n      jump\t// out\n        /* \"#utility.yul\":18380:18473   */\n    tag_164:\n        /* \"#utility.yul\":18417:18423   */\n      0x00\n        /* \"#utility.yul\":18464:18466   */\n      0x20\n        /* \"#utility.yul\":18459:18461   */\n      0x1f\n        /* \"#utility.yul\":18452:18457   */\n      dup4\n        /* \"#utility.yul\":18448:18462   */\n      add\n        /* \"#utility.yul\":18444:18467   */\n      div\n        /* \"#utility.yul\":18434:18467   */\n      swap1\n      pop\n        /* \"#utility.yul\":18380:18473   */\n      swap2\n      swap1\n      pop\n      jump\t// out\n        /* \"#utility.yul\":18479:18586   */\n    tag_165:\n        /* \"#utility.yul\":18523:18531   */\n      0x00\n        /* \"#utility.yul\":18573:18578   */\n      dup3\n        /* \"#utility.yul\":18567:18571   */\n      dup3\n        /* \"#utility.yul\":18563:18579   */\n      shl\n        /* \"#utility.yul\":18542:18579   */\n      swap1\n      pop\n        /* \"#utility.yul\":18479:18586   */\n      swap3\n      swap2\n      pop\n      pop\n      jump\t// out\n        /* \"#utility.yul\":18592:18985   */\n    tag_166:\n        /* \"#utility.yul\":18661:18667   */\n      0x00\n        /* \"#utility.yul\":18711:18712   */\n      0x08\n        /* \"#utility.yul\":18699:18709   */\n      dup4\n        /* \"#utility.yul\":18695:18713   */\n      mul\n        /* \"#utility.yul\":18734:18831   */\n      tag_371\n        /* \"#utility.yul\":18764:18830   */\n      0xffffffffffffffffffffffffffffffffffffffffffffffffffffffffffffffff\n        /* \"#utility.yul\":18753:18762   */\n      dup3\n        /* \"#utility.yul\":18734:18831   */\n      tag_165\n      jump\t// in\n    tag_371:\n        /* \"#utility.yul\":18852:18891   */\n      tag_372\n        /* \"#utility.yul\":18882:18890   */\n      dup7\n        /* \"#utility.yul\":18871:18880   */\n      dup4\n        /* \"#utility.yul\":18852:18891   */\n      tag_165\n      jump\t// in\n    tag_372:\n        /* \"#utility.yul\":18840:18891   */\n      swap6\n      pop\n        /* \"#utility.yul\":18924:18928   */\n      dup1\n        /* \"#utility.yul\":18920:18929   */\n      not\n        /* \"#utility.yul\":18913:18918   */\n      dup5\n        /* \"#utility.yul\":18909:18930   */\n      and\n        /* \"#utility.yul\":18900:18930   */\n      swap4\n      pop\n        /* \"#utility.yul\":18973:18977   */\n      dup1\n        /* \"#utility.yul\":18963:18971   */\n      dup7\n        /* \"#utility.yul\":18959:18978   */\n      and\n        /* \"#utility.yul\":18952:18957   */\n      dup5\n        /* \"#utility.yul\":18949:18979   */\n      or\n        /* \"#utility.yul\":18939:18979   */\n      swap3\n      pop\n        /* \"#utility.yul\":18668:18985   */\n      pop\n      pop\n        /* \"#utility.yul\":18592:18985   */\n      swap4\n      swap3\n      pop\n      pop\n      pop\n      jump\t// out\n        /* \"#utility.yul\":18991:19133   */\n    tag_167:\n        /* \"#utility.yul\":19041:19050   */\n      0x00\n        /* \"#utility.yul\":19074:19127   */\n      tag_374\n        /* \"#utility.yul\":19092:19126   */\n      tag_375\n        /* \"#utility.yul\":19101:19125   */\n      tag_376\n        /* \"#utility.yul\":19119:19124   */\n      dup5\n        /* \"#utility.yul\":19101:19125   */\n      tag_129\n      jump\t// in\n    tag_376:\n        /* \"#utility.yul\":19092:19126   */\n      tag_138\n      jump\t// in\n    tag_375:\n        /* \"#utility.yul\":19074:19127   */\n      tag_129\n      jump\t// in\n    tag_374:\n        /* \"#utility.yul\":19061:19127   */\n      swap1\n      pop\n        /* \"#utility.yul\":18991:19133   */\n      swap2\n      swap1\n      pop\n      jump\t// out\n        /* \"#utility.yul\":19139:19214   */\n    tag_168:\n        /* \"#utility.yul\":19182:19185   */\n      0x00\n        /* \"#utility.yul\":19203:19208   */\n      dup2\n        /* \"#utility.yul\":19196:19208   */\n      swap1\n      pop\n        /* \"#utility.yul\":19139:19214   */\n      swap2\n      swap1\n      pop\n      jump\t// out\n        /* \"#utility.yul\":19220:19489   */\n    tag_169:\n        /* \"#utility.yul\":19330:19369   */\n      tag_379\n        /* \"#utility.yul\":19361:19368   */\n      dup4\n        /* \"#utility.yul\":19330:19369   */\n      tag_167\n      jump\t// in\n    tag_379:\n        /* \"#utility.yul\":19391:19482   */\n      tag_380\n        /* \"#utility.yul\":19440:19481   */\n      tag_381\n        /* \"#utility.yul\":19464:19480   */\n      dup3\n        /* \"#utility.yul\":19440:19481   */\n      tag_168\n      jump\t// in\n    tag_381:\n        /* \"#utility.yul\":19432:19438   */\n      dup5\n        /* \"#utility.yul\":19425:19429   */\n      dup5\n        /* \"#utility.yul\":19419:19430   */\n      sload\n        /* \"#utility.yul\":19391:19482   */\n      tag_166\n      jump\t// in\n    tag_380:\n        /* \"#utility.yul\":19385:19389   */\n      dup3\n        /* \"#utility.yul\":19378:19483   */\n      sstore\n        /* \"#utility.yul\":19296:19489   */\n      pop\n        /* \"#utility.yul\":19220:19489   */\n      pop\n      pop\n      pop\n      jump\t// out\n        /* \"#utility.yul\":19495:19568   */\n    tag_170:\n        /* \"#utility.yul\":19540:19543   */\n      0x00\n        /* \"#utility.yul\":19495:19568   */\n      swap1\n      jump\t// out\n        /* \"#utility.yul\":19574:19763   */\n    tag_171:\n        /* \"#utility.yul\":19651:19683   */\n      tag_384\n      tag_170\n      jump\t// in\n    tag_384:\n        /* \"#utility.yul\":19692:19757   */\n      tag_385\n        /* \"#utility.yul\":19750:19756   */\n      dup2\n        /* \"#utility.yul\":19742:19748   */\n      dup5\n        /* \"#utility.yul\":19736:19740   */\n      dup5\n        /* \"#utility.yul\":19692:19757   */\n      tag_169\n      jump\t// in\n    tag_385:\n        /* \"#utility.yul\":19627:19763   */\n      pop\n        /* \"#utility.yul\":19574:19763   */\n      pop\n      pop\n      jump\t// out\n        /* \"#utility.yul\":19769:19955   */\n    tag_172:\n        /* \"#utility.yul\":19829:19949   */\n    tag_387:\n        /* \"#utility.yul\":19846:19849   */\n      dup2\n        /* \"#utility.yul\":19839:19844   */\n      dup2\n        /* \"#utility.yul\":19836:19850   */\n      lt\n        /* \"#utility.yul\":19829:19949   */\n      iszero\n      tag_389\n      jumpi\n        /* \"#utility.yul\":19900:19939   */\n      tag_390\n        /* \"#utility.yul\":19937:19938   */\n      0x00\n        /* \"#utility.yul\":19930:19935   */\n      dup3\n        /* \"#utility.yul\":19900:19939   */\n      tag_171\n      jump\t// in\n    tag_390:\n        /* \"#utility.yul\":19873:19874   */\n      0x01\n        /* \"#utility.yul\":19866:19871   */\n      dup2\n        /* \"#utility.yul\":19862:19875   */\n      add\n        /* \"#utility.yul\":19853:19875   */\n      swap1\n      pop\n        /* \"#utility.yul\":19829:19949   */\n      jump(tag_387)\n    tag_389:\n        /* \"#utility.yul\":19769:19955   */\n      pop\n      pop\n      jump\t// out\n        /* \"#utility.yul\":19961:20504   */\n    tag_173:\n        /* \"#utility.yul\":20062:20064   */\n      0x1f\n        /* \"#utility.yul\":20057:20060   */\n      dup3\n        /* \"#utility.yul\":20054:20065   */\n      gt\n        /* \"#utility.yul\":20051:20497   */\n      iszero\n      tag_392\n      jumpi\n        /* \"#utility.yul\":20096:20134   */\n      tag_393\n        /* \"#utility.yul\":20128:20133   */\n      dup2\n        /* \"#utility.yul\":20096:20134   */\n      tag_163\n      jump\t// in\n    tag_393:\n        /* \"#utility.yul\":20180:20209   */\n      tag_394\n        /* \"#utility.yul\":20198:20208   */\n      dup5\n        /* \"#utility.yul\":20180:20209   */\n      tag_164\n      jump\t// in\n    tag_394:\n        /* \"#utility.yul\":20170:20178   */\n      dup2\n        /* \"#utility.yul\":20166:20210   */\n      add\n        /* \"#utility.yul\":20363:20365   */\n      0x20\n        /* \"#utility.yul\":20351:20361   */\n      dup6\n        /* \"#utility.yul\":20348:20366   */\n      lt\n        /* \"#utility.yul\":20345:20394   */\n      iszero\n      tag_395\n      jumpi\n        /* \"#utility.yul\":20384:20392   */\n      dup2\n        /* \"#utility.yul\":20369:20392   */\n      swap1\n      pop\n        /* \"#utility.yul\":20345:20394   */\n    tag_395:\n        /* \"#utility.yul\":20407:20487   */\n      tag_396\n        /* \"#utility.yul\":20463:20485   */\n      tag_397\n        /* \"#utility.yul\":20481:20484   */\n      dup6\n        /* \"#utility.yul\":20463:20485   */\n      tag_164\n      jump\t// in\n    tag_397:\n        /* \"#utility.yul\":20453:20461   */\n      dup4\n        /* \"#utility.yul\":20449:20486   */\n      add\n        /* \"#utility.yul\":20436:20447   */\n      dup3\n        /* \"#utility.yul\":20407:20487   */\n      tag_172\n      jump\t// in\n    tag_396:\n        /* \"#utility.yul\":20066:20497   */\n      pop\n      pop\n        /* \"#utility.yul\":20051:20497   */\n    tag_392:\n        /* \"#utility.yul\":19961:20504   */\n      pop\n      pop\n      pop\n      jump\t// out\n        /* \"#utility.yul\":20510:20627   */\n    tag_174:\n        /* \"#utility.yul\":20564:20572   */\n      0x00\n        /* \"#utility.yul\":20614:20619   */\n      dup3\n        /* \"#utility.yul\":20608:20612   */\n      dup3\n        /* \"#utility.yul\":20604:20620   */\n      shr\n        /* \"#utility.yul\":20583:20620   */\n      swap1\n      pop\n        /* \"#utility.yul\":20510:20627   */\n      swap3\n      swap2\n      pop\n      pop\n      jump\t// out\n        /* \"#utility.yul\":20633:20802   */\n    tag_175:\n        /* \"#utility.yul\":20677:20683   */\n      0x00\n        /* \"#utility.yul\":20710:20761   */\n      tag_400\n        /* \"#utility.yul\":20758:20759   */\n      0x00\n        /* \"#utility.yul\":20754:20760   */\n      not\n        /* \"#utility.yul\":20746:20751   */\n      dup5\n        /* \"#utility.yul\":20743:20744   */\n      0x08\n        /* \"#utility.yul\":20739:20752   */\n      mul\n        /* \"#utility.yul\":20710:20761   */\n      tag_174\n      jump\t// in\n    tag_400:\n        /* \"#utility.yul\":20706:20762   */\n      not\n        /* \"#utility.yul\":20791:20795   */\n      dup1\n        /* \"#utility.yul\":20785:20789   */\n      dup4\n        /* \"#utility.yul\":20781:20796   */\n      and\n        /* \"#utility.yul\":20771:20796   */\n      swap2\n      pop\n        /* \"#utility.yul\":20684:20802   */\n      pop\n        /* \"#utility.yul\":20633:20802   */\n      swap3\n      swap2\n      pop\n      pop\n      jump\t// out\n        /* \"#utility.yul\":20807:21102   */\n    tag_176:\n        /* \"#utility.yul\":20883:20887   */\n      0x00\n        /* \"#utility.yul\":21029:21058   */\n      tag_402\n        /* \"#utility.yul\":21054:21057   */\n      dup4\n        /* \"#utility.yul\":21048:21052   */\n      dup4\n        /* \"#utility.yul\":21029:21058   */\n      tag_175\n      jump\t// in\n    tag_402:\n        /* \"#utility.yul\":21021:21058   */\n      swap2\n      pop\n        /* \"#utility.yul\":21091:21094   */\n      dup3\n        /* \"#utility.yul\":21088:21089   */\n      0x02\n        /* \"#utility.yul\":21084:21095   */\n      mul\n        /* \"#utility.yul\":21078:21082   */\n      dup3\n        /* \"#utility.yul\":21075:21096   */\n      or\n        /* \"#utility.yul\":21067:21096   */\n      swap1\n      pop\n        /* \"#utility.yul\":20807:21102   */\n      swap3\n      swap2\n      pop\n      pop\n      jump\t// out\n        /* \"#utility.yul\":21107:22502   */\n    tag_81:\n        /* \"#utility.yul\":21224:21261   */\n      tag_404\n        /* \"#utility.yul\":21257:21260   */\n      dup3\n        /* \"#utility.yul\":21224:21261   */\n      tag_125\n      jump\t// in\n    tag_404:\n        /* \"#utility.yul\":21326:21344   */\n      0xffffffffffffffff\n        /* \"#utility.yul\":21318:21324   */\n      dup2\n        /* \"#utility.yul\":21315:21345   */\n      gt\n        /* \"#utility.yul\":21312:21368   */\n      iszero\n      tag_405\n      jumpi\n        /* \"#utility.yul\":21348:21366   */\n      tag_406\n      tag_118\n      jump\t// in\n    tag_406:\n        /* \"#utility.yul\":21312:21368   */\n    tag_405:\n        /* \"#utility.yul\":21392:21430   */\n      tag_407\n        /* \"#utility.yul\":21424:21428   */\n      dup3\n        /* \"#utility.yul\":21418:21429   */\n      sload\n        /* \"#utility.yul\":21392:21430   */\n      tag_55\n      jump\t// in\n    tag_407:\n        /* \"#utility.yul\":21477:21544   */\n      tag_408\n        /* \"#utility.yul\":21537:21543   */\n      dup3\n        /* \"#utility.yul\":21529:21535   */\n      dup3\n        /* \"#utility.yul\":21523:21527   */\n      dup6\n        /* \"#utility.yul\":21477:21544   */\n      tag_173\n      jump\t// in\n    tag_408:\n        /* \"#utility.yul\":21571:21572   */\n      0x00\n        /* \"#utility.yul\":21595:21599   */\n      0x20\n        /* \"#utility.yul\":21582:21599   */\n      swap1\n      pop\n        /* \"#utility.yul\":21627:21629   */\n      0x1f\n        /* \"#utility.yul\":21619:21625   */\n      dup4\n        /* \"#utility.yul\":21616:21630   */\n      gt\n        /* \"#utility.yul\":21644:21645   */\n      0x01\n        /* \"#utility.yul\":21639:22257   */\n      dup2\n      eq\n      tag_410\n      jumpi\n        /* \"#utility.yul\":22301:22302   */\n      0x00\n        /* \"#utility.yul\":22318:22324   */\n      dup5\n        /* \"#utility.yul\":22315:22392   */\n      iszero\n      tag_411\n      jumpi\n        /* \"#utility.yul\":22367:22376   */\n      dup3\n        /* \"#utility.yul\":22362:22365   */\n      dup8\n        /* \"#utility.yul\":22358:22377   */\n      add\n        /* \"#utility.yul\":22352:22378   */\n      mload\n        /* \"#utility.yul\":22343:22378   */\n      swap1\n      pop\n        /* \"#utility.yul\":22315:22392   */\n    tag_411:\n        /* \"#utility.yul\":22418:22485   */\n      tag_412\n        /* \"#utility.yul\":22478:22484   */\n      dup6\n        /* \"#utility.yul\":22471:22476   */\n      dup3\n        /* \"#utility.yul\":22418:22485   */\n      tag_176\n      jump\t// in\n    tag_412:\n        /* \"#utility.yul\":22412:22416   */\n      dup7\n        /* \"#utility.yul\":22405:22486   */\n      sstore\n        /* \"#utility.yul\":22274:22496   */\n      pop\n        /* \"#utility.yul\":21609:22496   */\n      jump(tag_409)\n        /* \"#utility.yul\":21639:22257   */\n    tag_410:\n        /* \"#utility.yul\":21691:21695   */\n      0x1f\n        /* \"#utility.yul\":21687:21696   */\n      not\n        /* \"#utility.yul\":21679:21685   */\n      dup5\n        /* \"#utility.yul\":21675:21697   */\n      and\n        /* \"#utility.yul\":21725:21762   */\n      tag_413\n        /* \"#utility.yul\":21757:21761   */\n      dup7\n        /* \"#utility.yul\":21725:21762   */\n      tag_163\n      jump\t// in\n    tag_413:\n        /* \"#utility.yul\":21784:21785   */\n      0x00\n        /* \"#utility.yul\":21798:22006   */\n    tag_414:\n        /* \"#utility.yul\":21812:21819   */\n      dup3\n        /* \"#utility.yul\":21809:21810   */\n      dup2\n        /* \"#utility.yul\":21806:21820   */\n      lt\n        /* \"#utility.yul\":21798:22006   */\n      iszero\n      tag_416\n      jumpi\n        /* \"#utility.yul\":21891:21900   */\n      dup5\n        /* \"#utility.yul\":21886:21889   */\n      dup10\n        /* \"#utility.yul\":21882:21901   */\n      add\n        /* \"#utility.yul\":21876:21902   */\n      mload\n        /* \"#utility.yul\":21868:21874   */\n      dup3\n        /* \"#utility.yul\":21861:21903   */\n      sstore\n        /* \"#utility.yul\":21942:21943   */\n      0x01\n        /* \"#utility.yul\":21934:21940   */\n      dup3\n        /* \"#utility.yul\":21930:21944   */\n      add\n        /* \"#utility.yul\":21920:21944   */\n      swap2\n      pop\n        /* \"#utility.yul\":21989:21991   */\n      0x20\n        /* \"#utility.yul\":21978:21987   */\n      dup6\n        /* \"#utility.yul\":21974:21992   */\n      add\n        /* \"#utility.yul\":21961:21992   */\n      swap5\n      pop\n        /* \"#utility.yul\":21835:21839   */\n      0x20\n        /* \"#utility.yul\":21832:21833   */\n      dup2\n        /* \"#utility.yul\":21828:21840   */\n      add\n        /* \"#utility.yul\":21823:21840   */\n      swap1\n      pop\n        /* \"#utility.yul\":21798:22006   */\n      jump(tag_414)\n    tag_416:\n        /* \"#utility.yul\":22034:22040   */\n      dup7\n        /* \"#utility.yul\":22025:22032   */\n      dup4\n        /* \"#utility.yul\":22022:22041   */\n      lt\n        /* \"#utility.yul\":22019:22198   */\n      iszero\n      tag_417\n      jumpi\n        /* \"#utility.yul\":22092:22101   */\n      dup5\n        /* \"#utility.yul\":22087:22090   */\n      dup10\n        /* \"#utility.yul\":22083:22102   */\n      add\n        /* \"#utility.yul\":22077:22103   */\n      mload\n        /* \"#utility.yul\":22135:22183   */\n      tag_418\n        /* \"#utility.yul\":22177:22181   */\n      0x1f\n        /* \"#utility.yul\":22169:22175   */\n      dup10\n        /* \"#utility.yul\":22165:22182   */\n      and\n        /* \"#utility.yul\":22154:22163   */\n      dup3\n        /* \"#utility.yul\":22135:22183   */\n      tag_175\n      jump\t// in\n    tag_418:\n        /* \"#utility.yul\":22127:22133   */\n      dup4\n        /* \"#utility.yul\":22120:22184   */\n      sstore\n        /* \"#utility.yul\":22042:22198   */\n      pop\n        /* \"#utility.yul\":22019:22198   */\n    tag_417:\n        /* \"#utility.yul\":22244:22245   */\n      0x01\n        /* \"#utility.yul\":22240:22241   */\n      0x02\n        /* \"#utility.yul\":22232:22238   */\n      dup9\n        /* \"#utility.yul\":22228:22242   */\n      mul\n        /* \"#utility.yul\":22224:22246   */\n      add\n        /* \"#utility.yul\":22218:22222   */\n      dup9\n        /* \"#utility.yul\":22211:22247   */\n      sstore\n        /* \"#utility.yul\":21646:22257   */\n      pop\n      pop\n      pop\n        /* \"#utility.yul\":21609:22496   */\n    tag_409:\n      pop\n        /* \"#utility.yul\":21199:22502   */\n      pop\n      pop\n      pop\n        /* \"#utility.yul\":21107:22502   */\n      pop\n      pop\n      jump\t// out\n        /* \"#utility.yul\":22508:22741   */\n    tag_83:\n        /* \"#utility.yul\":22547:22550   */\n      0x00\n        /* \"#utility.yul\":22570:22594   */\n      tag_420\n        /* \"#utility.yul\":22588:22593   */\n      dup3\n        /* \"#utility.yul\":22570:22594   */\n      tag_129\n      jump\t// in\n    tag_420:\n        /* \"#utility.yul\":22561:22594   */\n      swap2\n      pop\n        /* \"#utility.yul\":22616:22682   */\n      0xffffffffffffffffffffffffffffffffffffffffffffffffffffffffffffffff\n        /* \"#utility.yul\":22609:22614   */\n      dup3\n        /* \"#utility.yul\":22606:22683   */\n      sub\n        /* \"#utility.yul\":22603:22706   */\n      tag_421\n      jumpi\n        /* \"#utility.yul\":22686:22704   */\n      tag_422\n      tag_149\n      jump\t// in\n    tag_422:\n        /* \"#utility.yul\":22603:22706   */\n    tag_421:\n        /* \"#utility.yul\":22733:22734   */\n      0x01\n        /* \"#utility.yul\":22726:22731   */\n      dup3\n        /* \"#utility.yul\":22722:22735   */\n      add\n        /* \"#utility.yul\":22715:22735   */\n      swap1\n      pop\n        /* \"#utility.yul\":22508:22741   */\n      swap2\n      swap1\n      pop\n      jump\t// out\n        /* \"#utility.yul\":22747:22925   */\n    tag_177:\n        /* \"#utility.yul\":22887:22917   */\n      0x4661696c656420746f2064697374726962757465207265776172642e00000000\n        /* \"#utility.yul\":22883:22884   */\n      0x00\n        /* \"#utility.yul\":22875:22881   */\n      dup3\n        /* \"#utility.yul\":22871:22885   */\n      add\n        /* \"#utility.yul\":22864:22918   */\n      mstore\n        /* \"#utility.yul\":22747:22925   */\n      pop\n      jump\t// out\n        /* \"#utility.yul\":22931:23297   */\n    tag_178:\n        /* \"#utility.yul\":23073:23076   */\n      0x00\n        /* \"#utility.yul\":23094:23161   */\n      tag_425\n        /* \"#utility.yul\":23158:23160   */\n      0x1c\n        /* \"#utility.yul\":23153:23156   */\n      dup4\n        /* \"#utility.yul\":23094:23161   */\n      tag_126\n      jump\t// in\n    tag_425:\n        /* \"#utility.yul\":23087:23161   */\n      swap2\n      pop\n        /* \"#utility.yul\":23170:23263   */\n      tag_426\n        /* \"#utility.yul\":23259:23262   */\n      dup3\n        /* \"#utility.yul\":23170:23263   */\n      tag_177\n      jump\t// in\n    tag_426:\n        /* \"#utility.yul\":23288:23290   */\n      0x20\n        /* \"#utility.yul\":23283:23286   */\n      dup3\n        /* \"#utility.yul\":23279:23291   */\n      add\n        /* \"#utility.yul\":23272:23291   */\n      swap1\n      pop\n        /* \"#utility.yul\":22931:23297   */\n      swap2\n      swap1\n      pop\n      jump\t// out\n        /* \"#utility.yul\":23303:23722   */\n    tag_90:\n        /* \"#utility.yul\":23469:23473   */\n      0x00\n        /* \"#utility.yul\":23507:23509   */\n      0x20\n        /* \"#utility.yul\":23496:23505   */\n      dup3\n        /* \"#utility.yul\":23492:23510   */\n      add\n        /* \"#utility.yul\":23484:23510   */\n      swap1\n      pop\n        /* \"#utility.yul\":23556:23565   */\n      dup2\n        /* \"#utility.yul\":23550:23554   */\n      dup2\n        /* \"#utility.yul\":23546:23566   */\n      sub\n        /* \"#utility.yul\":23542:23543   */\n      0x00\n        /* \"#utility.yul\":23531:23540   */\n      dup4\n        /* \"#utility.yul\":23527:23544   */\n      add\n        /* \"#utility.yul\":23520:23567   */\n      mstore\n        /* \"#utility.yul\":23584:23715   */\n      tag_428\n        /* \"#utility.yul\":23710:23714   */\n      dup2\n        /* \"#utility.yul\":23584:23715   */\n      tag_178\n      jump\t// in\n    tag_428:\n        /* \"#utility.yul\":23576:23715   */\n      swap1\n      pop\n        /* \"#utility.yul\":23303:23722   */\n      swap2\n      swap1\n      pop\n      jump\t// out\n        /* \"#utility.yul\":23728:23805   */\n    tag_179:\n        /* \"#utility.yul\":23765:23772   */\n      0x00\n        /* \"#utility.yul\":23794:23799   */\n      dup2\n        /* \"#utility.yul\":23783:23799   */\n      swap1\n      pop\n        /* \"#utility.yul\":23728:23805   */\n      swap2\n      swap1\n      pop\n      jump\t// out\n        /* \"#utility.yul\":23811:23929   */\n    tag_180:\n        /* \"#utility.yul\":23898:23922   */\n      tag_431\n        /* \"#utility.yul\":23916:23921   */\n      dup2\n        /* \"#utility.yul\":23898:23922   */\n      tag_179\n      jump\t// in\n    tag_431:\n        /* \"#utility.yul\":23893:23896   */\n      dup3\n        /* \"#utility.yul\":23886:23923   */\n      mstore\n        /* \"#utility.yul\":23811:23929   */\n      pop\n      pop\n      jump\t// out\n        /* \"#utility.yul\":23935:24559   */\n    tag_92:\n        /* \"#utility.yul\":24124:24128   */\n      0x00\n        /* \"#utility.yul\":24162:24164   */\n      0x60\n        /* \"#utility.yul\":24151:24160   */\n      dup3\n        /* \"#utility.yul\":24147:24165   */\n      add\n        /* \"#utility.yul\":24139:24165   */\n      swap1\n      pop\n        /* \"#utility.yul\":24211:24220   */\n      dup2\n        /* \"#utility.yul\":24205:24209   */\n      dup2\n        /* \"#utility.yul\":24201:24221   */\n      sub\n        /* \"#utility.yul\":24197:24198   */\n      0x00\n        /* \"#utility.yul\":24186:24195   */\n      dup4\n        /* \"#utility.yul\":24182:24199   */\n      add\n        /* \"#utility.yul\":24175:24222   */\n      mstore\n        /* \"#utility.yul\":24239:24317   */\n      tag_433\n        /* \"#utility.yul\":24312:24316   */\n      dup2\n        /* \"#utility.yul\":24303:24309   */\n      dup7\n        /* \"#utility.yul\":24239:24317   */\n      tag_128\n      jump\t// in\n    tag_433:\n        /* \"#utility.yul\":24231:24317   */\n      swap1\n      pop\n        /* \"#utility.yul\":24327:24399   */\n      tag_434\n        /* \"#utility.yul\":24395:24397   */\n      0x20\n        /* \"#utility.yul\":24384:24393   */\n      dup4\n        /* \"#utility.yul\":24380:24398   */\n      add\n        /* \"#utility.yul\":24371:24377   */\n      dup6\n        /* \"#utility.yul\":24327:24399   */\n      tag_180\n      jump\t// in\n    tag_434:\n        /* \"#utility.yul\":24446:24455   */\n      dup2\n        /* \"#utility.yul\":24440:24444   */\n      dup2\n        /* \"#utility.yul\":24436:24456   */\n      sub\n        /* \"#utility.yul\":24431:24433   */\n      0x40\n        /* \"#utility.yul\":24420:24429   */\n      dup4\n        /* \"#utility.yul\":24416:24434   */\n      add\n        /* \"#utility.yul\":24409:24457   */\n      mstore\n        /* \"#utility.yul\":24474:24552   */\n      tag_435\n        /* \"#utility.yul\":24547:24551   */\n      dup2\n        /* \"#utility.yul\":24538:24544   */\n      dup5\n        /* \"#utility.yul\":24474:24552   */\n      tag_128\n      jump\t// in\n    tag_435:\n        /* \"#utility.yul\":24466:24552   */\n      swap1\n      pop\n        /* \"#utility.yul\":23935:24559   */\n      swap5\n      swap4\n      pop\n      pop\n      pop\n      pop\n      jump\t// out\n        /* \"#utility.yul\":24565:24737   */\n    tag_181:\n        /* \"#utility.yul\":24705:24729   */\n      0x53757276657920616c7265616479206578697374732e00000000000000000000\n        /* \"#utility.yul\":24701:24702   */\n      0x00\n        /* \"#utility.yul\":24693:24699   */\n      dup3\n        /* \"#utility.yul\":24689:24703   */\n      add\n        /* \"#utility.yul\":24682:24730   */\n      mstore\n        /* \"#utility.yul\":24565:24737   */\n      pop\n      jump\t// out\n        /* \"#utility.yul\":24743:25109   */\n    tag_182:\n        /* \"#utility.yul\":24885:24888   */\n      0x00\n        /* \"#utility.yul\":24906:24973   */\n      tag_438\n        /* \"#utility.yul\":24970:24972   */\n      0x16\n        /* \"#utility.yul\":24965:24968   */\n      dup4\n        /* \"#utility.yul\":24906:24973   */\n      tag_126\n      jump\t// in\n    tag_438:\n        /* \"#utility.yul\":24899:24973   */\n      swap2\n      pop\n        /* \"#utility.yul\":24982:25075   */\n      tag_439\n        /* \"#utility.yul\":25071:25074   */\n      dup3\n        /* \"#utility.yul\":24982:25075   */\n      tag_181\n      jump\t// in\n    tag_439:\n        /* \"#utility.yul\":25100:25102   */\n      0x20\n        /* \"#utility.yul\":25095:25098   */\n      dup3\n        /* \"#utility.yul\":25091:25103   */\n      add\n        /* \"#utility.yul\":25084:25103   */\n      swap1\n      pop\n        /* \"#utility.yul\":24743:25109   */\n      swap2\n      swap1\n      pop\n      jump\t// out\n        /* \"#utility.yul\":25115:25534   */\n    tag_97:\n        /* \"#utility.yul\":25281:25285   */\n      0x00\n        /* \"#utility.yul\":25319:25321   */\n      0x20\n        /* \"#utility.yul\":25308:25317   */\n      dup3\n        /* \"#utility.yul\":25304:25322   */\n      add\n        /* \"#utility.yul\":25296:25322   */\n      swap1\n      pop\n        /* \"#utility.yul\":25368:25377   */\n      dup2\n        /* \"#utility.yul\":25362:25366   */\n      dup2\n        /* \"#utility.yul\":25358:25378   */\n      sub\n        /* \"#utility.yul\":25354:25355   */\n      0x00\n        /* \"#utility.yul\":25343:25352   */\n      dup4\n        /* \"#utility.yul\":25339:25356   */\n      add\n        /* \"#utility.yul\":25332:25379   */\n      mstore\n        /* \"#utility.yul\":25396:25527   */\n      tag_441\n        /* \"#utility.yul\":25522:25526   */\n      dup2\n        /* \"#utility.yul\":25396:25527   */\n      tag_182\n      jump\t// in\n    tag_441:\n        /* \"#utility.yul\":25388:25527   */\n      swap1\n      pop\n        /* \"#utility.yul\":25115:25534   */\n      swap2\n      swap1\n      pop\n      jump\t// out\n        /* \"#utility.yul\":25540:25982   */\n    tag_103:\n        /* \"#utility.yul\":25689:25693   */\n      0x00\n        /* \"#utility.yul\":25727:25729   */\n      0x60\n        /* \"#utility.yul\":25716:25725   */\n      dup3\n        /* \"#utility.yul\":25712:25730   */\n      add\n        /* \"#utility.yul\":25704:25730   */\n      swap1\n      pop\n        /* \"#utility.yul\":25740:25811   */\n      tag_443\n        /* \"#utility.yul\":25808:25809   */\n      0x00\n        /* \"#utility.yul\":25797:25806   */\n      dup4\n        /* \"#utility.yul\":25793:25810   */\n      add\n        /* \"#utility.yul\":25784:25790   */\n      dup7\n        /* \"#utility.yul\":25740:25811   */\n      tag_133\n      jump\t// in\n    tag_443:\n        /* \"#utility.yul\":25821:25893   */\n      tag_444\n        /* \"#utility.yul\":25889:25891   */\n      0x20\n        /* \"#utility.yul\":25878:25887   */\n      dup4\n        /* \"#utility.yul\":25874:25892   */\n      add\n        /* \"#utility.yul\":25865:25871   */\n      dup6\n        /* \"#utility.yul\":25821:25893   */\n      tag_133\n      jump\t// in\n    tag_444:\n        /* \"#utility.yul\":25903:25975   */\n      tag_445\n        /* \"#utility.yul\":25971:25973   */\n      0x40\n        /* \"#utility.yul\":25960:25969   */\n      dup4\n        /* \"#utility.yul\":25956:25974   */\n      add\n        /* \"#utility.yul\":25947:25953   */\n      dup5\n        /* \"#utility.yul\":25903:25975   */\n      tag_130\n      jump\t// in\n    tag_445:\n        /* \"#utility.yul\":25540:25982   */\n      swap5\n      swap4\n      pop\n      pop\n      pop\n      pop\n      jump\t// out\n        /* \"#utility.yul\":25988:26168   */\n    tag_183:\n        /* \"#utility.yul\":26128:26160   */\n      0x4661696c656420746f206c6f636b2073757276657920726577617264732e0000\n        /* \"#utility.yul\":26124:26125   */\n      0x00\n        /* \"#utility.yul\":26116:26122   */\n      dup3\n        /* \"#utility.yul\":26112:26126   */\n      add\n        /* \"#utility.yul\":26105:26161   */\n      mstore\n        /* \"#utility.yul\":25988:26168   */\n      pop\n      jump\t// out\n        /* \"#utility.yul\":26174:26540   */\n    tag_184:\n        /* \"#utility.yul\":26316:26319   */\n      0x00\n        /* \"#utility.yul\":26337:26404   */\n      tag_448\n        /* \"#utility.yul\":26401:26403   */\n      0x1e\n        /* \"#utility.yul\":26396:26399   */\n      dup4\n        /* \"#utility.yul\":26337:26404   */\n      tag_126\n      jump\t// in\n    tag_448:\n        /* \"#utility.yul\":26330:26404   */\n      swap2\n      pop\n        /* \"#utility.yul\":26413:26506   */\n      tag_449\n        /* \"#utility.yul\":26502:26505   */\n      dup3\n        /* \"#utility.yul\":26413:26506   */\n      tag_183\n      jump\t// in\n    tag_449:\n        /* \"#utility.yul\":26531:26533   */\n      0x20\n        /* \"#utility.yul\":26526:26529   */\n      dup3\n        /* \"#utility.yul\":26522:26534   */\n      add\n        /* \"#utility.yul\":26515:26534   */\n      swap1\n      pop\n        /* \"#utility.yul\":26174:26540   */\n      swap2\n      swap1\n      pop\n      jump\t// out\n        /* \"#utility.yul\":26546:26965   */\n    tag_109:\n        /* \"#utility.yul\":26712:26716   */\n      0x00\n        /* \"#utility.yul\":26750:26752   */\n      0x20\n        /* \"#utility.yul\":26739:26748   */\n      dup3\n        /* \"#utility.yul\":26735:26753   */\n      add\n        /* \"#utility.yul\":26727:26753   */\n      swap1\n      pop\n        /* \"#utility.yul\":26799:26808   */\n      dup2\n        /* \"#utility.yul\":26793:26797   */\n      dup2\n        /* \"#utility.yul\":26789:26809   */\n      sub\n        /* \"#utility.yul\":26785:26786   */\n      0x00\n        /* \"#utility.yul\":26774:26783   */\n      dup4\n        /* \"#utility.yul\":26770:26787   */\n      add\n        /* \"#utility.yul\":26763:26810   */\n      mstore\n        /* \"#utility.yul\":26827:26958   */\n      tag_451\n        /* \"#utility.yul\":26953:26957   */\n      dup2\n        /* \"#utility.yul\":26827:26958   */\n      tag_184\n      jump\t// in\n    tag_451:\n        /* \"#utility.yul\":26819:26958   */\n      swap1\n      pop\n        /* \"#utility.yul\":26546:26965   */\n      swap2\n      swap1\n      pop\n      jump\t// out\n        /* \"#utility.yul\":26971:27817   */\n    tag_111:\n        /* \"#utility.yul\":27216:27220   */\n      0x00\n        /* \"#utility.yul\":27254:27257   */\n      0xa0\n        /* \"#utility.yul\":27243:27252   */\n      dup3\n        /* \"#utility.yul\":27239:27258   */\n      add\n        /* \"#utility.yul\":27231:27258   */\n      swap1\n      pop\n        /* \"#utility.yul\":27304:27313   */\n      dup2\n        /* \"#utility.yul\":27298:27302   */\n      dup2\n        /* \"#utility.yul\":27294:27314   */\n      sub\n        /* \"#utility.yul\":27290:27291   */\n      0x00\n        /* \"#utility.yul\":27279:27288   */\n      dup4\n        /* \"#utility.yul\":27275:27292   */\n      add\n        /* \"#utility.yul\":27268:27315   */\n      mstore\n        /* \"#utility.yul\":27332:27410   */\n      tag_453\n        /* \"#utility.yul\":27405:27409   */\n      dup2\n        /* \"#utility.yul\":27396:27402   */\n      dup9\n        /* \"#utility.yul\":27332:27410   */\n      tag_128\n      jump\t// in\n    tag_453:\n        /* \"#utility.yul\":27324:27410   */\n      swap1\n      pop\n        /* \"#utility.yul\":27420:27492   */\n      tag_454\n        /* \"#utility.yul\":27488:27490   */\n      0x20\n        /* \"#utility.yul\":27477:27486   */\n      dup4\n        /* \"#utility.yul\":27473:27491   */\n      add\n        /* \"#utility.yul\":27464:27470   */\n      dup8\n        /* \"#utility.yul\":27420:27492   */\n      tag_130\n      jump\t// in\n    tag_454:\n        /* \"#utility.yul\":27502:27574   */\n      tag_455\n        /* \"#utility.yul\":27570:27572   */\n      0x40\n        /* \"#utility.yul\":27559:27568   */\n      dup4\n        /* \"#utility.yul\":27555:27573   */\n      add\n        /* \"#utility.yul\":27546:27552   */\n      dup7\n        /* \"#utility.yul\":27502:27574   */\n      tag_130\n      jump\t// in\n    tag_455:\n        /* \"#utility.yul\":27621:27630   */\n      dup2\n        /* \"#utility.yul\":27615:27619   */\n      dup2\n        /* \"#utility.yul\":27611:27631   */\n      sub\n        /* \"#utility.yul\":27606:27608   */\n      0x60\n        /* \"#utility.yul\":27595:27604   */\n      dup4\n        /* \"#utility.yul\":27591:27609   */\n      add\n        /* \"#utility.yul\":27584:27632   */\n      mstore\n        /* \"#utility.yul\":27649:27727   */\n      tag_456\n        /* \"#utility.yul\":27722:27726   */\n      dup2\n        /* \"#utility.yul\":27713:27719   */\n      dup6\n        /* \"#utility.yul\":27649:27727   */\n      tag_128\n      jump\t// in\n    tag_456:\n        /* \"#utility.yul\":27641:27727   */\n      swap1\n      pop\n        /* \"#utility.yul\":27737:27810   */\n      tag_457\n        /* \"#utility.yul\":27805:27808   */\n      0x80\n        /* \"#utility.yul\":27794:27803   */\n      dup4\n        /* \"#utility.yul\":27790:27809   */\n      add\n        /* \"#utility.yul\":27781:27787   */\n      dup5\n        /* \"#utility.yul\":27737:27810   */\n      tag_133\n      jump\t// in\n    tag_457:\n        /* \"#utility.yul\":26971:27817   */\n      swap7\n      swap6\n      pop\n      pop\n      pop\n      pop\n      pop\n      pop\n      jump\t// out\n\n    auxdata: 0xa2646970667358221220ba30ecb09c00d6e990c15671a2d04f5be467c812d8d86f8470947805460a720c64736f6c63430008180033\n}\n",
				"bytecode": {
					"linkReferences": {},
					"object": "608060405234801562000010575f80fd5b5060405162001a4e38038062001a4e8339818101604052810190620000369190620000f4565b805f806101000a81548173ffffffffffffffffffffffffffffffffffffffff021916908373ffffffffffffffffffffffffffffffffffffffff1602179055505062000124565b5f80fd5b5f73ffffffffffffffffffffffffffffffffffffffff82169050919050565b5f620000ab8262000080565b9050919050565b5f620000be826200009f565b9050919050565b620000d081620000b2565b8114620000db575f80fd5b50565b5f81519050620000ee81620000c5565b92915050565b5f602082840312156200010c576200010b6200007c565b5b5f6200011b84828501620000de565b91505092915050565b61191c80620001325f395ff3fe608060405234801561000f575f80fd5b5060043610610055575f3560e01c80631d88311d14610059578063741022d514610075578063c5b44712146100ab578063f76c9e2a146100c7578063fc0c546a146100e3575b5f80fd5b610073600480360381019061006e9190610bcf565b610101565b005b61008f600480360381019061008a9190610bcf565b610399565b6040516100a29796959493929190610d01565b60405180910390f35b6100c560048036038101906100c09190610d7c565b610526565b005b6100e160048036038101906100dc9190610e1c565b610803565b005b6100eb610a5f565b6040516100f89190610f13565b60405180910390f35b6001816040516101119190610f66565b90815260200160405180910390206006015f9054906101000a900460ff1661016e576040517f08c379a000000000000000000000000000000000000000000000000000000000815260040161016590610fc6565b60405180910390fd5b5f60018260405161017f9190610f66565b90815260200160405180910390209050806004015f9054906101000a900473ffffffffffffffffffffffffffffffffffffffff1673ffffffffffffffffffffffffffffffffffffffff163373ffffffffffffffffffffffffffffffffffffffff1614610220576040517f08c379a000000000000000000000000000000000000000000000000000000000815260040161021790611054565b60405180910390fd5b5f81600301548260020154610235919061109f565b826001015461024491906110d2565b90505f826006015f6101000a81548160ff0219169083151502179055505f8054906101000a900473ffffffffffffffffffffffffffffffffffffffff1673ffffffffffffffffffffffffffffffffffffffff1663a9059cbb836004015f9054906101000a900473ffffffffffffffffffffffffffffffffffffffff16836040518363ffffffff1660e01b81526004016102de929190611113565b6020604051808303815f875af11580156102fa573d5f803e3d5ffd5b505050506040513d601f19601f8201168201806040525081019061031e9190611164565b61035d576040517f08c379a0000000000000000000000000000000000000000000000000000000008152600401610354906111ff565b60405180910390fd5b7f198f037423587a92bc0a6dabea768d107117cb1d9fc913a1899ea410c2f389588360405161038c919061121d565b60405180910390a1505050565b6001818051602081018201805184825260208301602085012081835280955050505050505f91509050805f0180546103d09061126a565b80601f01602080910402602001604051908101604052809291908181526020018280546103fc9061126a565b80156104475780601f1061041e57610100808354040283529160200191610447565b820191905f5260205f20905b81548152906001019060200180831161042a57829003601f168201915b505050505090806001015490806002015490806003015490806004015f9054906101000a900473ffffffffffffffffffffffffffffffffffffffff16908060050180546104939061126a565b80601f01602080910402602001604051908101604052809291908181526020018280546104bf9061126a565b801561050a5780601f106104e15761010080835404028352916020019161050a565b820191905f5260205f20905b8154815290600101906020018083116104ed57829003601f168201915b505050505090806006015f9054906101000a900460ff16905087565b6001826040516105369190610f66565b90815260200160405180910390206006015f9054906101000a900460ff16610593576040517f08c379a000000000000000000000000000000000000000000000000000000000815260040161058a90610fc6565b60405180910390fd5b5f336040516020016105a591906112df565b6040516020818303038152906040528051906020012090505f6001846040516105ce9190610f66565b90815260200160405180910390206007015f8381526020019081526020015f2080546105f99061126a565b90501461063b576040517f08c379a000000000000000000000000000000000000000000000000000000000815260040161063290611369565b60405180910390fd5b5f60018460405161064c9190610f66565b9081526020016040518091039020905080600201548160030154106106a6576040517f08c379a000000000000000000000000000000000000000000000000000000000815260040161069d906113f7565b60405180910390fd5b82816007015f8481526020019081526020015f2090816106c691906115a9565b50806003015f8154809291906106db90611678565b91905055505f816001015490505f8054906101000a900473ffffffffffffffffffffffffffffffffffffffff1673ffffffffffffffffffffffffffffffffffffffff1663a9059cbb33836040518363ffffffff1660e01b8152600401610742929190611113565b6020604051808303815f875af115801561075e573d5f803e3d5ffd5b505050506040513d601f19601f820116820180604052508101906107829190611164565b6107c1576040517f08c379a00000000000000000000000000000000000000000000000000000000081526004016107b890611709565b60405180910390fd5b7f2d233f452d91aed0a629e2b7f21a3deb523feb9f61d4bb8be2b5d8cc07de12518584866040516107f49392919061173f565b60405180910390a15050505050565b6001846040516108139190610f66565b90815260200160405180910390206006015f9054906101000a900460ff1615610871576040517f08c379a0000000000000000000000000000000000000000000000000000000008152600401610868906117cc565b60405180910390fd5b5f6001856040516108829190610f66565b9081526020016040518091039020905084815f0190816108a291906115a9565b508381600101819055508281600201819055505f816003018190555033816004015f6101000a81548173ffffffffffffffffffffffffffffffffffffffff021916908373ffffffffffffffffffffffffffffffffffffffff1602179055508181600501908161091191906115a9565b506001816006015f6101000a81548160ff0219169083151502179055505f838561093b91906110d2565b90505f8054906101000a900473ffffffffffffffffffffffffffffffffffffffff1673ffffffffffffffffffffffffffffffffffffffff166323b872dd3330846040518463ffffffff1660e01b8152600401610999939291906117ea565b6020604051808303815f875af11580156109b5573d5f803e3d5ffd5b505050506040513d601f19601f820116820180604052508101906109d99190611164565b610a18576040517f08c379a0000000000000000000000000000000000000000000000000000000008152600401610a0f90611869565b60405180910390fd5b7f8723cdc1e702a6d604ab7836dd76d51ee5190e8aa5437910f8317d2e8f6a00b18682868633604051610a4f959493929190611887565b60405180910390a1505050505050565b5f8054906101000a900473ffffffffffffffffffffffffffffffffffffffff1681565b5f604051905090565b5f80fd5b5f80fd5b5f80fd5b5f80fd5b5f601f19601f8301169050919050565b7f4e487b71000000000000000000000000000000000000000000000000000000005f52604160045260245ffd5b610ae182610a9b565b810181811067ffffffffffffffff82111715610b0057610aff610aab565b5b80604052505050565b5f610b12610a82565b9050610b1e8282610ad8565b919050565b5f67ffffffffffffffff821115610b3d57610b3c610aab565b5b610b4682610a9b565b9050602081019050919050565b828183375f83830152505050565b5f610b73610b6e84610b23565b610b09565b905082815260208101848484011115610b8f57610b8e610a97565b5b610b9a848285610b53565b509392505050565b5f82601f830112610bb657610bb5610a93565b5b8135610bc6848260208601610b61565b91505092915050565b5f60208284031215610be457610be3610a8b565b5b5f82013567ffffffffffffffff811115610c0157610c00610a8f565b5b610c0d84828501610ba2565b91505092915050565b5f81519050919050565b5f82825260208201905092915050565b5f5b83811015610c4d578082015181840152602081019050610c32565b5f8484015250505050565b5f610c6282610c16565b610c6c8185610c20565b9350610c7c818560208601610c30565b610c8581610a9b565b840191505092915050565b5f819050919050565b610ca281610c90565b82525050565b5f73ffffffffffffffffffffffffffffffffffffffff82169050919050565b5f610cd182610ca8565b9050919050565b610ce181610cc7565b82525050565b5f8115159050919050565b610cfb81610ce7565b82525050565b5f60e0820190508181035f830152610d19818a610c58565b9050610d286020830189610c99565b610d356040830188610c99565b610d426060830187610c99565b610d4f6080830186610cd8565b81810360a0830152610d618185610c58565b9050610d7060c0830184610cf2565b98975050505050505050565b5f8060408385031215610d9257610d91610a8b565b5b5f83013567ffffffffffffffff811115610daf57610dae610a8f565b5b610dbb85828601610ba2565b925050602083013567ffffffffffffffff811115610ddc57610ddb610a8f565b5b610de885828601610ba2565b9150509250929050565b610dfb81610c90565b8114610e05575f80fd5b50565b5f81359050610e1681610df2565b92915050565b5f805f8060808587031215610e3457610e33610a8b565b5b5f85013567ffffffffffffffff811115610e5157610e50610a8f565b5b610e5d87828801610ba2565b9450506020610e6e87828801610e08565b9350506040610e7f87828801610e08565b925050606085013567ffffffffffffffff811115610ea057610e9f610a8f565b5b610eac87828801610ba2565b91505092959194509250565b5f819050919050565b5f610edb610ed6610ed184610ca8565b610eb8565b610ca8565b9050919050565b5f610eec82610ec1565b9050919050565b5f610efd82610ee2565b9050919050565b610f0d81610ef3565b82525050565b5f602082019050610f265f830184610f04565b92915050565b5f81905092915050565b5f610f4082610c16565b610f4a8185610f2c565b9350610f5a818560208601610c30565b80840191505092915050565b5f610f718284610f36565b915081905092915050565b7f53757276657920646f6573206e6f742065786973742e000000000000000000005f82015250565b5f610fb0601683610c20565b9150610fbb82610f7c565b602082019050919050565b5f6020820190508181035f830152610fdd81610fa4565b9050919050565b7f4f6e6c7920746865207375727665792063726561746f722063616e2063616e635f8201527f656c20746865207375727665792e000000000000000000000000000000000000602082015250565b5f61103e602e83610c20565b915061104982610fe4565b604082019050919050565b5f6020820190508181035f83015261106b81611032565b9050919050565b7f4e487b71000000000000000000000000000000000000000000000000000000005f52601160045260245ffd5b5f6110a982610c90565b91506110b483610c90565b92508282039050818111156110cc576110cb611072565b5b92915050565b5f6110dc82610c90565b91506110e783610c90565b92508282026110f581610c90565b9150828204841483151761110c5761110b611072565b5b5092915050565b5f6040820190506111265f830185610cd8565b6111336020830184610c99565b9392505050565b61114381610ce7565b811461114d575f80fd5b50565b5f8151905061115e8161113a565b92915050565b5f6020828403121561117957611178610a8b565b5b5f61118684828501611150565b91505092915050565b7f4661696c656420746f2072657475726e2072656d61696e696e672072657761725f8201527f64732e0000000000000000000000000000000000000000000000000000000000602082015250565b5f6111e9602383610c20565b91506111f48261118f565b604082019050919050565b5f6020820190508181035f830152611216816111dd565b9050919050565b5f6020820190508181035f8301526112358184610c58565b905092915050565b7f4e487b71000000000000000000000000000000000000000000000000000000005f52602260045260245ffd5b5f600282049050600182168061128157607f821691505b6020821081036112945761129361123d565b5b50919050565b5f8160601b9050919050565b5f6112b08261129a565b9050919050565b5f6112c1826112a6565b9050919050565b6112d96112d482610cc7565b6112b7565b82525050565b5f6112ea82846112c8565b60148201915081905092915050565b7f526573706f6e6465722068617320616c726561647920616e73776572656420745f8201527f686973207375727665792e000000000000000000000000000000000000000000602082015250565b5f611353602b83610c20565b915061135e826112f9565b604082019050919050565b5f6020820190508181035f83015261138081611347565b9050919050565b7f5375727665792068617320616c726561647920726561636865642069747320655f8201527f7870656374656420726573706f6e64656e74732e000000000000000000000000602082015250565b5f6113e1603483610c20565b91506113ec82611387565b604082019050919050565b5f6020820190508181035f83015261140e816113d5565b9050919050565b5f819050815f5260205f209050919050565b5f6020601f8301049050919050565b5f82821b905092915050565b5f600883026114717fffffffffffffffffffffffffffffffffffffffffffffffffffffffffffffffff82611436565b61147b8683611436565b95508019841693508086168417925050509392505050565b5f6114ad6114a86114a384610c90565b610eb8565b610c90565b9050919050565b5f819050919050565b6114c683611493565b6114da6114d2826114b4565b848454611442565b825550505050565b5f90565b6114ee6114e2565b6114f98184846114bd565b505050565b5b8181101561151c576115115f826114e6565b6001810190506114ff565b5050565b601f8211156115615761153281611415565b61153b84611427565b8101602085101561154a578190505b61155e61155685611427565b8301826114fe565b50505b505050565b5f82821c905092915050565b5f6115815f1984600802611566565b1980831691505092915050565b5f6115998383611572565b9150826002028217905092915050565b6115b282610c16565b67ffffffffffffffff8111156115cb576115ca610aab565b5b6115d5825461126a565b6115e0828285611520565b5f60209050601f831160018114611611575f84156115ff578287015190505b611609858261158e565b865550611670565b601f19841661161f86611415565b5f5b8281101561164657848901518255600182019150602085019450602081019050611621565b86831015611663578489015161165f601f891682611572565b8355505b6001600288020188555050505b505050505050565b5f61168282610c90565b91507fffffffffffffffffffffffffffffffffffffffffffffffffffffffffffffffff82036116b4576116b3611072565b5b600182019050919050565b7f4661696c656420746f2064697374726962757465207265776172642e000000005f82015250565b5f6116f3601c83610c20565b91506116fe826116bf565b602082019050919050565b5f6020820190508181035f830152611720816116e7565b9050919050565b5f819050919050565b61173981611727565b82525050565b5f6060820190508181035f8301526117578186610c58565b90506117666020830185611730565b81810360408301526117788184610c58565b9050949350505050565b7f53757276657920616c7265616479206578697374732e000000000000000000005f82015250565b5f6117b6601683610c20565b91506117c182611782565b602082019050919050565b5f6020820190508181035f8301526117e3816117aa565b9050919050565b5f6060820190506117fd5f830186610cd8565b61180a6020830185610cd8565b6118176040830184610c99565b949350505050565b7f4661696c656420746f206c6f636b2073757276657920726577617264732e00005f82015250565b5f611853601e83610c20565b915061185e8261181f565b602082019050919050565b5f6020820190508181035f83015261188081611847565b9050919050565b5f60a0820190508181035f83015261189f8188610c58565b90506118ae6020830187610c99565b6118bb6040830186610c99565b81810360608301526118cd8185610c58565b90506118dc6080830184610cd8565b969550505050505056fea2646970667358221220ba30ecb09c00d6e990c15671a2d04f5be467c812d8d86f8470947805460a720c64736f6c63430008180033",
					"opcodes": "PUSH1 0x80 PUSH1 0x40 MSTORE CALLVALUE DUP1 ISZERO PUSH3 0x10 JUMPI PUSH0 DUP1 REVERT JUMPDEST POP PUSH1 0x40 MLOAD PUSH3 0x1A4E CODESIZE SUB DUP1 PUSH3 0x1A4E DUP4 CODECOPY DUP2 DUP2 ADD PUSH1 0x40 MSTORE DUP2 ADD SWAP1 PUSH3 0x36 SWAP2 SWAP1 PUSH3 0xF4 JUMP JUMPDEST DUP1 PUSH0 DUP1 PUSH2 0x100 EXP DUP2 SLOAD DUP2 PUSH20 0xFFFFFFFFFFFFFFFFFFFFFFFFFFFFFFFFFFFFFFFF MUL NOT AND SWAP1 DUP4 PUSH20 0xFFFFFFFFFFFFFFFFFFFFFFFFFFFFFFFFFFFFFFFF AND MUL OR SWAP1 SSTORE POP POP PUSH3 0x124 JUMP JUMPDEST PUSH0 DUP1 REVERT JUMPDEST PUSH0 PUSH20 0xFFFFFFFFFFFFFFFFFFFFFFFFFFFFFFFFFFFFFFFF DUP3 AND SWAP1 POP SWAP2 SWAP1 POP JUMP JUMPDEST PUSH0 PUSH3 0xAB DUP3 PUSH3 0x80 JUMP JUMPDEST SWAP1 POP SWAP2 SWAP1 POP JUMP JUMPDEST PUSH0 PUSH3 0xBE DUP3 PUSH3 0x9F JUMP JUMPDEST SWAP1 POP SWAP2 SWAP1 POP JUMP JUMPDEST PUSH3 0xD0 DUP2 PUSH3 0xB2 JUMP JUMPDEST DUP2 EQ PUSH3 0xDB JUMPI PUSH0 DUP1 REVERT JUMPDEST POP JUMP JUMPDEST PUSH0 DUP2 MLOAD SWAP1 POP PUSH3 0xEE DUP2 PUSH3 0xC5 JUMP JUMPDEST SWAP3 SWAP2 POP POP JUMP JUMPDEST PUSH0 PUSH1 0x20 DUP3 DUP5 SUB SLT ISZERO PUSH3 0x10C JUMPI PUSH3 0x10B PUSH3 0x7C JUMP JUMPDEST JUMPDEST PUSH0 PUSH3 0x11B DUP5 DUP3 DUP6 ADD PUSH3 0xDE JUMP JUMPDEST SWAP2 POP POP SWAP3 SWAP2 POP POP JUMP JUMPDEST PUSH2 0x191C DUP1 PUSH3 0x132 PUSH0 CODECOPY PUSH0 RETURN INVALID PUSH1 0x80 PUSH1 0x40 MSTORE CALLVALUE DUP1 ISZERO PUSH2 0xF JUMPI PUSH0 DUP1 REVERT JUMPDEST POP PUSH1 0x4 CALLDATASIZE LT PUSH2 0x55 JUMPI PUSH0 CALLDATALOAD PUSH1 0xE0 SHR DUP1 PUSH4 0x1D88311D EQ PUSH2 0x59 JUMPI DUP1 PUSH4 0x741022D5 EQ PUSH2 0x75 JUMPI DUP1 PUSH4 0xC5B44712 EQ PUSH2 0xAB JUMPI DUP1 PUSH4 0xF76C9E2A EQ PUSH2 0xC7 JUMPI DUP1 PUSH4 0xFC0C546A EQ PUSH2 0xE3 JUMPI JUMPDEST PUSH0 DUP1 REVERT JUMPDEST PUSH2 0x73 PUSH1 0x4 DUP1 CALLDATASIZE SUB DUP2 ADD SWAP1 PUSH2 0x6E SWAP2 SWAP1 PUSH2 0xBCF JUMP JUMPDEST PUSH2 0x101 JUMP JUMPDEST STOP JUMPDEST PUSH2 0x8F PUSH1 0x4 DUP1 CALLDATASIZE SUB DUP2 ADD SWAP1 PUSH2 0x8A SWAP2 SWAP1 PUSH2 0xBCF JUMP JUMPDEST PUSH2 0x399 JUMP JUMPDEST PUSH1 0x40 MLOAD PUSH2 0xA2 SWAP8 SWAP7 SWAP6 SWAP5 SWAP4 SWAP3 SWAP2 SWAP1 PUSH2 0xD01 JUMP JUMPDEST PUSH1 0x40 MLOAD DUP1 SWAP2 SUB SWAP1 RETURN JUMPDEST PUSH2 0xC5 PUSH1 0x4 DUP1 CALLDATASIZE SUB DUP2 ADD SWAP1 PUSH2 0xC0 SWAP2 SWAP1 PUSH2 0xD7C JUMP JUMPDEST PUSH2 0x526 JUMP JUMPDEST STOP JUMPDEST PUSH2 0xE1 PUSH1 0x4 DUP1 CALLDATASIZE SUB DUP2 ADD SWAP1 PUSH2 0xDC SWAP2 SWAP1 PUSH2 0xE1C JUMP JUMPDEST PUSH2 0x803 JUMP JUMPDEST STOP JUMPDEST PUSH2 0xEB PUSH2 0xA5F JUMP JUMPDEST PUSH1 0x40 MLOAD PUSH2 0xF8 SWAP2 SWAP1 PUSH2 0xF13 JUMP JUMPDEST PUSH1 0x40 MLOAD DUP1 SWAP2 SUB SWAP1 RETURN JUMPDEST PUSH1 0x1 DUP2 PUSH1 0x40 MLOAD PUSH2 0x111 SWAP2 SWAP1 PUSH2 0xF66 JUMP JUMPDEST SWAP1 DUP2 MSTORE PUSH1 0x20 ADD PUSH1 0x40 MLOAD DUP1 SWAP2 SUB SWAP1 KECCAK256 PUSH1 0x6 ADD PUSH0 SWAP1 SLOAD SWAP1 PUSH2 0x100 EXP SWAP1 DIV PUSH1 0xFF AND PUSH2 0x16E JUMPI PUSH1 0x40 MLOAD PUSH32 0x8C379A000000000000000000000000000000000000000000000000000000000 DUP2 MSTORE PUSH1 0x4 ADD PUSH2 0x165 SWAP1 PUSH2 0xFC6 JUMP JUMPDEST PUSH1 0x40 MLOAD DUP1 SWAP2 SUB SWAP1 REVERT JUMPDEST PUSH0 PUSH1 0x1 DUP3 PUSH1 0x40 MLOAD PUSH2 0x17F SWAP2 SWAP1 PUSH2 0xF66 JUMP JUMPDEST SWAP1 DUP2 MSTORE PUSH1 0x20 ADD PUSH1 0x40 MLOAD DUP1 SWAP2 SUB SWAP1 KECCAK256 SWAP1 POP DUP1 PUSH1 0x4 ADD PUSH0 SWAP1 SLOAD SWAP1 PUSH2 0x100 EXP SWAP1 DIV PUSH20 0xFFFFFFFFFFFFFFFFFFFFFFFFFFFFFFFFFFFFFFFF AND PUSH20 0xFFFFFFFFFFFFFFFFFFFFFFFFFFFFFFFFFFFFFFFF AND CALLER PUSH20 0xFFFFFFFFFFFFFFFFFFFFFFFFFFFFFFFFFFFFFFFF AND EQ PUSH2 0x220 JUMPI PUSH1 0x40 MLOAD PUSH32 0x8C379A000000000000000000000000000000000000000000000000000000000 DUP2 MSTORE PUSH1 0x4 ADD PUSH2 0x217 SWAP1 PUSH2 0x1054 JUMP JUMPDEST PUSH1 0x40 MLOAD DUP1 SWAP2 SUB SWAP1 REVERT JUMPDEST PUSH0 DUP2 PUSH1 0x3 ADD SLOAD DUP3 PUSH1 0x2 ADD SLOAD PUSH2 0x235 SWAP2 SWAP1 PUSH2 0x109F JUMP JUMPDEST DUP3 PUSH1 0x1 ADD SLOAD PUSH2 0x244 SWAP2 SWAP1 PUSH2 0x10D2 JUMP JUMPDEST SWAP1 POP PUSH0 DUP3 PUSH1 0x6 ADD PUSH0 PUSH2 0x100 EXP DUP2 SLOAD DUP2 PUSH1 0xFF MUL NOT AND SWAP1 DUP4 ISZERO ISZERO MUL OR SWAP1 SSTORE POP PUSH0 DUP1 SLOAD SWAP1 PUSH2 0x100 EXP SWAP1 DIV PUSH20 0xFFFFFFFFFFFFFFFFFFFFFFFFFFFFFFFFFFFFFFFF AND PUSH20 0xFFFFFFFFFFFFFFFFFFFFFFFFFFFFFFFFFFFFFFFF AND PUSH4 0xA9059CBB DUP4 PUSH1 0x4 ADD PUSH0 SWAP1 SLOAD SWAP1 PUSH2 0x100 EXP SWAP1 DIV PUSH20 0xFFFFFFFFFFFFFFFFFFFFFFFFFFFFFFFFFFFFFFFF AND DUP4 PUSH1 0x40 MLOAD DUP4 PUSH4 0xFFFFFFFF AND PUSH1 0xE0 SHL DUP2 MSTORE PUSH1 0x4 ADD PUSH2 0x2DE SWAP3 SWAP2 SWAP1 PUSH2 0x1113 JUMP JUMPDEST PUSH1 0x20 PUSH1 0x40 MLOAD DUP1 DUP4 SUB DUP2 PUSH0 DUP8 GAS CALL ISZERO DUP1 ISZERO PUSH2 0x2FA JUMPI RETURNDATASIZE PUSH0 DUP1 RETURNDATACOPY RETURNDATASIZE PUSH0 REVERT JUMPDEST POP POP POP POP PUSH1 0x40 MLOAD RETURNDATASIZE PUSH1 0x1F NOT PUSH1 0x1F DUP3 ADD AND DUP3 ADD DUP1 PUSH1 0x40 MSTORE POP DUP2 ADD SWAP1 PUSH2 0x31E SWAP2 SWAP1 PUSH2 0x1164 JUMP JUMPDEST PUSH2 0x35D JUMPI PUSH1 0x40 MLOAD PUSH32 0x8C379A000000000000000000000000000000000000000000000000000000000 DUP2 MSTORE PUSH1 0x4 ADD PUSH2 0x354 SWAP1 PUSH2 0x11FF JUMP JUMPDEST PUSH1 0x40 MLOAD DUP1 SWAP2 SUB SWAP1 REVERT JUMPDEST PUSH32 0x198F037423587A92BC0A6DABEA768D107117CB1D9FC913A1899EA410C2F38958 DUP4 PUSH1 0x40 MLOAD PUSH2 0x38C SWAP2 SWAP1 PUSH2 0x121D JUMP JUMPDEST PUSH1 0x40 MLOAD DUP1 SWAP2 SUB SWAP1 LOG1 POP POP POP JUMP JUMPDEST PUSH1 0x1 DUP2 DUP1 MLOAD PUSH1 0x20 DUP2 ADD DUP3 ADD DUP1 MLOAD DUP5 DUP3 MSTORE PUSH1 0x20 DUP4 ADD PUSH1 0x20 DUP6 ADD KECCAK256 DUP2 DUP4 MSTORE DUP1 SWAP6 POP POP POP POP POP POP PUSH0 SWAP2 POP SWAP1 POP DUP1 PUSH0 ADD DUP1 SLOAD PUSH2 0x3D0 SWAP1 PUSH2 0x126A JUMP JUMPDEST DUP1 PUSH1 0x1F ADD PUSH1 0x20 DUP1 SWAP2 DIV MUL PUSH1 0x20 ADD PUSH1 0x40 MLOAD SWAP1 DUP2 ADD PUSH1 0x40 MSTORE DUP1 SWAP3 SWAP2 SWAP1 DUP2 DUP2 MSTORE PUSH1 0x20 ADD DUP3 DUP1 SLOAD PUSH2 0x3FC SWAP1 PUSH2 0x126A JUMP JUMPDEST DUP1 ISZERO PUSH2 0x447 JUMPI DUP1 PUSH1 0x1F LT PUSH2 0x41E JUMPI PUSH2 0x100 DUP1 DUP4 SLOAD DIV MUL DUP4 MSTORE SWAP2 PUSH1 0x20 ADD SWAP2 PUSH2 0x447 JUMP JUMPDEST DUP3 ADD SWAP2 SWAP1 PUSH0 MSTORE PUSH1 0x20 PUSH0 KECCAK256 SWAP1 JUMPDEST DUP2 SLOAD DUP2 MSTORE SWAP1 PUSH1 0x1 ADD SWAP1 PUSH1 0x20 ADD DUP1 DUP4 GT PUSH2 0x42A JUMPI DUP3 SWAP1 SUB PUSH1 0x1F AND DUP3 ADD SWAP2 JUMPDEST POP POP POP POP POP SWAP1 DUP1 PUSH1 0x1 ADD SLOAD SWAP1 DUP1 PUSH1 0x2 ADD SLOAD SWAP1 DUP1 PUSH1 0x3 ADD SLOAD SWAP1 DUP1 PUSH1 0x4 ADD PUSH0 SWAP1 SLOAD SWAP1 PUSH2 0x100 EXP SWAP1 DIV PUSH20 0xFFFFFFFFFFFFFFFFFFFFFFFFFFFFFFFFFFFFFFFF AND SWAP1 DUP1 PUSH1 0x5 ADD DUP1 SLOAD PUSH2 0x493 SWAP1 PUSH2 0x126A JUMP JUMPDEST DUP1 PUSH1 0x1F ADD PUSH1 0x20 DUP1 SWAP2 DIV MUL PUSH1 0x20 ADD PUSH1 0x40 MLOAD SWAP1 DUP2 ADD PUSH1 0x40 MSTORE DUP1 SWAP3 SWAP2 SWAP1 DUP2 DUP2 MSTORE PUSH1 0x20 ADD DUP3 DUP1 SLOAD PUSH2 0x4BF SWAP1 PUSH2 0x126A JUMP JUMPDEST DUP1 ISZERO PUSH2 0x50A JUMPI DUP1 PUSH1 0x1F LT PUSH2 0x4E1 JUMPI PUSH2 0x100 DUP1 DUP4 SLOAD DIV MUL DUP4 MSTORE SWAP2 PUSH1 0x20 ADD SWAP2 PUSH2 0x50A JUMP JUMPDEST DUP3 ADD SWAP2 SWAP1 PUSH0 MSTORE PUSH1 0x20 PUSH0 KECCAK256 SWAP1 JUMPDEST DUP2 SLOAD DUP2 MSTORE SWAP1 PUSH1 0x1 ADD SWAP1 PUSH1 0x20 ADD DUP1 DUP4 GT PUSH2 0x4ED JUMPI DUP3 SWAP1 SUB PUSH1 0x1F AND DUP3 ADD SWAP2 JUMPDEST POP POP POP POP POP SWAP1 DUP1 PUSH1 0x6 ADD PUSH0 SWAP1 SLOAD SWAP1 PUSH2 0x100 EXP SWAP1 DIV PUSH1 0xFF AND SWAP1 POP DUP8 JUMP JUMPDEST PUSH1 0x1 DUP3 PUSH1 0x40 MLOAD PUSH2 0x536 SWAP2 SWAP1 PUSH2 0xF66 JUMP JUMPDEST SWAP1 DUP2 MSTORE PUSH1 0x20 ADD PUSH1 0x40 MLOAD DUP1 SWAP2 SUB SWAP1 KECCAK256 PUSH1 0x6 ADD PUSH0 SWAP1 SLOAD SWAP1 PUSH2 0x100 EXP SWAP1 DIV PUSH1 0xFF AND PUSH2 0x593 JUMPI PUSH1 0x40 MLOAD PUSH32 0x8C379A000000000000000000000000000000000000000000000000000000000 DUP2 MSTORE PUSH1 0x4 ADD PUSH2 0x58A SWAP1 PUSH2 0xFC6 JUMP JUMPDEST PUSH1 0x40 MLOAD DUP1 SWAP2 SUB SWAP1 REVERT JUMPDEST PUSH0 CALLER PUSH1 0x40 MLOAD PUSH1 0x20 ADD PUSH2 0x5A5 SWAP2 SWAP1 PUSH2 0x12DF JUMP JUMPDEST PUSH1 0x40 MLOAD PUSH1 0x20 DUP2 DUP4 SUB SUB DUP2 MSTORE SWAP1 PUSH1 0x40 MSTORE DUP1 MLOAD SWAP1 PUSH1 0x20 ADD KECCAK256 SWAP1 POP PUSH0 PUSH1 0x1 DUP5 PUSH1 0x40 MLOAD PUSH2 0x5CE SWAP2 SWAP1 PUSH2 0xF66 JUMP JUMPDEST SWAP1 DUP2 MSTORE PUSH1 0x20 ADD PUSH1 0x40 MLOAD DUP1 SWAP2 SUB SWAP1 KECCAK256 PUSH1 0x7 ADD PUSH0 DUP4 DUP2 MSTORE PUSH1 0x20 ADD SWAP1 DUP2 MSTORE PUSH1 0x20 ADD PUSH0 KECCAK256 DUP1 SLOAD PUSH2 0x5F9 SWAP1 PUSH2 0x126A JUMP JUMPDEST SWAP1 POP EQ PUSH2 0x63B JUMPI PUSH1 0x40 MLOAD PUSH32 0x8C379A000000000000000000000000000000000000000000000000000000000 DUP2 MSTORE PUSH1 0x4 ADD PUSH2 0x632 SWAP1 PUSH2 0x1369 JUMP JUMPDEST PUSH1 0x40 MLOAD DUP1 SWAP2 SUB SWAP1 REVERT JUMPDEST PUSH0 PUSH1 0x1 DUP5 PUSH1 0x40 MLOAD PUSH2 0x64C SWAP2 SWAP1 PUSH2 0xF66 JUMP JUMPDEST SWAP1 DUP2 MSTORE PUSH1 0x20 ADD PUSH1 0x40 MLOAD DUP1 SWAP2 SUB SWAP1 KECCAK256 SWAP1 POP DUP1 PUSH1 0x2 ADD SLOAD DUP2 PUSH1 0x3 ADD SLOAD LT PUSH2 0x6A6 JUMPI PUSH1 0x40 MLOAD PUSH32 0x8C379A000000000000000000000000000000000000000000000000000000000 DUP2 MSTORE PUSH1 0x4 ADD PUSH2 0x69D SWAP1 PUSH2 0x13F7 JUMP JUMPDEST PUSH1 0x40 MLOAD DUP1 SWAP2 SUB SWAP1 REVERT JUMPDEST DUP3 DUP2 PUSH1 0x7 ADD PUSH0 DUP5 DUP2 MSTORE PUSH1 0x20 ADD SWAP1 DUP2 MSTORE PUSH1 0x20 ADD PUSH0 KECCAK256 SWAP1 DUP2 PUSH2 0x6C6 SWAP2 SWAP1 PUSH2 0x15A9 JUMP JUMPDEST POP DUP1 PUSH1 0x3 ADD PUSH0 DUP2 SLOAD DUP1 SWAP3 SWAP2 SWAP1 PUSH2 0x6DB SWAP1 PUSH2 0x1678 JUMP JUMPDEST SWAP2 SWAP1 POP SSTORE POP PUSH0 DUP2 PUSH1 0x1 ADD SLOAD SWAP1 POP PUSH0 DUP1 SLOAD SWAP1 PUSH2 0x100 EXP SWAP1 DIV PUSH20 0xFFFFFFFFFFFFFFFFFFFFFFFFFFFFFFFFFFFFFFFF AND PUSH20 0xFFFFFFFFFFFFFFFFFFFFFFFFFFFFFFFFFFFFFFFF AND PUSH4 0xA9059CBB CALLER DUP4 PUSH1 0x40 MLOAD DUP4 PUSH4 0xFFFFFFFF AND PUSH1 0xE0 SHL DUP2 MSTORE PUSH1 0x4 ADD PUSH2 0x742 SWAP3 SWAP2 SWAP1 PUSH2 0x1113 JUMP JUMPDEST PUSH1 0x20 PUSH1 0x40 MLOAD DUP1 DUP4 SUB DUP2 PUSH0 DUP8 GAS CALL ISZERO DUP1 ISZERO PUSH2 0x75E JUMPI RETURNDATASIZE PUSH0 DUP1 RETURNDATACOPY RETURNDATASIZE PUSH0 REVERT JUMPDEST POP POP POP POP PUSH1 0x40 MLOAD RETURNDATASIZE PUSH1 0x1F NOT PUSH1 0x1F DUP3 ADD AND DUP3 ADD DUP1 PUSH1 0x40 MSTORE POP DUP2 ADD SWAP1 PUSH2 0x782 SWAP2 SWAP1 PUSH2 0x1164 JUMP JUMPDEST PUSH2 0x7C1 JUMPI PUSH1 0x40 MLOAD PUSH32 0x8C379A000000000000000000000000000000000000000000000000000000000 DUP2 MSTORE PUSH1 0x4 ADD PUSH2 0x7B8 SWAP1 PUSH2 0x1709 JUMP JUMPDEST PUSH1 0x40 MLOAD DUP1 SWAP2 SUB SWAP1 REVERT JUMPDEST PUSH32 0x2D233F452D91AED0A629E2B7F21A3DEB523FEB9F61D4BB8BE2B5D8CC07DE1251 DUP6 DUP5 DUP7 PUSH1 0x40 MLOAD PUSH2 0x7F4 SWAP4 SWAP3 SWAP2 SWAP1 PUSH2 0x173F JUMP JUMPDEST PUSH1 0x40 MLOAD DUP1 SWAP2 SUB SWAP1 LOG1 POP POP POP POP POP JUMP JUMPDEST PUSH1 0x1 DUP5 PUSH1 0x40 MLOAD PUSH2 0x813 SWAP2 SWAP1 PUSH2 0xF66 JUMP JUMPDEST SWAP1 DUP2 MSTORE PUSH1 0x20 ADD PUSH1 0x40 MLOAD DUP1 SWAP2 SUB SWAP1 KECCAK256 PUSH1 0x6 ADD PUSH0 SWAP1 SLOAD SWAP1 PUSH2 0x100 EXP SWAP1 DIV PUSH1 0xFF AND ISZERO PUSH2 0x871 JUMPI PUSH1 0x40 MLOAD PUSH32 0x8C379A000000000000000000000000000000000000000000000000000000000 DUP2 MSTORE PUSH1 0x4 ADD PUSH2 0x868 SWAP1 PUSH2 0x17CC JUMP JUMPDEST PUSH1 0x40 MLOAD DUP1 SWAP2 SUB SWAP1 REVERT JUMPDEST PUSH0 PUSH1 0x1 DUP6 PUSH1 0x40 MLOAD PUSH2 0x882 SWAP2 SWAP1 PUSH2 0xF66 JUMP JUMPDEST SWAP1 DUP2 MSTORE PUSH1 0x20 ADD PUSH1 0x40 MLOAD DUP1 SWAP2 SUB SWAP1 KECCAK256 SWAP1 POP DUP5 DUP2 PUSH0 ADD SWAP1 DUP2 PUSH2 0x8A2 SWAP2 SWAP1 PUSH2 0x15A9 JUMP JUMPDEST POP DUP4 DUP2 PUSH1 0x1 ADD DUP2 SWAP1 SSTORE POP DUP3 DUP2 PUSH1 0x2 ADD DUP2 SWAP1 SSTORE POP PUSH0 DUP2 PUSH1 0x3 ADD DUP2 SWAP1 SSTORE POP CALLER DUP2 PUSH1 0x4 ADD PUSH0 PUSH2 0x100 EXP DUP2 SLOAD DUP2 PUSH20 0xFFFFFFFFFFFFFFFFFFFFFFFFFFFFFFFFFFFFFFFF MUL NOT AND SWAP1 DUP4 PUSH20 0xFFFFFFFFFFFFFFFFFFFFFFFFFFFFFFFFFFFFFFFF AND MUL OR SWAP1 SSTORE POP DUP2 DUP2 PUSH1 0x5 ADD SWAP1 DUP2 PUSH2 0x911 SWAP2 SWAP1 PUSH2 0x15A9 JUMP JUMPDEST POP PUSH1 0x1 DUP2 PUSH1 0x6 ADD PUSH0 PUSH2 0x100 EXP DUP2 SLOAD DUP2 PUSH1 0xFF MUL NOT AND SWAP1 DUP4 ISZERO ISZERO MUL OR SWAP1 SSTORE POP PUSH0 DUP4 DUP6 PUSH2 0x93B SWAP2 SWAP1 PUSH2 0x10D2 JUMP JUMPDEST SWAP1 POP PUSH0 DUP1 SLOAD SWAP1 PUSH2 0x100 EXP SWAP1 DIV PUSH20 0xFFFFFFFFFFFFFFFFFFFFFFFFFFFFFFFFFFFFFFFF AND PUSH20 0xFFFFFFFFFFFFFFFFFFFFFFFFFFFFFFFFFFFFFFFF AND PUSH4 0x23B872DD CALLER ADDRESS DUP5 PUSH1 0x40 MLOAD DUP5 PUSH4 0xFFFFFFFF AND PUSH1 0xE0 SHL DUP2 MSTORE PUSH1 0x4 ADD PUSH2 0x999 SWAP4 SWAP3 SWAP2 SWAP1 PUSH2 0x17EA JUMP JUMPDEST PUSH1 0x20 PUSH1 0x40 MLOAD DUP1 DUP4 SUB DUP2 PUSH0 DUP8 GAS CALL ISZERO DUP1 ISZERO PUSH2 0x9B5 JUMPI RETURNDATASIZE PUSH0 DUP1 RETURNDATACOPY RETURNDATASIZE PUSH0 REVERT JUMPDEST POP POP POP POP PUSH1 0x40 MLOAD RETURNDATASIZE PUSH1 0x1F NOT PUSH1 0x1F DUP3 ADD AND DUP3 ADD DUP1 PUSH1 0x40 MSTORE POP DUP2 ADD SWAP1 PUSH2 0x9D9 SWAP2 SWAP1 PUSH2 0x1164 JUMP JUMPDEST PUSH2 0xA18 JUMPI PUSH1 0x40 MLOAD PUSH32 0x8C379A000000000000000000000000000000000000000000000000000000000 DUP2 MSTORE PUSH1 0x4 ADD PUSH2 0xA0F SWAP1 PUSH2 0x1869 JUMP JUMPDEST PUSH1 0x40 MLOAD DUP1 SWAP2 SUB SWAP1 REVERT JUMPDEST PUSH32 0x8723CDC1E702A6D604AB7836DD76D51EE5190E8AA5437910F8317D2E8F6A00B1 DUP7 DUP3 DUP7 DUP7 CALLER PUSH1 0x40 MLOAD PUSH2 0xA4F SWAP6 SWAP5 SWAP4 SWAP3 SWAP2 SWAP1 PUSH2 0x1887 JUMP JUMPDEST PUSH1 0x40 MLOAD DUP1 SWAP2 SUB SWAP1 LOG1 POP POP POP POP POP POP JUMP JUMPDEST PUSH0 DUP1 SLOAD SWAP1 PUSH2 0x100 EXP SWAP1 DIV PUSH20 0xFFFFFFFFFFFFFFFFFFFFFFFFFFFFFFFFFFFFFFFF AND DUP2 JUMP JUMPDEST PUSH0 PUSH1 0x40 MLOAD SWAP1 POP SWAP1 JUMP JUMPDEST PUSH0 DUP1 REVERT JUMPDEST PUSH0 DUP1 REVERT JUMPDEST PUSH0 DUP1 REVERT JUMPDEST PUSH0 DUP1 REVERT JUMPDEST PUSH0 PUSH1 0x1F NOT PUSH1 0x1F DUP4 ADD AND SWAP1 POP SWAP2 SWAP1 POP JUMP JUMPDEST PUSH32 0x4E487B7100000000000000000000000000000000000000000000000000000000 PUSH0 MSTORE PUSH1 0x41 PUSH1 0x4 MSTORE PUSH1 0x24 PUSH0 REVERT JUMPDEST PUSH2 0xAE1 DUP3 PUSH2 0xA9B JUMP JUMPDEST DUP2 ADD DUP2 DUP2 LT PUSH8 0xFFFFFFFFFFFFFFFF DUP3 GT OR ISZERO PUSH2 0xB00 JUMPI PUSH2 0xAFF PUSH2 0xAAB JUMP JUMPDEST JUMPDEST DUP1 PUSH1 0x40 MSTORE POP POP POP JUMP JUMPDEST PUSH0 PUSH2 0xB12 PUSH2 0xA82 JUMP JUMPDEST SWAP1 POP PUSH2 0xB1E DUP3 DUP3 PUSH2 0xAD8 JUMP JUMPDEST SWAP2 SWAP1 POP JUMP JUMPDEST PUSH0 PUSH8 0xFFFFFFFFFFFFFFFF DUP3 GT ISZERO PUSH2 0xB3D JUMPI PUSH2 0xB3C PUSH2 0xAAB JUMP JUMPDEST JUMPDEST PUSH2 0xB46 DUP3 PUSH2 0xA9B JUMP JUMPDEST SWAP1 POP PUSH1 0x20 DUP2 ADD SWAP1 POP SWAP2 SWAP1 POP JUMP JUMPDEST DUP3 DUP2 DUP4 CALLDATACOPY PUSH0 DUP4 DUP4 ADD MSTORE POP POP POP JUMP JUMPDEST PUSH0 PUSH2 0xB73 PUSH2 0xB6E DUP5 PUSH2 0xB23 JUMP JUMPDEST PUSH2 0xB09 JUMP JUMPDEST SWAP1 POP DUP3 DUP2 MSTORE PUSH1 0x20 DUP2 ADD DUP5 DUP5 DUP5 ADD GT ISZERO PUSH2 0xB8F JUMPI PUSH2 0xB8E PUSH2 0xA97 JUMP JUMPDEST JUMPDEST PUSH2 0xB9A DUP5 DUP3 DUP6 PUSH2 0xB53 JUMP JUMPDEST POP SWAP4 SWAP3 POP POP POP JUMP JUMPDEST PUSH0 DUP3 PUSH1 0x1F DUP4 ADD SLT PUSH2 0xBB6 JUMPI PUSH2 0xBB5 PUSH2 0xA93 JUMP JUMPDEST JUMPDEST DUP2 CALLDATALOAD PUSH2 0xBC6 DUP5 DUP3 PUSH1 0x20 DUP7 ADD PUSH2 0xB61 JUMP JUMPDEST SWAP2 POP POP SWAP3 SWAP2 POP POP JUMP JUMPDEST PUSH0 PUSH1 0x20 DUP3 DUP5 SUB SLT ISZERO PUSH2 0xBE4 JUMPI PUSH2 0xBE3 PUSH2 0xA8B JUMP JUMPDEST JUMPDEST PUSH0 DUP3 ADD CALLDATALOAD PUSH8 0xFFFFFFFFFFFFFFFF DUP2 GT ISZERO PUSH2 0xC01 JUMPI PUSH2 0xC00 PUSH2 0xA8F JUMP JUMPDEST JUMPDEST PUSH2 0xC0D DUP5 DUP3 DUP6 ADD PUSH2 0xBA2 JUMP JUMPDEST SWAP2 POP POP SWAP3 SWAP2 POP POP JUMP JUMPDEST PUSH0 DUP2 MLOAD SWAP1 POP SWAP2 SWAP1 POP JUMP JUMPDEST PUSH0 DUP3 DUP3 MSTORE PUSH1 0x20 DUP3 ADD SWAP1 POP SWAP3 SWAP2 POP POP JUMP JUMPDEST PUSH0 JUMPDEST DUP4 DUP2 LT ISZERO PUSH2 0xC4D JUMPI DUP1 DUP3 ADD MLOAD DUP2 DUP5 ADD MSTORE PUSH1 0x20 DUP2 ADD SWAP1 POP PUSH2 0xC32 JUMP JUMPDEST PUSH0 DUP5 DUP5 ADD MSTORE POP POP POP POP JUMP JUMPDEST PUSH0 PUSH2 0xC62 DUP3 PUSH2 0xC16 JUMP JUMPDEST PUSH2 0xC6C DUP2 DUP6 PUSH2 0xC20 JUMP JUMPDEST SWAP4 POP PUSH2 0xC7C DUP2 DUP6 PUSH1 0x20 DUP7 ADD PUSH2 0xC30 JUMP JUMPDEST PUSH2 0xC85 DUP2 PUSH2 0xA9B JUMP JUMPDEST DUP5 ADD SWAP2 POP POP SWAP3 SWAP2 POP POP JUMP JUMPDEST PUSH0 DUP2 SWAP1 POP SWAP2 SWAP1 POP JUMP JUMPDEST PUSH2 0xCA2 DUP2 PUSH2 0xC90 JUMP JUMPDEST DUP3 MSTORE POP POP JUMP JUMPDEST PUSH0 PUSH20 0xFFFFFFFFFFFFFFFFFFFFFFFFFFFFFFFFFFFFFFFF DUP3 AND SWAP1 POP SWAP2 SWAP1 POP JUMP JUMPDEST PUSH0 PUSH2 0xCD1 DUP3 PUSH2 0xCA8 JUMP JUMPDEST SWAP1 POP SWAP2 SWAP1 POP JUMP JUMPDEST PUSH2 0xCE1 DUP2 PUSH2 0xCC7 JUMP JUMPDEST DUP3 MSTORE POP POP JUMP JUMPDEST PUSH0 DUP2 ISZERO ISZERO SWAP1 POP SWAP2 SWAP1 POP JUMP JUMPDEST PUSH2 0xCFB DUP2 PUSH2 0xCE7 JUMP JUMPDEST DUP3 MSTORE POP POP JUMP JUMPDEST PUSH0 PUSH1 0xE0 DUP3 ADD SWAP1 POP DUP2 DUP2 SUB PUSH0 DUP4 ADD MSTORE PUSH2 0xD19 DUP2 DUP11 PUSH2 0xC58 JUMP JUMPDEST SWAP1 POP PUSH2 0xD28 PUSH1 0x20 DUP4 ADD DUP10 PUSH2 0xC99 JUMP JUMPDEST PUSH2 0xD35 PUSH1 0x40 DUP4 ADD DUP9 PUSH2 0xC99 JUMP JUMPDEST PUSH2 0xD42 PUSH1 0x60 DUP4 ADD DUP8 PUSH2 0xC99 JUMP JUMPDEST PUSH2 0xD4F PUSH1 0x80 DUP4 ADD DUP7 PUSH2 0xCD8 JUMP JUMPDEST DUP2 DUP2 SUB PUSH1 0xA0 DUP4 ADD MSTORE PUSH2 0xD61 DUP2 DUP6 PUSH2 0xC58 JUMP JUMPDEST SWAP1 POP PUSH2 0xD70 PUSH1 0xC0 DUP4 ADD DUP5 PUSH2 0xCF2 JUMP JUMPDEST SWAP9 SWAP8 POP POP POP POP POP POP POP POP JUMP JUMPDEST PUSH0 DUP1 PUSH1 0x40 DUP4 DUP6 SUB SLT ISZERO PUSH2 0xD92 JUMPI PUSH2 0xD91 PUSH2 0xA8B JUMP JUMPDEST JUMPDEST PUSH0 DUP4 ADD CALLDATALOAD PUSH8 0xFFFFFFFFFFFFFFFF DUP2 GT ISZERO PUSH2 0xDAF JUMPI PUSH2 0xDAE PUSH2 0xA8F JUMP JUMPDEST JUMPDEST PUSH2 0xDBB DUP6 DUP3 DUP7 ADD PUSH2 0xBA2 JUMP JUMPDEST SWAP3 POP POP PUSH1 0x20 DUP4 ADD CALLDATALOAD PUSH8 0xFFFFFFFFFFFFFFFF DUP2 GT ISZERO PUSH2 0xDDC JUMPI PUSH2 0xDDB PUSH2 0xA8F JUMP JUMPDEST JUMPDEST PUSH2 0xDE8 DUP6 DUP3 DUP7 ADD PUSH2 0xBA2 JUMP JUMPDEST SWAP2 POP POP SWAP3 POP SWAP3 SWAP1 POP JUMP JUMPDEST PUSH2 0xDFB DUP2 PUSH2 0xC90 JUMP JUMPDEST DUP2 EQ PUSH2 0xE05 JUMPI PUSH0 DUP1 REVERT JUMPDEST POP JUMP JUMPDEST PUSH0 DUP2 CALLDATALOAD SWAP1 POP PUSH2 0xE16 DUP2 PUSH2 0xDF2 JUMP JUMPDEST SWAP3 SWAP2 POP POP JUMP JUMPDEST PUSH0 DUP1 PUSH0 DUP1 PUSH1 0x80 DUP6 DUP8 SUB SLT ISZERO PUSH2 0xE34 JUMPI PUSH2 0xE33 PUSH2 0xA8B JUMP JUMPDEST JUMPDEST PUSH0 DUP6 ADD CALLDATALOAD PUSH8 0xFFFFFFFFFFFFFFFF DUP2 GT ISZERO PUSH2 0xE51 JUMPI PUSH2 0xE50 PUSH2 0xA8F JUMP JUMPDEST JUMPDEST PUSH2 0xE5D DUP8 DUP3 DUP9 ADD PUSH2 0xBA2 JUMP JUMPDEST SWAP5 POP POP PUSH1 0x20 PUSH2 0xE6E DUP8 DUP3 DUP9 ADD PUSH2 0xE08 JUMP JUMPDEST SWAP4 POP POP PUSH1 0x40 PUSH2 0xE7F DUP8 DUP3 DUP9 ADD PUSH2 0xE08 JUMP JUMPDEST SWAP3 POP POP PUSH1 0x60 DUP6 ADD CALLDATALOAD PUSH8 0xFFFFFFFFFFFFFFFF DUP2 GT ISZERO PUSH2 0xEA0 JUMPI PUSH2 0xE9F PUSH2 0xA8F JUMP JUMPDEST JUMPDEST PUSH2 0xEAC DUP8 DUP3 DUP9 ADD PUSH2 0xBA2 JUMP JUMPDEST SWAP2 POP POP SWAP3 SWAP6 SWAP2 SWAP5 POP SWAP3 POP JUMP JUMPDEST PUSH0 DUP2 SWAP1 POP SWAP2 SWAP1 POP JUMP JUMPDEST PUSH0 PUSH2 0xEDB PUSH2 0xED6 PUSH2 0xED1 DUP5 PUSH2 0xCA8 JUMP JUMPDEST PUSH2 0xEB8 JUMP JUMPDEST PUSH2 0xCA8 JUMP JUMPDEST SWAP1 POP SWAP2 SWAP1 POP JUMP JUMPDEST PUSH0 PUSH2 0xEEC DUP3 PUSH2 0xEC1 JUMP JUMPDEST SWAP1 POP SWAP2 SWAP1 POP JUMP JUMPDEST PUSH0 PUSH2 0xEFD DUP3 PUSH2 0xEE2 JUMP JUMPDEST SWAP1 POP SWAP2 SWAP1 POP JUMP JUMPDEST PUSH2 0xF0D DUP2 PUSH2 0xEF3 JUMP JUMPDEST DUP3 MSTORE POP POP JUMP JUMPDEST PUSH0 PUSH1 0x20 DUP3 ADD SWAP1 POP PUSH2 0xF26 PUSH0 DUP4 ADD DUP5 PUSH2 0xF04 JUMP JUMPDEST SWAP3 SWAP2 POP POP JUMP JUMPDEST PUSH0 DUP2 SWAP1 POP SWAP3 SWAP2 POP POP JUMP JUMPDEST PUSH0 PUSH2 0xF40 DUP3 PUSH2 0xC16 JUMP JUMPDEST PUSH2 0xF4A DUP2 DUP6 PUSH2 0xF2C JUMP JUMPDEST SWAP4 POP PUSH2 0xF5A DUP2 DUP6 PUSH1 0x20 DUP7 ADD PUSH2 0xC30 JUMP JUMPDEST DUP1 DUP5 ADD SWAP2 POP POP SWAP3 SWAP2 POP POP JUMP JUMPDEST PUSH0 PUSH2 0xF71 DUP3 DUP5 PUSH2 0xF36 JUMP JUMPDEST SWAP2 POP DUP2 SWAP1 POP SWAP3 SWAP2 POP POP JUMP JUMPDEST PUSH32 0x53757276657920646F6573206E6F742065786973742E00000000000000000000 PUSH0 DUP3 ADD MSTORE POP JUMP JUMPDEST PUSH0 PUSH2 0xFB0 PUSH1 0x16 DUP4 PUSH2 0xC20 JUMP JUMPDEST SWAP2 POP PUSH2 0xFBB DUP3 PUSH2 0xF7C JUMP JUMPDEST PUSH1 0x20 DUP3 ADD SWAP1 POP SWAP2 SWAP1 POP JUMP JUMPDEST PUSH0 PUSH1 0x20 DUP3 ADD SWAP1 POP DUP2 DUP2 SUB PUSH0 DUP4 ADD MSTORE PUSH2 0xFDD DUP2 PUSH2 0xFA4 JUMP JUMPDEST SWAP1 POP SWAP2 SWAP1 POP JUMP JUMPDEST PUSH32 0x4F6E6C7920746865207375727665792063726561746F722063616E2063616E63 PUSH0 DUP3 ADD MSTORE PUSH32 0x656C20746865207375727665792E000000000000000000000000000000000000 PUSH1 0x20 DUP3 ADD MSTORE POP JUMP JUMPDEST PUSH0 PUSH2 0x103E PUSH1 0x2E DUP4 PUSH2 0xC20 JUMP JUMPDEST SWAP2 POP PUSH2 0x1049 DUP3 PUSH2 0xFE4 JUMP JUMPDEST PUSH1 0x40 DUP3 ADD SWAP1 POP SWAP2 SWAP1 POP JUMP JUMPDEST PUSH0 PUSH1 0x20 DUP3 ADD SWAP1 POP DUP2 DUP2 SUB PUSH0 DUP4 ADD MSTORE PUSH2 0x106B DUP2 PUSH2 0x1032 JUMP JUMPDEST SWAP1 POP SWAP2 SWAP1 POP JUMP JUMPDEST PUSH32 0x4E487B7100000000000000000000000000000000000000000000000000000000 PUSH0 MSTORE PUSH1 0x11 PUSH1 0x4 MSTORE PUSH1 0x24 PUSH0 REVERT JUMPDEST PUSH0 PUSH2 0x10A9 DUP3 PUSH2 0xC90 JUMP JUMPDEST SWAP2 POP PUSH2 0x10B4 DUP4 PUSH2 0xC90 JUMP JUMPDEST SWAP3 POP DUP3 DUP3 SUB SWAP1 POP DUP2 DUP2 GT ISZERO PUSH2 0x10CC JUMPI PUSH2 0x10CB PUSH2 0x1072 JUMP JUMPDEST JUMPDEST SWAP3 SWAP2 POP POP JUMP JUMPDEST PUSH0 PUSH2 0x10DC DUP3 PUSH2 0xC90 JUMP JUMPDEST SWAP2 POP PUSH2 0x10E7 DUP4 PUSH2 0xC90 JUMP JUMPDEST SWAP3 POP DUP3 DUP3 MUL PUSH2 0x10F5 DUP2 PUSH2 0xC90 JUMP JUMPDEST SWAP2 POP DUP3 DUP3 DIV DUP5 EQ DUP4 ISZERO OR PUSH2 0x110C JUMPI PUSH2 0x110B PUSH2 0x1072 JUMP JUMPDEST JUMPDEST POP SWAP3 SWAP2 POP POP JUMP JUMPDEST PUSH0 PUSH1 0x40 DUP3 ADD SWAP1 POP PUSH2 0x1126 PUSH0 DUP4 ADD DUP6 PUSH2 0xCD8 JUMP JUMPDEST PUSH2 0x1133 PUSH1 0x20 DUP4 ADD DUP5 PUSH2 0xC99 JUMP JUMPDEST SWAP4 SWAP3 POP POP POP JUMP JUMPDEST PUSH2 0x1143 DUP2 PUSH2 0xCE7 JUMP JUMPDEST DUP2 EQ PUSH2 0x114D JUMPI PUSH0 DUP1 REVERT JUMPDEST POP JUMP JUMPDEST PUSH0 DUP2 MLOAD SWAP1 POP PUSH2 0x115E DUP2 PUSH2 0x113A JUMP JUMPDEST SWAP3 SWAP2 POP POP JUMP JUMPDEST PUSH0 PUSH1 0x20 DUP3 DUP5 SUB SLT ISZERO PUSH2 0x1179 JUMPI PUSH2 0x1178 PUSH2 0xA8B JUMP JUMPDEST JUMPDEST PUSH0 PUSH2 0x1186 DUP5 DUP3 DUP6 ADD PUSH2 0x1150 JUMP JUMPDEST SWAP2 POP POP SWAP3 SWAP2 POP POP JUMP JUMPDEST PUSH32 0x4661696C656420746F2072657475726E2072656D61696E696E67207265776172 PUSH0 DUP3 ADD MSTORE PUSH32 0x64732E0000000000000000000000000000000000000000000000000000000000 PUSH1 0x20 DUP3 ADD MSTORE POP JUMP JUMPDEST PUSH0 PUSH2 0x11E9 PUSH1 0x23 DUP4 PUSH2 0xC20 JUMP JUMPDEST SWAP2 POP PUSH2 0x11F4 DUP3 PUSH2 0x118F JUMP JUMPDEST PUSH1 0x40 DUP3 ADD SWAP1 POP SWAP2 SWAP1 POP JUMP JUMPDEST PUSH0 PUSH1 0x20 DUP3 ADD SWAP1 POP DUP2 DUP2 SUB PUSH0 DUP4 ADD MSTORE PUSH2 0x1216 DUP2 PUSH2 0x11DD JUMP JUMPDEST SWAP1 POP SWAP2 SWAP1 POP JUMP JUMPDEST PUSH0 PUSH1 0x20 DUP3 ADD SWAP1 POP DUP2 DUP2 SUB PUSH0 DUP4 ADD MSTORE PUSH2 0x1235 DUP2 DUP5 PUSH2 0xC58 JUMP JUMPDEST SWAP1 POP SWAP3 SWAP2 POP POP JUMP JUMPDEST PUSH32 0x4E487B7100000000000000000000000000000000000000000000000000000000 PUSH0 MSTORE PUSH1 0x22 PUSH1 0x4 MSTORE PUSH1 0x24 PUSH0 REVERT JUMPDEST PUSH0 PUSH1 0x2 DUP3 DIV SWAP1 POP PUSH1 0x1 DUP3 AND DUP1 PUSH2 0x1281 JUMPI PUSH1 0x7F DUP3 AND SWAP2 POP JUMPDEST PUSH1 0x20 DUP3 LT DUP2 SUB PUSH2 0x1294 JUMPI PUSH2 0x1293 PUSH2 0x123D JUMP JUMPDEST JUMPDEST POP SWAP2 SWAP1 POP JUMP JUMPDEST PUSH0 DUP2 PUSH1 0x60 SHL SWAP1 POP SWAP2 SWAP1 POP JUMP JUMPDEST PUSH0 PUSH2 0x12B0 DUP3 PUSH2 0x129A JUMP JUMPDEST SWAP1 POP SWAP2 SWAP1 POP JUMP JUMPDEST PUSH0 PUSH2 0x12C1 DUP3 PUSH2 0x12A6 JUMP JUMPDEST SWAP1 POP SWAP2 SWAP1 POP JUMP JUMPDEST PUSH2 0x12D9 PUSH2 0x12D4 DUP3 PUSH2 0xCC7 JUMP JUMPDEST PUSH2 0x12B7 JUMP JUMPDEST DUP3 MSTORE POP POP JUMP JUMPDEST PUSH0 PUSH2 0x12EA DUP3 DUP5 PUSH2 0x12C8 JUMP JUMPDEST PUSH1 0x14 DUP3 ADD SWAP2 POP DUP2 SWAP1 POP SWAP3 SWAP2 POP POP JUMP JUMPDEST PUSH32 0x526573706F6E6465722068617320616C726561647920616E7377657265642074 PUSH0 DUP3 ADD MSTORE PUSH32 0x686973207375727665792E000000000000000000000000000000000000000000 PUSH1 0x20 DUP3 ADD MSTORE POP JUMP JUMPDEST PUSH0 PUSH2 0x1353 PUSH1 0x2B DUP4 PUSH2 0xC20 JUMP JUMPDEST SWAP2 POP PUSH2 0x135E DUP3 PUSH2 0x12F9 JUMP JUMPDEST PUSH1 0x40 DUP3 ADD SWAP1 POP SWAP2 SWAP1 POP JUMP JUMPDEST PUSH0 PUSH1 0x20 DUP3 ADD SWAP1 POP DUP2 DUP2 SUB PUSH0 DUP4 ADD MSTORE PUSH2 0x1380 DUP2 PUSH2 0x1347 JUMP JUMPDEST SWAP1 POP SWAP2 SWAP1 POP JUMP JUMPDEST PUSH32 0x5375727665792068617320616C72656164792072656163686564206974732065 PUSH0 DUP3 ADD MSTORE PUSH32 0x7870656374656420726573706F6E64656E74732E000000000000000000000000 PUSH1 0x20 DUP3 ADD MSTORE POP JUMP JUMPDEST PUSH0 PUSH2 0x13E1 PUSH1 0x34 DUP4 PUSH2 0xC20 JUMP JUMPDEST SWAP2 POP PUSH2 0x13EC DUP3 PUSH2 0x1387 JUMP JUMPDEST PUSH1 0x40 DUP3 ADD SWAP1 POP SWAP2 SWAP1 POP JUMP JUMPDEST PUSH0 PUSH1 0x20 DUP3 ADD SWAP1 POP DUP2 DUP2 SUB PUSH0 DUP4 ADD MSTORE PUSH2 0x140E DUP2 PUSH2 0x13D5 JUMP JUMPDEST SWAP1 POP SWAP2 SWAP1 POP JUMP JUMPDEST PUSH0 DUP2 SWAP1 POP DUP2 PUSH0 MSTORE PUSH1 0x20 PUSH0 KECCAK256 SWAP1 POP SWAP2 SWAP1 POP JUMP JUMPDEST PUSH0 PUSH1 0x20 PUSH1 0x1F DUP4 ADD DIV SWAP1 POP SWAP2 SWAP1 POP JUMP JUMPDEST PUSH0 DUP3 DUP3 SHL SWAP1 POP SWAP3 SWAP2 POP POP JUMP JUMPDEST PUSH0 PUSH1 0x8 DUP4 MUL PUSH2 0x1471 PUSH32 0xFFFFFFFFFFFFFFFFFFFFFFFFFFFFFFFFFFFFFFFFFFFFFFFFFFFFFFFFFFFFFFFF DUP3 PUSH2 0x1436 JUMP JUMPDEST PUSH2 0x147B DUP7 DUP4 PUSH2 0x1436 JUMP JUMPDEST SWAP6 POP DUP1 NOT DUP5 AND SWAP4 POP DUP1 DUP7 AND DUP5 OR SWAP3 POP POP POP SWAP4 SWAP3 POP POP POP JUMP JUMPDEST PUSH0 PUSH2 0x14AD PUSH2 0x14A8 PUSH2 0x14A3 DUP5 PUSH2 0xC90 JUMP JUMPDEST PUSH2 0xEB8 JUMP JUMPDEST PUSH2 0xC90 JUMP JUMPDEST SWAP1 POP SWAP2 SWAP1 POP JUMP JUMPDEST PUSH0 DUP2 SWAP1 POP SWAP2 SWAP1 POP JUMP JUMPDEST PUSH2 0x14C6 DUP4 PUSH2 0x1493 JUMP JUMPDEST PUSH2 0x14DA PUSH2 0x14D2 DUP3 PUSH2 0x14B4 JUMP JUMPDEST DUP5 DUP5 SLOAD PUSH2 0x1442 JUMP JUMPDEST DUP3 SSTORE POP POP POP POP JUMP JUMPDEST PUSH0 SWAP1 JUMP JUMPDEST PUSH2 0x14EE PUSH2 0x14E2 JUMP JUMPDEST PUSH2 0x14F9 DUP2 DUP5 DUP5 PUSH2 0x14BD JUMP JUMPDEST POP POP POP JUMP JUMPDEST JUMPDEST DUP2 DUP2 LT ISZERO PUSH2 0x151C JUMPI PUSH2 0x1511 PUSH0 DUP3 PUSH2 0x14E6 JUMP JUMPDEST PUSH1 0x1 DUP2 ADD SWAP1 POP PUSH2 0x14FF JUMP JUMPDEST POP POP JUMP JUMPDEST PUSH1 0x1F DUP3 GT ISZERO PUSH2 0x1561 JUMPI PUSH2 0x1532 DUP2 PUSH2 0x1415 JUMP JUMPDEST PUSH2 0x153B DUP5 PUSH2 0x1427 JUMP JUMPDEST DUP2 ADD PUSH1 0x20 DUP6 LT ISZERO PUSH2 0x154A JUMPI DUP2 SWAP1 POP JUMPDEST PUSH2 0x155E PUSH2 0x1556 DUP6 PUSH2 0x1427 JUMP JUMPDEST DUP4 ADD DUP3 PUSH2 0x14FE JUMP JUMPDEST POP POP JUMPDEST POP POP POP JUMP JUMPDEST PUSH0 DUP3 DUP3 SHR SWAP1 POP SWAP3 SWAP2 POP POP JUMP JUMPDEST PUSH0 PUSH2 0x1581 PUSH0 NOT DUP5 PUSH1 0x8 MUL PUSH2 0x1566 JUMP JUMPDEST NOT DUP1 DUP4 AND SWAP2 POP POP SWAP3 SWAP2 POP POP JUMP JUMPDEST PUSH0 PUSH2 0x1599 DUP4 DUP4 PUSH2 0x1572 JUMP JUMPDEST SWAP2 POP DUP3 PUSH1 0x2 MUL DUP3 OR SWAP1 POP SWAP3 SWAP2 POP POP JUMP JUMPDEST PUSH2 0x15B2 DUP3 PUSH2 0xC16 JUMP JUMPDEST PUSH8 0xFFFFFFFFFFFFFFFF DUP2 GT ISZERO PUSH2 0x15CB JUMPI PUSH2 0x15CA PUSH2 0xAAB JUMP JUMPDEST JUMPDEST PUSH2 0x15D5 DUP3 SLOAD PUSH2 0x126A JUMP JUMPDEST PUSH2 0x15E0 DUP3 DUP3 DUP6 PUSH2 0x1520 JUMP JUMPDEST PUSH0 PUSH1 0x20 SWAP1 POP PUSH1 0x1F DUP4 GT PUSH1 0x1 DUP2 EQ PUSH2 0x1611 JUMPI PUSH0 DUP5 ISZERO PUSH2 0x15FF JUMPI DUP3 DUP8 ADD MLOAD SWAP1 POP JUMPDEST PUSH2 0x1609 DUP6 DUP3 PUSH2 0x158E JUMP JUMPDEST DUP7 SSTORE POP PUSH2 0x1670 JUMP JUMPDEST PUSH1 0x1F NOT DUP5 AND PUSH2 0x161F DUP7 PUSH2 0x1415 JUMP JUMPDEST PUSH0 JUMPDEST DUP3 DUP2 LT ISZERO PUSH2 0x1646 JUMPI DUP5 DUP10 ADD MLOAD DUP3 SSTORE PUSH1 0x1 DUP3 ADD SWAP2 POP PUSH1 0x20 DUP6 ADD SWAP5 POP PUSH1 0x20 DUP2 ADD SWAP1 POP PUSH2 0x1621 JUMP JUMPDEST DUP7 DUP4 LT ISZERO PUSH2 0x1663 JUMPI DUP5 DUP10 ADD MLOAD PUSH2 0x165F PUSH1 0x1F DUP10 AND DUP3 PUSH2 0x1572 JUMP JUMPDEST DUP4 SSTORE POP JUMPDEST PUSH1 0x1 PUSH1 0x2 DUP9 MUL ADD DUP9 SSTORE POP POP POP JUMPDEST POP POP POP POP POP POP JUMP JUMPDEST PUSH0 PUSH2 0x1682 DUP3 PUSH2 0xC90 JUMP JUMPDEST SWAP2 POP PUSH32 0xFFFFFFFFFFFFFFFFFFFFFFFFFFFFFFFFFFFFFFFFFFFFFFFFFFFFFFFFFFFFFFFF DUP3 SUB PUSH2 0x16B4 JUMPI PUSH2 0x16B3 PUSH2 0x1072 JUMP JUMPDEST JUMPDEST PUSH1 0x1 DUP3 ADD SWAP1 POP SWAP2 SWAP1 POP JUMP JUMPDEST PUSH32 0x4661696C656420746F2064697374726962757465207265776172642E00000000 PUSH0 DUP3 ADD MSTORE POP JUMP JUMPDEST PUSH0 PUSH2 0x16F3 PUSH1 0x1C DUP4 PUSH2 0xC20 JUMP JUMPDEST SWAP2 POP PUSH2 0x16FE DUP3 PUSH2 0x16BF JUMP JUMPDEST PUSH1 0x20 DUP3 ADD SWAP1 POP SWAP2 SWAP1 POP JUMP JUMPDEST PUSH0 PUSH1 0x20 DUP3 ADD SWAP1 POP DUP2 DUP2 SUB PUSH0 DUP4 ADD MSTORE PUSH2 0x1720 DUP2 PUSH2 0x16E7 JUMP JUMPDEST SWAP1 POP SWAP2 SWAP1 POP JUMP JUMPDEST PUSH0 DUP2 SWAP1 POP SWAP2 SWAP1 POP JUMP JUMPDEST PUSH2 0x1739 DUP2 PUSH2 0x1727 JUMP JUMPDEST DUP3 MSTORE POP POP JUMP JUMPDEST PUSH0 PUSH1 0x60 DUP3 ADD SWAP1 POP DUP2 DUP2 SUB PUSH0 DUP4 ADD MSTORE PUSH2 0x1757 DUP2 DUP7 PUSH2 0xC58 JUMP JUMPDEST SWAP1 POP PUSH2 0x1766 PUSH1 0x20 DUP4 ADD DUP6 PUSH2 0x1730 JUMP JUMPDEST DUP2 DUP2 SUB PUSH1 0x40 DUP4 ADD MSTORE PUSH2 0x1778 DUP2 DUP5 PUSH2 0xC58 JUMP JUMPDEST SWAP1 POP SWAP5 SWAP4 POP POP POP POP JUMP JUMPDEST PUSH32 0x53757276657920616C7265616479206578697374732E00000000000000000000 PUSH0 DUP3 ADD MSTORE POP JUMP JUMPDEST PUSH0 PUSH2 0x17B6 PUSH1 0x16 DUP4 PUSH2 0xC20 JUMP JUMPDEST SWAP2 POP PUSH2 0x17C1 DUP3 PUSH2 0x1782 JUMP JUMPDEST PUSH1 0x20 DUP3 ADD SWAP1 POP SWAP2 SWAP1 POP JUMP JUMPDEST PUSH0 PUSH1 0x20 DUP3 ADD SWAP1 POP DUP2 DUP2 SUB PUSH0 DUP4 ADD MSTORE PUSH2 0x17E3 DUP2 PUSH2 0x17AA JUMP JUMPDEST SWAP1 POP SWAP2 SWAP1 POP JUMP JUMPDEST PUSH0 PUSH1 0x60 DUP3 ADD SWAP1 POP PUSH2 0x17FD PUSH0 DUP4 ADD DUP7 PUSH2 0xCD8 JUMP JUMPDEST PUSH2 0x180A PUSH1 0x20 DUP4 ADD DUP6 PUSH2 0xCD8 JUMP JUMPDEST PUSH2 0x1817 PUSH1 0x40 DUP4 ADD DUP5 PUSH2 0xC99 JUMP JUMPDEST SWAP5 SWAP4 POP POP POP POP JUMP JUMPDEST PUSH32 0x4661696C656420746F206C6F636B2073757276657920726577617264732E0000 PUSH0 DUP3 ADD MSTORE POP JUMP JUMPDEST PUSH0 PUSH2 0x1853 PUSH1 0x1E DUP4 PUSH2 0xC20 JUMP JUMPDEST SWAP2 POP PUSH2 0x185E DUP3 PUSH2 0x181F JUMP JUMPDEST PUSH1 0x20 DUP3 ADD SWAP1 POP SWAP2 SWAP1 POP JUMP JUMPDEST PUSH0 PUSH1 0x20 DUP3 ADD SWAP1 POP DUP2 DUP2 SUB PUSH0 DUP4 ADD MSTORE PUSH2 0x1880 DUP2 PUSH2 0x1847 JUMP JUMPDEST SWAP1 POP SWAP2 SWAP1 POP JUMP JUMPDEST PUSH0 PUSH1 0xA0 DUP3 ADD SWAP1 POP DUP2 DUP2 SUB PUSH0 DUP4 ADD MSTORE PUSH2 0x189F DUP2 DUP9 PUSH2 0xC58 JUMP JUMPDEST SWAP1 POP PUSH2 0x18AE PUSH1 0x20 DUP4 ADD DUP8 PUSH2 0xC99 JUMP JUMPDEST PUSH2 0x18BB PUSH1 0x40 DUP4 ADD DUP7 PUSH2 0xC99 JUMP JUMPDEST DUP2 DUP2 SUB PUSH1 0x60 DUP4 ADD MSTORE PUSH2 0x18CD DUP2 DUP6 PUSH2 0xC58 JUMP JUMPDEST SWAP1 POP PUSH2 0x18DC PUSH1 0x80 DUP4 ADD DUP5 PUSH2 0xCD8 JUMP JUMPDEST SWAP7 SWAP6 POP POP POP POP POP POP JUMP INVALID LOG2 PUSH5 0x6970667358 0x22 SLT KECCAK256 0xBA ADDRESS 0xEC 0xB0 SWAP13 STOP 0xD6 0xE9 SWAP1 0xC1 JUMP PUSH18 0xA2D04F5BE467C812D8D86F8470947805460A PUSH19 0xC64736F6C6343000818003300000000000000 "
				},
				"gasEstimates": {
					"creation": {
						"codeDepositCost": "1285600",
						"executionCost": "infinite",
						"totalCost": "infinite"
					},
					"external": {
						"answerSurvey(string,string)": "infinite",
						"cancelSurvey(string)": "infinite",
						"createSurvey(string,uint256,uint256,string)": "infinite",
						"surveys(string)": "infinite",
						"token()": "infinite"
					}
				},
				"methodIdentifiers": {
					"answerSurvey(string,string)": "c5b44712",
					"cancelSurvey(string)": "1d88311d",
					"createSurvey(string,uint256,uint256,string)": "f76c9e2a",
					"surveys(string)": "741022d5",
					"token()": "fc0c546a"
				}
			},
			"storageLayout": {
				"storage": [
					{
						"astId": 432,
						"contract": "contracts/SurveyRewardSystem.sol:SurveyRewardSystem",
						"label": "token",
						"offset": 0,
						"slot": "0",
						"type": "t_contract(IERC20)77"
					},
					{
						"astId": 456,
						"contract": "contracts/SurveyRewardSystem.sol:SurveyRewardSystem",
						"label": "surveys",
						"offset": 0,
						"slot": "1",
						"type": "t_mapping(t_string_memory_ptr,t_struct(Survey)451_storage)"
					}
				],
				"types": {
					"t_address": {
						"encoding": "inplace",
						"label": "address",
						"numberOfBytes": "20"
					},
					"t_bool": {
						"encoding": "inplace",
						"label": "bool",
						"numberOfBytes": "1"
					},
					"t_bytes32": {
						"encoding": "inplace",
						"label": "bytes32",
						"numberOfBytes": "32"
					},
					"t_contract(IERC20)77": {
						"encoding": "inplace",
						"label": "contract IERC20",
						"numberOfBytes": "20"
					},
					"t_mapping(t_bytes32,t_string_storage)": {
						"encoding": "mapping",
						"key": "t_bytes32",
						"label": "mapping(bytes32 => string)",
						"numberOfBytes": "32",
						"value": "t_string_storage"
					},
					"t_mapping(t_string_memory_ptr,t_struct(Survey)451_storage)": {
						"encoding": "mapping",
						"key": "t_string_memory_ptr",
						"label": "mapping(string => struct SurveyRewardSystem.Survey)",
						"numberOfBytes": "32",
						"value": "t_struct(Survey)451_storage"
					},
					"t_string_memory_ptr": {
						"encoding": "bytes",
						"label": "string",
						"numberOfBytes": "32"
					},
					"t_string_storage": {
						"encoding": "bytes",
						"label": "string",
						"numberOfBytes": "32"
					},
					"t_struct(Survey)451_storage": {
						"encoding": "inplace",
						"label": "struct SurveyRewardSystem.Survey",
						"members": [
							{
								"astId": 434,
								"contract": "contracts/SurveyRewardSystem.sol:SurveyRewardSystem",
								"label": "surveyCid",
								"offset": 0,
								"slot": "0",
								"type": "t_string_storage"
							},
							{
								"astId": 436,
								"contract": "contracts/SurveyRewardSystem.sol:SurveyRewardSystem",
								"label": "individualReward",
								"offset": 0,
								"slot": "1",
								"type": "t_uint256"
							},
							{
								"astId": 438,
								"contract": "contracts/SurveyRewardSystem.sol:SurveyRewardSystem",
								"label": "expectedRespondents",
								"offset": 0,
								"slot": "2",
								"type": "t_uint256"
							},
							{
								"astId": 440,
								"contract": "contracts/SurveyRewardSystem.sol:SurveyRewardSystem",
								"label": "actualRespondents",
								"offset": 0,
								"slot": "3",
								"type": "t_uint256"
							},
							{
								"astId": 442,
								"contract": "contracts/SurveyRewardSystem.sol:SurveyRewardSystem",
								"label": "creator",
								"offset": 0,
								"slot": "4",
								"type": "t_address"
							},
							{
								"astId": 444,
								"contract": "contracts/SurveyRewardSystem.sol:SurveyRewardSystem",
								"label": "encryptionKey",
								"offset": 0,
								"slot": "5",
								"type": "t_string_storage"
							},
							{
								"astId": 446,
								"contract": "contracts/SurveyRewardSystem.sol:SurveyRewardSystem",
								"label": "exists",
								"offset": 0,
								"slot": "6",
								"type": "t_bool"
							},
							{
								"astId": 450,
								"contract": "contracts/SurveyRewardSystem.sol:SurveyRewardSystem",
								"label": "encryptedAnswers",
								"offset": 0,
								"slot": "7",
								"type": "t_mapping(t_bytes32,t_string_storage)"
							}
						],
						"numberOfBytes": "256"
					},
					"t_uint256": {
						"encoding": "inplace",
						"label": "uint256",
						"numberOfBytes": "32"
					}
				}
			},
			"userdoc": {
				"kind": "user",
				"methods": {},
				"version": 1
			}
		}
	}
}