{
	"contracts/SurveyRewardSystem.sol": {
		"SurveyRewardSystem": {
			"abi": [
				{
					"inputs": [
						{
							"internalType": "contract IERC20",
							"name": "_token",
							"type": "address"
						}
					],
					"stateMutability": "nonpayable",
					"type": "constructor"
				},
				{
					"anonymous": false,
					"inputs": [
						{
							"indexed": false,
							"internalType": "string",
							"name": "surveyIpfsHash",
							"type": "string"
						},
						{
							"indexed": false,
							"internalType": "address",
							"name": "respondent",
							"type": "address"
						},
						{
							"indexed": false,
							"internalType": "string",
							"name": "answerIpfsHash",
							"type": "string"
						}
					],
					"name": "SurveyAnswered",
					"type": "event"
				},
				{
					"anonymous": false,
					"inputs": [
						{
							"indexed": false,
							"internalType": "string",
							"name": "surveyIpfsHash",
							"type": "string"
						},
						{
							"indexed": false,
							"internalType": "address",
							"name": "creator",
							"type": "address"
						}
					],
					"name": "SurveyCancelled",
					"type": "event"
				},
				{
					"anonymous": false,
					"inputs": [
						{
							"indexed": false,
							"internalType": "string",
							"name": "ipfsHash",
							"type": "string"
						},
						{
							"indexed": false,
							"internalType": "uint256",
							"name": "rewardPool",
							"type": "uint256"
						},
						{
							"indexed": false,
							"internalType": "uint256",
							"name": "expectedRespondents",
							"type": "uint256"
						},
						{
							"indexed": false,
							"internalType": "address",
							"name": "creator",
							"type": "address"
						}
					],
					"name": "SurveyCreated",
					"type": "event"
				},
				{
					"inputs": [
						{
							"internalType": "string",
							"name": "surveyIpfsHash",
							"type": "string"
						},
						{
							"internalType": "string",
							"name": "answerIpfsHash",
							"type": "string"
						}
					],
					"name": "answerSurvey",
					"outputs": [],
					"stateMutability": "nonpayable",
					"type": "function"
				},
				{
					"inputs": [
						{
							"internalType": "string",
							"name": "surveyIpfsHash",
							"type": "string"
						}
					],
					"name": "cancelSurvey",
					"outputs": [],
					"stateMutability": "nonpayable",
					"type": "function"
				},
				{
					"inputs": [
						{
							"internalType": "string",
							"name": "ipfsHash",
							"type": "string"
						},
						{
							"internalType": "uint256",
							"name": "singleReward",
							"type": "uint256"
						},
						{
							"internalType": "uint256",
							"name": "expectedRespondents",
							"type": "uint256"
						}
					],
					"name": "createSurvey",
					"outputs": [],
					"stateMutability": "nonpayable",
					"type": "function"
				},
				{
					"inputs": [],
					"name": "token",
					"outputs": [
						{
							"internalType": "contract IERC20",
							"name": "",
							"type": "address"
						}
					],
					"stateMutability": "view",
					"type": "function"
				}
			],
			"devdoc": {
				"kind": "dev",
				"methods": {},
				"version": 1
			},
			"evm": {
				"assembly": "    /* \"contracts/SurveyRewardSystem.sol\":120:3263  contract SurveyRewardSystem {... */\n  mstore(0x40, 0x80)\n    /* \"contracts/SurveyRewardSystem.sol\":757:817  constructor(IERC20 _token) {... */\n  callvalue\n  dup1\n  iszero\n  tag_1\n  jumpi\n  0x00\n  dup1\n  revert\ntag_1:\n  pop\n  mload(0x40)\n  sub(codesize, bytecodeSize)\n  dup1\n  bytecodeSize\n  dup4\n  codecopy\n  dup2\n  dup2\n  add\n  0x40\n  mstore\n  dup2\n  add\n  swap1\n  tag_2\n  swap2\n  swap1\n  tag_3\n  jump\t// in\ntag_2:\n    /* \"contracts/SurveyRewardSystem.sol\":803:809  _token */\n  dup1\n    /* \"contracts/SurveyRewardSystem.sol\":795:800  token */\n  0x00\n  dup1\n    /* \"contracts/SurveyRewardSystem.sol\":795:809  token = _token */\n  0x0100\n  exp\n  dup2\n  sload\n  dup2\n  0xffffffffffffffffffffffffffffffffffffffff\n  mul\n  not\n  and\n  swap1\n  dup4\n  0xffffffffffffffffffffffffffffffffffffffff\n  and\n  mul\n  or\n  swap1\n  sstore\n  pop\n    /* \"contracts/SurveyRewardSystem.sol\":757:817  constructor(IERC20 _token) {... */\n  pop\n    /* \"contracts/SurveyRewardSystem.sol\":120:3263  contract SurveyRewardSystem {... */\n  jump(tag_6)\n    /* \"#utility.yul\":88:205   */\ntag_8:\n    /* \"#utility.yul\":197:198   */\n  0x00\n    /* \"#utility.yul\":194:195   */\n  dup1\n    /* \"#utility.yul\":187:199   */\n  revert\n    /* \"#utility.yul\":334:460   */\ntag_10:\n    /* \"#utility.yul\":371:378   */\n  0x00\n    /* \"#utility.yul\":411:453   */\n  0xffffffffffffffffffffffffffffffffffffffff\n    /* \"#utility.yul\":404:409   */\n  dup3\n    /* \"#utility.yul\":400:454   */\n  and\n    /* \"#utility.yul\":389:454   */\n  swap1\n  pop\n    /* \"#utility.yul\":334:460   */\n  swap2\n  swap1\n  pop\n  jump\t// out\n    /* \"#utility.yul\":466:562   */\ntag_11:\n    /* \"#utility.yul\":503:510   */\n  0x00\n    /* \"#utility.yul\":532:556   */\n  tag_21\n    /* \"#utility.yul\":550:555   */\n  dup3\n    /* \"#utility.yul\":532:556   */\n  tag_10\n  jump\t// in\ntag_21:\n    /* \"#utility.yul\":521:556   */\n  swap1\n  pop\n    /* \"#utility.yul\":466:562   */\n  swap2\n  swap1\n  pop\n  jump\t// out\n    /* \"#utility.yul\":568:677   */\ntag_12:\n    /* \"#utility.yul\":618:625   */\n  0x00\n    /* \"#utility.yul\":647:671   */\n  tag_23\n    /* \"#utility.yul\":665:670   */\n  dup3\n    /* \"#utility.yul\":647:671   */\n  tag_11\n  jump\t// in\ntag_23:\n    /* \"#utility.yul\":636:671   */\n  swap1\n  pop\n    /* \"#utility.yul\":568:677   */\n  swap2\n  swap1\n  pop\n  jump\t// out\n    /* \"#utility.yul\":683:831   */\ntag_13:\n    /* \"#utility.yul\":769:806   */\n  tag_25\n    /* \"#utility.yul\":800:805   */\n  dup2\n    /* \"#utility.yul\":769:806   */\n  tag_12\n  jump\t// in\ntag_25:\n    /* \"#utility.yul\":762:767   */\n  dup2\n    /* \"#utility.yul\":759:807   */\n  eq\n    /* \"#utility.yul\":749:825   */\n  tag_26\n  jumpi\n    /* \"#utility.yul\":821:822   */\n  0x00\n    /* \"#utility.yul\":818:819   */\n  dup1\n    /* \"#utility.yul\":811:823   */\n  revert\n    /* \"#utility.yul\":749:825   */\ntag_26:\n    /* \"#utility.yul\":683:831   */\n  pop\n  jump\t// out\n    /* \"#utility.yul\":837:1006   */\ntag_14:\n    /* \"#utility.yul\":907:912   */\n  0x00\n    /* \"#utility.yul\":938:944   */\n  dup2\n    /* \"#utility.yul\":932:945   */\n  mload\n    /* \"#utility.yul\":923:945   */\n  swap1\n  pop\n    /* \"#utility.yul\":954:1000   */\n  tag_28\n    /* \"#utility.yul\":994:999   */\n  dup2\n    /* \"#utility.yul\":954:1000   */\n  tag_13\n  jump\t// in\ntag_28:\n    /* \"#utility.yul\":837:1006   */\n  swap3\n  swap2\n  pop\n  pop\n  jump\t// out\n    /* \"#utility.yul\":1012:1389   */\ntag_3:\n    /* \"#utility.yul\":1095:1101   */\n  0x00\n    /* \"#utility.yul\":1144:1146   */\n  0x20\n    /* \"#utility.yul\":1132:1141   */\n  dup3\n    /* \"#utility.yul\":1123:1130   */\n  dup5\n    /* \"#utility.yul\":1119:1142   */\n  sub\n    /* \"#utility.yul\":1115:1147   */\n  slt\n    /* \"#utility.yul\":1112:1231   */\n  iszero\n  tag_30\n  jumpi\n    /* \"#utility.yul\":1150:1229   */\n  tag_31\n  tag_8\n  jump\t// in\ntag_31:\n    /* \"#utility.yul\":1112:1231   */\ntag_30:\n    /* \"#utility.yul\":1270:1271   */\n  0x00\n    /* \"#utility.yul\":1295:1372   */\n  tag_32\n    /* \"#utility.yul\":1364:1371   */\n  dup5\n    /* \"#utility.yul\":1355:1361   */\n  dup3\n    /* \"#utility.yul\":1344:1353   */\n  dup6\n    /* \"#utility.yul\":1340:1362   */\n  add\n    /* \"#utility.yul\":1295:1372   */\n  tag_14\n  jump\t// in\ntag_32:\n    /* \"#utility.yul\":1285:1372   */\n  swap2\n  pop\n    /* \"#utility.yul\":1241:1382   */\n  pop\n    /* \"#utility.yul\":1012:1389   */\n  swap3\n  swap2\n  pop\n  pop\n  jump\t// out\n    /* \"contracts/SurveyRewardSystem.sol\":120:3263  contract SurveyRewardSystem {... */\ntag_6:\n  dataSize(sub_0)\n  dup1\n  dataOffset(sub_0)\n  0x00\n  codecopy\n  0x00\n  return\nstop\n\nsub_0: assembly {\n        /* \"contracts/SurveyRewardSystem.sol\":120:3263  contract SurveyRewardSystem {... */\n      mstore(0x40, 0x80)\n      callvalue\n      dup1\n      iszero\n      tag_1\n      jumpi\n      0x00\n      dup1\n      revert\n    tag_1:\n      pop\n      jumpi(tag_2, lt(calldatasize, 0x04))\n      shr(0xe0, calldataload(0x00))\n      dup1\n      0x1d88311d\n      eq\n      tag_3\n      jumpi\n      dup1\n      0xc5b44712\n      eq\n      tag_4\n      jumpi\n      dup1\n      0xd6b41d8c\n      eq\n      tag_5\n      jumpi\n      dup1\n      0xfc0c546a\n      eq\n      tag_6\n      jumpi\n    tag_2:\n      0x00\n      dup1\n      revert\n        /* \"contracts/SurveyRewardSystem.sol\":2602:3260  function cancelSurvey(string memory surveyIpfsHash) public {... */\n    tag_3:\n      tag_7\n      0x04\n      dup1\n      calldatasize\n      sub\n      dup2\n      add\n      swap1\n      tag_8\n      swap2\n      swap1\n      tag_9\n      jump\t// in\n    tag_8:\n      tag_10\n      jump\t// in\n    tag_7:\n      stop\n        /* \"contracts/SurveyRewardSystem.sol\":1662:2594  function answerSurvey(string memory surveyIpfsHash, string memory answerIpfsHash) public {... */\n    tag_4:\n      tag_11\n      0x04\n      dup1\n      calldatasize\n      sub\n      dup2\n      add\n      swap1\n      tag_12\n      swap2\n      swap1\n      tag_13\n      jump\t// in\n    tag_12:\n      tag_14\n      jump\t// in\n    tag_11:\n      stop\n        /* \"contracts/SurveyRewardSystem.sol\":825:1654  function createSurvey(string memory ipfsHash, uint256 singleReward, uint256 expectedRespondents) public {... */\n    tag_5:\n      tag_15\n      0x04\n      dup1\n      calldatasize\n      sub\n      dup2\n      add\n      swap1\n      tag_16\n      swap2\n      swap1\n      tag_17\n      jump\t// in\n    tag_16:\n      tag_18\n      jump\t// in\n    tag_15:\n      stop\n        /* \"contracts/SurveyRewardSystem.sol\":155:174  IERC20 public token */\n    tag_6:\n      tag_19\n      tag_20\n      jump\t// in\n    tag_19:\n      mload(0x40)\n      tag_21\n      swap2\n      swap1\n      tag_22\n      jump\t// in\n    tag_21:\n      mload(0x40)\n      dup1\n      swap2\n      sub\n      swap1\n      return\n        /* \"contracts/SurveyRewardSystem.sol\":2602:3260  function cancelSurvey(string memory surveyIpfsHash) public {... */\n    tag_10:\n        /* \"contracts/SurveyRewardSystem.sol\":2680:2687  surveys */\n      0x01\n        /* \"contracts/SurveyRewardSystem.sol\":2688:2702  surveyIpfsHash */\n      dup2\n        /* \"contracts/SurveyRewardSystem.sol\":2680:2703  surveys[surveyIpfsHash] */\n      mload(0x40)\n      tag_24\n      swap2\n      swap1\n      tag_25\n      jump\t// in\n    tag_24:\n      swap1\n      dup2\n      mstore\n      0x20\n      add\n      mload(0x40)\n      dup1\n      swap2\n      sub\n      swap1\n      keccak256\n        /* \"contracts/SurveyRewardSystem.sol\":2680:2710  surveys[surveyIpfsHash].exists */\n      0x04\n      add\n      0x14\n      swap1\n      sload\n      swap1\n      0x0100\n      exp\n      swap1\n      div\n      0xff\n      and\n        /* \"contracts/SurveyRewardSystem.sol\":2672:2737  require(surveys[surveyIpfsHash].exists, \"Survey does not exist.\") */\n      tag_26\n      jumpi\n      mload(0x40)\n      0x08c379a000000000000000000000000000000000000000000000000000000000\n      dup2\n      mstore\n      0x04\n      add\n      tag_27\n      swap1\n      tag_28\n      jump\t// in\n    tag_27:\n      mload(0x40)\n      dup1\n      swap2\n      sub\n      swap1\n      revert\n    tag_26:\n        /* \"contracts/SurveyRewardSystem.sol\":2748:2769  Survey storage survey */\n      0x00\n        /* \"contracts/SurveyRewardSystem.sol\":2772:2779  surveys */\n      0x01\n        /* \"contracts/SurveyRewardSystem.sol\":2780:2794  surveyIpfsHash */\n      dup3\n        /* \"contracts/SurveyRewardSystem.sol\":2772:2795  surveys[surveyIpfsHash] */\n      mload(0x40)\n      tag_29\n      swap2\n      swap1\n      tag_25\n      jump\t// in\n    tag_29:\n      swap1\n      dup2\n      mstore\n      0x20\n      add\n      mload(0x40)\n      dup1\n      swap2\n      sub\n      swap1\n      keccak256\n        /* \"contracts/SurveyRewardSystem.sol\":2748:2795  Survey storage survey = surveys[surveyIpfsHash] */\n      swap1\n      pop\n        /* \"contracts/SurveyRewardSystem.sol\":2828:2834  survey */\n      dup1\n        /* \"contracts/SurveyRewardSystem.sol\":2828:2842  survey.creator */\n      0x04\n      add\n      0x00\n      swap1\n      sload\n      swap1\n      0x0100\n      exp\n      swap1\n      div\n      0xffffffffffffffffffffffffffffffffffffffff\n      and\n        /* \"contracts/SurveyRewardSystem.sol\":2814:2842  msg.sender == survey.creator */\n      0xffffffffffffffffffffffffffffffffffffffff\n      and\n        /* \"contracts/SurveyRewardSystem.sol\":2814:2824  msg.sender */\n      caller\n        /* \"contracts/SurveyRewardSystem.sol\":2814:2842  msg.sender == survey.creator */\n      0xffffffffffffffffffffffffffffffffffffffff\n      and\n      eq\n        /* \"contracts/SurveyRewardSystem.sol\":2806:2893  require(msg.sender == survey.creator, \"Only the survey creator can cancel the survey.\") */\n      tag_30\n      jumpi\n      mload(0x40)\n      0x08c379a000000000000000000000000000000000000000000000000000000000\n      dup2\n      mstore\n      0x04\n      add\n      tag_31\n      swap1\n      tag_32\n      jump\t// in\n    tag_31:\n      mload(0x40)\n      dup1\n      swap2\n      sub\n      swap1\n      revert\n    tag_30:\n        /* \"contracts/SurveyRewardSystem.sol\":2914:2938  uint256 remainingRewards */\n      0x00\n        /* \"contracts/SurveyRewardSystem.sol\":3011:3017  survey */\n      dup2\n        /* \"contracts/SurveyRewardSystem.sol\":3011:3035  survey.actualRespondents */\n      0x03\n      add\n      sload\n        /* \"contracts/SurveyRewardSystem.sol\":2982:2988  survey */\n      dup3\n        /* \"contracts/SurveyRewardSystem.sol\":2982:3008  survey.expectedRespondents */\n      0x02\n      add\n      sload\n        /* \"contracts/SurveyRewardSystem.sol\":2962:2968  survey */\n      dup4\n        /* \"contracts/SurveyRewardSystem.sol\":2962:2979  survey.rewardPool */\n      0x01\n      add\n      sload\n        /* \"contracts/SurveyRewardSystem.sol\":2962:3008  survey.rewardPool / survey.expectedRespondents */\n      tag_33\n      swap2\n      swap1\n      tag_34\n      jump\t// in\n    tag_33:\n        /* \"contracts/SurveyRewardSystem.sol\":2962:3035  survey.rewardPool / survey.expectedRespondents * survey.actualRespondents */\n      tag_35\n      swap2\n      swap1\n      tag_36\n      jump\t// in\n    tag_35:\n        /* \"contracts/SurveyRewardSystem.sol\":2941:2947  survey */\n      dup3\n        /* \"contracts/SurveyRewardSystem.sol\":2941:2958  survey.rewardPool */\n      0x01\n      add\n      sload\n        /* \"contracts/SurveyRewardSystem.sol\":2941:3036  survey.rewardPool - (survey.rewardPool / survey.expectedRespondents * survey.actualRespondents) */\n      tag_37\n      swap2\n      swap1\n      tag_38\n      jump\t// in\n    tag_37:\n        /* \"contracts/SurveyRewardSystem.sol\":2914:3036  uint256 remainingRewards = survey.rewardPool - (survey.rewardPool / survey.expectedRespondents * survey.actualRespondents) */\n      swap1\n      pop\n        /* \"contracts/SurveyRewardSystem.sol\":3073:3078  false */\n      0x00\n        /* \"contracts/SurveyRewardSystem.sol\":3057:3063  survey */\n      dup3\n        /* \"contracts/SurveyRewardSystem.sol\":3057:3070  survey.exists */\n      0x04\n      add\n      0x14\n        /* \"contracts/SurveyRewardSystem.sol\":3057:3078  survey.exists = false */\n      0x0100\n      exp\n      dup2\n      sload\n      dup2\n      0xff\n      mul\n      not\n      and\n      swap1\n      dup4\n      iszero\n      iszero\n      mul\n      or\n      swap1\n      sstore\n      pop\n        /* \"contracts/SurveyRewardSystem.sol\":3099:3104  token */\n      0x00\n      dup1\n      sload\n      swap1\n      0x0100\n      exp\n      swap1\n      div\n      0xffffffffffffffffffffffffffffffffffffffff\n      and\n        /* \"contracts/SurveyRewardSystem.sol\":3099:3113  token.transfer */\n      0xffffffffffffffffffffffffffffffffffffffff\n      and\n      0xa9059cbb\n        /* \"contracts/SurveyRewardSystem.sol\":3114:3124  msg.sender */\n      caller\n        /* \"contracts/SurveyRewardSystem.sol\":3126:3142  remainingRewards */\n      dup4\n        /* \"contracts/SurveyRewardSystem.sol\":3099:3143  token.transfer(msg.sender, remainingRewards) */\n      mload(0x40)\n      dup4\n      0xffffffff\n      and\n      0xe0\n      shl\n      dup2\n      mstore\n      0x04\n      add\n      tag_39\n      swap3\n      swap2\n      swap1\n      tag_40\n      jump\t// in\n    tag_39:\n      0x20\n      mload(0x40)\n      dup1\n      dup4\n      sub\n      dup2\n      0x00\n      dup8\n      gas\n      call\n      iszero\n      dup1\n      iszero\n      tag_42\n      jumpi\n      returndatasize\n      0x00\n      dup1\n      returndatacopy\n      revert(0x00, returndatasize)\n    tag_42:\n      pop\n      pop\n      pop\n      pop\n      mload(0x40)\n      returndatasize\n      not(0x1f)\n      0x1f\n      dup3\n      add\n      and\n      dup3\n      add\n      dup1\n      0x40\n      mstore\n      pop\n      dup2\n      add\n      swap1\n      tag_43\n      swap2\n      swap1\n      tag_44\n      jump\t// in\n    tag_43:\n        /* \"contracts/SurveyRewardSystem.sol\":3091:3183  require(token.transfer(msg.sender, remainingRewards), \"Failed to return remaining rewards.\") */\n      tag_45\n      jumpi\n      mload(0x40)\n      0x08c379a000000000000000000000000000000000000000000000000000000000\n      dup2\n      mstore\n      0x04\n      add\n      tag_46\n      swap1\n      tag_47\n      jump\t// in\n    tag_46:\n      mload(0x40)\n      dup1\n      swap2\n      sub\n      swap1\n      revert\n    tag_45:\n        /* \"contracts/SurveyRewardSystem.sol\":3209:3252  SurveyCancelled(surveyIpfsHash, msg.sender) */\n      0xa3702e53a7e58cec98a7e461a6dff9e6c4a4d9100b03664560d7639ee1db1a6a\n        /* \"contracts/SurveyRewardSystem.sol\":3225:3239  surveyIpfsHash */\n      dup4\n        /* \"contracts/SurveyRewardSystem.sol\":3241:3251  msg.sender */\n      caller\n        /* \"contracts/SurveyRewardSystem.sol\":3209:3252  SurveyCancelled(surveyIpfsHash, msg.sender) */\n      mload(0x40)\n      tag_48\n      swap3\n      swap2\n      swap1\n      tag_49\n      jump\t// in\n    tag_48:\n      mload(0x40)\n      dup1\n      swap2\n      sub\n      swap1\n      log1\n        /* \"contracts/SurveyRewardSystem.sol\":2661:3260  {... */\n      pop\n      pop\n        /* \"contracts/SurveyRewardSystem.sol\":2602:3260  function cancelSurvey(string memory surveyIpfsHash) public {... */\n      pop\n      jump\t// out\n        /* \"contracts/SurveyRewardSystem.sol\":1662:2594  function answerSurvey(string memory surveyIpfsHash, string memory answerIpfsHash) public {... */\n    tag_14:\n        /* \"contracts/SurveyRewardSystem.sol\":1770:1777  surveys */\n      0x01\n        /* \"contracts/SurveyRewardSystem.sol\":1778:1792  surveyIpfsHash */\n      dup3\n        /* \"contracts/SurveyRewardSystem.sol\":1770:1793  surveys[surveyIpfsHash] */\n      mload(0x40)\n      tag_51\n      swap2\n      swap1\n      tag_25\n      jump\t// in\n    tag_51:\n      swap1\n      dup2\n      mstore\n      0x20\n      add\n      mload(0x40)\n      dup1\n      swap2\n      sub\n      swap1\n      keccak256\n        /* \"contracts/SurveyRewardSystem.sol\":1770:1800  surveys[surveyIpfsHash].exists */\n      0x04\n      add\n      0x14\n      swap1\n      sload\n      swap1\n      0x0100\n      exp\n      swap1\n      div\n      0xff\n      and\n        /* \"contracts/SurveyRewardSystem.sol\":1762:1826  require(surveys[surveyIpfsHash].exists, \"Survey does not exist\") */\n      tag_52\n      jumpi\n      mload(0x40)\n      0x08c379a000000000000000000000000000000000000000000000000000000000\n      dup2\n      mstore\n      0x04\n      add\n      tag_53\n      swap1\n      tag_54\n      jump\t// in\n    tag_53:\n      mload(0x40)\n      dup1\n      swap2\n      sub\n      swap1\n      revert\n    tag_52:\n        /* \"contracts/SurveyRewardSystem.sol\":2008:2009  0 */\n      0x00\n        /* \"contracts/SurveyRewardSystem.sol\":1953:1960  surveys */\n      0x01\n        /* \"contracts/SurveyRewardSystem.sol\":1961:1975  surveyIpfsHash */\n      dup4\n        /* \"contracts/SurveyRewardSystem.sol\":1953:1976  surveys[surveyIpfsHash] */\n      mload(0x40)\n      tag_55\n      swap2\n      swap1\n      tag_25\n      jump\t// in\n    tag_55:\n      swap1\n      dup2\n      mstore\n      0x20\n      add\n      mload(0x40)\n      dup1\n      swap2\n      sub\n      swap1\n      keccak256\n        /* \"contracts/SurveyRewardSystem.sol\":1953:1984  surveys[surveyIpfsHash].answers */\n      0x05\n      add\n        /* \"contracts/SurveyRewardSystem.sol\":1953:1996  surveys[surveyIpfsHash].answers[msg.sender] */\n      0x00\n        /* \"contracts/SurveyRewardSystem.sol\":1985:1995  msg.sender */\n      caller\n        /* \"contracts/SurveyRewardSystem.sol\":1953:1996  surveys[surveyIpfsHash].answers[msg.sender] */\n      0xffffffffffffffffffffffffffffffffffffffff\n      and\n      0xffffffffffffffffffffffffffffffffffffffff\n      and\n      dup2\n      mstore\n      0x20\n      add\n      swap1\n      dup2\n      mstore\n      0x20\n      add\n      0x00\n      keccak256\n        /* \"contracts/SurveyRewardSystem.sol\":1947:2004  bytes(surveys[surveyIpfsHash].answers[msg.sender]).length */\n      dup1\n      sload\n      tag_56\n      swap1\n      tag_57\n      jump\t// in\n    tag_56:\n      swap1\n      pop\n        /* \"contracts/SurveyRewardSystem.sol\":1947:2009  bytes(surveys[surveyIpfsHash].answers[msg.sender]).length == 0 */\n      eq\n        /* \"contracts/SurveyRewardSystem.sol\":1939:2056  require(bytes(surveys[surveyIpfsHash].answers[msg.sender]).length == 0, \"Responder has already answered this survey\") */\n      tag_58\n      jumpi\n      mload(0x40)\n      0x08c379a000000000000000000000000000000000000000000000000000000000\n      dup2\n      mstore\n      0x04\n      add\n      tag_59\n      swap1\n      tag_60\n      jump\t// in\n    tag_59:\n      mload(0x40)\n      dup1\n      swap2\n      sub\n      swap1\n      revert\n    tag_58:\n        /* \"contracts/SurveyRewardSystem.sol\":2069:2090  Survey storage survey */\n      0x00\n        /* \"contracts/SurveyRewardSystem.sol\":2093:2100  surveys */\n      0x01\n        /* \"contracts/SurveyRewardSystem.sol\":2101:2115  surveyIpfsHash */\n      dup4\n        /* \"contracts/SurveyRewardSystem.sol\":2093:2116  surveys[surveyIpfsHash] */\n      mload(0x40)\n      tag_61\n      swap2\n      swap1\n      tag_25\n      jump\t// in\n    tag_61:\n      swap1\n      dup2\n      mstore\n      0x20\n      add\n      mload(0x40)\n      dup1\n      swap2\n      sub\n      swap1\n      keccak256\n        /* \"contracts/SurveyRewardSystem.sol\":2069:2116  Survey storage survey = surveys[surveyIpfsHash] */\n      swap1\n      pop\n        /* \"contracts/SurveyRewardSystem.sol\":2162:2168  survey */\n      dup1\n        /* \"contracts/SurveyRewardSystem.sol\":2162:2188  survey.expectedRespondents */\n      0x02\n      add\n      sload\n        /* \"contracts/SurveyRewardSystem.sol\":2135:2141  survey */\n      dup2\n        /* \"contracts/SurveyRewardSystem.sol\":2135:2159  survey.actualRespondents */\n      0x03\n      add\n      sload\n        /* \"contracts/SurveyRewardSystem.sol\":2135:2188  survey.actualRespondents < survey.expectedRespondents */\n      lt\n        /* \"contracts/SurveyRewardSystem.sol\":2127:2244  require(survey.actualRespondents < survey.expectedRespondents, \"Survey has already reached its expected respondents\") */\n      tag_62\n      jumpi\n      mload(0x40)\n      0x08c379a000000000000000000000000000000000000000000000000000000000\n      dup2\n      mstore\n      0x04\n      add\n      tag_63\n      swap1\n      tag_64\n      jump\t// in\n    tag_63:\n      mload(0x40)\n      dup1\n      swap2\n      sub\n      swap1\n      revert\n    tag_62:\n        /* \"contracts/SurveyRewardSystem.sol\":2286:2300  answerIpfsHash */\n      dup2\n        /* \"contracts/SurveyRewardSystem.sol\":2257:2263  survey */\n      dup2\n        /* \"contracts/SurveyRewardSystem.sol\":2257:2271  survey.answers */\n      0x05\n      add\n        /* \"contracts/SurveyRewardSystem.sol\":2257:2283  survey.answers[msg.sender] */\n      0x00\n        /* \"contracts/SurveyRewardSystem.sol\":2272:2282  msg.sender */\n      caller\n        /* \"contracts/SurveyRewardSystem.sol\":2257:2283  survey.answers[msg.sender] */\n      0xffffffffffffffffffffffffffffffffffffffff\n      and\n      0xffffffffffffffffffffffffffffffffffffffff\n      and\n      dup2\n      mstore\n      0x20\n      add\n      swap1\n      dup2\n      mstore\n      0x20\n      add\n      0x00\n      keccak256\n        /* \"contracts/SurveyRewardSystem.sol\":2257:2300  survey.answers[msg.sender] = answerIpfsHash */\n      swap1\n      dup2\n      tag_65\n      swap2\n      swap1\n      tag_66\n      jump\t// in\n    tag_65:\n      pop\n        /* \"contracts/SurveyRewardSystem.sol\":2311:2317  survey */\n      dup1\n        /* \"contracts/SurveyRewardSystem.sol\":2311:2335  survey.actualRespondents */\n      0x03\n      add\n      0x00\n        /* \"contracts/SurveyRewardSystem.sol\":2311:2337  survey.actualRespondents++ */\n      dup2\n      sload\n      dup1\n      swap3\n      swap2\n      swap1\n      tag_67\n      swap1\n      tag_68\n      jump\t// in\n    tag_67:\n      swap2\n      swap1\n      pop\n      sstore\n      pop\n        /* \"contracts/SurveyRewardSystem.sol\":2350:2370  uint256 rewardAmount */\n      0x00\n        /* \"contracts/SurveyRewardSystem.sol\":2393:2399  survey */\n      dup2\n        /* \"contracts/SurveyRewardSystem.sol\":2393:2419  survey.expectedRespondents */\n      0x02\n      add\n      sload\n        /* \"contracts/SurveyRewardSystem.sol\":2373:2379  survey */\n      dup3\n        /* \"contracts/SurveyRewardSystem.sol\":2373:2390  survey.rewardPool */\n      0x01\n      add\n      sload\n        /* \"contracts/SurveyRewardSystem.sol\":2373:2419  survey.rewardPool / survey.expectedRespondents */\n      tag_69\n      swap2\n      swap1\n      tag_34\n      jump\t// in\n    tag_69:\n        /* \"contracts/SurveyRewardSystem.sol\":2350:2419  uint256 rewardAmount = survey.rewardPool / survey.expectedRespondents */\n      swap1\n      pop\n        /* \"contracts/SurveyRewardSystem.sol\":2438:2443  token */\n      0x00\n      dup1\n      sload\n      swap1\n      0x0100\n      exp\n      swap1\n      div\n      0xffffffffffffffffffffffffffffffffffffffff\n      and\n        /* \"contracts/SurveyRewardSystem.sol\":2438:2452  token.transfer */\n      0xffffffffffffffffffffffffffffffffffffffff\n      and\n      0xa9059cbb\n        /* \"contracts/SurveyRewardSystem.sol\":2453:2463  msg.sender */\n      caller\n        /* \"contracts/SurveyRewardSystem.sol\":2465:2477  rewardAmount */\n      dup4\n        /* \"contracts/SurveyRewardSystem.sol\":2438:2478  token.transfer(msg.sender, rewardAmount) */\n      mload(0x40)\n      dup4\n      0xffffffff\n      and\n      0xe0\n      shl\n      dup2\n      mstore\n      0x04\n      add\n      tag_70\n      swap3\n      swap2\n      swap1\n      tag_40\n      jump\t// in\n    tag_70:\n      0x20\n      mload(0x40)\n      dup1\n      dup4\n      sub\n      dup2\n      0x00\n      dup8\n      gas\n      call\n      iszero\n      dup1\n      iszero\n      tag_72\n      jumpi\n      returndatasize\n      0x00\n      dup1\n      returndatacopy\n      revert(0x00, returndatasize)\n    tag_72:\n      pop\n      pop\n      pop\n      pop\n      mload(0x40)\n      returndatasize\n      not(0x1f)\n      0x1f\n      dup3\n      add\n      and\n      dup3\n      add\n      dup1\n      0x40\n      mstore\n      pop\n      dup2\n      add\n      swap1\n      tag_73\n      swap2\n      swap1\n      tag_44\n      jump\t// in\n    tag_73:\n        /* \"contracts/SurveyRewardSystem.sol\":2430:2510  require(token.transfer(msg.sender, rewardAmount), \"Failed to distribute reward\") */\n      tag_74\n      jumpi\n      mload(0x40)\n      0x08c379a000000000000000000000000000000000000000000000000000000000\n      dup2\n      mstore\n      0x04\n      add\n      tag_75\n      swap1\n      tag_76\n      jump\t// in\n    tag_75:\n      mload(0x40)\n      dup1\n      swap2\n      sub\n      swap1\n      revert\n    tag_74:\n        /* \"contracts/SurveyRewardSystem.sol\":2528:2586  SurveyAnswered(surveyIpfsHash, msg.sender, answerIpfsHash) */\n      0xaf52d4cb749e687cd81112ccd6551a2db43460a6c1d08596020bda4a3142cf5e\n        /* \"contracts/SurveyRewardSystem.sol\":2543:2557  surveyIpfsHash */\n      dup5\n        /* \"contracts/SurveyRewardSystem.sol\":2559:2569  msg.sender */\n      caller\n        /* \"contracts/SurveyRewardSystem.sol\":2571:2585  answerIpfsHash */\n      dup6\n        /* \"contracts/SurveyRewardSystem.sol\":2528:2586  SurveyAnswered(surveyIpfsHash, msg.sender, answerIpfsHash) */\n      mload(0x40)\n      tag_77\n      swap4\n      swap3\n      swap2\n      swap1\n      tag_78\n      jump\t// in\n    tag_77:\n      mload(0x40)\n      dup1\n      swap2\n      sub\n      swap1\n      log1\n        /* \"contracts/SurveyRewardSystem.sol\":1751:2594  {... */\n      pop\n      pop\n        /* \"contracts/SurveyRewardSystem.sol\":1662:2594  function answerSurvey(string memory surveyIpfsHash, string memory answerIpfsHash) public {... */\n      pop\n      pop\n      jump\t// out\n        /* \"contracts/SurveyRewardSystem.sol\":825:1654  function createSurvey(string memory ipfsHash, uint256 singleReward, uint256 expectedRespondents) public {... */\n    tag_18:\n        /* \"contracts/SurveyRewardSystem.sol\":949:956  surveys */\n      0x01\n        /* \"contracts/SurveyRewardSystem.sol\":957:965  ipfsHash */\n      dup4\n        /* \"contracts/SurveyRewardSystem.sol\":949:966  surveys[ipfsHash] */\n      mload(0x40)\n      tag_80\n      swap2\n      swap1\n      tag_25\n      jump\t// in\n    tag_80:\n      swap1\n      dup2\n      mstore\n      0x20\n      add\n      mload(0x40)\n      dup1\n      swap2\n      sub\n      swap1\n      keccak256\n        /* \"contracts/SurveyRewardSystem.sol\":949:973  surveys[ipfsHash].exists */\n      0x04\n      add\n      0x14\n      swap1\n      sload\n      swap1\n      0x0100\n      exp\n      swap1\n      div\n      0xff\n      and\n        /* \"contracts/SurveyRewardSystem.sol\":948:973  !surveys[ipfsHash].exists */\n      iszero\n        /* \"contracts/SurveyRewardSystem.sol\":940:999  require(!surveys[ipfsHash].exists, \"Survey already exists\") */\n      tag_81\n      jumpi\n      mload(0x40)\n      0x08c379a000000000000000000000000000000000000000000000000000000000\n      dup2\n      mstore\n      0x04\n      add\n      tag_82\n      swap1\n      tag_83\n      jump\t// in\n    tag_82:\n      mload(0x40)\n      dup1\n      swap2\n      sub\n      swap1\n      revert\n    tag_81:\n        /* \"contracts/SurveyRewardSystem.sol\":1040:1041  0 */\n      0x00\n        /* \"contracts/SurveyRewardSystem.sol\":1018:1037  expectedRespondents */\n      dup2\n        /* \"contracts/SurveyRewardSystem.sol\":1018:1041  expectedRespondents > 0 */\n      gt\n        /* \"contracts/SurveyRewardSystem.sol\":1010:1089  require(expectedRespondents > 0, \"Expected respondents must be greater than 0\") */\n      tag_84\n      jumpi\n      mload(0x40)\n      0x08c379a000000000000000000000000000000000000000000000000000000000\n      dup2\n      mstore\n      0x04\n      add\n      tag_85\n      swap1\n      tag_86\n      jump\t// in\n    tag_85:\n      mload(0x40)\n      dup1\n      swap2\n      sub\n      swap1\n      revert\n    tag_84:\n        /* \"contracts/SurveyRewardSystem.sol\":1100:1118  uint256 rewardPool */\n      0x00\n        /* \"contracts/SurveyRewardSystem.sol\":1136:1155  expectedRespondents */\n      dup2\n        /* \"contracts/SurveyRewardSystem.sol\":1121:1133  singleReward */\n      dup4\n        /* \"contracts/SurveyRewardSystem.sol\":1121:1155  singleReward * expectedRespondents */\n      tag_87\n      swap2\n      swap1\n      tag_36\n      jump\t// in\n    tag_87:\n        /* \"contracts/SurveyRewardSystem.sol\":1100:1155  uint256 rewardPool = singleReward * expectedRespondents */\n      swap1\n      pop\n        /* \"contracts/SurveyRewardSystem.sol\":1166:1187  Survey storage survey */\n      0x00\n        /* \"contracts/SurveyRewardSystem.sol\":1190:1197  surveys */\n      0x01\n        /* \"contracts/SurveyRewardSystem.sol\":1198:1206  ipfsHash */\n      dup6\n        /* \"contracts/SurveyRewardSystem.sol\":1190:1207  surveys[ipfsHash] */\n      mload(0x40)\n      tag_88\n      swap2\n      swap1\n      tag_25\n      jump\t// in\n    tag_88:\n      swap1\n      dup2\n      mstore\n      0x20\n      add\n      mload(0x40)\n      dup1\n      swap2\n      sub\n      swap1\n      keccak256\n        /* \"contracts/SurveyRewardSystem.sol\":1166:1207  Survey storage survey = surveys[ipfsHash] */\n      swap1\n      pop\n        /* \"contracts/SurveyRewardSystem.sol\":1236:1244  ipfsHash */\n      dup5\n        /* \"contracts/SurveyRewardSystem.sol\":1218:1224  survey */\n      dup2\n        /* \"contracts/SurveyRewardSystem.sol\":1218:1233  survey.ipfsHash */\n      0x00\n      add\n        /* \"contracts/SurveyRewardSystem.sol\":1218:1244  survey.ipfsHash = ipfsHash */\n      swap1\n      dup2\n      tag_89\n      swap2\n      swap1\n      tag_66\n      jump\t// in\n    tag_89:\n      pop\n        /* \"contracts/SurveyRewardSystem.sol\":1275:1285  rewardPool */\n      dup2\n        /* \"contracts/SurveyRewardSystem.sol\":1255:1261  survey */\n      dup2\n        /* \"contracts/SurveyRewardSystem.sol\":1255:1272  survey.rewardPool */\n      0x01\n      add\n        /* \"contracts/SurveyRewardSystem.sol\":1255:1285  survey.rewardPool = rewardPool */\n      dup2\n      swap1\n      sstore\n      pop\n        /* \"contracts/SurveyRewardSystem.sol\":1325:1344  expectedRespondents */\n      dup3\n        /* \"contracts/SurveyRewardSystem.sol\":1296:1302  survey */\n      dup2\n        /* \"contracts/SurveyRewardSystem.sol\":1296:1322  survey.expectedRespondents */\n      0x02\n      add\n        /* \"contracts/SurveyRewardSystem.sol\":1296:1344  survey.expectedRespondents = expectedRespondents */\n      dup2\n      swap1\n      sstore\n      pop\n        /* \"contracts/SurveyRewardSystem.sol\":1382:1383  0 */\n      0x00\n        /* \"contracts/SurveyRewardSystem.sol\":1355:1361  survey */\n      dup2\n        /* \"contracts/SurveyRewardSystem.sol\":1355:1379  survey.actualRespondents */\n      0x03\n      add\n        /* \"contracts/SurveyRewardSystem.sol\":1355:1383  survey.actualRespondents = 0 */\n      dup2\n      swap1\n      sstore\n      pop\n        /* \"contracts/SurveyRewardSystem.sol\":1411:1421  msg.sender */\n      caller\n        /* \"contracts/SurveyRewardSystem.sol\":1394:1400  survey */\n      dup2\n        /* \"contracts/SurveyRewardSystem.sol\":1394:1408  survey.creator */\n      0x04\n      add\n      0x00\n        /* \"contracts/SurveyRewardSystem.sol\":1394:1421  survey.creator = msg.sender */\n      0x0100\n      exp\n      dup2\n      sload\n      dup2\n      0xffffffffffffffffffffffffffffffffffffffff\n      mul\n      not\n      and\n      swap1\n      dup4\n      0xffffffffffffffffffffffffffffffffffffffff\n      and\n      mul\n      or\n      swap1\n      sstore\n      pop\n        /* \"contracts/SurveyRewardSystem.sol\":1448:1452  true */\n      0x01\n        /* \"contracts/SurveyRewardSystem.sol\":1432:1438  survey */\n      dup2\n        /* \"contracts/SurveyRewardSystem.sol\":1432:1445  survey.exists */\n      0x04\n      add\n      0x14\n        /* \"contracts/SurveyRewardSystem.sol\":1432:1452  survey.exists = true */\n      0x0100\n      exp\n      dup2\n      sload\n      dup2\n      0xff\n      mul\n      not\n      and\n      swap1\n      dup4\n      iszero\n      iszero\n      mul\n      or\n      swap1\n      sstore\n      pop\n        /* \"contracts/SurveyRewardSystem.sol\":1471:1476  token */\n      0x00\n      dup1\n      sload\n      swap1\n      0x0100\n      exp\n      swap1\n      div\n      0xffffffffffffffffffffffffffffffffffffffff\n      and\n        /* \"contracts/SurveyRewardSystem.sol\":1471:1489  token.transferFrom */\n      0xffffffffffffffffffffffffffffffffffffffff\n      and\n      0x23b872dd\n        /* \"contracts/SurveyRewardSystem.sol\":1490:1500  msg.sender */\n      caller\n        /* \"contracts/SurveyRewardSystem.sol\":1510:1514  this */\n      address\n        /* \"contracts/SurveyRewardSystem.sol\":1517:1527  rewardPool */\n      dup6\n        /* \"contracts/SurveyRewardSystem.sol\":1471:1528  token.transferFrom(msg.sender, address(this), rewardPool) */\n      mload(0x40)\n      dup5\n      0xffffffff\n      and\n      0xe0\n      shl\n      dup2\n      mstore\n      0x04\n      add\n      tag_90\n      swap4\n      swap3\n      swap2\n      swap1\n      tag_91\n      jump\t// in\n    tag_90:\n      0x20\n      mload(0x40)\n      dup1\n      dup4\n      sub\n      dup2\n      0x00\n      dup8\n      gas\n      call\n      iszero\n      dup1\n      iszero\n      tag_93\n      jumpi\n      returndatasize\n      0x00\n      dup1\n      returndatacopy\n      revert(0x00, returndatasize)\n    tag_93:\n      pop\n      pop\n      pop\n      pop\n      mload(0x40)\n      returndatasize\n      not(0x1f)\n      0x1f\n      dup3\n      add\n      and\n      dup3\n      add\n      dup1\n      0x40\n      mstore\n      pop\n      dup2\n      add\n      swap1\n      tag_94\n      swap2\n      swap1\n      tag_44\n      jump\t// in\n    tag_94:\n        /* \"contracts/SurveyRewardSystem.sol\":1463:1562  require(token.transferFrom(msg.sender, address(this), rewardPool), \"Failed to lock survey rewards\") */\n      tag_95\n      jumpi\n      mload(0x40)\n      0x08c379a000000000000000000000000000000000000000000000000000000000\n      dup2\n      mstore\n      0x04\n      add\n      tag_96\n      swap1\n      tag_97\n      jump\t// in\n    tag_96:\n      mload(0x40)\n      dup1\n      swap2\n      sub\n      swap1\n      revert\n    tag_95:\n        /* \"contracts/SurveyRewardSystem.sol\":1578:1646  SurveyCreated(ipfsHash, rewardPool, expectedRespondents, msg.sender) */\n      0xba2e91dec1dad0f4e111e2efaf28a87f75e5f0c63c36dcc3c6b2793fc3a0796d\n        /* \"contracts/SurveyRewardSystem.sol\":1592:1600  ipfsHash */\n      dup6\n        /* \"contracts/SurveyRewardSystem.sol\":1602:1612  rewardPool */\n      dup4\n        /* \"contracts/SurveyRewardSystem.sol\":1614:1633  expectedRespondents */\n      dup6\n        /* \"contracts/SurveyRewardSystem.sol\":1635:1645  msg.sender */\n      caller\n        /* \"contracts/SurveyRewardSystem.sol\":1578:1646  SurveyCreated(ipfsHash, rewardPool, expectedRespondents, msg.sender) */\n      mload(0x40)\n      tag_98\n      swap5\n      swap4\n      swap3\n      swap2\n      swap1\n      tag_99\n      jump\t// in\n    tag_98:\n      mload(0x40)\n      dup1\n      swap2\n      sub\n      swap1\n      log1\n        /* \"contracts/SurveyRewardSystem.sol\":929:1654  {... */\n      pop\n      pop\n        /* \"contracts/SurveyRewardSystem.sol\":825:1654  function createSurvey(string memory ipfsHash, uint256 singleReward, uint256 expectedRespondents) public {... */\n      pop\n      pop\n      pop\n      jump\t// out\n        /* \"contracts/SurveyRewardSystem.sol\":155:174  IERC20 public token */\n    tag_20:\n      0x00\n      dup1\n      sload\n      swap1\n      0x0100\n      exp\n      swap1\n      div\n      0xffffffffffffffffffffffffffffffffffffffff\n      and\n      dup2\n      jump\t// out\n        /* \"#utility.yul\":7:82   */\n    tag_100:\n        /* \"#utility.yul\":40:46   */\n      0x00\n        /* \"#utility.yul\":73:75   */\n      0x40\n        /* \"#utility.yul\":67:76   */\n      mload\n        /* \"#utility.yul\":57:76   */\n      swap1\n      pop\n        /* \"#utility.yul\":7:82   */\n      swap1\n      jump\t// out\n        /* \"#utility.yul\":88:205   */\n    tag_101:\n        /* \"#utility.yul\":197:198   */\n      0x00\n        /* \"#utility.yul\":194:195   */\n      dup1\n        /* \"#utility.yul\":187:199   */\n      revert\n        /* \"#utility.yul\":211:328   */\n    tag_102:\n        /* \"#utility.yul\":320:321   */\n      0x00\n        /* \"#utility.yul\":317:318   */\n      dup1\n        /* \"#utility.yul\":310:322   */\n      revert\n        /* \"#utility.yul\":334:451   */\n    tag_103:\n        /* \"#utility.yul\":443:444   */\n      0x00\n        /* \"#utility.yul\":440:441   */\n      dup1\n        /* \"#utility.yul\":433:445   */\n      revert\n        /* \"#utility.yul\":457:574   */\n    tag_104:\n        /* \"#utility.yul\":566:567   */\n      0x00\n        /* \"#utility.yul\":563:564   */\n      dup1\n        /* \"#utility.yul\":556:568   */\n      revert\n        /* \"#utility.yul\":580:682   */\n    tag_105:\n        /* \"#utility.yul\":621:627   */\n      0x00\n        /* \"#utility.yul\":672:674   */\n      0x1f\n        /* \"#utility.yul\":668:675   */\n      not\n        /* \"#utility.yul\":663:665   */\n      0x1f\n        /* \"#utility.yul\":656:661   */\n      dup4\n        /* \"#utility.yul\":652:666   */\n      add\n        /* \"#utility.yul\":648:676   */\n      and\n        /* \"#utility.yul\":638:676   */\n      swap1\n      pop\n        /* \"#utility.yul\":580:682   */\n      swap2\n      swap1\n      pop\n      jump\t// out\n        /* \"#utility.yul\":688:868   */\n    tag_106:\n        /* \"#utility.yul\":736:813   */\n      0x4e487b7100000000000000000000000000000000000000000000000000000000\n        /* \"#utility.yul\":733:734   */\n      0x00\n        /* \"#utility.yul\":726:814   */\n      mstore\n        /* \"#utility.yul\":833:837   */\n      0x41\n        /* \"#utility.yul\":830:831   */\n      0x04\n        /* \"#utility.yul\":823:838   */\n      mstore\n        /* \"#utility.yul\":857:861   */\n      0x24\n        /* \"#utility.yul\":854:855   */\n      0x00\n        /* \"#utility.yul\":847:862   */\n      revert\n        /* \"#utility.yul\":874:1155   */\n    tag_107:\n        /* \"#utility.yul\":957:984   */\n      tag_180\n        /* \"#utility.yul\":979:983   */\n      dup3\n        /* \"#utility.yul\":957:984   */\n      tag_105\n      jump\t// in\n    tag_180:\n        /* \"#utility.yul\":949:955   */\n      dup2\n        /* \"#utility.yul\":945:985   */\n      add\n        /* \"#utility.yul\":1087:1093   */\n      dup2\n        /* \"#utility.yul\":1075:1085   */\n      dup2\n        /* \"#utility.yul\":1072:1094   */\n      lt\n        /* \"#utility.yul\":1051:1069   */\n      0xffffffffffffffff\n        /* \"#utility.yul\":1039:1049   */\n      dup3\n        /* \"#utility.yul\":1036:1070   */\n      gt\n        /* \"#utility.yul\":1033:1095   */\n      or\n        /* \"#utility.yul\":1030:1118   */\n      iszero\n      tag_181\n      jumpi\n        /* \"#utility.yul\":1098:1116   */\n      tag_182\n      tag_106\n      jump\t// in\n    tag_182:\n        /* \"#utility.yul\":1030:1118   */\n    tag_181:\n        /* \"#utility.yul\":1138:1148   */\n      dup1\n        /* \"#utility.yul\":1134:1136   */\n      0x40\n        /* \"#utility.yul\":1127:1149   */\n      mstore\n        /* \"#utility.yul\":917:1155   */\n      pop\n        /* \"#utility.yul\":874:1155   */\n      pop\n      pop\n      jump\t// out\n        /* \"#utility.yul\":1161:1290   */\n    tag_108:\n        /* \"#utility.yul\":1195:1201   */\n      0x00\n        /* \"#utility.yul\":1222:1242   */\n      tag_184\n      tag_100\n      jump\t// in\n    tag_184:\n        /* \"#utility.yul\":1212:1242   */\n      swap1\n      pop\n        /* \"#utility.yul\":1251:1284   */\n      tag_185\n        /* \"#utility.yul\":1279:1283   */\n      dup3\n        /* \"#utility.yul\":1271:1277   */\n      dup3\n        /* \"#utility.yul\":1251:1284   */\n      tag_107\n      jump\t// in\n    tag_185:\n        /* \"#utility.yul\":1161:1290   */\n      swap2\n      swap1\n      pop\n      jump\t// out\n        /* \"#utility.yul\":1296:1604   */\n    tag_109:\n        /* \"#utility.yul\":1358:1362   */\n      0x00\n        /* \"#utility.yul\":1448:1466   */\n      0xffffffffffffffff\n        /* \"#utility.yul\":1440:1446   */\n      dup3\n        /* \"#utility.yul\":1437:1467   */\n      gt\n        /* \"#utility.yul\":1434:1490   */\n      iszero\n      tag_187\n      jumpi\n        /* \"#utility.yul\":1470:1488   */\n      tag_188\n      tag_106\n      jump\t// in\n    tag_188:\n        /* \"#utility.yul\":1434:1490   */\n    tag_187:\n        /* \"#utility.yul\":1508:1537   */\n      tag_189\n        /* \"#utility.yul\":1530:1536   */\n      dup3\n        /* \"#utility.yul\":1508:1537   */\n      tag_105\n      jump\t// in\n    tag_189:\n        /* \"#utility.yul\":1500:1537   */\n      swap1\n      pop\n        /* \"#utility.yul\":1592:1596   */\n      0x20\n        /* \"#utility.yul\":1586:1590   */\n      dup2\n        /* \"#utility.yul\":1582:1597   */\n      add\n        /* \"#utility.yul\":1574:1597   */\n      swap1\n      pop\n        /* \"#utility.yul\":1296:1604   */\n      swap2\n      swap1\n      pop\n      jump\t// out\n        /* \"#utility.yul\":1610:1756   */\n    tag_110:\n        /* \"#utility.yul\":1707:1713   */\n      dup3\n        /* \"#utility.yul\":1702:1705   */\n      dup2\n        /* \"#utility.yul\":1697:1700   */\n      dup4\n        /* \"#utility.yul\":1684:1714   */\n      calldatacopy\n        /* \"#utility.yul\":1748:1749   */\n      0x00\n        /* \"#utility.yul\":1739:1745   */\n      dup4\n        /* \"#utility.yul\":1734:1737   */\n      dup4\n        /* \"#utility.yul\":1730:1746   */\n      add\n        /* \"#utility.yul\":1723:1750   */\n      mstore\n        /* \"#utility.yul\":1610:1756   */\n      pop\n      pop\n      pop\n      jump\t// out\n        /* \"#utility.yul\":1762:2187   */\n    tag_111:\n        /* \"#utility.yul\":1840:1845   */\n      0x00\n        /* \"#utility.yul\":1865:1931   */\n      tag_192\n        /* \"#utility.yul\":1881:1930   */\n      tag_193\n        /* \"#utility.yul\":1923:1929   */\n      dup5\n        /* \"#utility.yul\":1881:1930   */\n      tag_109\n      jump\t// in\n    tag_193:\n        /* \"#utility.yul\":1865:1931   */\n      tag_108\n      jump\t// in\n    tag_192:\n        /* \"#utility.yul\":1856:1931   */\n      swap1\n      pop\n        /* \"#utility.yul\":1954:1960   */\n      dup3\n        /* \"#utility.yul\":1947:1952   */\n      dup2\n        /* \"#utility.yul\":1940:1961   */\n      mstore\n        /* \"#utility.yul\":1992:1996   */\n      0x20\n        /* \"#utility.yul\":1985:1990   */\n      dup2\n        /* \"#utility.yul\":1981:1997   */\n      add\n        /* \"#utility.yul\":2030:2033   */\n      dup5\n        /* \"#utility.yul\":2021:2027   */\n      dup5\n        /* \"#utility.yul\":2016:2019   */\n      dup5\n        /* \"#utility.yul\":2012:2028   */\n      add\n        /* \"#utility.yul\":2009:2034   */\n      gt\n        /* \"#utility.yul\":2006:2118   */\n      iszero\n      tag_194\n      jumpi\n        /* \"#utility.yul\":2037:2116   */\n      tag_195\n      tag_104\n      jump\t// in\n    tag_195:\n        /* \"#utility.yul\":2006:2118   */\n    tag_194:\n        /* \"#utility.yul\":2127:2181   */\n      tag_196\n        /* \"#utility.yul\":2174:2180   */\n      dup5\n        /* \"#utility.yul\":2169:2172   */\n      dup3\n        /* \"#utility.yul\":2164:2167   */\n      dup6\n        /* \"#utility.yul\":2127:2181   */\n      tag_110\n      jump\t// in\n    tag_196:\n        /* \"#utility.yul\":1846:2187   */\n      pop\n        /* \"#utility.yul\":1762:2187   */\n      swap4\n      swap3\n      pop\n      pop\n      pop\n      jump\t// out\n        /* \"#utility.yul\":2207:2547   */\n    tag_112:\n        /* \"#utility.yul\":2263:2268   */\n      0x00\n        /* \"#utility.yul\":2312:2315   */\n      dup3\n        /* \"#utility.yul\":2305:2309   */\n      0x1f\n        /* \"#utility.yul\":2297:2303   */\n      dup4\n        /* \"#utility.yul\":2293:2310   */\n      add\n        /* \"#utility.yul\":2289:2316   */\n      slt\n        /* \"#utility.yul\":2279:2401   */\n      tag_198\n      jumpi\n        /* \"#utility.yul\":2320:2399   */\n      tag_199\n      tag_103\n      jump\t// in\n    tag_199:\n        /* \"#utility.yul\":2279:2401   */\n    tag_198:\n        /* \"#utility.yul\":2437:2443   */\n      dup2\n        /* \"#utility.yul\":2424:2444   */\n      calldataload\n        /* \"#utility.yul\":2462:2541   */\n      tag_200\n        /* \"#utility.yul\":2537:2540   */\n      dup5\n        /* \"#utility.yul\":2529:2535   */\n      dup3\n        /* \"#utility.yul\":2522:2526   */\n      0x20\n        /* \"#utility.yul\":2514:2520   */\n      dup7\n        /* \"#utility.yul\":2510:2527   */\n      add\n        /* \"#utility.yul\":2462:2541   */\n      tag_111\n      jump\t// in\n    tag_200:\n        /* \"#utility.yul\":2453:2541   */\n      swap2\n      pop\n        /* \"#utility.yul\":2269:2547   */\n      pop\n        /* \"#utility.yul\":2207:2547   */\n      swap3\n      swap2\n      pop\n      pop\n      jump\t// out\n        /* \"#utility.yul\":2553:3062   */\n    tag_9:\n        /* \"#utility.yul\":2622:2628   */\n      0x00\n        /* \"#utility.yul\":2671:2673   */\n      0x20\n        /* \"#utility.yul\":2659:2668   */\n      dup3\n        /* \"#utility.yul\":2650:2657   */\n      dup5\n        /* \"#utility.yul\":2646:2669   */\n      sub\n        /* \"#utility.yul\":2642:2674   */\n      slt\n        /* \"#utility.yul\":2639:2758   */\n      iszero\n      tag_202\n      jumpi\n        /* \"#utility.yul\":2677:2756   */\n      tag_203\n      tag_101\n      jump\t// in\n    tag_203:\n        /* \"#utility.yul\":2639:2758   */\n    tag_202:\n        /* \"#utility.yul\":2825:2826   */\n      0x00\n        /* \"#utility.yul\":2814:2823   */\n      dup3\n        /* \"#utility.yul\":2810:2827   */\n      add\n        /* \"#utility.yul\":2797:2828   */\n      calldataload\n        /* \"#utility.yul\":2855:2873   */\n      0xffffffffffffffff\n        /* \"#utility.yul\":2847:2853   */\n      dup2\n        /* \"#utility.yul\":2844:2874   */\n      gt\n        /* \"#utility.yul\":2841:2958   */\n      iszero\n      tag_204\n      jumpi\n        /* \"#utility.yul\":2877:2956   */\n      tag_205\n      tag_102\n      jump\t// in\n    tag_205:\n        /* \"#utility.yul\":2841:2958   */\n    tag_204:\n        /* \"#utility.yul\":2982:3045   */\n      tag_206\n        /* \"#utility.yul\":3037:3044   */\n      dup5\n        /* \"#utility.yul\":3028:3034   */\n      dup3\n        /* \"#utility.yul\":3017:3026   */\n      dup6\n        /* \"#utility.yul\":3013:3035   */\n      add\n        /* \"#utility.yul\":2982:3045   */\n      tag_112\n      jump\t// in\n    tag_206:\n        /* \"#utility.yul\":2972:3045   */\n      swap2\n      pop\n        /* \"#utility.yul\":2768:3055   */\n      pop\n        /* \"#utility.yul\":2553:3062   */\n      swap3\n      swap2\n      pop\n      pop\n      jump\t// out\n        /* \"#utility.yul\":3068:3902   */\n    tag_13:\n        /* \"#utility.yul\":3156:3162   */\n      0x00\n        /* \"#utility.yul\":3164:3170   */\n      dup1\n        /* \"#utility.yul\":3213:3215   */\n      0x40\n        /* \"#utility.yul\":3201:3210   */\n      dup4\n        /* \"#utility.yul\":3192:3199   */\n      dup6\n        /* \"#utility.yul\":3188:3211   */\n      sub\n        /* \"#utility.yul\":3184:3216   */\n      slt\n        /* \"#utility.yul\":3181:3300   */\n      iszero\n      tag_208\n      jumpi\n        /* \"#utility.yul\":3219:3298   */\n      tag_209\n      tag_101\n      jump\t// in\n    tag_209:\n        /* \"#utility.yul\":3181:3300   */\n    tag_208:\n        /* \"#utility.yul\":3367:3368   */\n      0x00\n        /* \"#utility.yul\":3356:3365   */\n      dup4\n        /* \"#utility.yul\":3352:3369   */\n      add\n        /* \"#utility.yul\":3339:3370   */\n      calldataload\n        /* \"#utility.yul\":3397:3415   */\n      0xffffffffffffffff\n        /* \"#utility.yul\":3389:3395   */\n      dup2\n        /* \"#utility.yul\":3386:3416   */\n      gt\n        /* \"#utility.yul\":3383:3500   */\n      iszero\n      tag_210\n      jumpi\n        /* \"#utility.yul\":3419:3498   */\n      tag_211\n      tag_102\n      jump\t// in\n    tag_211:\n        /* \"#utility.yul\":3383:3500   */\n    tag_210:\n        /* \"#utility.yul\":3524:3587   */\n      tag_212\n        /* \"#utility.yul\":3579:3586   */\n      dup6\n        /* \"#utility.yul\":3570:3576   */\n      dup3\n        /* \"#utility.yul\":3559:3568   */\n      dup7\n        /* \"#utility.yul\":3555:3577   */\n      add\n        /* \"#utility.yul\":3524:3587   */\n      tag_112\n      jump\t// in\n    tag_212:\n        /* \"#utility.yul\":3514:3587   */\n      swap3\n      pop\n        /* \"#utility.yul\":3310:3597   */\n      pop\n        /* \"#utility.yul\":3664:3666   */\n      0x20\n        /* \"#utility.yul\":3653:3662   */\n      dup4\n        /* \"#utility.yul\":3649:3667   */\n      add\n        /* \"#utility.yul\":3636:3668   */\n      calldataload\n        /* \"#utility.yul\":3695:3713   */\n      0xffffffffffffffff\n        /* \"#utility.yul\":3687:3693   */\n      dup2\n        /* \"#utility.yul\":3684:3714   */\n      gt\n        /* \"#utility.yul\":3681:3798   */\n      iszero\n      tag_213\n      jumpi\n        /* \"#utility.yul\":3717:3796   */\n      tag_214\n      tag_102\n      jump\t// in\n    tag_214:\n        /* \"#utility.yul\":3681:3798   */\n    tag_213:\n        /* \"#utility.yul\":3822:3885   */\n      tag_215\n        /* \"#utility.yul\":3877:3884   */\n      dup6\n        /* \"#utility.yul\":3868:3874   */\n      dup3\n        /* \"#utility.yul\":3857:3866   */\n      dup7\n        /* \"#utility.yul\":3853:3875   */\n      add\n        /* \"#utility.yul\":3822:3885   */\n      tag_112\n      jump\t// in\n    tag_215:\n        /* \"#utility.yul\":3812:3885   */\n      swap2\n      pop\n        /* \"#utility.yul\":3607:3895   */\n      pop\n        /* \"#utility.yul\":3068:3902   */\n      swap3\n      pop\n      swap3\n      swap1\n      pop\n      jump\t// out\n        /* \"#utility.yul\":3908:3985   */\n    tag_113:\n        /* \"#utility.yul\":3945:3952   */\n      0x00\n        /* \"#utility.yul\":3974:3979   */\n      dup2\n        /* \"#utility.yul\":3963:3979   */\n      swap1\n      pop\n        /* \"#utility.yul\":3908:3985   */\n      swap2\n      swap1\n      pop\n      jump\t// out\n        /* \"#utility.yul\":3991:4113   */\n    tag_114:\n        /* \"#utility.yul\":4064:4088   */\n      tag_218\n        /* \"#utility.yul\":4082:4087   */\n      dup2\n        /* \"#utility.yul\":4064:4088   */\n      tag_113\n      jump\t// in\n    tag_218:\n        /* \"#utility.yul\":4057:4062   */\n      dup2\n        /* \"#utility.yul\":4054:4089   */\n      eq\n        /* \"#utility.yul\":4044:4107   */\n      tag_219\n      jumpi\n        /* \"#utility.yul\":4103:4104   */\n      0x00\n        /* \"#utility.yul\":4100:4101   */\n      dup1\n        /* \"#utility.yul\":4093:4105   */\n      revert\n        /* \"#utility.yul\":4044:4107   */\n    tag_219:\n        /* \"#utility.yul\":3991:4113   */\n      pop\n      jump\t// out\n        /* \"#utility.yul\":4119:4258   */\n    tag_115:\n        /* \"#utility.yul\":4165:4170   */\n      0x00\n        /* \"#utility.yul\":4203:4209   */\n      dup2\n        /* \"#utility.yul\":4190:4210   */\n      calldataload\n        /* \"#utility.yul\":4181:4210   */\n      swap1\n      pop\n        /* \"#utility.yul\":4219:4252   */\n      tag_221\n        /* \"#utility.yul\":4246:4251   */\n      dup2\n        /* \"#utility.yul\":4219:4252   */\n      tag_114\n      jump\t// in\n    tag_221:\n        /* \"#utility.yul\":4119:4258   */\n      swap3\n      swap2\n      pop\n      pop\n      jump\t// out\n        /* \"#utility.yul\":4264:5063   */\n    tag_17:\n        /* \"#utility.yul\":4351:4357   */\n      0x00\n        /* \"#utility.yul\":4359:4365   */\n      dup1\n        /* \"#utility.yul\":4367:4373   */\n      0x00\n        /* \"#utility.yul\":4416:4418   */\n      0x60\n        /* \"#utility.yul\":4404:4413   */\n      dup5\n        /* \"#utility.yul\":4395:4402   */\n      dup7\n        /* \"#utility.yul\":4391:4414   */\n      sub\n        /* \"#utility.yul\":4387:4419   */\n      slt\n        /* \"#utility.yul\":4384:4503   */\n      iszero\n      tag_223\n      jumpi\n        /* \"#utility.yul\":4422:4501   */\n      tag_224\n      tag_101\n      jump\t// in\n    tag_224:\n        /* \"#utility.yul\":4384:4503   */\n    tag_223:\n        /* \"#utility.yul\":4570:4571   */\n      0x00\n        /* \"#utility.yul\":4559:4568   */\n      dup5\n        /* \"#utility.yul\":4555:4572   */\n      add\n        /* \"#utility.yul\":4542:4573   */\n      calldataload\n        /* \"#utility.yul\":4600:4618   */\n      0xffffffffffffffff\n        /* \"#utility.yul\":4592:4598   */\n      dup2\n        /* \"#utility.yul\":4589:4619   */\n      gt\n        /* \"#utility.yul\":4586:4703   */\n      iszero\n      tag_225\n      jumpi\n        /* \"#utility.yul\":4622:4701   */\n      tag_226\n      tag_102\n      jump\t// in\n    tag_226:\n        /* \"#utility.yul\":4586:4703   */\n    tag_225:\n        /* \"#utility.yul\":4727:4790   */\n      tag_227\n        /* \"#utility.yul\":4782:4789   */\n      dup7\n        /* \"#utility.yul\":4773:4779   */\n      dup3\n        /* \"#utility.yul\":4762:4771   */\n      dup8\n        /* \"#utility.yul\":4758:4780   */\n      add\n        /* \"#utility.yul\":4727:4790   */\n      tag_112\n      jump\t// in\n    tag_227:\n        /* \"#utility.yul\":4717:4790   */\n      swap4\n      pop\n        /* \"#utility.yul\":4513:4800   */\n      pop\n        /* \"#utility.yul\":4839:4841   */\n      0x20\n        /* \"#utility.yul\":4865:4918   */\n      tag_228\n        /* \"#utility.yul\":4910:4917   */\n      dup7\n        /* \"#utility.yul\":4901:4907   */\n      dup3\n        /* \"#utility.yul\":4890:4899   */\n      dup8\n        /* \"#utility.yul\":4886:4908   */\n      add\n        /* \"#utility.yul\":4865:4918   */\n      tag_115\n      jump\t// in\n    tag_228:\n        /* \"#utility.yul\":4855:4918   */\n      swap3\n      pop\n        /* \"#utility.yul\":4810:4928   */\n      pop\n        /* \"#utility.yul\":4967:4969   */\n      0x40\n        /* \"#utility.yul\":4993:5046   */\n      tag_229\n        /* \"#utility.yul\":5038:5045   */\n      dup7\n        /* \"#utility.yul\":5029:5035   */\n      dup3\n        /* \"#utility.yul\":5018:5027   */\n      dup8\n        /* \"#utility.yul\":5014:5036   */\n      add\n        /* \"#utility.yul\":4993:5046   */\n      tag_115\n      jump\t// in\n    tag_229:\n        /* \"#utility.yul\":4983:5046   */\n      swap2\n      pop\n        /* \"#utility.yul\":4938:5056   */\n      pop\n        /* \"#utility.yul\":4264:5063   */\n      swap3\n      pop\n      swap3\n      pop\n      swap3\n      jump\t// out\n        /* \"#utility.yul\":5069:5195   */\n    tag_116:\n        /* \"#utility.yul\":5106:5113   */\n      0x00\n        /* \"#utility.yul\":5146:5188   */\n      0xffffffffffffffffffffffffffffffffffffffff\n        /* \"#utility.yul\":5139:5144   */\n      dup3\n        /* \"#utility.yul\":5135:5189   */\n      and\n        /* \"#utility.yul\":5124:5189   */\n      swap1\n      pop\n        /* \"#utility.yul\":5069:5195   */\n      swap2\n      swap1\n      pop\n      jump\t// out\n        /* \"#utility.yul\":5201:5261   */\n    tag_117:\n        /* \"#utility.yul\":5229:5232   */\n      0x00\n        /* \"#utility.yul\":5250:5255   */\n      dup2\n        /* \"#utility.yul\":5243:5255   */\n      swap1\n      pop\n        /* \"#utility.yul\":5201:5261   */\n      swap2\n      swap1\n      pop\n      jump\t// out\n        /* \"#utility.yul\":5267:5409   */\n    tag_118:\n        /* \"#utility.yul\":5317:5326   */\n      0x00\n        /* \"#utility.yul\":5350:5403   */\n      tag_233\n        /* \"#utility.yul\":5368:5402   */\n      tag_234\n        /* \"#utility.yul\":5377:5401   */\n      tag_235\n        /* \"#utility.yul\":5395:5400   */\n      dup5\n        /* \"#utility.yul\":5377:5401   */\n      tag_116\n      jump\t// in\n    tag_235:\n        /* \"#utility.yul\":5368:5402   */\n      tag_117\n      jump\t// in\n    tag_234:\n        /* \"#utility.yul\":5350:5403   */\n      tag_116\n      jump\t// in\n    tag_233:\n        /* \"#utility.yul\":5337:5403   */\n      swap1\n      pop\n        /* \"#utility.yul\":5267:5409   */\n      swap2\n      swap1\n      pop\n      jump\t// out\n        /* \"#utility.yul\":5415:5541   */\n    tag_119:\n        /* \"#utility.yul\":5465:5474   */\n      0x00\n        /* \"#utility.yul\":5498:5535   */\n      tag_237\n        /* \"#utility.yul\":5529:5534   */\n      dup3\n        /* \"#utility.yul\":5498:5535   */\n      tag_118\n      jump\t// in\n    tag_237:\n        /* \"#utility.yul\":5485:5535   */\n      swap1\n      pop\n        /* \"#utility.yul\":5415:5541   */\n      swap2\n      swap1\n      pop\n      jump\t// out\n        /* \"#utility.yul\":5547:5686   */\n    tag_120:\n        /* \"#utility.yul\":5610:5619   */\n      0x00\n        /* \"#utility.yul\":5643:5680   */\n      tag_239\n        /* \"#utility.yul\":5674:5679   */\n      dup3\n        /* \"#utility.yul\":5643:5680   */\n      tag_119\n      jump\t// in\n    tag_239:\n        /* \"#utility.yul\":5630:5680   */\n      swap1\n      pop\n        /* \"#utility.yul\":5547:5686   */\n      swap2\n      swap1\n      pop\n      jump\t// out\n        /* \"#utility.yul\":5692:5849   */\n    tag_121:\n        /* \"#utility.yul\":5792:5842   */\n      tag_241\n        /* \"#utility.yul\":5836:5841   */\n      dup2\n        /* \"#utility.yul\":5792:5842   */\n      tag_120\n      jump\t// in\n    tag_241:\n        /* \"#utility.yul\":5787:5790   */\n      dup3\n        /* \"#utility.yul\":5780:5843   */\n      mstore\n        /* \"#utility.yul\":5692:5849   */\n      pop\n      pop\n      jump\t// out\n        /* \"#utility.yul\":5855:6103   */\n    tag_22:\n        /* \"#utility.yul\":5961:5965   */\n      0x00\n        /* \"#utility.yul\":5999:6001   */\n      0x20\n        /* \"#utility.yul\":5988:5997   */\n      dup3\n        /* \"#utility.yul\":5984:6002   */\n      add\n        /* \"#utility.yul\":5976:6002   */\n      swap1\n      pop\n        /* \"#utility.yul\":6012:6096   */\n      tag_243\n        /* \"#utility.yul\":6093:6094   */\n      0x00\n        /* \"#utility.yul\":6082:6091   */\n      dup4\n        /* \"#utility.yul\":6078:6095   */\n      add\n        /* \"#utility.yul\":6069:6075   */\n      dup5\n        /* \"#utility.yul\":6012:6096   */\n      tag_121\n      jump\t// in\n    tag_243:\n        /* \"#utility.yul\":5855:6103   */\n      swap3\n      swap2\n      pop\n      pop\n      jump\t// out\n        /* \"#utility.yul\":6109:6208   */\n    tag_122:\n        /* \"#utility.yul\":6161:6167   */\n      0x00\n        /* \"#utility.yul\":6195:6200   */\n      dup2\n        /* \"#utility.yul\":6189:6201   */\n      mload\n        /* \"#utility.yul\":6179:6201   */\n      swap1\n      pop\n        /* \"#utility.yul\":6109:6208   */\n      swap2\n      swap1\n      pop\n      jump\t// out\n        /* \"#utility.yul\":6214:6362   */\n    tag_123:\n        /* \"#utility.yul\":6316:6327   */\n      0x00\n        /* \"#utility.yul\":6353:6356   */\n      dup2\n        /* \"#utility.yul\":6338:6356   */\n      swap1\n      pop\n        /* \"#utility.yul\":6214:6362   */\n      swap3\n      swap2\n      pop\n      pop\n      jump\t// out\n        /* \"#utility.yul\":6368:6614   */\n    tag_124:\n        /* \"#utility.yul\":6449:6450   */\n      0x00\n        /* \"#utility.yul\":6459:6572   */\n    tag_247:\n        /* \"#utility.yul\":6473:6479   */\n      dup4\n        /* \"#utility.yul\":6470:6471   */\n      dup2\n        /* \"#utility.yul\":6467:6480   */\n      lt\n        /* \"#utility.yul\":6459:6572   */\n      iszero\n      tag_249\n      jumpi\n        /* \"#utility.yul\":6558:6559   */\n      dup1\n        /* \"#utility.yul\":6553:6556   */\n      dup3\n        /* \"#utility.yul\":6549:6560   */\n      add\n        /* \"#utility.yul\":6543:6561   */\n      mload\n        /* \"#utility.yul\":6539:6540   */\n      dup2\n        /* \"#utility.yul\":6534:6537   */\n      dup5\n        /* \"#utility.yul\":6530:6541   */\n      add\n        /* \"#utility.yul\":6523:6562   */\n      mstore\n        /* \"#utility.yul\":6495:6497   */\n      0x20\n        /* \"#utility.yul\":6492:6493   */\n      dup2\n        /* \"#utility.yul\":6488:6498   */\n      add\n        /* \"#utility.yul\":6483:6498   */\n      swap1\n      pop\n        /* \"#utility.yul\":6459:6572   */\n      jump(tag_247)\n    tag_249:\n        /* \"#utility.yul\":6606:6607   */\n      0x00\n        /* \"#utility.yul\":6597:6603   */\n      dup5\n        /* \"#utility.yul\":6592:6595   */\n      dup5\n        /* \"#utility.yul\":6588:6604   */\n      add\n        /* \"#utility.yul\":6581:6608   */\n      mstore\n        /* \"#utility.yul\":6430:6614   */\n      pop\n        /* \"#utility.yul\":6368:6614   */\n      pop\n      pop\n      pop\n      jump\t// out\n        /* \"#utility.yul\":6620:7010   */\n    tag_125:\n        /* \"#utility.yul\":6726:6729   */\n      0x00\n        /* \"#utility.yul\":6754:6793   */\n      tag_251\n        /* \"#utility.yul\":6787:6792   */\n      dup3\n        /* \"#utility.yul\":6754:6793   */\n      tag_122\n      jump\t// in\n    tag_251:\n        /* \"#utility.yul\":6809:6898   */\n      tag_252\n        /* \"#utility.yul\":6891:6897   */\n      dup2\n        /* \"#utility.yul\":6886:6889   */\n      dup6\n        /* \"#utility.yul\":6809:6898   */\n      tag_123\n      jump\t// in\n    tag_252:\n        /* \"#utility.yul\":6802:6898   */\n      swap4\n      pop\n        /* \"#utility.yul\":6907:6972   */\n      tag_253\n        /* \"#utility.yul\":6965:6971   */\n      dup2\n        /* \"#utility.yul\":6960:6963   */\n      dup6\n        /* \"#utility.yul\":6953:6957   */\n      0x20\n        /* \"#utility.yul\":6946:6951   */\n      dup7\n        /* \"#utility.yul\":6942:6958   */\n      add\n        /* \"#utility.yul\":6907:6972   */\n      tag_124\n      jump\t// in\n    tag_253:\n        /* \"#utility.yul\":6997:7003   */\n      dup1\n        /* \"#utility.yul\":6992:6995   */\n      dup5\n        /* \"#utility.yul\":6988:7004   */\n      add\n        /* \"#utility.yul\":6981:7004   */\n      swap2\n      pop\n        /* \"#utility.yul\":6730:7010   */\n      pop\n        /* \"#utility.yul\":6620:7010   */\n      swap3\n      swap2\n      pop\n      pop\n      jump\t// out\n        /* \"#utility.yul\":7016:7291   */\n    tag_25:\n        /* \"#utility.yul\":7148:7151   */\n      0x00\n        /* \"#utility.yul\":7170:7265   */\n      tag_255\n        /* \"#utility.yul\":7261:7264   */\n      dup3\n        /* \"#utility.yul\":7252:7258   */\n      dup5\n        /* \"#utility.yul\":7170:7265   */\n      tag_125\n      jump\t// in\n    tag_255:\n        /* \"#utility.yul\":7163:7265   */\n      swap2\n      pop\n        /* \"#utility.yul\":7282:7285   */\n      dup2\n        /* \"#utility.yul\":7275:7285   */\n      swap1\n      pop\n        /* \"#utility.yul\":7016:7291   */\n      swap3\n      swap2\n      pop\n      pop\n      jump\t// out\n        /* \"#utility.yul\":7297:7466   */\n    tag_126:\n        /* \"#utility.yul\":7381:7392   */\n      0x00\n        /* \"#utility.yul\":7415:7421   */\n      dup3\n        /* \"#utility.yul\":7410:7413   */\n      dup3\n        /* \"#utility.yul\":7403:7422   */\n      mstore\n        /* \"#utility.yul\":7455:7459   */\n      0x20\n        /* \"#utility.yul\":7450:7453   */\n      dup3\n        /* \"#utility.yul\":7446:7460   */\n      add\n        /* \"#utility.yul\":7431:7460   */\n      swap1\n      pop\n        /* \"#utility.yul\":7297:7466   */\n      swap3\n      swap2\n      pop\n      pop\n      jump\t// out\n        /* \"#utility.yul\":7472:7644   */\n    tag_127:\n        /* \"#utility.yul\":7612:7636   */\n      0x53757276657920646f6573206e6f742065786973742e00000000000000000000\n        /* \"#utility.yul\":7608:7609   */\n      0x00\n        /* \"#utility.yul\":7600:7606   */\n      dup3\n        /* \"#utility.yul\":7596:7610   */\n      add\n        /* \"#utility.yul\":7589:7637   */\n      mstore\n        /* \"#utility.yul\":7472:7644   */\n      pop\n      jump\t// out\n        /* \"#utility.yul\":7650:8016   */\n    tag_128:\n        /* \"#utility.yul\":7792:7795   */\n      0x00\n        /* \"#utility.yul\":7813:7880   */\n      tag_259\n        /* \"#utility.yul\":7877:7879   */\n      0x16\n        /* \"#utility.yul\":7872:7875   */\n      dup4\n        /* \"#utility.yul\":7813:7880   */\n      tag_126\n      jump\t// in\n    tag_259:\n        /* \"#utility.yul\":7806:7880   */\n      swap2\n      pop\n        /* \"#utility.yul\":7889:7982   */\n      tag_260\n        /* \"#utility.yul\":7978:7981   */\n      dup3\n        /* \"#utility.yul\":7889:7982   */\n      tag_127\n      jump\t// in\n    tag_260:\n        /* \"#utility.yul\":8007:8009   */\n      0x20\n        /* \"#utility.yul\":8002:8005   */\n      dup3\n        /* \"#utility.yul\":7998:8010   */\n      add\n        /* \"#utility.yul\":7991:8010   */\n      swap1\n      pop\n        /* \"#utility.yul\":7650:8016   */\n      swap2\n      swap1\n      pop\n      jump\t// out\n        /* \"#utility.yul\":8022:8441   */\n    tag_28:\n        /* \"#utility.yul\":8188:8192   */\n      0x00\n        /* \"#utility.yul\":8226:8228   */\n      0x20\n        /* \"#utility.yul\":8215:8224   */\n      dup3\n        /* \"#utility.yul\":8211:8229   */\n      add\n        /* \"#utility.yul\":8203:8229   */\n      swap1\n      pop\n        /* \"#utility.yul\":8275:8284   */\n      dup2\n        /* \"#utility.yul\":8269:8273   */\n      dup2\n        /* \"#utility.yul\":8265:8285   */\n      sub\n        /* \"#utility.yul\":8261:8262   */\n      0x00\n        /* \"#utility.yul\":8250:8259   */\n      dup4\n        /* \"#utility.yul\":8246:8263   */\n      add\n        /* \"#utility.yul\":8239:8286   */\n      mstore\n        /* \"#utility.yul\":8303:8434   */\n      tag_262\n        /* \"#utility.yul\":8429:8433   */\n      dup2\n        /* \"#utility.yul\":8303:8434   */\n      tag_128\n      jump\t// in\n    tag_262:\n        /* \"#utility.yul\":8295:8434   */\n      swap1\n      pop\n        /* \"#utility.yul\":8022:8441   */\n      swap2\n      swap1\n      pop\n      jump\t// out\n        /* \"#utility.yul\":8447:8680   */\n    tag_129:\n        /* \"#utility.yul\":8587:8621   */\n      0x4f6e6c7920746865207375727665792063726561746f722063616e2063616e63\n        /* \"#utility.yul\":8583:8584   */\n      0x00\n        /* \"#utility.yul\":8575:8581   */\n      dup3\n        /* \"#utility.yul\":8571:8585   */\n      add\n        /* \"#utility.yul\":8564:8622   */\n      mstore\n        /* \"#utility.yul\":8656:8672   */\n      0x656c20746865207375727665792e000000000000000000000000000000000000\n        /* \"#utility.yul\":8651:8653   */\n      0x20\n        /* \"#utility.yul\":8643:8649   */\n      dup3\n        /* \"#utility.yul\":8639:8654   */\n      add\n        /* \"#utility.yul\":8632:8673   */\n      mstore\n        /* \"#utility.yul\":8447:8680   */\n      pop\n      jump\t// out\n        /* \"#utility.yul\":8686:9052   */\n    tag_130:\n        /* \"#utility.yul\":8828:8831   */\n      0x00\n        /* \"#utility.yul\":8849:8916   */\n      tag_265\n        /* \"#utility.yul\":8913:8915   */\n      0x2e\n        /* \"#utility.yul\":8908:8911   */\n      dup4\n        /* \"#utility.yul\":8849:8916   */\n      tag_126\n      jump\t// in\n    tag_265:\n        /* \"#utility.yul\":8842:8916   */\n      swap2\n      pop\n        /* \"#utility.yul\":8925:9018   */\n      tag_266\n        /* \"#utility.yul\":9014:9017   */\n      dup3\n        /* \"#utility.yul\":8925:9018   */\n      tag_129\n      jump\t// in\n    tag_266:\n        /* \"#utility.yul\":9043:9045   */\n      0x40\n        /* \"#utility.yul\":9038:9041   */\n      dup3\n        /* \"#utility.yul\":9034:9046   */\n      add\n        /* \"#utility.yul\":9027:9046   */\n      swap1\n      pop\n        /* \"#utility.yul\":8686:9052   */\n      swap2\n      swap1\n      pop\n      jump\t// out\n        /* \"#utility.yul\":9058:9477   */\n    tag_32:\n        /* \"#utility.yul\":9224:9228   */\n      0x00\n        /* \"#utility.yul\":9262:9264   */\n      0x20\n        /* \"#utility.yul\":9251:9260   */\n      dup3\n        /* \"#utility.yul\":9247:9265   */\n      add\n        /* \"#utility.yul\":9239:9265   */\n      swap1\n      pop\n        /* \"#utility.yul\":9311:9320   */\n      dup2\n        /* \"#utility.yul\":9305:9309   */\n      dup2\n        /* \"#utility.yul\":9301:9321   */\n      sub\n        /* \"#utility.yul\":9297:9298   */\n      0x00\n        /* \"#utility.yul\":9286:9295   */\n      dup4\n        /* \"#utility.yul\":9282:9299   */\n      add\n        /* \"#utility.yul\":9275:9322   */\n      mstore\n        /* \"#utility.yul\":9339:9470   */\n      tag_268\n        /* \"#utility.yul\":9465:9469   */\n      dup2\n        /* \"#utility.yul\":9339:9470   */\n      tag_130\n      jump\t// in\n    tag_268:\n        /* \"#utility.yul\":9331:9470   */\n      swap1\n      pop\n        /* \"#utility.yul\":9058:9477   */\n      swap2\n      swap1\n      pop\n      jump\t// out\n        /* \"#utility.yul\":9483:9663   */\n    tag_131:\n        /* \"#utility.yul\":9531:9608   */\n      0x4e487b7100000000000000000000000000000000000000000000000000000000\n        /* \"#utility.yul\":9528:9529   */\n      0x00\n        /* \"#utility.yul\":9521:9609   */\n      mstore\n        /* \"#utility.yul\":9628:9632   */\n      0x12\n        /* \"#utility.yul\":9625:9626   */\n      0x04\n        /* \"#utility.yul\":9618:9633   */\n      mstore\n        /* \"#utility.yul\":9652:9656   */\n      0x24\n        /* \"#utility.yul\":9649:9650   */\n      0x00\n        /* \"#utility.yul\":9642:9657   */\n      revert\n        /* \"#utility.yul\":9669:9849   */\n    tag_132:\n        /* \"#utility.yul\":9717:9794   */\n      0x4e487b7100000000000000000000000000000000000000000000000000000000\n        /* \"#utility.yul\":9714:9715   */\n      0x00\n        /* \"#utility.yul\":9707:9795   */\n      mstore\n        /* \"#utility.yul\":9814:9818   */\n      0x11\n        /* \"#utility.yul\":9811:9812   */\n      0x04\n        /* \"#utility.yul\":9804:9819   */\n      mstore\n        /* \"#utility.yul\":9838:9842   */\n      0x24\n        /* \"#utility.yul\":9835:9836   */\n      0x00\n        /* \"#utility.yul\":9828:9843   */\n      revert\n        /* \"#utility.yul\":9855:10040   */\n    tag_34:\n        /* \"#utility.yul\":9895:9896   */\n      0x00\n        /* \"#utility.yul\":9912:9932   */\n      tag_272\n        /* \"#utility.yul\":9930:9931   */\n      dup3\n        /* \"#utility.yul\":9912:9932   */\n      tag_113\n      jump\t// in\n    tag_272:\n        /* \"#utility.yul\":9907:9932   */\n      swap2\n      pop\n        /* \"#utility.yul\":9946:9966   */\n      tag_273\n        /* \"#utility.yul\":9964:9965   */\n      dup4\n        /* \"#utility.yul\":9946:9966   */\n      tag_113\n      jump\t// in\n    tag_273:\n        /* \"#utility.yul\":9941:9966   */\n      swap3\n      pop\n        /* \"#utility.yul\":9985:9986   */\n      dup3\n        /* \"#utility.yul\":9975:10010   */\n      tag_274\n      jumpi\n        /* \"#utility.yul\":9990:10008   */\n      tag_275\n      tag_131\n      jump\t// in\n    tag_275:\n        /* \"#utility.yul\":9975:10010   */\n    tag_274:\n        /* \"#utility.yul\":10032:10033   */\n      dup3\n        /* \"#utility.yul\":10029:10030   */\n      dup3\n        /* \"#utility.yul\":10025:10034   */\n      div\n        /* \"#utility.yul\":10020:10034   */\n      swap1\n      pop\n        /* \"#utility.yul\":9855:10040   */\n      swap3\n      swap2\n      pop\n      pop\n      jump\t// out\n        /* \"#utility.yul\":10046:10456   */\n    tag_36:\n        /* \"#utility.yul\":10086:10093   */\n      0x00\n        /* \"#utility.yul\":10109:10129   */\n      tag_277\n        /* \"#utility.yul\":10127:10128   */\n      dup3\n        /* \"#utility.yul\":10109:10129   */\n      tag_113\n      jump\t// in\n    tag_277:\n        /* \"#utility.yul\":10104:10129   */\n      swap2\n      pop\n        /* \"#utility.yul\":10143:10163   */\n      tag_278\n        /* \"#utility.yul\":10161:10162   */\n      dup4\n        /* \"#utility.yul\":10143:10163   */\n      tag_113\n      jump\t// in\n    tag_278:\n        /* \"#utility.yul\":10138:10163   */\n      swap3\n      pop\n        /* \"#utility.yul\":10198:10199   */\n      dup3\n        /* \"#utility.yul\":10195:10196   */\n      dup3\n        /* \"#utility.yul\":10191:10200   */\n      mul\n        /* \"#utility.yul\":10220:10250   */\n      tag_279\n        /* \"#utility.yul\":10238:10249   */\n      dup2\n        /* \"#utility.yul\":10220:10250   */\n      tag_113\n      jump\t// in\n    tag_279:\n        /* \"#utility.yul\":10209:10250   */\n      swap2\n      pop\n        /* \"#utility.yul\":10399:10400   */\n      dup3\n        /* \"#utility.yul\":10390:10397   */\n      dup3\n        /* \"#utility.yul\":10386:10401   */\n      div\n        /* \"#utility.yul\":10383:10384   */\n      dup5\n        /* \"#utility.yul\":10380:10402   */\n      eq\n        /* \"#utility.yul\":10360:10361   */\n      dup4\n        /* \"#utility.yul\":10353:10362   */\n      iszero\n        /* \"#utility.yul\":10333:10416   */\n      or\n        /* \"#utility.yul\":10310:10449   */\n      tag_280\n      jumpi\n        /* \"#utility.yul\":10429:10447   */\n      tag_281\n      tag_132\n      jump\t// in\n    tag_281:\n        /* \"#utility.yul\":10310:10449   */\n    tag_280:\n        /* \"#utility.yul\":10094:10456   */\n      pop\n        /* \"#utility.yul\":10046:10456   */\n      swap3\n      swap2\n      pop\n      pop\n      jump\t// out\n        /* \"#utility.yul\":10462:10656   */\n    tag_38:\n        /* \"#utility.yul\":10502:10506   */\n      0x00\n        /* \"#utility.yul\":10522:10542   */\n      tag_283\n        /* \"#utility.yul\":10540:10541   */\n      dup3\n        /* \"#utility.yul\":10522:10542   */\n      tag_113\n      jump\t// in\n    tag_283:\n        /* \"#utility.yul\":10517:10542   */\n      swap2\n      pop\n        /* \"#utility.yul\":10556:10576   */\n      tag_284\n        /* \"#utility.yul\":10574:10575   */\n      dup4\n        /* \"#utility.yul\":10556:10576   */\n      tag_113\n      jump\t// in\n    tag_284:\n        /* \"#utility.yul\":10551:10576   */\n      swap3\n      pop\n        /* \"#utility.yul\":10600:10601   */\n      dup3\n        /* \"#utility.yul\":10597:10598   */\n      dup3\n        /* \"#utility.yul\":10593:10602   */\n      sub\n        /* \"#utility.yul\":10585:10602   */\n      swap1\n      pop\n        /* \"#utility.yul\":10624:10625   */\n      dup2\n        /* \"#utility.yul\":10618:10622   */\n      dup2\n        /* \"#utility.yul\":10615:10626   */\n      gt\n        /* \"#utility.yul\":10612:10649   */\n      iszero\n      tag_285\n      jumpi\n        /* \"#utility.yul\":10629:10647   */\n      tag_286\n      tag_132\n      jump\t// in\n    tag_286:\n        /* \"#utility.yul\":10612:10649   */\n    tag_285:\n        /* \"#utility.yul\":10462:10656   */\n      swap3\n      swap2\n      pop\n      pop\n      jump\t// out\n        /* \"#utility.yul\":10662:10758   */\n    tag_133:\n        /* \"#utility.yul\":10699:10706   */\n      0x00\n        /* \"#utility.yul\":10728:10752   */\n      tag_288\n        /* \"#utility.yul\":10746:10751   */\n      dup3\n        /* \"#utility.yul\":10728:10752   */\n      tag_116\n      jump\t// in\n    tag_288:\n        /* \"#utility.yul\":10717:10752   */\n      swap1\n      pop\n        /* \"#utility.yul\":10662:10758   */\n      swap2\n      swap1\n      pop\n      jump\t// out\n        /* \"#utility.yul\":10764:10882   */\n    tag_134:\n        /* \"#utility.yul\":10851:10875   */\n      tag_290\n        /* \"#utility.yul\":10869:10874   */\n      dup2\n        /* \"#utility.yul\":10851:10875   */\n      tag_133\n      jump\t// in\n    tag_290:\n        /* \"#utility.yul\":10846:10849   */\n      dup3\n        /* \"#utility.yul\":10839:10876   */\n      mstore\n        /* \"#utility.yul\":10764:10882   */\n      pop\n      pop\n      jump\t// out\n        /* \"#utility.yul\":10888:11006   */\n    tag_135:\n        /* \"#utility.yul\":10975:10999   */\n      tag_292\n        /* \"#utility.yul\":10993:10998   */\n      dup2\n        /* \"#utility.yul\":10975:10999   */\n      tag_113\n      jump\t// in\n    tag_292:\n        /* \"#utility.yul\":10970:10973   */\n      dup3\n        /* \"#utility.yul\":10963:11000   */\n      mstore\n        /* \"#utility.yul\":10888:11006   */\n      pop\n      pop\n      jump\t// out\n        /* \"#utility.yul\":11012:11344   */\n    tag_40:\n        /* \"#utility.yul\":11133:11137   */\n      0x00\n        /* \"#utility.yul\":11171:11173   */\n      0x40\n        /* \"#utility.yul\":11160:11169   */\n      dup3\n        /* \"#utility.yul\":11156:11174   */\n      add\n        /* \"#utility.yul\":11148:11174   */\n      swap1\n      pop\n        /* \"#utility.yul\":11184:11255   */\n      tag_294\n        /* \"#utility.yul\":11252:11253   */\n      0x00\n        /* \"#utility.yul\":11241:11250   */\n      dup4\n        /* \"#utility.yul\":11237:11254   */\n      add\n        /* \"#utility.yul\":11228:11234   */\n      dup6\n        /* \"#utility.yul\":11184:11255   */\n      tag_134\n      jump\t// in\n    tag_294:\n        /* \"#utility.yul\":11265:11337   */\n      tag_295\n        /* \"#utility.yul\":11333:11335   */\n      0x20\n        /* \"#utility.yul\":11322:11331   */\n      dup4\n        /* \"#utility.yul\":11318:11336   */\n      add\n        /* \"#utility.yul\":11309:11315   */\n      dup5\n        /* \"#utility.yul\":11265:11337   */\n      tag_135\n      jump\t// in\n    tag_295:\n        /* \"#utility.yul\":11012:11344   */\n      swap4\n      swap3\n      pop\n      pop\n      pop\n      jump\t// out\n        /* \"#utility.yul\":11350:11440   */\n    tag_136:\n        /* \"#utility.yul\":11384:11391   */\n      0x00\n        /* \"#utility.yul\":11427:11432   */\n      dup2\n        /* \"#utility.yul\":11420:11433   */\n      iszero\n        /* \"#utility.yul\":11413:11434   */\n      iszero\n        /* \"#utility.yul\":11402:11434   */\n      swap1\n      pop\n        /* \"#utility.yul\":11350:11440   */\n      swap2\n      swap1\n      pop\n      jump\t// out\n        /* \"#utility.yul\":11446:11562   */\n    tag_137:\n        /* \"#utility.yul\":11516:11537   */\n      tag_298\n        /* \"#utility.yul\":11531:11536   */\n      dup2\n        /* \"#utility.yul\":11516:11537   */\n      tag_136\n      jump\t// in\n    tag_298:\n        /* \"#utility.yul\":11509:11514   */\n      dup2\n        /* \"#utility.yul\":11506:11538   */\n      eq\n        /* \"#utility.yul\":11496:11556   */\n      tag_299\n      jumpi\n        /* \"#utility.yul\":11552:11553   */\n      0x00\n        /* \"#utility.yul\":11549:11550   */\n      dup1\n        /* \"#utility.yul\":11542:11554   */\n      revert\n        /* \"#utility.yul\":11496:11556   */\n    tag_299:\n        /* \"#utility.yul\":11446:11562   */\n      pop\n      jump\t// out\n        /* \"#utility.yul\":11568:11705   */\n    tag_138:\n        /* \"#utility.yul\":11622:11627   */\n      0x00\n        /* \"#utility.yul\":11653:11659   */\n      dup2\n        /* \"#utility.yul\":11647:11660   */\n      mload\n        /* \"#utility.yul\":11638:11660   */\n      swap1\n      pop\n        /* \"#utility.yul\":11669:11699   */\n      tag_301\n        /* \"#utility.yul\":11693:11698   */\n      dup2\n        /* \"#utility.yul\":11669:11699   */\n      tag_137\n      jump\t// in\n    tag_301:\n        /* \"#utility.yul\":11568:11705   */\n      swap3\n      swap2\n      pop\n      pop\n      jump\t// out\n        /* \"#utility.yul\":11711:12056   */\n    tag_44:\n        /* \"#utility.yul\":11778:11784   */\n      0x00\n        /* \"#utility.yul\":11827:11829   */\n      0x20\n        /* \"#utility.yul\":11815:11824   */\n      dup3\n        /* \"#utility.yul\":11806:11813   */\n      dup5\n        /* \"#utility.yul\":11802:11825   */\n      sub\n        /* \"#utility.yul\":11798:11830   */\n      slt\n        /* \"#utility.yul\":11795:11914   */\n      iszero\n      tag_303\n      jumpi\n        /* \"#utility.yul\":11833:11912   */\n      tag_304\n      tag_101\n      jump\t// in\n    tag_304:\n        /* \"#utility.yul\":11795:11914   */\n    tag_303:\n        /* \"#utility.yul\":11953:11954   */\n      0x00\n        /* \"#utility.yul\":11978:12039   */\n      tag_305\n        /* \"#utility.yul\":12031:12038   */\n      dup5\n        /* \"#utility.yul\":12022:12028   */\n      dup3\n        /* \"#utility.yul\":12011:12020   */\n      dup6\n        /* \"#utility.yul\":12007:12029   */\n      add\n        /* \"#utility.yul\":11978:12039   */\n      tag_138\n      jump\t// in\n    tag_305:\n        /* \"#utility.yul\":11968:12039   */\n      swap2\n      pop\n        /* \"#utility.yul\":11924:12049   */\n      pop\n        /* \"#utility.yul\":11711:12056   */\n      swap3\n      swap2\n      pop\n      pop\n      jump\t// out\n        /* \"#utility.yul\":12062:12284   */\n    tag_139:\n        /* \"#utility.yul\":12202:12236   */\n      0x4661696c656420746f2072657475726e2072656d61696e696e67207265776172\n        /* \"#utility.yul\":12198:12199   */\n      0x00\n        /* \"#utility.yul\":12190:12196   */\n      dup3\n        /* \"#utility.yul\":12186:12200   */\n      add\n        /* \"#utility.yul\":12179:12237   */\n      mstore\n        /* \"#utility.yul\":12271:12276   */\n      0x64732e0000000000000000000000000000000000000000000000000000000000\n        /* \"#utility.yul\":12266:12268   */\n      0x20\n        /* \"#utility.yul\":12258:12264   */\n      dup3\n        /* \"#utility.yul\":12254:12269   */\n      add\n        /* \"#utility.yul\":12247:12277   */\n      mstore\n        /* \"#utility.yul\":12062:12284   */\n      pop\n      jump\t// out\n        /* \"#utility.yul\":12290:12656   */\n    tag_140:\n        /* \"#utility.yul\":12432:12435   */\n      0x00\n        /* \"#utility.yul\":12453:12520   */\n      tag_308\n        /* \"#utility.yul\":12517:12519   */\n      0x23\n        /* \"#utility.yul\":12512:12515   */\n      dup4\n        /* \"#utility.yul\":12453:12520   */\n      tag_126\n      jump\t// in\n    tag_308:\n        /* \"#utility.yul\":12446:12520   */\n      swap2\n      pop\n        /* \"#utility.yul\":12529:12622   */\n      tag_309\n        /* \"#utility.yul\":12618:12621   */\n      dup3\n        /* \"#utility.yul\":12529:12622   */\n      tag_139\n      jump\t// in\n    tag_309:\n        /* \"#utility.yul\":12647:12649   */\n      0x40\n        /* \"#utility.yul\":12642:12645   */\n      dup3\n        /* \"#utility.yul\":12638:12650   */\n      add\n        /* \"#utility.yul\":12631:12650   */\n      swap1\n      pop\n        /* \"#utility.yul\":12290:12656   */\n      swap2\n      swap1\n      pop\n      jump\t// out\n        /* \"#utility.yul\":12662:13081   */\n    tag_47:\n        /* \"#utility.yul\":12828:12832   */\n      0x00\n        /* \"#utility.yul\":12866:12868   */\n      0x20\n        /* \"#utility.yul\":12855:12864   */\n      dup3\n        /* \"#utility.yul\":12851:12869   */\n      add\n        /* \"#utility.yul\":12843:12869   */\n      swap1\n      pop\n        /* \"#utility.yul\":12915:12924   */\n      dup2\n        /* \"#utility.yul\":12909:12913   */\n      dup2\n        /* \"#utility.yul\":12905:12925   */\n      sub\n        /* \"#utility.yul\":12901:12902   */\n      0x00\n        /* \"#utility.yul\":12890:12899   */\n      dup4\n        /* \"#utility.yul\":12886:12903   */\n      add\n        /* \"#utility.yul\":12879:12926   */\n      mstore\n        /* \"#utility.yul\":12943:13074   */\n      tag_311\n        /* \"#utility.yul\":13069:13073   */\n      dup2\n        /* \"#utility.yul\":12943:13074   */\n      tag_140\n      jump\t// in\n    tag_311:\n        /* \"#utility.yul\":12935:13074   */\n      swap1\n      pop\n        /* \"#utility.yul\":12662:13081   */\n      swap2\n      swap1\n      pop\n      jump\t// out\n        /* \"#utility.yul\":13087:13464   */\n    tag_141:\n        /* \"#utility.yul\":13175:13178   */\n      0x00\n        /* \"#utility.yul\":13203:13242   */\n      tag_313\n        /* \"#utility.yul\":13236:13241   */\n      dup3\n        /* \"#utility.yul\":13203:13242   */\n      tag_122\n      jump\t// in\n    tag_313:\n        /* \"#utility.yul\":13258:13329   */\n      tag_314\n        /* \"#utility.yul\":13322:13328   */\n      dup2\n        /* \"#utility.yul\":13317:13320   */\n      dup6\n        /* \"#utility.yul\":13258:13329   */\n      tag_126\n      jump\t// in\n    tag_314:\n        /* \"#utility.yul\":13251:13329   */\n      swap4\n      pop\n        /* \"#utility.yul\":13338:13403   */\n      tag_315\n        /* \"#utility.yul\":13396:13402   */\n      dup2\n        /* \"#utility.yul\":13391:13394   */\n      dup6\n        /* \"#utility.yul\":13384:13388   */\n      0x20\n        /* \"#utility.yul\":13377:13382   */\n      dup7\n        /* \"#utility.yul\":13373:13389   */\n      add\n        /* \"#utility.yul\":13338:13403   */\n      tag_124\n      jump\t// in\n    tag_315:\n        /* \"#utility.yul\":13428:13457   */\n      tag_316\n        /* \"#utility.yul\":13450:13456   */\n      dup2\n        /* \"#utility.yul\":13428:13457   */\n      tag_105\n      jump\t// in\n    tag_316:\n        /* \"#utility.yul\":13423:13426   */\n      dup5\n        /* \"#utility.yul\":13419:13458   */\n      add\n        /* \"#utility.yul\":13412:13458   */\n      swap2\n      pop\n        /* \"#utility.yul\":13179:13464   */\n      pop\n        /* \"#utility.yul\":13087:13464   */\n      swap3\n      swap2\n      pop\n      pop\n      jump\t// out\n        /* \"#utility.yul\":13470:13893   */\n    tag_49:\n        /* \"#utility.yul\":13611:13615   */\n      0x00\n        /* \"#utility.yul\":13649:13651   */\n      0x40\n        /* \"#utility.yul\":13638:13647   */\n      dup3\n        /* \"#utility.yul\":13634:13652   */\n      add\n        /* \"#utility.yul\":13626:13652   */\n      swap1\n      pop\n        /* \"#utility.yul\":13698:13707   */\n      dup2\n        /* \"#utility.yul\":13692:13696   */\n      dup2\n        /* \"#utility.yul\":13688:13708   */\n      sub\n        /* \"#utility.yul\":13684:13685   */\n      0x00\n        /* \"#utility.yul\":13673:13682   */\n      dup4\n        /* \"#utility.yul\":13669:13686   */\n      add\n        /* \"#utility.yul\":13662:13709   */\n      mstore\n        /* \"#utility.yul\":13726:13804   */\n      tag_318\n        /* \"#utility.yul\":13799:13803   */\n      dup2\n        /* \"#utility.yul\":13790:13796   */\n      dup6\n        /* \"#utility.yul\":13726:13804   */\n      tag_141\n      jump\t// in\n    tag_318:\n        /* \"#utility.yul\":13718:13804   */\n      swap1\n      pop\n        /* \"#utility.yul\":13814:13886   */\n      tag_319\n        /* \"#utility.yul\":13882:13884   */\n      0x20\n        /* \"#utility.yul\":13871:13880   */\n      dup4\n        /* \"#utility.yul\":13867:13885   */\n      add\n        /* \"#utility.yul\":13858:13864   */\n      dup5\n        /* \"#utility.yul\":13814:13886   */\n      tag_134\n      jump\t// in\n    tag_319:\n        /* \"#utility.yul\":13470:13893   */\n      swap4\n      swap3\n      pop\n      pop\n      pop\n      jump\t// out\n        /* \"#utility.yul\":13899:14070   */\n    tag_142:\n        /* \"#utility.yul\":14039:14062   */\n      0x53757276657920646f6573206e6f742065786973740000000000000000000000\n        /* \"#utility.yul\":14035:14036   */\n      0x00\n        /* \"#utility.yul\":14027:14033   */\n      dup3\n        /* \"#utility.yul\":14023:14037   */\n      add\n        /* \"#utility.yul\":14016:14063   */\n      mstore\n        /* \"#utility.yul\":13899:14070   */\n      pop\n      jump\t// out\n        /* \"#utility.yul\":14076:14442   */\n    tag_143:\n        /* \"#utility.yul\":14218:14221   */\n      0x00\n        /* \"#utility.yul\":14239:14306   */\n      tag_322\n        /* \"#utility.yul\":14303:14305   */\n      0x15\n        /* \"#utility.yul\":14298:14301   */\n      dup4\n        /* \"#utility.yul\":14239:14306   */\n      tag_126\n      jump\t// in\n    tag_322:\n        /* \"#utility.yul\":14232:14306   */\n      swap2\n      pop\n        /* \"#utility.yul\":14315:14408   */\n      tag_323\n        /* \"#utility.yul\":14404:14407   */\n      dup3\n        /* \"#utility.yul\":14315:14408   */\n      tag_142\n      jump\t// in\n    tag_323:\n        /* \"#utility.yul\":14433:14435   */\n      0x20\n        /* \"#utility.yul\":14428:14431   */\n      dup3\n        /* \"#utility.yul\":14424:14436   */\n      add\n        /* \"#utility.yul\":14417:14436   */\n      swap1\n      pop\n        /* \"#utility.yul\":14076:14442   */\n      swap2\n      swap1\n      pop\n      jump\t// out\n        /* \"#utility.yul\":14448:14867   */\n    tag_54:\n        /* \"#utility.yul\":14614:14618   */\n      0x00\n        /* \"#utility.yul\":14652:14654   */\n      0x20\n        /* \"#utility.yul\":14641:14650   */\n      dup3\n        /* \"#utility.yul\":14637:14655   */\n      add\n        /* \"#utility.yul\":14629:14655   */\n      swap1\n      pop\n        /* \"#utility.yul\":14701:14710   */\n      dup2\n        /* \"#utility.yul\":14695:14699   */\n      dup2\n        /* \"#utility.yul\":14691:14711   */\n      sub\n        /* \"#utility.yul\":14687:14688   */\n      0x00\n        /* \"#utility.yul\":14676:14685   */\n      dup4\n        /* \"#utility.yul\":14672:14689   */\n      add\n        /* \"#utility.yul\":14665:14712   */\n      mstore\n        /* \"#utility.yul\":14729:14860   */\n      tag_325\n        /* \"#utility.yul\":14855:14859   */\n      dup2\n        /* \"#utility.yul\":14729:14860   */\n      tag_143\n      jump\t// in\n    tag_325:\n        /* \"#utility.yul\":14721:14860   */\n      swap1\n      pop\n        /* \"#utility.yul\":14448:14867   */\n      swap2\n      swap1\n      pop\n      jump\t// out\n        /* \"#utility.yul\":14873:15053   */\n    tag_144:\n        /* \"#utility.yul\":14921:14998   */\n      0x4e487b7100000000000000000000000000000000000000000000000000000000\n        /* \"#utility.yul\":14918:14919   */\n      0x00\n        /* \"#utility.yul\":14911:14999   */\n      mstore\n        /* \"#utility.yul\":15018:15022   */\n      0x22\n        /* \"#utility.yul\":15015:15016   */\n      0x04\n        /* \"#utility.yul\":15008:15023   */\n      mstore\n        /* \"#utility.yul\":15042:15046   */\n      0x24\n        /* \"#utility.yul\":15039:15040   */\n      0x00\n        /* \"#utility.yul\":15032:15047   */\n      revert\n        /* \"#utility.yul\":15059:15379   */\n    tag_57:\n        /* \"#utility.yul\":15103:15109   */\n      0x00\n        /* \"#utility.yul\":15140:15141   */\n      0x02\n        /* \"#utility.yul\":15134:15138   */\n      dup3\n        /* \"#utility.yul\":15130:15142   */\n      div\n        /* \"#utility.yul\":15120:15142   */\n      swap1\n      pop\n        /* \"#utility.yul\":15187:15188   */\n      0x01\n        /* \"#utility.yul\":15181:15185   */\n      dup3\n        /* \"#utility.yul\":15177:15189   */\n      and\n        /* \"#utility.yul\":15208:15226   */\n      dup1\n        /* \"#utility.yul\":15198:15279   */\n      tag_328\n      jumpi\n        /* \"#utility.yul\":15264:15268   */\n      0x7f\n        /* \"#utility.yul\":15256:15262   */\n      dup3\n        /* \"#utility.yul\":15252:15269   */\n      and\n        /* \"#utility.yul\":15242:15269   */\n      swap2\n      pop\n        /* \"#utility.yul\":15198:15279   */\n    tag_328:\n        /* \"#utility.yul\":15326:15328   */\n      0x20\n        /* \"#utility.yul\":15318:15324   */\n      dup3\n        /* \"#utility.yul\":15315:15329   */\n      lt\n        /* \"#utility.yul\":15295:15313   */\n      dup2\n        /* \"#utility.yul\":15292:15330   */\n      sub\n        /* \"#utility.yul\":15289:15373   */\n      tag_329\n      jumpi\n        /* \"#utility.yul\":15345:15363   */\n      tag_330\n      tag_144\n      jump\t// in\n    tag_330:\n        /* \"#utility.yul\":15289:15373   */\n    tag_329:\n        /* \"#utility.yul\":15110:15379   */\n      pop\n        /* \"#utility.yul\":15059:15379   */\n      swap2\n      swap1\n      pop\n      jump\t// out\n        /* \"#utility.yul\":15385:15614   */\n    tag_145:\n        /* \"#utility.yul\":15525:15559   */\n      0x526573706f6e6465722068617320616c726561647920616e7377657265642074\n        /* \"#utility.yul\":15521:15522   */\n      0x00\n        /* \"#utility.yul\":15513:15519   */\n      dup3\n        /* \"#utility.yul\":15509:15523   */\n      add\n        /* \"#utility.yul\":15502:15560   */\n      mstore\n        /* \"#utility.yul\":15594:15606   */\n      0x6869732073757276657900000000000000000000000000000000000000000000\n        /* \"#utility.yul\":15589:15591   */\n      0x20\n        /* \"#utility.yul\":15581:15587   */\n      dup3\n        /* \"#utility.yul\":15577:15592   */\n      add\n        /* \"#utility.yul\":15570:15607   */\n      mstore\n        /* \"#utility.yul\":15385:15614   */\n      pop\n      jump\t// out\n        /* \"#utility.yul\":15620:15986   */\n    tag_146:\n        /* \"#utility.yul\":15762:15765   */\n      0x00\n        /* \"#utility.yul\":15783:15850   */\n      tag_333\n        /* \"#utility.yul\":15847:15849   */\n      0x2a\n        /* \"#utility.yul\":15842:15845   */\n      dup4\n        /* \"#utility.yul\":15783:15850   */\n      tag_126\n      jump\t// in\n    tag_333:\n        /* \"#utility.yul\":15776:15850   */\n      swap2\n      pop\n        /* \"#utility.yul\":15859:15952   */\n      tag_334\n        /* \"#utility.yul\":15948:15951   */\n      dup3\n        /* \"#utility.yul\":15859:15952   */\n      tag_145\n      jump\t// in\n    tag_334:\n        /* \"#utility.yul\":15977:15979   */\n      0x40\n        /* \"#utility.yul\":15972:15975   */\n      dup3\n        /* \"#utility.yul\":15968:15980   */\n      add\n        /* \"#utility.yul\":15961:15980   */\n      swap1\n      pop\n        /* \"#utility.yul\":15620:15986   */\n      swap2\n      swap1\n      pop\n      jump\t// out\n        /* \"#utility.yul\":15992:16411   */\n    tag_60:\n        /* \"#utility.yul\":16158:16162   */\n      0x00\n        /* \"#utility.yul\":16196:16198   */\n      0x20\n        /* \"#utility.yul\":16185:16194   */\n      dup3\n        /* \"#utility.yul\":16181:16199   */\n      add\n        /* \"#utility.yul\":16173:16199   */\n      swap1\n      pop\n        /* \"#utility.yul\":16245:16254   */\n      dup2\n        /* \"#utility.yul\":16239:16243   */\n      dup2\n        /* \"#utility.yul\":16235:16255   */\n      sub\n        /* \"#utility.yul\":16231:16232   */\n      0x00\n        /* \"#utility.yul\":16220:16229   */\n      dup4\n        /* \"#utility.yul\":16216:16233   */\n      add\n        /* \"#utility.yul\":16209:16256   */\n      mstore\n        /* \"#utility.yul\":16273:16404   */\n      tag_336\n        /* \"#utility.yul\":16399:16403   */\n      dup2\n        /* \"#utility.yul\":16273:16404   */\n      tag_146\n      jump\t// in\n    tag_336:\n        /* \"#utility.yul\":16265:16404   */\n      swap1\n      pop\n        /* \"#utility.yul\":15992:16411   */\n      swap2\n      swap1\n      pop\n      jump\t// out\n        /* \"#utility.yul\":16417:16655   */\n    tag_147:\n        /* \"#utility.yul\":16557:16591   */\n      0x5375727665792068617320616c72656164792072656163686564206974732065\n        /* \"#utility.yul\":16553:16554   */\n      0x00\n        /* \"#utility.yul\":16545:16551   */\n      dup3\n        /* \"#utility.yul\":16541:16555   */\n      add\n        /* \"#utility.yul\":16534:16592   */\n      mstore\n        /* \"#utility.yul\":16626:16647   */\n      0x7870656374656420726573706f6e64656e747300000000000000000000000000\n        /* \"#utility.yul\":16621:16623   */\n      0x20\n        /* \"#utility.yul\":16613:16619   */\n      dup3\n        /* \"#utility.yul\":16609:16624   */\n      add\n        /* \"#utility.yul\":16602:16648   */\n      mstore\n        /* \"#utility.yul\":16417:16655   */\n      pop\n      jump\t// out\n        /* \"#utility.yul\":16661:17027   */\n    tag_148:\n        /* \"#utility.yul\":16803:16806   */\n      0x00\n        /* \"#utility.yul\":16824:16891   */\n      tag_339\n        /* \"#utility.yul\":16888:16890   */\n      0x33\n        /* \"#utility.yul\":16883:16886   */\n      dup4\n        /* \"#utility.yul\":16824:16891   */\n      tag_126\n      jump\t// in\n    tag_339:\n        /* \"#utility.yul\":16817:16891   */\n      swap2\n      pop\n        /* \"#utility.yul\":16900:16993   */\n      tag_340\n        /* \"#utility.yul\":16989:16992   */\n      dup3\n        /* \"#utility.yul\":16900:16993   */\n      tag_147\n      jump\t// in\n    tag_340:\n        /* \"#utility.yul\":17018:17020   */\n      0x40\n        /* \"#utility.yul\":17013:17016   */\n      dup3\n        /* \"#utility.yul\":17009:17021   */\n      add\n        /* \"#utility.yul\":17002:17021   */\n      swap1\n      pop\n        /* \"#utility.yul\":16661:17027   */\n      swap2\n      swap1\n      pop\n      jump\t// out\n        /* \"#utility.yul\":17033:17452   */\n    tag_64:\n        /* \"#utility.yul\":17199:17203   */\n      0x00\n        /* \"#utility.yul\":17237:17239   */\n      0x20\n        /* \"#utility.yul\":17226:17235   */\n      dup3\n        /* \"#utility.yul\":17222:17240   */\n      add\n        /* \"#utility.yul\":17214:17240   */\n      swap1\n      pop\n        /* \"#utility.yul\":17286:17295   */\n      dup2\n        /* \"#utility.yul\":17280:17284   */\n      dup2\n        /* \"#utility.yul\":17276:17296   */\n      sub\n        /* \"#utility.yul\":17272:17273   */\n      0x00\n        /* \"#utility.yul\":17261:17270   */\n      dup4\n        /* \"#utility.yul\":17257:17274   */\n      add\n        /* \"#utility.yul\":17250:17297   */\n      mstore\n        /* \"#utility.yul\":17314:17445   */\n      tag_342\n        /* \"#utility.yul\":17440:17444   */\n      dup2\n        /* \"#utility.yul\":17314:17445   */\n      tag_148\n      jump\t// in\n    tag_342:\n        /* \"#utility.yul\":17306:17445   */\n      swap1\n      pop\n        /* \"#utility.yul\":17033:17452   */\n      swap2\n      swap1\n      pop\n      jump\t// out\n        /* \"#utility.yul\":17458:17599   */\n    tag_149:\n        /* \"#utility.yul\":17507:17511   */\n      0x00\n        /* \"#utility.yul\":17530:17533   */\n      dup2\n        /* \"#utility.yul\":17522:17533   */\n      swap1\n      pop\n        /* \"#utility.yul\":17553:17556   */\n      dup2\n        /* \"#utility.yul\":17550:17551   */\n      0x00\n        /* \"#utility.yul\":17543:17557   */\n      mstore\n        /* \"#utility.yul\":17587:17591   */\n      0x20\n        /* \"#utility.yul\":17584:17585   */\n      0x00\n        /* \"#utility.yul\":17574:17592   */\n      keccak256\n        /* \"#utility.yul\":17566:17592   */\n      swap1\n      pop\n        /* \"#utility.yul\":17458:17599   */\n      swap2\n      swap1\n      pop\n      jump\t// out\n        /* \"#utility.yul\":17605:17698   */\n    tag_150:\n        /* \"#utility.yul\":17642:17648   */\n      0x00\n        /* \"#utility.yul\":17689:17691   */\n      0x20\n        /* \"#utility.yul\":17684:17686   */\n      0x1f\n        /* \"#utility.yul\":17677:17682   */\n      dup4\n        /* \"#utility.yul\":17673:17687   */\n      add\n        /* \"#utility.yul\":17669:17692   */\n      div\n        /* \"#utility.yul\":17659:17692   */\n      swap1\n      pop\n        /* \"#utility.yul\":17605:17698   */\n      swap2\n      swap1\n      pop\n      jump\t// out\n        /* \"#utility.yul\":17704:17811   */\n    tag_151:\n        /* \"#utility.yul\":17748:17756   */\n      0x00\n        /* \"#utility.yul\":17798:17803   */\n      dup3\n        /* \"#utility.yul\":17792:17796   */\n      dup3\n        /* \"#utility.yul\":17788:17804   */\n      shl\n        /* \"#utility.yul\":17767:17804   */\n      swap1\n      pop\n        /* \"#utility.yul\":17704:17811   */\n      swap3\n      swap2\n      pop\n      pop\n      jump\t// out\n        /* \"#utility.yul\":17817:18210   */\n    tag_152:\n        /* \"#utility.yul\":17886:17892   */\n      0x00\n        /* \"#utility.yul\":17936:17937   */\n      0x08\n        /* \"#utility.yul\":17924:17934   */\n      dup4\n        /* \"#utility.yul\":17920:17938   */\n      mul\n        /* \"#utility.yul\":17959:18056   */\n      tag_347\n        /* \"#utility.yul\":17989:18055   */\n      0xffffffffffffffffffffffffffffffffffffffffffffffffffffffffffffffff\n        /* \"#utility.yul\":17978:17987   */\n      dup3\n        /* \"#utility.yul\":17959:18056   */\n      tag_151\n      jump\t// in\n    tag_347:\n        /* \"#utility.yul\":18077:18116   */\n      tag_348\n        /* \"#utility.yul\":18107:18115   */\n      dup7\n        /* \"#utility.yul\":18096:18105   */\n      dup4\n        /* \"#utility.yul\":18077:18116   */\n      tag_151\n      jump\t// in\n    tag_348:\n        /* \"#utility.yul\":18065:18116   */\n      swap6\n      pop\n        /* \"#utility.yul\":18149:18153   */\n      dup1\n        /* \"#utility.yul\":18145:18154   */\n      not\n        /* \"#utility.yul\":18138:18143   */\n      dup5\n        /* \"#utility.yul\":18134:18155   */\n      and\n        /* \"#utility.yul\":18125:18155   */\n      swap4\n      pop\n        /* \"#utility.yul\":18198:18202   */\n      dup1\n        /* \"#utility.yul\":18188:18196   */\n      dup7\n        /* \"#utility.yul\":18184:18203   */\n      and\n        /* \"#utility.yul\":18177:18182   */\n      dup5\n        /* \"#utility.yul\":18174:18204   */\n      or\n        /* \"#utility.yul\":18164:18204   */\n      swap3\n      pop\n        /* \"#utility.yul\":17893:18210   */\n      pop\n      pop\n        /* \"#utility.yul\":17817:18210   */\n      swap4\n      swap3\n      pop\n      pop\n      pop\n      jump\t// out\n        /* \"#utility.yul\":18216:18358   */\n    tag_153:\n        /* \"#utility.yul\":18266:18275   */\n      0x00\n        /* \"#utility.yul\":18299:18352   */\n      tag_350\n        /* \"#utility.yul\":18317:18351   */\n      tag_351\n        /* \"#utility.yul\":18326:18350   */\n      tag_352\n        /* \"#utility.yul\":18344:18349   */\n      dup5\n        /* \"#utility.yul\":18326:18350   */\n      tag_113\n      jump\t// in\n    tag_352:\n        /* \"#utility.yul\":18317:18351   */\n      tag_117\n      jump\t// in\n    tag_351:\n        /* \"#utility.yul\":18299:18352   */\n      tag_113\n      jump\t// in\n    tag_350:\n        /* \"#utility.yul\":18286:18352   */\n      swap1\n      pop\n        /* \"#utility.yul\":18216:18358   */\n      swap2\n      swap1\n      pop\n      jump\t// out\n        /* \"#utility.yul\":18364:18439   */\n    tag_154:\n        /* \"#utility.yul\":18407:18410   */\n      0x00\n        /* \"#utility.yul\":18428:18433   */\n      dup2\n        /* \"#utility.yul\":18421:18433   */\n      swap1\n      pop\n        /* \"#utility.yul\":18364:18439   */\n      swap2\n      swap1\n      pop\n      jump\t// out\n        /* \"#utility.yul\":18445:18714   */\n    tag_155:\n        /* \"#utility.yul\":18555:18594   */\n      tag_355\n        /* \"#utility.yul\":18586:18593   */\n      dup4\n        /* \"#utility.yul\":18555:18594   */\n      tag_153\n      jump\t// in\n    tag_355:\n        /* \"#utility.yul\":18616:18707   */\n      tag_356\n        /* \"#utility.yul\":18665:18706   */\n      tag_357\n        /* \"#utility.yul\":18689:18705   */\n      dup3\n        /* \"#utility.yul\":18665:18706   */\n      tag_154\n      jump\t// in\n    tag_357:\n        /* \"#utility.yul\":18657:18663   */\n      dup5\n        /* \"#utility.yul\":18650:18654   */\n      dup5\n        /* \"#utility.yul\":18644:18655   */\n      sload\n        /* \"#utility.yul\":18616:18707   */\n      tag_152\n      jump\t// in\n    tag_356:\n        /* \"#utility.yul\":18610:18614   */\n      dup3\n        /* \"#utility.yul\":18603:18708   */\n      sstore\n        /* \"#utility.yul\":18521:18714   */\n      pop\n        /* \"#utility.yul\":18445:18714   */\n      pop\n      pop\n      pop\n      jump\t// out\n        /* \"#utility.yul\":18720:18793   */\n    tag_156:\n        /* \"#utility.yul\":18765:18768   */\n      0x00\n        /* \"#utility.yul\":18720:18793   */\n      swap1\n      jump\t// out\n        /* \"#utility.yul\":18799:18988   */\n    tag_157:\n        /* \"#utility.yul\":18876:18908   */\n      tag_360\n      tag_156\n      jump\t// in\n    tag_360:\n        /* \"#utility.yul\":18917:18982   */\n      tag_361\n        /* \"#utility.yul\":18975:18981   */\n      dup2\n        /* \"#utility.yul\":18967:18973   */\n      dup5\n        /* \"#utility.yul\":18961:18965   */\n      dup5\n        /* \"#utility.yul\":18917:18982   */\n      tag_155\n      jump\t// in\n    tag_361:\n        /* \"#utility.yul\":18852:18988   */\n      pop\n        /* \"#utility.yul\":18799:18988   */\n      pop\n      pop\n      jump\t// out\n        /* \"#utility.yul\":18994:19180   */\n    tag_158:\n        /* \"#utility.yul\":19054:19174   */\n    tag_363:\n        /* \"#utility.yul\":19071:19074   */\n      dup2\n        /* \"#utility.yul\":19064:19069   */\n      dup2\n        /* \"#utility.yul\":19061:19075   */\n      lt\n        /* \"#utility.yul\":19054:19174   */\n      iszero\n      tag_365\n      jumpi\n        /* \"#utility.yul\":19125:19164   */\n      tag_366\n        /* \"#utility.yul\":19162:19163   */\n      0x00\n        /* \"#utility.yul\":19155:19160   */\n      dup3\n        /* \"#utility.yul\":19125:19164   */\n      tag_157\n      jump\t// in\n    tag_366:\n        /* \"#utility.yul\":19098:19099   */\n      0x01\n        /* \"#utility.yul\":19091:19096   */\n      dup2\n        /* \"#utility.yul\":19087:19100   */\n      add\n        /* \"#utility.yul\":19078:19100   */\n      swap1\n      pop\n        /* \"#utility.yul\":19054:19174   */\n      jump(tag_363)\n    tag_365:\n        /* \"#utility.yul\":18994:19180   */\n      pop\n      pop\n      jump\t// out\n        /* \"#utility.yul\":19186:19729   */\n    tag_159:\n        /* \"#utility.yul\":19287:19289   */\n      0x1f\n        /* \"#utility.yul\":19282:19285   */\n      dup3\n        /* \"#utility.yul\":19279:19290   */\n      gt\n        /* \"#utility.yul\":19276:19722   */\n      iszero\n      tag_368\n      jumpi\n        /* \"#utility.yul\":19321:19359   */\n      tag_369\n        /* \"#utility.yul\":19353:19358   */\n      dup2\n        /* \"#utility.yul\":19321:19359   */\n      tag_149\n      jump\t// in\n    tag_369:\n        /* \"#utility.yul\":19405:19434   */\n      tag_370\n        /* \"#utility.yul\":19423:19433   */\n      dup5\n        /* \"#utility.yul\":19405:19434   */\n      tag_150\n      jump\t// in\n    tag_370:\n        /* \"#utility.yul\":19395:19403   */\n      dup2\n        /* \"#utility.yul\":19391:19435   */\n      add\n        /* \"#utility.yul\":19588:19590   */\n      0x20\n        /* \"#utility.yul\":19576:19586   */\n      dup6\n        /* \"#utility.yul\":19573:19591   */\n      lt\n        /* \"#utility.yul\":19570:19619   */\n      iszero\n      tag_371\n      jumpi\n        /* \"#utility.yul\":19609:19617   */\n      dup2\n        /* \"#utility.yul\":19594:19617   */\n      swap1\n      pop\n        /* \"#utility.yul\":19570:19619   */\n    tag_371:\n        /* \"#utility.yul\":19632:19712   */\n      tag_372\n        /* \"#utility.yul\":19688:19710   */\n      tag_373\n        /* \"#utility.yul\":19706:19709   */\n      dup6\n        /* \"#utility.yul\":19688:19710   */\n      tag_150\n      jump\t// in\n    tag_373:\n        /* \"#utility.yul\":19678:19686   */\n      dup4\n        /* \"#utility.yul\":19674:19711   */\n      add\n        /* \"#utility.yul\":19661:19672   */\n      dup3\n        /* \"#utility.yul\":19632:19712   */\n      tag_158\n      jump\t// in\n    tag_372:\n        /* \"#utility.yul\":19291:19722   */\n      pop\n      pop\n        /* \"#utility.yul\":19276:19722   */\n    tag_368:\n        /* \"#utility.yul\":19186:19729   */\n      pop\n      pop\n      pop\n      jump\t// out\n        /* \"#utility.yul\":19735:19852   */\n    tag_160:\n        /* \"#utility.yul\":19789:19797   */\n      0x00\n        /* \"#utility.yul\":19839:19844   */\n      dup3\n        /* \"#utility.yul\":19833:19837   */\n      dup3\n        /* \"#utility.yul\":19829:19845   */\n      shr\n        /* \"#utility.yul\":19808:19845   */\n      swap1\n      pop\n        /* \"#utility.yul\":19735:19852   */\n      swap3\n      swap2\n      pop\n      pop\n      jump\t// out\n        /* \"#utility.yul\":19858:20027   */\n    tag_161:\n        /* \"#utility.yul\":19902:19908   */\n      0x00\n        /* \"#utility.yul\":19935:19986   */\n      tag_376\n        /* \"#utility.yul\":19983:19984   */\n      0x00\n        /* \"#utility.yul\":19979:19985   */\n      not\n        /* \"#utility.yul\":19971:19976   */\n      dup5\n        /* \"#utility.yul\":19968:19969   */\n      0x08\n        /* \"#utility.yul\":19964:19977   */\n      mul\n        /* \"#utility.yul\":19935:19986   */\n      tag_160\n      jump\t// in\n    tag_376:\n        /* \"#utility.yul\":19931:19987   */\n      not\n        /* \"#utility.yul\":20016:20020   */\n      dup1\n        /* \"#utility.yul\":20010:20014   */\n      dup4\n        /* \"#utility.yul\":20006:20021   */\n      and\n        /* \"#utility.yul\":19996:20021   */\n      swap2\n      pop\n        /* \"#utility.yul\":19909:20027   */\n      pop\n        /* \"#utility.yul\":19858:20027   */\n      swap3\n      swap2\n      pop\n      pop\n      jump\t// out\n        /* \"#utility.yul\":20032:20327   */\n    tag_162:\n        /* \"#utility.yul\":20108:20112   */\n      0x00\n        /* \"#utility.yul\":20254:20283   */\n      tag_378\n        /* \"#utility.yul\":20279:20282   */\n      dup4\n        /* \"#utility.yul\":20273:20277   */\n      dup4\n        /* \"#utility.yul\":20254:20283   */\n      tag_161\n      jump\t// in\n    tag_378:\n        /* \"#utility.yul\":20246:20283   */\n      swap2\n      pop\n        /* \"#utility.yul\":20316:20319   */\n      dup3\n        /* \"#utility.yul\":20313:20314   */\n      0x02\n        /* \"#utility.yul\":20309:20320   */\n      mul\n        /* \"#utility.yul\":20303:20307   */\n      dup3\n        /* \"#utility.yul\":20300:20321   */\n      or\n        /* \"#utility.yul\":20292:20321   */\n      swap1\n      pop\n        /* \"#utility.yul\":20032:20327   */\n      swap3\n      swap2\n      pop\n      pop\n      jump\t// out\n        /* \"#utility.yul\":20332:21727   */\n    tag_66:\n        /* \"#utility.yul\":20449:20486   */\n      tag_380\n        /* \"#utility.yul\":20482:20485   */\n      dup3\n        /* \"#utility.yul\":20449:20486   */\n      tag_122\n      jump\t// in\n    tag_380:\n        /* \"#utility.yul\":20551:20569   */\n      0xffffffffffffffff\n        /* \"#utility.yul\":20543:20549   */\n      dup2\n        /* \"#utility.yul\":20540:20570   */\n      gt\n        /* \"#utility.yul\":20537:20593   */\n      iszero\n      tag_381\n      jumpi\n        /* \"#utility.yul\":20573:20591   */\n      tag_382\n      tag_106\n      jump\t// in\n    tag_382:\n        /* \"#utility.yul\":20537:20593   */\n    tag_381:\n        /* \"#utility.yul\":20617:20655   */\n      tag_383\n        /* \"#utility.yul\":20649:20653   */\n      dup3\n        /* \"#utility.yul\":20643:20654   */\n      sload\n        /* \"#utility.yul\":20617:20655   */\n      tag_57\n      jump\t// in\n    tag_383:\n        /* \"#utility.yul\":20702:20769   */\n      tag_384\n        /* \"#utility.yul\":20762:20768   */\n      dup3\n        /* \"#utility.yul\":20754:20760   */\n      dup3\n        /* \"#utility.yul\":20748:20752   */\n      dup6\n        /* \"#utility.yul\":20702:20769   */\n      tag_159\n      jump\t// in\n    tag_384:\n        /* \"#utility.yul\":20796:20797   */\n      0x00\n        /* \"#utility.yul\":20820:20824   */\n      0x20\n        /* \"#utility.yul\":20807:20824   */\n      swap1\n      pop\n        /* \"#utility.yul\":20852:20854   */\n      0x1f\n        /* \"#utility.yul\":20844:20850   */\n      dup4\n        /* \"#utility.yul\":20841:20855   */\n      gt\n        /* \"#utility.yul\":20869:20870   */\n      0x01\n        /* \"#utility.yul\":20864:21482   */\n      dup2\n      eq\n      tag_386\n      jumpi\n        /* \"#utility.yul\":21526:21527   */\n      0x00\n        /* \"#utility.yul\":21543:21549   */\n      dup5\n        /* \"#utility.yul\":21540:21617   */\n      iszero\n      tag_387\n      jumpi\n        /* \"#utility.yul\":21592:21601   */\n      dup3\n        /* \"#utility.yul\":21587:21590   */\n      dup8\n        /* \"#utility.yul\":21583:21602   */\n      add\n        /* \"#utility.yul\":21577:21603   */\n      mload\n        /* \"#utility.yul\":21568:21603   */\n      swap1\n      pop\n        /* \"#utility.yul\":21540:21617   */\n    tag_387:\n        /* \"#utility.yul\":21643:21710   */\n      tag_388\n        /* \"#utility.yul\":21703:21709   */\n      dup6\n        /* \"#utility.yul\":21696:21701   */\n      dup3\n        /* \"#utility.yul\":21643:21710   */\n      tag_162\n      jump\t// in\n    tag_388:\n        /* \"#utility.yul\":21637:21641   */\n      dup7\n        /* \"#utility.yul\":21630:21711   */\n      sstore\n        /* \"#utility.yul\":21499:21721   */\n      pop\n        /* \"#utility.yul\":20834:21721   */\n      jump(tag_385)\n        /* \"#utility.yul\":20864:21482   */\n    tag_386:\n        /* \"#utility.yul\":20916:20920   */\n      0x1f\n        /* \"#utility.yul\":20912:20921   */\n      not\n        /* \"#utility.yul\":20904:20910   */\n      dup5\n        /* \"#utility.yul\":20900:20922   */\n      and\n        /* \"#utility.yul\":20950:20987   */\n      tag_389\n        /* \"#utility.yul\":20982:20986   */\n      dup7\n        /* \"#utility.yul\":20950:20987   */\n      tag_149\n      jump\t// in\n    tag_389:\n        /* \"#utility.yul\":21009:21010   */\n      0x00\n        /* \"#utility.yul\":21023:21231   */\n    tag_390:\n        /* \"#utility.yul\":21037:21044   */\n      dup3\n        /* \"#utility.yul\":21034:21035   */\n      dup2\n        /* \"#utility.yul\":21031:21045   */\n      lt\n        /* \"#utility.yul\":21023:21231   */\n      iszero\n      tag_392\n      jumpi\n        /* \"#utility.yul\":21116:21125   */\n      dup5\n        /* \"#utility.yul\":21111:21114   */\n      dup10\n        /* \"#utility.yul\":21107:21126   */\n      add\n        /* \"#utility.yul\":21101:21127   */\n      mload\n        /* \"#utility.yul\":21093:21099   */\n      dup3\n        /* \"#utility.yul\":21086:21128   */\n      sstore\n        /* \"#utility.yul\":21167:21168   */\n      0x01\n        /* \"#utility.yul\":21159:21165   */\n      dup3\n        /* \"#utility.yul\":21155:21169   */\n      add\n        /* \"#utility.yul\":21145:21169   */\n      swap2\n      pop\n        /* \"#utility.yul\":21214:21216   */\n      0x20\n        /* \"#utility.yul\":21203:21212   */\n      dup6\n        /* \"#utility.yul\":21199:21217   */\n      add\n        /* \"#utility.yul\":21186:21217   */\n      swap5\n      pop\n        /* \"#utility.yul\":21060:21064   */\n      0x20\n        /* \"#utility.yul\":21057:21058   */\n      dup2\n        /* \"#utility.yul\":21053:21065   */\n      add\n        /* \"#utility.yul\":21048:21065   */\n      swap1\n      pop\n        /* \"#utility.yul\":21023:21231   */\n      jump(tag_390)\n    tag_392:\n        /* \"#utility.yul\":21259:21265   */\n      dup7\n        /* \"#utility.yul\":21250:21257   */\n      dup4\n        /* \"#utility.yul\":21247:21266   */\n      lt\n        /* \"#utility.yul\":21244:21423   */\n      iszero\n      tag_393\n      jumpi\n        /* \"#utility.yul\":21317:21326   */\n      dup5\n        /* \"#utility.yul\":21312:21315   */\n      dup10\n        /* \"#utility.yul\":21308:21327   */\n      add\n        /* \"#utility.yul\":21302:21328   */\n      mload\n        /* \"#utility.yul\":21360:21408   */\n      tag_394\n        /* \"#utility.yul\":21402:21406   */\n      0x1f\n        /* \"#utility.yul\":21394:21400   */\n      dup10\n        /* \"#utility.yul\":21390:21407   */\n      and\n        /* \"#utility.yul\":21379:21388   */\n      dup3\n        /* \"#utility.yul\":21360:21408   */\n      tag_161\n      jump\t// in\n    tag_394:\n        /* \"#utility.yul\":21352:21358   */\n      dup4\n        /* \"#utility.yul\":21345:21409   */\n      sstore\n        /* \"#utility.yul\":21267:21423   */\n      pop\n        /* \"#utility.yul\":21244:21423   */\n    tag_393:\n        /* \"#utility.yul\":21469:21470   */\n      0x01\n        /* \"#utility.yul\":21465:21466   */\n      0x02\n        /* \"#utility.yul\":21457:21463   */\n      dup9\n        /* \"#utility.yul\":21453:21467   */\n      mul\n        /* \"#utility.yul\":21449:21471   */\n      add\n        /* \"#utility.yul\":21443:21447   */\n      dup9\n        /* \"#utility.yul\":21436:21472   */\n      sstore\n        /* \"#utility.yul\":20871:21482   */\n      pop\n      pop\n      pop\n        /* \"#utility.yul\":20834:21721   */\n    tag_385:\n      pop\n        /* \"#utility.yul\":20424:21727   */\n      pop\n      pop\n      pop\n        /* \"#utility.yul\":20332:21727   */\n      pop\n      pop\n      jump\t// out\n        /* \"#utility.yul\":21733:21966   */\n    tag_68:\n        /* \"#utility.yul\":21772:21775   */\n      0x00\n        /* \"#utility.yul\":21795:21819   */\n      tag_396\n        /* \"#utility.yul\":21813:21818   */\n      dup3\n        /* \"#utility.yul\":21795:21819   */\n      tag_113\n      jump\t// in\n    tag_396:\n        /* \"#utility.yul\":21786:21819   */\n      swap2\n      pop\n        /* \"#utility.yul\":21841:21907   */\n      0xffffffffffffffffffffffffffffffffffffffffffffffffffffffffffffffff\n        /* \"#utility.yul\":21834:21839   */\n      dup3\n        /* \"#utility.yul\":21831:21908   */\n      sub\n        /* \"#utility.yul\":21828:21931   */\n      tag_397\n      jumpi\n        /* \"#utility.yul\":21911:21929   */\n      tag_398\n      tag_132\n      jump\t// in\n    tag_398:\n        /* \"#utility.yul\":21828:21931   */\n    tag_397:\n        /* \"#utility.yul\":21958:21959   */\n      0x01\n        /* \"#utility.yul\":21951:21956   */\n      dup3\n        /* \"#utility.yul\":21947:21960   */\n      add\n        /* \"#utility.yul\":21940:21960   */\n      swap1\n      pop\n        /* \"#utility.yul\":21733:21966   */\n      swap2\n      swap1\n      pop\n      jump\t// out\n        /* \"#utility.yul\":21972:22149   */\n    tag_163:\n        /* \"#utility.yul\":22112:22141   */\n      0x4661696c656420746f2064697374726962757465207265776172640000000000\n        /* \"#utility.yul\":22108:22109   */\n      0x00\n        /* \"#utility.yul\":22100:22106   */\n      dup3\n        /* \"#utility.yul\":22096:22110   */\n      add\n        /* \"#utility.yul\":22089:22142   */\n      mstore\n        /* \"#utility.yul\":21972:22149   */\n      pop\n      jump\t// out\n        /* \"#utility.yul\":22155:22521   */\n    tag_164:\n        /* \"#utility.yul\":22297:22300   */\n      0x00\n        /* \"#utility.yul\":22318:22385   */\n      tag_401\n        /* \"#utility.yul\":22382:22384   */\n      0x1b\n        /* \"#utility.yul\":22377:22380   */\n      dup4\n        /* \"#utility.yul\":22318:22385   */\n      tag_126\n      jump\t// in\n    tag_401:\n        /* \"#utility.yul\":22311:22385   */\n      swap2\n      pop\n        /* \"#utility.yul\":22394:22487   */\n      tag_402\n        /* \"#utility.yul\":22483:22486   */\n      dup3\n        /* \"#utility.yul\":22394:22487   */\n      tag_163\n      jump\t// in\n    tag_402:\n        /* \"#utility.yul\":22512:22514   */\n      0x20\n        /* \"#utility.yul\":22507:22510   */\n      dup3\n        /* \"#utility.yul\":22503:22515   */\n      add\n        /* \"#utility.yul\":22496:22515   */\n      swap1\n      pop\n        /* \"#utility.yul\":22155:22521   */\n      swap2\n      swap1\n      pop\n      jump\t// out\n        /* \"#utility.yul\":22527:22946   */\n    tag_76:\n        /* \"#utility.yul\":22693:22697   */\n      0x00\n        /* \"#utility.yul\":22731:22733   */\n      0x20\n        /* \"#utility.yul\":22720:22729   */\n      dup3\n        /* \"#utility.yul\":22716:22734   */\n      add\n        /* \"#utility.yul\":22708:22734   */\n      swap1\n      pop\n        /* \"#utility.yul\":22780:22789   */\n      dup2\n        /* \"#utility.yul\":22774:22778   */\n      dup2\n        /* \"#utility.yul\":22770:22790   */\n      sub\n        /* \"#utility.yul\":22766:22767   */\n      0x00\n        /* \"#utility.yul\":22755:22764   */\n      dup4\n        /* \"#utility.yul\":22751:22768   */\n      add\n        /* \"#utility.yul\":22744:22791   */\n      mstore\n        /* \"#utility.yul\":22808:22939   */\n      tag_404\n        /* \"#utility.yul\":22934:22938   */\n      dup2\n        /* \"#utility.yul\":22808:22939   */\n      tag_164\n      jump\t// in\n    tag_404:\n        /* \"#utility.yul\":22800:22939   */\n      swap1\n      pop\n        /* \"#utility.yul\":22527:22946   */\n      swap2\n      swap1\n      pop\n      jump\t// out\n        /* \"#utility.yul\":22952:23576   */\n    tag_78:\n        /* \"#utility.yul\":23141:23145   */\n      0x00\n        /* \"#utility.yul\":23179:23181   */\n      0x60\n        /* \"#utility.yul\":23168:23177   */\n      dup3\n        /* \"#utility.yul\":23164:23182   */\n      add\n        /* \"#utility.yul\":23156:23182   */\n      swap1\n      pop\n        /* \"#utility.yul\":23228:23237   */\n      dup2\n        /* \"#utility.yul\":23222:23226   */\n      dup2\n        /* \"#utility.yul\":23218:23238   */\n      sub\n        /* \"#utility.yul\":23214:23215   */\n      0x00\n        /* \"#utility.yul\":23203:23212   */\n      dup4\n        /* \"#utility.yul\":23199:23216   */\n      add\n        /* \"#utility.yul\":23192:23239   */\n      mstore\n        /* \"#utility.yul\":23256:23334   */\n      tag_406\n        /* \"#utility.yul\":23329:23333   */\n      dup2\n        /* \"#utility.yul\":23320:23326   */\n      dup7\n        /* \"#utility.yul\":23256:23334   */\n      tag_141\n      jump\t// in\n    tag_406:\n        /* \"#utility.yul\":23248:23334   */\n      swap1\n      pop\n        /* \"#utility.yul\":23344:23416   */\n      tag_407\n        /* \"#utility.yul\":23412:23414   */\n      0x20\n        /* \"#utility.yul\":23401:23410   */\n      dup4\n        /* \"#utility.yul\":23397:23415   */\n      add\n        /* \"#utility.yul\":23388:23394   */\n      dup6\n        /* \"#utility.yul\":23344:23416   */\n      tag_134\n      jump\t// in\n    tag_407:\n        /* \"#utility.yul\":23463:23472   */\n      dup2\n        /* \"#utility.yul\":23457:23461   */\n      dup2\n        /* \"#utility.yul\":23453:23473   */\n      sub\n        /* \"#utility.yul\":23448:23450   */\n      0x40\n        /* \"#utility.yul\":23437:23446   */\n      dup4\n        /* \"#utility.yul\":23433:23451   */\n      add\n        /* \"#utility.yul\":23426:23474   */\n      mstore\n        /* \"#utility.yul\":23491:23569   */\n      tag_408\n        /* \"#utility.yul\":23564:23568   */\n      dup2\n        /* \"#utility.yul\":23555:23561   */\n      dup5\n        /* \"#utility.yul\":23491:23569   */\n      tag_141\n      jump\t// in\n    tag_408:\n        /* \"#utility.yul\":23483:23569   */\n      swap1\n      pop\n        /* \"#utility.yul\":22952:23576   */\n      swap5\n      swap4\n      pop\n      pop\n      pop\n      pop\n      jump\t// out\n        /* \"#utility.yul\":23582:23753   */\n    tag_165:\n        /* \"#utility.yul\":23722:23745   */\n      0x53757276657920616c7265616479206578697374730000000000000000000000\n        /* \"#utility.yul\":23718:23719   */\n      0x00\n        /* \"#utility.yul\":23710:23716   */\n      dup3\n        /* \"#utility.yul\":23706:23720   */\n      add\n        /* \"#utility.yul\":23699:23746   */\n      mstore\n        /* \"#utility.yul\":23582:23753   */\n      pop\n      jump\t// out\n        /* \"#utility.yul\":23759:24125   */\n    tag_166:\n        /* \"#utility.yul\":23901:23904   */\n      0x00\n        /* \"#utility.yul\":23922:23989   */\n      tag_411\n        /* \"#utility.yul\":23986:23988   */\n      0x15\n        /* \"#utility.yul\":23981:23984   */\n      dup4\n        /* \"#utility.yul\":23922:23989   */\n      tag_126\n      jump\t// in\n    tag_411:\n        /* \"#utility.yul\":23915:23989   */\n      swap2\n      pop\n        /* \"#utility.yul\":23998:24091   */\n      tag_412\n        /* \"#utility.yul\":24087:24090   */\n      dup3\n        /* \"#utility.yul\":23998:24091   */\n      tag_165\n      jump\t// in\n    tag_412:\n        /* \"#utility.yul\":24116:24118   */\n      0x20\n        /* \"#utility.yul\":24111:24114   */\n      dup3\n        /* \"#utility.yul\":24107:24119   */\n      add\n        /* \"#utility.yul\":24100:24119   */\n      swap1\n      pop\n        /* \"#utility.yul\":23759:24125   */\n      swap2\n      swap1\n      pop\n      jump\t// out\n        /* \"#utility.yul\":24131:24550   */\n    tag_83:\n        /* \"#utility.yul\":24297:24301   */\n      0x00\n        /* \"#utility.yul\":24335:24337   */\n      0x20\n        /* \"#utility.yul\":24324:24333   */\n      dup3\n        /* \"#utility.yul\":24320:24338   */\n      add\n        /* \"#utility.yul\":24312:24338   */\n      swap1\n      pop\n        /* \"#utility.yul\":24384:24393   */\n      dup2\n        /* \"#utility.yul\":24378:24382   */\n      dup2\n        /* \"#utility.yul\":24374:24394   */\n      sub\n        /* \"#utility.yul\":24370:24371   */\n      0x00\n        /* \"#utility.yul\":24359:24368   */\n      dup4\n        /* \"#utility.yul\":24355:24372   */\n      add\n        /* \"#utility.yul\":24348:24395   */\n      mstore\n        /* \"#utility.yul\":24412:24543   */\n      tag_414\n        /* \"#utility.yul\":24538:24542   */\n      dup2\n        /* \"#utility.yul\":24412:24543   */\n      tag_166\n      jump\t// in\n    tag_414:\n        /* \"#utility.yul\":24404:24543   */\n      swap1\n      pop\n        /* \"#utility.yul\":24131:24550   */\n      swap2\n      swap1\n      pop\n      jump\t// out\n        /* \"#utility.yul\":24556:24786   */\n    tag_167:\n        /* \"#utility.yul\":24696:24730   */\n      0x457870656374656420726573706f6e64656e7473206d75737420626520677265\n        /* \"#utility.yul\":24692:24693   */\n      0x00\n        /* \"#utility.yul\":24684:24690   */\n      dup3\n        /* \"#utility.yul\":24680:24694   */\n      add\n        /* \"#utility.yul\":24673:24731   */\n      mstore\n        /* \"#utility.yul\":24765:24778   */\n      0x61746572207468616e2030000000000000000000000000000000000000000000\n        /* \"#utility.yul\":24760:24762   */\n      0x20\n        /* \"#utility.yul\":24752:24758   */\n      dup3\n        /* \"#utility.yul\":24748:24763   */\n      add\n        /* \"#utility.yul\":24741:24779   */\n      mstore\n        /* \"#utility.yul\":24556:24786   */\n      pop\n      jump\t// out\n        /* \"#utility.yul\":24792:25158   */\n    tag_168:\n        /* \"#utility.yul\":24934:24937   */\n      0x00\n        /* \"#utility.yul\":24955:25022   */\n      tag_417\n        /* \"#utility.yul\":25019:25021   */\n      0x2b\n        /* \"#utility.yul\":25014:25017   */\n      dup4\n        /* \"#utility.yul\":24955:25022   */\n      tag_126\n      jump\t// in\n    tag_417:\n        /* \"#utility.yul\":24948:25022   */\n      swap2\n      pop\n        /* \"#utility.yul\":25031:25124   */\n      tag_418\n        /* \"#utility.yul\":25120:25123   */\n      dup3\n        /* \"#utility.yul\":25031:25124   */\n      tag_167\n      jump\t// in\n    tag_418:\n        /* \"#utility.yul\":25149:25151   */\n      0x40\n        /* \"#utility.yul\":25144:25147   */\n      dup3\n        /* \"#utility.yul\":25140:25152   */\n      add\n        /* \"#utility.yul\":25133:25152   */\n      swap1\n      pop\n        /* \"#utility.yul\":24792:25158   */\n      swap2\n      swap1\n      pop\n      jump\t// out\n        /* \"#utility.yul\":25164:25583   */\n    tag_86:\n        /* \"#utility.yul\":25330:25334   */\n      0x00\n        /* \"#utility.yul\":25368:25370   */\n      0x20\n        /* \"#utility.yul\":25357:25366   */\n      dup3\n        /* \"#utility.yul\":25353:25371   */\n      add\n        /* \"#utility.yul\":25345:25371   */\n      swap1\n      pop\n        /* \"#utility.yul\":25417:25426   */\n      dup2\n        /* \"#utility.yul\":25411:25415   */\n      dup2\n        /* \"#utility.yul\":25407:25427   */\n      sub\n        /* \"#utility.yul\":25403:25404   */\n      0x00\n        /* \"#utility.yul\":25392:25401   */\n      dup4\n        /* \"#utility.yul\":25388:25405   */\n      add\n        /* \"#utility.yul\":25381:25428   */\n      mstore\n        /* \"#utility.yul\":25445:25576   */\n      tag_420\n        /* \"#utility.yul\":25571:25575   */\n      dup2\n        /* \"#utility.yul\":25445:25576   */\n      tag_168\n      jump\t// in\n    tag_420:\n        /* \"#utility.yul\":25437:25576   */\n      swap1\n      pop\n        /* \"#utility.yul\":25164:25583   */\n      swap2\n      swap1\n      pop\n      jump\t// out\n        /* \"#utility.yul\":25589:26031   */\n    tag_91:\n        /* \"#utility.yul\":25738:25742   */\n      0x00\n        /* \"#utility.yul\":25776:25778   */\n      0x60\n        /* \"#utility.yul\":25765:25774   */\n      dup3\n        /* \"#utility.yul\":25761:25779   */\n      add\n        /* \"#utility.yul\":25753:25779   */\n      swap1\n      pop\n        /* \"#utility.yul\":25789:25860   */\n      tag_422\n        /* \"#utility.yul\":25857:25858   */\n      0x00\n        /* \"#utility.yul\":25846:25855   */\n      dup4\n        /* \"#utility.yul\":25842:25859   */\n      add\n        /* \"#utility.yul\":25833:25839   */\n      dup7\n        /* \"#utility.yul\":25789:25860   */\n      tag_134\n      jump\t// in\n    tag_422:\n        /* \"#utility.yul\":25870:25942   */\n      tag_423\n        /* \"#utility.yul\":25938:25940   */\n      0x20\n        /* \"#utility.yul\":25927:25936   */\n      dup4\n        /* \"#utility.yul\":25923:25941   */\n      add\n        /* \"#utility.yul\":25914:25920   */\n      dup6\n        /* \"#utility.yul\":25870:25942   */\n      tag_134\n      jump\t// in\n    tag_423:\n        /* \"#utility.yul\":25952:26024   */\n      tag_424\n        /* \"#utility.yul\":26020:26022   */\n      0x40\n        /* \"#utility.yul\":26009:26018   */\n      dup4\n        /* \"#utility.yul\":26005:26023   */\n      add\n        /* \"#utility.yul\":25996:26002   */\n      dup5\n        /* \"#utility.yul\":25952:26024   */\n      tag_135\n      jump\t// in\n    tag_424:\n        /* \"#utility.yul\":25589:26031   */\n      swap5\n      swap4\n      pop\n      pop\n      pop\n      pop\n      jump\t// out\n        /* \"#utility.yul\":26037:26216   */\n    tag_169:\n        /* \"#utility.yul\":26177:26208   */\n      0x4661696c656420746f206c6f636b207375727665792072657761726473000000\n        /* \"#utility.yul\":26173:26174   */\n      0x00\n        /* \"#utility.yul\":26165:26171   */\n      dup3\n        /* \"#utility.yul\":26161:26175   */\n      add\n        /* \"#utility.yul\":26154:26209   */\n      mstore\n        /* \"#utility.yul\":26037:26216   */\n      pop\n      jump\t// out\n        /* \"#utility.yul\":26222:26588   */\n    tag_170:\n        /* \"#utility.yul\":26364:26367   */\n      0x00\n        /* \"#utility.yul\":26385:26452   */\n      tag_427\n        /* \"#utility.yul\":26449:26451   */\n      0x1d\n        /* \"#utility.yul\":26444:26447   */\n      dup4\n        /* \"#utility.yul\":26385:26452   */\n      tag_126\n      jump\t// in\n    tag_427:\n        /* \"#utility.yul\":26378:26452   */\n      swap2\n      pop\n        /* \"#utility.yul\":26461:26554   */\n      tag_428\n        /* \"#utility.yul\":26550:26553   */\n      dup3\n        /* \"#utility.yul\":26461:26554   */\n      tag_169\n      jump\t// in\n    tag_428:\n        /* \"#utility.yul\":26579:26581   */\n      0x20\n        /* \"#utility.yul\":26574:26577   */\n      dup3\n        /* \"#utility.yul\":26570:26582   */\n      add\n        /* \"#utility.yul\":26563:26582   */\n      swap1\n      pop\n        /* \"#utility.yul\":26222:26588   */\n      swap2\n      swap1\n      pop\n      jump\t// out\n        /* \"#utility.yul\":26594:27013   */\n    tag_97:\n        /* \"#utility.yul\":26760:26764   */\n      0x00\n        /* \"#utility.yul\":26798:26800   */\n      0x20\n        /* \"#utility.yul\":26787:26796   */\n      dup3\n        /* \"#utility.yul\":26783:26801   */\n      add\n        /* \"#utility.yul\":26775:26801   */\n      swap1\n      pop\n        /* \"#utility.yul\":26847:26856   */\n      dup2\n        /* \"#utility.yul\":26841:26845   */\n      dup2\n        /* \"#utility.yul\":26837:26857   */\n      sub\n        /* \"#utility.yul\":26833:26834   */\n      0x00\n        /* \"#utility.yul\":26822:26831   */\n      dup4\n        /* \"#utility.yul\":26818:26835   */\n      add\n        /* \"#utility.yul\":26811:26858   */\n      mstore\n        /* \"#utility.yul\":26875:27006   */\n      tag_430\n        /* \"#utility.yul\":27001:27005   */\n      dup2\n        /* \"#utility.yul\":26875:27006   */\n      tag_170\n      jump\t// in\n    tag_430:\n        /* \"#utility.yul\":26867:27006   */\n      swap1\n      pop\n        /* \"#utility.yul\":26594:27013   */\n      swap2\n      swap1\n      pop\n      jump\t// out\n        /* \"#utility.yul\":27019:27663   */\n    tag_99:\n        /* \"#utility.yul\":27216:27220   */\n      0x00\n        /* \"#utility.yul\":27254:27257   */\n      0x80\n        /* \"#utility.yul\":27243:27252   */\n      dup3\n        /* \"#utility.yul\":27239:27258   */\n      add\n        /* \"#utility.yul\":27231:27258   */\n      swap1\n      pop\n        /* \"#utility.yul\":27304:27313   */\n      dup2\n        /* \"#utility.yul\":27298:27302   */\n      dup2\n        /* \"#utility.yul\":27294:27314   */\n      sub\n        /* \"#utility.yul\":27290:27291   */\n      0x00\n        /* \"#utility.yul\":27279:27288   */\n      dup4\n        /* \"#utility.yul\":27275:27292   */\n      add\n        /* \"#utility.yul\":27268:27315   */\n      mstore\n        /* \"#utility.yul\":27332:27410   */\n      tag_432\n        /* \"#utility.yul\":27405:27409   */\n      dup2\n        /* \"#utility.yul\":27396:27402   */\n      dup8\n        /* \"#utility.yul\":27332:27410   */\n      tag_141\n      jump\t// in\n    tag_432:\n        /* \"#utility.yul\":27324:27410   */\n      swap1\n      pop\n        /* \"#utility.yul\":27420:27492   */\n      tag_433\n        /* \"#utility.yul\":27488:27490   */\n      0x20\n        /* \"#utility.yul\":27477:27486   */\n      dup4\n        /* \"#utility.yul\":27473:27491   */\n      add\n        /* \"#utility.yul\":27464:27470   */\n      dup7\n        /* \"#utility.yul\":27420:27492   */\n      tag_135\n      jump\t// in\n    tag_433:\n        /* \"#utility.yul\":27502:27574   */\n      tag_434\n        /* \"#utility.yul\":27570:27572   */\n      0x40\n        /* \"#utility.yul\":27559:27568   */\n      dup4\n        /* \"#utility.yul\":27555:27573   */\n      add\n        /* \"#utility.yul\":27546:27552   */\n      dup6\n        /* \"#utility.yul\":27502:27574   */\n      tag_135\n      jump\t// in\n    tag_434:\n        /* \"#utility.yul\":27584:27656   */\n      tag_435\n        /* \"#utility.yul\":27652:27654   */\n      0x60\n        /* \"#utility.yul\":27641:27650   */\n      dup4\n        /* \"#utility.yul\":27637:27655   */\n      add\n        /* \"#utility.yul\":27628:27634   */\n      dup5\n        /* \"#utility.yul\":27584:27656   */\n      tag_134\n      jump\t// in\n    tag_435:\n        /* \"#utility.yul\":27019:27663   */\n      swap6\n      swap5\n      pop\n      pop\n      pop\n      pop\n      pop\n      jump\t// out\n\n    auxdata: 0xa2646970667358221220c1a5e1129de3ea233a3efc70617b29064b67997df9af0c40264a4d70bbf8f98064736f6c63430008180033\n}\n",
				"bytecode": {
					"linkReferences": {},
					"object": "608060405234801562000010575f80fd5b50604051620018f7380380620018f78339818101604052810190620000369190620000f4565b805f806101000a81548173ffffffffffffffffffffffffffffffffffffffff021916908373ffffffffffffffffffffffffffffffffffffffff1602179055505062000124565b5f80fd5b5f73ffffffffffffffffffffffffffffffffffffffff82169050919050565b5f620000ab8262000080565b9050919050565b5f620000be826200009f565b9050919050565b620000d081620000b2565b8114620000db575f80fd5b50565b5f81519050620000ee81620000c5565b92915050565b5f602082840312156200010c576200010b6200007c565b5b5f6200011b84828501620000de565b91505092915050565b6117c580620001325f395ff3fe608060405234801561000f575f80fd5b506004361061004a575f3560e01c80631d88311d1461004e578063c5b447121461006a578063d6b41d8c14610086578063fc0c546a146100a2575b5f80fd5b61006860048036038101906100639190610a5d565b6100c0565b005b610084600480360381019061007f9190610aa4565b610348565b005b6100a0600480360381019061009b9190610b4d565b610662565b005b6100aa6108ed565b6040516100b79190610c33565b60405180910390f35b6001816040516100d09190610cb8565b908152602001604051809103902060040160149054906101000a900460ff1661012e576040517f08c379a000000000000000000000000000000000000000000000000000000000815260040161012590610d28565b60405180910390fd5b5f60018260405161013f9190610cb8565b90815260200160405180910390209050806004015f9054906101000a900473ffffffffffffffffffffffffffffffffffffffff1673ffffffffffffffffffffffffffffffffffffffff163373ffffffffffffffffffffffffffffffffffffffff16146101e0576040517f08c379a00000000000000000000000000000000000000000000000000000000081526004016101d790610db6565b60405180910390fd5b5f8160030154826002015483600101546101fa9190610e2e565b6102049190610e5e565b82600101546102139190610e9f565b90505f8260040160146101000a81548160ff0219169083151502179055505f8054906101000a900473ffffffffffffffffffffffffffffffffffffffff1673ffffffffffffffffffffffffffffffffffffffff1663a9059cbb33836040518363ffffffff1660e01b815260040161028b929190610f01565b6020604051808303815f875af11580156102a7573d5f803e3d5ffd5b505050506040513d601f19601f820116820180604052508101906102cb9190610f5d565b61030a576040517f08c379a000000000000000000000000000000000000000000000000000000000815260040161030190610ff8565b60405180910390fd5b7fa3702e53a7e58cec98a7e461a6dff9e6c4a4d9100b03664560d7639ee1db1a6a833360405161033b92919061104e565b60405180910390a1505050565b6001826040516103589190610cb8565b908152602001604051809103902060040160149054906101000a900460ff166103b6576040517f08c379a00000000000000000000000000000000000000000000000000000000081526004016103ad906110c6565b60405180910390fd5b5f6001836040516103c79190610cb8565b90815260200160405180910390206005015f3373ffffffffffffffffffffffffffffffffffffffff1673ffffffffffffffffffffffffffffffffffffffff1681526020019081526020015f20805461041e90611111565b905014610460576040517f08c379a0000000000000000000000000000000000000000000000000000000008152600401610457906111b1565b60405180910390fd5b5f6001836040516104719190610cb8565b9081526020016040518091039020905080600201548160030154106104cb576040517f08c379a00000000000000000000000000000000000000000000000000000000081526004016104c29061123f565b60405180910390fd5b81816005015f3373ffffffffffffffffffffffffffffffffffffffff1673ffffffffffffffffffffffffffffffffffffffff1681526020019081526020015f20908161051791906113f1565b50806003015f81548092919061052c906114c0565b91905055505f816002015482600101546105469190610e2e565b90505f8054906101000a900473ffffffffffffffffffffffffffffffffffffffff1673ffffffffffffffffffffffffffffffffffffffff1663a9059cbb33836040518363ffffffff1660e01b81526004016105a2929190610f01565b6020604051808303815f875af11580156105be573d5f803e3d5ffd5b505050506040513d601f19601f820116820180604052508101906105e29190610f5d565b610621576040517f08c379a000000000000000000000000000000000000000000000000000000000815260040161061890611551565b60405180910390fd5b7faf52d4cb749e687cd81112ccd6551a2db43460a6c1d08596020bda4a3142cf5e8433856040516106549392919061156f565b60405180910390a150505050565b6001836040516106729190610cb8565b908152602001604051809103902060040160149054906101000a900460ff16156106d1576040517f08c379a00000000000000000000000000000000000000000000000000000000081526004016106c8906115fc565b60405180910390fd5b5f8111610713576040517f08c379a000000000000000000000000000000000000000000000000000000000815260040161070a9061168a565b60405180910390fd5b5f81836107209190610e5e565b90505f6001856040516107339190610cb8565b9081526020016040518091039020905084815f01908161075391906113f1565b508181600101819055508281600201819055505f816003018190555033816004015f6101000a81548173ffffffffffffffffffffffffffffffffffffffff021916908373ffffffffffffffffffffffffffffffffffffffff16021790555060018160040160146101000a81548160ff0219169083151502179055505f8054906101000a900473ffffffffffffffffffffffffffffffffffffffff1673ffffffffffffffffffffffffffffffffffffffff166323b872dd3330856040518463ffffffff1660e01b815260040161082a939291906116a8565b6020604051808303815f875af1158015610846573d5f803e3d5ffd5b505050506040513d601f19601f8201168201806040525081019061086a9190610f5d565b6108a9576040517f08c379a00000000000000000000000000000000000000000000000000000000081526004016108a090611727565b60405180910390fd5b7fba2e91dec1dad0f4e111e2efaf28a87f75e5f0c63c36dcc3c6b2793fc3a0796d858385336040516108de9493929190611745565b60405180910390a15050505050565b5f8054906101000a900473ffffffffffffffffffffffffffffffffffffffff1681565b5f604051905090565b5f80fd5b5f80fd5b5f80fd5b5f80fd5b5f601f19601f8301169050919050565b7f4e487b71000000000000000000000000000000000000000000000000000000005f52604160045260245ffd5b61096f82610929565b810181811067ffffffffffffffff8211171561098e5761098d610939565b5b80604052505050565b5f6109a0610910565b90506109ac8282610966565b919050565b5f67ffffffffffffffff8211156109cb576109ca610939565b5b6109d482610929565b9050602081019050919050565b828183375f83830152505050565b5f610a016109fc846109b1565b610997565b905082815260208101848484011115610a1d57610a1c610925565b5b610a288482856109e1565b509392505050565b5f82601f830112610a4457610a43610921565b5b8135610a548482602086016109ef565b91505092915050565b5f60208284031215610a7257610a71610919565b5b5f82013567ffffffffffffffff811115610a8f57610a8e61091d565b5b610a9b84828501610a30565b91505092915050565b5f8060408385031215610aba57610ab9610919565b5b5f83013567ffffffffffffffff811115610ad757610ad661091d565b5b610ae385828601610a30565b925050602083013567ffffffffffffffff811115610b0457610b0361091d565b5b610b1085828601610a30565b9150509250929050565b5f819050919050565b610b2c81610b1a565b8114610b36575f80fd5b50565b5f81359050610b4781610b23565b92915050565b5f805f60608486031215610b6457610b63610919565b5b5f84013567ffffffffffffffff811115610b8157610b8061091d565b5b610b8d86828701610a30565b9350506020610b9e86828701610b39565b9250506040610baf86828701610b39565b9150509250925092565b5f73ffffffffffffffffffffffffffffffffffffffff82169050919050565b5f819050919050565b5f610bfb610bf6610bf184610bb9565b610bd8565b610bb9565b9050919050565b5f610c0c82610be1565b9050919050565b5f610c1d82610c02565b9050919050565b610c2d81610c13565b82525050565b5f602082019050610c465f830184610c24565b92915050565b5f81519050919050565b5f81905092915050565b5f5b83811015610c7d578082015181840152602081019050610c62565b5f8484015250505050565b5f610c9282610c4c565b610c9c8185610c56565b9350610cac818560208601610c60565b80840191505092915050565b5f610cc38284610c88565b915081905092915050565b5f82825260208201905092915050565b7f53757276657920646f6573206e6f742065786973742e000000000000000000005f82015250565b5f610d12601683610cce565b9150610d1d82610cde565b602082019050919050565b5f6020820190508181035f830152610d3f81610d06565b9050919050565b7f4f6e6c7920746865207375727665792063726561746f722063616e2063616e635f8201527f656c20746865207375727665792e000000000000000000000000000000000000602082015250565b5f610da0602e83610cce565b9150610dab82610d46565b604082019050919050565b5f6020820190508181035f830152610dcd81610d94565b9050919050565b7f4e487b71000000000000000000000000000000000000000000000000000000005f52601260045260245ffd5b7f4e487b71000000000000000000000000000000000000000000000000000000005f52601160045260245ffd5b5f610e3882610b1a565b9150610e4383610b1a565b925082610e5357610e52610dd4565b5b828204905092915050565b5f610e6882610b1a565b9150610e7383610b1a565b9250828202610e8181610b1a565b91508282048414831517610e9857610e97610e01565b5b5092915050565b5f610ea982610b1a565b9150610eb483610b1a565b9250828203905081811115610ecc57610ecb610e01565b5b92915050565b5f610edc82610bb9565b9050919050565b610eec81610ed2565b82525050565b610efb81610b1a565b82525050565b5f604082019050610f145f830185610ee3565b610f216020830184610ef2565b9392505050565b5f8115159050919050565b610f3c81610f28565b8114610f46575f80fd5b50565b5f81519050610f5781610f33565b92915050565b5f60208284031215610f7257610f71610919565b5b5f610f7f84828501610f49565b91505092915050565b7f4661696c656420746f2072657475726e2072656d61696e696e672072657761725f8201527f64732e0000000000000000000000000000000000000000000000000000000000602082015250565b5f610fe2602383610cce565b9150610fed82610f88565b604082019050919050565b5f6020820190508181035f83015261100f81610fd6565b9050919050565b5f61102082610c4c565b61102a8185610cce565b935061103a818560208601610c60565b61104381610929565b840191505092915050565b5f6040820190508181035f8301526110668185611016565b90506110756020830184610ee3565b9392505050565b7f53757276657920646f6573206e6f7420657869737400000000000000000000005f82015250565b5f6110b0601583610cce565b91506110bb8261107c565b602082019050919050565b5f6020820190508181035f8301526110dd816110a4565b9050919050565b7f4e487b71000000000000000000000000000000000000000000000000000000005f52602260045260245ffd5b5f600282049050600182168061112857607f821691505b60208210810361113b5761113a6110e4565b5b50919050565b7f526573706f6e6465722068617320616c726561647920616e73776572656420745f8201527f6869732073757276657900000000000000000000000000000000000000000000602082015250565b5f61119b602a83610cce565b91506111a682611141565b604082019050919050565b5f6020820190508181035f8301526111c88161118f565b9050919050565b7f5375727665792068617320616c726561647920726561636865642069747320655f8201527f7870656374656420726573706f6e64656e747300000000000000000000000000602082015250565b5f611229603383610cce565b9150611234826111cf565b604082019050919050565b5f6020820190508181035f8301526112568161121d565b9050919050565b5f819050815f5260205f209050919050565b5f6020601f8301049050919050565b5f82821b905092915050565b5f600883026112b97fffffffffffffffffffffffffffffffffffffffffffffffffffffffffffffffff8261127e565b6112c3868361127e565b95508019841693508086168417925050509392505050565b5f6112f56112f06112eb84610b1a565b610bd8565b610b1a565b9050919050565b5f819050919050565b61130e836112db565b61132261131a826112fc565b84845461128a565b825550505050565b5f90565b61133661132a565b611341818484611305565b505050565b5b81811015611364576113595f8261132e565b600181019050611347565b5050565b601f8211156113a95761137a8161125d565b6113838461126f565b81016020851015611392578190505b6113a661139e8561126f565b830182611346565b50505b505050565b5f82821c905092915050565b5f6113c95f19846008026113ae565b1980831691505092915050565b5f6113e183836113ba565b9150826002028217905092915050565b6113fa82610c4c565b67ffffffffffffffff81111561141357611412610939565b5b61141d8254611111565b611428828285611368565b5f60209050601f831160018114611459575f8415611447578287015190505b61145185826113d6565b8655506114b8565b601f1984166114678661125d565b5f5b8281101561148e57848901518255600182019150602085019450602081019050611469565b868310156114ab57848901516114a7601f8916826113ba565b8355505b6001600288020188555050505b505050505050565b5f6114ca82610b1a565b91507fffffffffffffffffffffffffffffffffffffffffffffffffffffffffffffffff82036114fc576114fb610e01565b5b600182019050919050565b7f4661696c656420746f20646973747269627574652072657761726400000000005f82015250565b5f61153b601b83610cce565b915061154682611507565b602082019050919050565b5f6020820190508181035f8301526115688161152f565b9050919050565b5f6060820190508181035f8301526115878186611016565b90506115966020830185610ee3565b81810360408301526115a88184611016565b9050949350505050565b7f53757276657920616c72656164792065786973747300000000000000000000005f82015250565b5f6115e6601583610cce565b91506115f1826115b2565b602082019050919050565b5f6020820190508181035f830152611613816115da565b9050919050565b7f457870656374656420726573706f6e64656e7473206d757374206265206772655f8201527f61746572207468616e2030000000000000000000000000000000000000000000602082015250565b5f611674602b83610cce565b915061167f8261161a565b604082019050919050565b5f6020820190508181035f8301526116a181611668565b9050919050565b5f6060820190506116bb5f830186610ee3565b6116c86020830185610ee3565b6116d56040830184610ef2565b949350505050565b7f4661696c656420746f206c6f636b2073757276657920726577617264730000005f82015250565b5f611711601d83610cce565b915061171c826116dd565b602082019050919050565b5f6020820190508181035f83015261173e81611705565b9050919050565b5f6080820190508181035f83015261175d8187611016565b905061176c6020830186610ef2565b6117796040830185610ef2565b6117866060830184610ee3565b9594505050505056fea2646970667358221220c1a5e1129de3ea233a3efc70617b29064b67997df9af0c40264a4d70bbf8f98064736f6c63430008180033",
					"opcodes": "PUSH1 0x80 PUSH1 0x40 MSTORE CALLVALUE DUP1 ISZERO PUSH3 0x10 JUMPI PUSH0 DUP1 REVERT JUMPDEST POP PUSH1 0x40 MLOAD PUSH3 0x18F7 CODESIZE SUB DUP1 PUSH3 0x18F7 DUP4 CODECOPY DUP2 DUP2 ADD PUSH1 0x40 MSTORE DUP2 ADD SWAP1 PUSH3 0x36 SWAP2 SWAP1 PUSH3 0xF4 JUMP JUMPDEST DUP1 PUSH0 DUP1 PUSH2 0x100 EXP DUP2 SLOAD DUP2 PUSH20 0xFFFFFFFFFFFFFFFFFFFFFFFFFFFFFFFFFFFFFFFF MUL NOT AND SWAP1 DUP4 PUSH20 0xFFFFFFFFFFFFFFFFFFFFFFFFFFFFFFFFFFFFFFFF AND MUL OR SWAP1 SSTORE POP POP PUSH3 0x124 JUMP JUMPDEST PUSH0 DUP1 REVERT JUMPDEST PUSH0 PUSH20 0xFFFFFFFFFFFFFFFFFFFFFFFFFFFFFFFFFFFFFFFF DUP3 AND SWAP1 POP SWAP2 SWAP1 POP JUMP JUMPDEST PUSH0 PUSH3 0xAB DUP3 PUSH3 0x80 JUMP JUMPDEST SWAP1 POP SWAP2 SWAP1 POP JUMP JUMPDEST PUSH0 PUSH3 0xBE DUP3 PUSH3 0x9F JUMP JUMPDEST SWAP1 POP SWAP2 SWAP1 POP JUMP JUMPDEST PUSH3 0xD0 DUP2 PUSH3 0xB2 JUMP JUMPDEST DUP2 EQ PUSH3 0xDB JUMPI PUSH0 DUP1 REVERT JUMPDEST POP JUMP JUMPDEST PUSH0 DUP2 MLOAD SWAP1 POP PUSH3 0xEE DUP2 PUSH3 0xC5 JUMP JUMPDEST SWAP3 SWAP2 POP POP JUMP JUMPDEST PUSH0 PUSH1 0x20 DUP3 DUP5 SUB SLT ISZERO PUSH3 0x10C JUMPI PUSH3 0x10B PUSH3 0x7C JUMP JUMPDEST JUMPDEST PUSH0 PUSH3 0x11B DUP5 DUP3 DUP6 ADD PUSH3 0xDE JUMP JUMPDEST SWAP2 POP POP SWAP3 SWAP2 POP POP JUMP JUMPDEST PUSH2 0x17C5 DUP1 PUSH3 0x132 PUSH0 CODECOPY PUSH0 RETURN INVALID PUSH1 0x80 PUSH1 0x40 MSTORE CALLVALUE DUP1 ISZERO PUSH2 0xF JUMPI PUSH0 DUP1 REVERT JUMPDEST POP PUSH1 0x4 CALLDATASIZE LT PUSH2 0x4A JUMPI PUSH0 CALLDATALOAD PUSH1 0xE0 SHR DUP1 PUSH4 0x1D88311D EQ PUSH2 0x4E JUMPI DUP1 PUSH4 0xC5B44712 EQ PUSH2 0x6A JUMPI DUP1 PUSH4 0xD6B41D8C EQ PUSH2 0x86 JUMPI DUP1 PUSH4 0xFC0C546A EQ PUSH2 0xA2 JUMPI JUMPDEST PUSH0 DUP1 REVERT JUMPDEST PUSH2 0x68 PUSH1 0x4 DUP1 CALLDATASIZE SUB DUP2 ADD SWAP1 PUSH2 0x63 SWAP2 SWAP1 PUSH2 0xA5D JUMP JUMPDEST PUSH2 0xC0 JUMP JUMPDEST STOP JUMPDEST PUSH2 0x84 PUSH1 0x4 DUP1 CALLDATASIZE SUB DUP2 ADD SWAP1 PUSH2 0x7F SWAP2 SWAP1 PUSH2 0xAA4 JUMP JUMPDEST PUSH2 0x348 JUMP JUMPDEST STOP JUMPDEST PUSH2 0xA0 PUSH1 0x4 DUP1 CALLDATASIZE SUB DUP2 ADD SWAP1 PUSH2 0x9B SWAP2 SWAP1 PUSH2 0xB4D JUMP JUMPDEST PUSH2 0x662 JUMP JUMPDEST STOP JUMPDEST PUSH2 0xAA PUSH2 0x8ED JUMP JUMPDEST PUSH1 0x40 MLOAD PUSH2 0xB7 SWAP2 SWAP1 PUSH2 0xC33 JUMP JUMPDEST PUSH1 0x40 MLOAD DUP1 SWAP2 SUB SWAP1 RETURN JUMPDEST PUSH1 0x1 DUP2 PUSH1 0x40 MLOAD PUSH2 0xD0 SWAP2 SWAP1 PUSH2 0xCB8 JUMP JUMPDEST SWAP1 DUP2 MSTORE PUSH1 0x20 ADD PUSH1 0x40 MLOAD DUP1 SWAP2 SUB SWAP1 KECCAK256 PUSH1 0x4 ADD PUSH1 0x14 SWAP1 SLOAD SWAP1 PUSH2 0x100 EXP SWAP1 DIV PUSH1 0xFF AND PUSH2 0x12E JUMPI PUSH1 0x40 MLOAD PUSH32 0x8C379A000000000000000000000000000000000000000000000000000000000 DUP2 MSTORE PUSH1 0x4 ADD PUSH2 0x125 SWAP1 PUSH2 0xD28 JUMP JUMPDEST PUSH1 0x40 MLOAD DUP1 SWAP2 SUB SWAP1 REVERT JUMPDEST PUSH0 PUSH1 0x1 DUP3 PUSH1 0x40 MLOAD PUSH2 0x13F SWAP2 SWAP1 PUSH2 0xCB8 JUMP JUMPDEST SWAP1 DUP2 MSTORE PUSH1 0x20 ADD PUSH1 0x40 MLOAD DUP1 SWAP2 SUB SWAP1 KECCAK256 SWAP1 POP DUP1 PUSH1 0x4 ADD PUSH0 SWAP1 SLOAD SWAP1 PUSH2 0x100 EXP SWAP1 DIV PUSH20 0xFFFFFFFFFFFFFFFFFFFFFFFFFFFFFFFFFFFFFFFF AND PUSH20 0xFFFFFFFFFFFFFFFFFFFFFFFFFFFFFFFFFFFFFFFF AND CALLER PUSH20 0xFFFFFFFFFFFFFFFFFFFFFFFFFFFFFFFFFFFFFFFF AND EQ PUSH2 0x1E0 JUMPI PUSH1 0x40 MLOAD PUSH32 0x8C379A000000000000000000000000000000000000000000000000000000000 DUP2 MSTORE PUSH1 0x4 ADD PUSH2 0x1D7 SWAP1 PUSH2 0xDB6 JUMP JUMPDEST PUSH1 0x40 MLOAD DUP1 SWAP2 SUB SWAP1 REVERT JUMPDEST PUSH0 DUP2 PUSH1 0x3 ADD SLOAD DUP3 PUSH1 0x2 ADD SLOAD DUP4 PUSH1 0x1 ADD SLOAD PUSH2 0x1FA SWAP2 SWAP1 PUSH2 0xE2E JUMP JUMPDEST PUSH2 0x204 SWAP2 SWAP1 PUSH2 0xE5E JUMP JUMPDEST DUP3 PUSH1 0x1 ADD SLOAD PUSH2 0x213 SWAP2 SWAP1 PUSH2 0xE9F JUMP JUMPDEST SWAP1 POP PUSH0 DUP3 PUSH1 0x4 ADD PUSH1 0x14 PUSH2 0x100 EXP DUP2 SLOAD DUP2 PUSH1 0xFF MUL NOT AND SWAP1 DUP4 ISZERO ISZERO MUL OR SWAP1 SSTORE POP PUSH0 DUP1 SLOAD SWAP1 PUSH2 0x100 EXP SWAP1 DIV PUSH20 0xFFFFFFFFFFFFFFFFFFFFFFFFFFFFFFFFFFFFFFFF AND PUSH20 0xFFFFFFFFFFFFFFFFFFFFFFFFFFFFFFFFFFFFFFFF AND PUSH4 0xA9059CBB CALLER DUP4 PUSH1 0x40 MLOAD DUP4 PUSH4 0xFFFFFFFF AND PUSH1 0xE0 SHL DUP2 MSTORE PUSH1 0x4 ADD PUSH2 0x28B SWAP3 SWAP2 SWAP1 PUSH2 0xF01 JUMP JUMPDEST PUSH1 0x20 PUSH1 0x40 MLOAD DUP1 DUP4 SUB DUP2 PUSH0 DUP8 GAS CALL ISZERO DUP1 ISZERO PUSH2 0x2A7 JUMPI RETURNDATASIZE PUSH0 DUP1 RETURNDATACOPY RETURNDATASIZE PUSH0 REVERT JUMPDEST POP POP POP POP PUSH1 0x40 MLOAD RETURNDATASIZE PUSH1 0x1F NOT PUSH1 0x1F DUP3 ADD AND DUP3 ADD DUP1 PUSH1 0x40 MSTORE POP DUP2 ADD SWAP1 PUSH2 0x2CB SWAP2 SWAP1 PUSH2 0xF5D JUMP JUMPDEST PUSH2 0x30A JUMPI PUSH1 0x40 MLOAD PUSH32 0x8C379A000000000000000000000000000000000000000000000000000000000 DUP2 MSTORE PUSH1 0x4 ADD PUSH2 0x301 SWAP1 PUSH2 0xFF8 JUMP JUMPDEST PUSH1 0x40 MLOAD DUP1 SWAP2 SUB SWAP1 REVERT JUMPDEST PUSH32 0xA3702E53A7E58CEC98A7E461A6DFF9E6C4A4D9100B03664560D7639EE1DB1A6A DUP4 CALLER PUSH1 0x40 MLOAD PUSH2 0x33B SWAP3 SWAP2 SWAP1 PUSH2 0x104E JUMP JUMPDEST PUSH1 0x40 MLOAD DUP1 SWAP2 SUB SWAP1 LOG1 POP POP POP JUMP JUMPDEST PUSH1 0x1 DUP3 PUSH1 0x40 MLOAD PUSH2 0x358 SWAP2 SWAP1 PUSH2 0xCB8 JUMP JUMPDEST SWAP1 DUP2 MSTORE PUSH1 0x20 ADD PUSH1 0x40 MLOAD DUP1 SWAP2 SUB SWAP1 KECCAK256 PUSH1 0x4 ADD PUSH1 0x14 SWAP1 SLOAD SWAP1 PUSH2 0x100 EXP SWAP1 DIV PUSH1 0xFF AND PUSH2 0x3B6 JUMPI PUSH1 0x40 MLOAD PUSH32 0x8C379A000000000000000000000000000000000000000000000000000000000 DUP2 MSTORE PUSH1 0x4 ADD PUSH2 0x3AD SWAP1 PUSH2 0x10C6 JUMP JUMPDEST PUSH1 0x40 MLOAD DUP1 SWAP2 SUB SWAP1 REVERT JUMPDEST PUSH0 PUSH1 0x1 DUP4 PUSH1 0x40 MLOAD PUSH2 0x3C7 SWAP2 SWAP1 PUSH2 0xCB8 JUMP JUMPDEST SWAP1 DUP2 MSTORE PUSH1 0x20 ADD PUSH1 0x40 MLOAD DUP1 SWAP2 SUB SWAP1 KECCAK256 PUSH1 0x5 ADD PUSH0 CALLER PUSH20 0xFFFFFFFFFFFFFFFFFFFFFFFFFFFFFFFFFFFFFFFF AND PUSH20 0xFFFFFFFFFFFFFFFFFFFFFFFFFFFFFFFFFFFFFFFF AND DUP2 MSTORE PUSH1 0x20 ADD SWAP1 DUP2 MSTORE PUSH1 0x20 ADD PUSH0 KECCAK256 DUP1 SLOAD PUSH2 0x41E SWAP1 PUSH2 0x1111 JUMP JUMPDEST SWAP1 POP EQ PUSH2 0x460 JUMPI PUSH1 0x40 MLOAD PUSH32 0x8C379A000000000000000000000000000000000000000000000000000000000 DUP2 MSTORE PUSH1 0x4 ADD PUSH2 0x457 SWAP1 PUSH2 0x11B1 JUMP JUMPDEST PUSH1 0x40 MLOAD DUP1 SWAP2 SUB SWAP1 REVERT JUMPDEST PUSH0 PUSH1 0x1 DUP4 PUSH1 0x40 MLOAD PUSH2 0x471 SWAP2 SWAP1 PUSH2 0xCB8 JUMP JUMPDEST SWAP1 DUP2 MSTORE PUSH1 0x20 ADD PUSH1 0x40 MLOAD DUP1 SWAP2 SUB SWAP1 KECCAK256 SWAP1 POP DUP1 PUSH1 0x2 ADD SLOAD DUP2 PUSH1 0x3 ADD SLOAD LT PUSH2 0x4CB JUMPI PUSH1 0x40 MLOAD PUSH32 0x8C379A000000000000000000000000000000000000000000000000000000000 DUP2 MSTORE PUSH1 0x4 ADD PUSH2 0x4C2 SWAP1 PUSH2 0x123F JUMP JUMPDEST PUSH1 0x40 MLOAD DUP1 SWAP2 SUB SWAP1 REVERT JUMPDEST DUP2 DUP2 PUSH1 0x5 ADD PUSH0 CALLER PUSH20 0xFFFFFFFFFFFFFFFFFFFFFFFFFFFFFFFFFFFFFFFF AND PUSH20 0xFFFFFFFFFFFFFFFFFFFFFFFFFFFFFFFFFFFFFFFF AND DUP2 MSTORE PUSH1 0x20 ADD SWAP1 DUP2 MSTORE PUSH1 0x20 ADD PUSH0 KECCAK256 SWAP1 DUP2 PUSH2 0x517 SWAP2 SWAP1 PUSH2 0x13F1 JUMP JUMPDEST POP DUP1 PUSH1 0x3 ADD PUSH0 DUP2 SLOAD DUP1 SWAP3 SWAP2 SWAP1 PUSH2 0x52C SWAP1 PUSH2 0x14C0 JUMP JUMPDEST SWAP2 SWAP1 POP SSTORE POP PUSH0 DUP2 PUSH1 0x2 ADD SLOAD DUP3 PUSH1 0x1 ADD SLOAD PUSH2 0x546 SWAP2 SWAP1 PUSH2 0xE2E JUMP JUMPDEST SWAP1 POP PUSH0 DUP1 SLOAD SWAP1 PUSH2 0x100 EXP SWAP1 DIV PUSH20 0xFFFFFFFFFFFFFFFFFFFFFFFFFFFFFFFFFFFFFFFF AND PUSH20 0xFFFFFFFFFFFFFFFFFFFFFFFFFFFFFFFFFFFFFFFF AND PUSH4 0xA9059CBB CALLER DUP4 PUSH1 0x40 MLOAD DUP4 PUSH4 0xFFFFFFFF AND PUSH1 0xE0 SHL DUP2 MSTORE PUSH1 0x4 ADD PUSH2 0x5A2 SWAP3 SWAP2 SWAP1 PUSH2 0xF01 JUMP JUMPDEST PUSH1 0x20 PUSH1 0x40 MLOAD DUP1 DUP4 SUB DUP2 PUSH0 DUP8 GAS CALL ISZERO DUP1 ISZERO PUSH2 0x5BE JUMPI RETURNDATASIZE PUSH0 DUP1 RETURNDATACOPY RETURNDATASIZE PUSH0 REVERT JUMPDEST POP POP POP POP PUSH1 0x40 MLOAD RETURNDATASIZE PUSH1 0x1F NOT PUSH1 0x1F DUP3 ADD AND DUP3 ADD DUP1 PUSH1 0x40 MSTORE POP DUP2 ADD SWAP1 PUSH2 0x5E2 SWAP2 SWAP1 PUSH2 0xF5D JUMP JUMPDEST PUSH2 0x621 JUMPI PUSH1 0x40 MLOAD PUSH32 0x8C379A000000000000000000000000000000000000000000000000000000000 DUP2 MSTORE PUSH1 0x4 ADD PUSH2 0x618 SWAP1 PUSH2 0x1551 JUMP JUMPDEST PUSH1 0x40 MLOAD DUP1 SWAP2 SUB SWAP1 REVERT JUMPDEST PUSH32 0xAF52D4CB749E687CD81112CCD6551A2DB43460A6C1D08596020BDA4A3142CF5E DUP5 CALLER DUP6 PUSH1 0x40 MLOAD PUSH2 0x654 SWAP4 SWAP3 SWAP2 SWAP1 PUSH2 0x156F JUMP JUMPDEST PUSH1 0x40 MLOAD DUP1 SWAP2 SUB SWAP1 LOG1 POP POP POP POP JUMP JUMPDEST PUSH1 0x1 DUP4 PUSH1 0x40 MLOAD PUSH2 0x672 SWAP2 SWAP1 PUSH2 0xCB8 JUMP JUMPDEST SWAP1 DUP2 MSTORE PUSH1 0x20 ADD PUSH1 0x40 MLOAD DUP1 SWAP2 SUB SWAP1 KECCAK256 PUSH1 0x4 ADD PUSH1 0x14 SWAP1 SLOAD SWAP1 PUSH2 0x100 EXP SWAP1 DIV PUSH1 0xFF AND ISZERO PUSH2 0x6D1 JUMPI PUSH1 0x40 MLOAD PUSH32 0x8C379A000000000000000000000000000000000000000000000000000000000 DUP2 MSTORE PUSH1 0x4 ADD PUSH2 0x6C8 SWAP1 PUSH2 0x15FC JUMP JUMPDEST PUSH1 0x40 MLOAD DUP1 SWAP2 SUB SWAP1 REVERT JUMPDEST PUSH0 DUP2 GT PUSH2 0x713 JUMPI PUSH1 0x40 MLOAD PUSH32 0x8C379A000000000000000000000000000000000000000000000000000000000 DUP2 MSTORE PUSH1 0x4 ADD PUSH2 0x70A SWAP1 PUSH2 0x168A JUMP JUMPDEST PUSH1 0x40 MLOAD DUP1 SWAP2 SUB SWAP1 REVERT JUMPDEST PUSH0 DUP2 DUP4 PUSH2 0x720 SWAP2 SWAP1 PUSH2 0xE5E JUMP JUMPDEST SWAP1 POP PUSH0 PUSH1 0x1 DUP6 PUSH1 0x40 MLOAD PUSH2 0x733 SWAP2 SWAP1 PUSH2 0xCB8 JUMP JUMPDEST SWAP1 DUP2 MSTORE PUSH1 0x20 ADD PUSH1 0x40 MLOAD DUP1 SWAP2 SUB SWAP1 KECCAK256 SWAP1 POP DUP5 DUP2 PUSH0 ADD SWAP1 DUP2 PUSH2 0x753 SWAP2 SWAP1 PUSH2 0x13F1 JUMP JUMPDEST POP DUP2 DUP2 PUSH1 0x1 ADD DUP2 SWAP1 SSTORE POP DUP3 DUP2 PUSH1 0x2 ADD DUP2 SWAP1 SSTORE POP PUSH0 DUP2 PUSH1 0x3 ADD DUP2 SWAP1 SSTORE POP CALLER DUP2 PUSH1 0x4 ADD PUSH0 PUSH2 0x100 EXP DUP2 SLOAD DUP2 PUSH20 0xFFFFFFFFFFFFFFFFFFFFFFFFFFFFFFFFFFFFFFFF MUL NOT AND SWAP1 DUP4 PUSH20 0xFFFFFFFFFFFFFFFFFFFFFFFFFFFFFFFFFFFFFFFF AND MUL OR SWAP1 SSTORE POP PUSH1 0x1 DUP2 PUSH1 0x4 ADD PUSH1 0x14 PUSH2 0x100 EXP DUP2 SLOAD DUP2 PUSH1 0xFF MUL NOT AND SWAP1 DUP4 ISZERO ISZERO MUL OR SWAP1 SSTORE POP PUSH0 DUP1 SLOAD SWAP1 PUSH2 0x100 EXP SWAP1 DIV PUSH20 0xFFFFFFFFFFFFFFFFFFFFFFFFFFFFFFFFFFFFFFFF AND PUSH20 0xFFFFFFFFFFFFFFFFFFFFFFFFFFFFFFFFFFFFFFFF AND PUSH4 0x23B872DD CALLER ADDRESS DUP6 PUSH1 0x40 MLOAD DUP5 PUSH4 0xFFFFFFFF AND PUSH1 0xE0 SHL DUP2 MSTORE PUSH1 0x4 ADD PUSH2 0x82A SWAP4 SWAP3 SWAP2 SWAP1 PUSH2 0x16A8 JUMP JUMPDEST PUSH1 0x20 PUSH1 0x40 MLOAD DUP1 DUP4 SUB DUP2 PUSH0 DUP8 GAS CALL ISZERO DUP1 ISZERO PUSH2 0x846 JUMPI RETURNDATASIZE PUSH0 DUP1 RETURNDATACOPY RETURNDATASIZE PUSH0 REVERT JUMPDEST POP POP POP POP PUSH1 0x40 MLOAD RETURNDATASIZE PUSH1 0x1F NOT PUSH1 0x1F DUP3 ADD AND DUP3 ADD DUP1 PUSH1 0x40 MSTORE POP DUP2 ADD SWAP1 PUSH2 0x86A SWAP2 SWAP1 PUSH2 0xF5D JUMP JUMPDEST PUSH2 0x8A9 JUMPI PUSH1 0x40 MLOAD PUSH32 0x8C379A000000000000000000000000000000000000000000000000000000000 DUP2 MSTORE PUSH1 0x4 ADD PUSH2 0x8A0 SWAP1 PUSH2 0x1727 JUMP JUMPDEST PUSH1 0x40 MLOAD DUP1 SWAP2 SUB SWAP1 REVERT JUMPDEST PUSH32 0xBA2E91DEC1DAD0F4E111E2EFAF28A87F75E5F0C63C36DCC3C6B2793FC3A0796D DUP6 DUP4 DUP6 CALLER PUSH1 0x40 MLOAD PUSH2 0x8DE SWAP5 SWAP4 SWAP3 SWAP2 SWAP1 PUSH2 0x1745 JUMP JUMPDEST PUSH1 0x40 MLOAD DUP1 SWAP2 SUB SWAP1 LOG1 POP POP POP POP POP JUMP JUMPDEST PUSH0 DUP1 SLOAD SWAP1 PUSH2 0x100 EXP SWAP1 DIV PUSH20 0xFFFFFFFFFFFFFFFFFFFFFFFFFFFFFFFFFFFFFFFF AND DUP2 JUMP JUMPDEST PUSH0 PUSH1 0x40 MLOAD SWAP1 POP SWAP1 JUMP JUMPDEST PUSH0 DUP1 REVERT JUMPDEST PUSH0 DUP1 REVERT JUMPDEST PUSH0 DUP1 REVERT JUMPDEST PUSH0 DUP1 REVERT JUMPDEST PUSH0 PUSH1 0x1F NOT PUSH1 0x1F DUP4 ADD AND SWAP1 POP SWAP2 SWAP1 POP JUMP JUMPDEST PUSH32 0x4E487B7100000000000000000000000000000000000000000000000000000000 PUSH0 MSTORE PUSH1 0x41 PUSH1 0x4 MSTORE PUSH1 0x24 PUSH0 REVERT JUMPDEST PUSH2 0x96F DUP3 PUSH2 0x929 JUMP JUMPDEST DUP2 ADD DUP2 DUP2 LT PUSH8 0xFFFFFFFFFFFFFFFF DUP3 GT OR ISZERO PUSH2 0x98E JUMPI PUSH2 0x98D PUSH2 0x939 JUMP JUMPDEST JUMPDEST DUP1 PUSH1 0x40 MSTORE POP POP POP JUMP JUMPDEST PUSH0 PUSH2 0x9A0 PUSH2 0x910 JUMP JUMPDEST SWAP1 POP PUSH2 0x9AC DUP3 DUP3 PUSH2 0x966 JUMP JUMPDEST SWAP2 SWAP1 POP JUMP JUMPDEST PUSH0 PUSH8 0xFFFFFFFFFFFFFFFF DUP3 GT ISZERO PUSH2 0x9CB JUMPI PUSH2 0x9CA PUSH2 0x939 JUMP JUMPDEST JUMPDEST PUSH2 0x9D4 DUP3 PUSH2 0x929 JUMP JUMPDEST SWAP1 POP PUSH1 0x20 DUP2 ADD SWAP1 POP SWAP2 SWAP1 POP JUMP JUMPDEST DUP3 DUP2 DUP4 CALLDATACOPY PUSH0 DUP4 DUP4 ADD MSTORE POP POP POP JUMP JUMPDEST PUSH0 PUSH2 0xA01 PUSH2 0x9FC DUP5 PUSH2 0x9B1 JUMP JUMPDEST PUSH2 0x997 JUMP JUMPDEST SWAP1 POP DUP3 DUP2 MSTORE PUSH1 0x20 DUP2 ADD DUP5 DUP5 DUP5 ADD GT ISZERO PUSH2 0xA1D JUMPI PUSH2 0xA1C PUSH2 0x925 JUMP JUMPDEST JUMPDEST PUSH2 0xA28 DUP5 DUP3 DUP6 PUSH2 0x9E1 JUMP JUMPDEST POP SWAP4 SWAP3 POP POP POP JUMP JUMPDEST PUSH0 DUP3 PUSH1 0x1F DUP4 ADD SLT PUSH2 0xA44 JUMPI PUSH2 0xA43 PUSH2 0x921 JUMP JUMPDEST JUMPDEST DUP2 CALLDATALOAD PUSH2 0xA54 DUP5 DUP3 PUSH1 0x20 DUP7 ADD PUSH2 0x9EF JUMP JUMPDEST SWAP2 POP POP SWAP3 SWAP2 POP POP JUMP JUMPDEST PUSH0 PUSH1 0x20 DUP3 DUP5 SUB SLT ISZERO PUSH2 0xA72 JUMPI PUSH2 0xA71 PUSH2 0x919 JUMP JUMPDEST JUMPDEST PUSH0 DUP3 ADD CALLDATALOAD PUSH8 0xFFFFFFFFFFFFFFFF DUP2 GT ISZERO PUSH2 0xA8F JUMPI PUSH2 0xA8E PUSH2 0x91D JUMP JUMPDEST JUMPDEST PUSH2 0xA9B DUP5 DUP3 DUP6 ADD PUSH2 0xA30 JUMP JUMPDEST SWAP2 POP POP SWAP3 SWAP2 POP POP JUMP JUMPDEST PUSH0 DUP1 PUSH1 0x40 DUP4 DUP6 SUB SLT ISZERO PUSH2 0xABA JUMPI PUSH2 0xAB9 PUSH2 0x919 JUMP JUMPDEST JUMPDEST PUSH0 DUP4 ADD CALLDATALOAD PUSH8 0xFFFFFFFFFFFFFFFF DUP2 GT ISZERO PUSH2 0xAD7 JUMPI PUSH2 0xAD6 PUSH2 0x91D JUMP JUMPDEST JUMPDEST PUSH2 0xAE3 DUP6 DUP3 DUP7 ADD PUSH2 0xA30 JUMP JUMPDEST SWAP3 POP POP PUSH1 0x20 DUP4 ADD CALLDATALOAD PUSH8 0xFFFFFFFFFFFFFFFF DUP2 GT ISZERO PUSH2 0xB04 JUMPI PUSH2 0xB03 PUSH2 0x91D JUMP JUMPDEST JUMPDEST PUSH2 0xB10 DUP6 DUP3 DUP7 ADD PUSH2 0xA30 JUMP JUMPDEST SWAP2 POP POP SWAP3 POP SWAP3 SWAP1 POP JUMP JUMPDEST PUSH0 DUP2 SWAP1 POP SWAP2 SWAP1 POP JUMP JUMPDEST PUSH2 0xB2C DUP2 PUSH2 0xB1A JUMP JUMPDEST DUP2 EQ PUSH2 0xB36 JUMPI PUSH0 DUP1 REVERT JUMPDEST POP JUMP JUMPDEST PUSH0 DUP2 CALLDATALOAD SWAP1 POP PUSH2 0xB47 DUP2 PUSH2 0xB23 JUMP JUMPDEST SWAP3 SWAP2 POP POP JUMP JUMPDEST PUSH0 DUP1 PUSH0 PUSH1 0x60 DUP5 DUP7 SUB SLT ISZERO PUSH2 0xB64 JUMPI PUSH2 0xB63 PUSH2 0x919 JUMP JUMPDEST JUMPDEST PUSH0 DUP5 ADD CALLDATALOAD PUSH8 0xFFFFFFFFFFFFFFFF DUP2 GT ISZERO PUSH2 0xB81 JUMPI PUSH2 0xB80 PUSH2 0x91D JUMP JUMPDEST JUMPDEST PUSH2 0xB8D DUP7 DUP3 DUP8 ADD PUSH2 0xA30 JUMP JUMPDEST SWAP4 POP POP PUSH1 0x20 PUSH2 0xB9E DUP7 DUP3 DUP8 ADD PUSH2 0xB39 JUMP JUMPDEST SWAP3 POP POP PUSH1 0x40 PUSH2 0xBAF DUP7 DUP3 DUP8 ADD PUSH2 0xB39 JUMP JUMPDEST SWAP2 POP POP SWAP3 POP SWAP3 POP SWAP3 JUMP JUMPDEST PUSH0 PUSH20 0xFFFFFFFFFFFFFFFFFFFFFFFFFFFFFFFFFFFFFFFF DUP3 AND SWAP1 POP SWAP2 SWAP1 POP JUMP JUMPDEST PUSH0 DUP2 SWAP1 POP SWAP2 SWAP1 POP JUMP JUMPDEST PUSH0 PUSH2 0xBFB PUSH2 0xBF6 PUSH2 0xBF1 DUP5 PUSH2 0xBB9 JUMP JUMPDEST PUSH2 0xBD8 JUMP JUMPDEST PUSH2 0xBB9 JUMP JUMPDEST SWAP1 POP SWAP2 SWAP1 POP JUMP JUMPDEST PUSH0 PUSH2 0xC0C DUP3 PUSH2 0xBE1 JUMP JUMPDEST SWAP1 POP SWAP2 SWAP1 POP JUMP JUMPDEST PUSH0 PUSH2 0xC1D DUP3 PUSH2 0xC02 JUMP JUMPDEST SWAP1 POP SWAP2 SWAP1 POP JUMP JUMPDEST PUSH2 0xC2D DUP2 PUSH2 0xC13 JUMP JUMPDEST DUP3 MSTORE POP POP JUMP JUMPDEST PUSH0 PUSH1 0x20 DUP3 ADD SWAP1 POP PUSH2 0xC46 PUSH0 DUP4 ADD DUP5 PUSH2 0xC24 JUMP JUMPDEST SWAP3 SWAP2 POP POP JUMP JUMPDEST PUSH0 DUP2 MLOAD SWAP1 POP SWAP2 SWAP1 POP JUMP JUMPDEST PUSH0 DUP2 SWAP1 POP SWAP3 SWAP2 POP POP JUMP JUMPDEST PUSH0 JUMPDEST DUP4 DUP2 LT ISZERO PUSH2 0xC7D JUMPI DUP1 DUP3 ADD MLOAD DUP2 DUP5 ADD MSTORE PUSH1 0x20 DUP2 ADD SWAP1 POP PUSH2 0xC62 JUMP JUMPDEST PUSH0 DUP5 DUP5 ADD MSTORE POP POP POP POP JUMP JUMPDEST PUSH0 PUSH2 0xC92 DUP3 PUSH2 0xC4C JUMP JUMPDEST PUSH2 0xC9C DUP2 DUP6 PUSH2 0xC56 JUMP JUMPDEST SWAP4 POP PUSH2 0xCAC DUP2 DUP6 PUSH1 0x20 DUP7 ADD PUSH2 0xC60 JUMP JUMPDEST DUP1 DUP5 ADD SWAP2 POP POP SWAP3 SWAP2 POP POP JUMP JUMPDEST PUSH0 PUSH2 0xCC3 DUP3 DUP5 PUSH2 0xC88 JUMP JUMPDEST SWAP2 POP DUP2 SWAP1 POP SWAP3 SWAP2 POP POP JUMP JUMPDEST PUSH0 DUP3 DUP3 MSTORE PUSH1 0x20 DUP3 ADD SWAP1 POP SWAP3 SWAP2 POP POP JUMP JUMPDEST PUSH32 0x53757276657920646F6573206E6F742065786973742E00000000000000000000 PUSH0 DUP3 ADD MSTORE POP JUMP JUMPDEST PUSH0 PUSH2 0xD12 PUSH1 0x16 DUP4 PUSH2 0xCCE JUMP JUMPDEST SWAP2 POP PUSH2 0xD1D DUP3 PUSH2 0xCDE JUMP JUMPDEST PUSH1 0x20 DUP3 ADD SWAP1 POP SWAP2 SWAP1 POP JUMP JUMPDEST PUSH0 PUSH1 0x20 DUP3 ADD SWAP1 POP DUP2 DUP2 SUB PUSH0 DUP4 ADD MSTORE PUSH2 0xD3F DUP2 PUSH2 0xD06 JUMP JUMPDEST SWAP1 POP SWAP2 SWAP1 POP JUMP JUMPDEST PUSH32 0x4F6E6C7920746865207375727665792063726561746F722063616E2063616E63 PUSH0 DUP3 ADD MSTORE PUSH32 0x656C20746865207375727665792E000000000000000000000000000000000000 PUSH1 0x20 DUP3 ADD MSTORE POP JUMP JUMPDEST PUSH0 PUSH2 0xDA0 PUSH1 0x2E DUP4 PUSH2 0xCCE JUMP JUMPDEST SWAP2 POP PUSH2 0xDAB DUP3 PUSH2 0xD46 JUMP JUMPDEST PUSH1 0x40 DUP3 ADD SWAP1 POP SWAP2 SWAP1 POP JUMP JUMPDEST PUSH0 PUSH1 0x20 DUP3 ADD SWAP1 POP DUP2 DUP2 SUB PUSH0 DUP4 ADD MSTORE PUSH2 0xDCD DUP2 PUSH2 0xD94 JUMP JUMPDEST SWAP1 POP SWAP2 SWAP1 POP JUMP JUMPDEST PUSH32 0x4E487B7100000000000000000000000000000000000000000000000000000000 PUSH0 MSTORE PUSH1 0x12 PUSH1 0x4 MSTORE PUSH1 0x24 PUSH0 REVERT JUMPDEST PUSH32 0x4E487B7100000000000000000000000000000000000000000000000000000000 PUSH0 MSTORE PUSH1 0x11 PUSH1 0x4 MSTORE PUSH1 0x24 PUSH0 REVERT JUMPDEST PUSH0 PUSH2 0xE38 DUP3 PUSH2 0xB1A JUMP JUMPDEST SWAP2 POP PUSH2 0xE43 DUP4 PUSH2 0xB1A JUMP JUMPDEST SWAP3 POP DUP3 PUSH2 0xE53 JUMPI PUSH2 0xE52 PUSH2 0xDD4 JUMP JUMPDEST JUMPDEST DUP3 DUP3 DIV SWAP1 POP SWAP3 SWAP2 POP POP JUMP JUMPDEST PUSH0 PUSH2 0xE68 DUP3 PUSH2 0xB1A JUMP JUMPDEST SWAP2 POP PUSH2 0xE73 DUP4 PUSH2 0xB1A JUMP JUMPDEST SWAP3 POP DUP3 DUP3 MUL PUSH2 0xE81 DUP2 PUSH2 0xB1A JUMP JUMPDEST SWAP2 POP DUP3 DUP3 DIV DUP5 EQ DUP4 ISZERO OR PUSH2 0xE98 JUMPI PUSH2 0xE97 PUSH2 0xE01 JUMP JUMPDEST JUMPDEST POP SWAP3 SWAP2 POP POP JUMP JUMPDEST PUSH0 PUSH2 0xEA9 DUP3 PUSH2 0xB1A JUMP JUMPDEST SWAP2 POP PUSH2 0xEB4 DUP4 PUSH2 0xB1A JUMP JUMPDEST SWAP3 POP DUP3 DUP3 SUB SWAP1 POP DUP2 DUP2 GT ISZERO PUSH2 0xECC JUMPI PUSH2 0xECB PUSH2 0xE01 JUMP JUMPDEST JUMPDEST SWAP3 SWAP2 POP POP JUMP JUMPDEST PUSH0 PUSH2 0xEDC DUP3 PUSH2 0xBB9 JUMP JUMPDEST SWAP1 POP SWAP2 SWAP1 POP JUMP JUMPDEST PUSH2 0xEEC DUP2 PUSH2 0xED2 JUMP JUMPDEST DUP3 MSTORE POP POP JUMP JUMPDEST PUSH2 0xEFB DUP2 PUSH2 0xB1A JUMP JUMPDEST DUP3 MSTORE POP POP JUMP JUMPDEST PUSH0 PUSH1 0x40 DUP3 ADD SWAP1 POP PUSH2 0xF14 PUSH0 DUP4 ADD DUP6 PUSH2 0xEE3 JUMP JUMPDEST PUSH2 0xF21 PUSH1 0x20 DUP4 ADD DUP5 PUSH2 0xEF2 JUMP JUMPDEST SWAP4 SWAP3 POP POP POP JUMP JUMPDEST PUSH0 DUP2 ISZERO ISZERO SWAP1 POP SWAP2 SWAP1 POP JUMP JUMPDEST PUSH2 0xF3C DUP2 PUSH2 0xF28 JUMP JUMPDEST DUP2 EQ PUSH2 0xF46 JUMPI PUSH0 DUP1 REVERT JUMPDEST POP JUMP JUMPDEST PUSH0 DUP2 MLOAD SWAP1 POP PUSH2 0xF57 DUP2 PUSH2 0xF33 JUMP JUMPDEST SWAP3 SWAP2 POP POP JUMP JUMPDEST PUSH0 PUSH1 0x20 DUP3 DUP5 SUB SLT ISZERO PUSH2 0xF72 JUMPI PUSH2 0xF71 PUSH2 0x919 JUMP JUMPDEST JUMPDEST PUSH0 PUSH2 0xF7F DUP5 DUP3 DUP6 ADD PUSH2 0xF49 JUMP JUMPDEST SWAP2 POP POP SWAP3 SWAP2 POP POP JUMP JUMPDEST PUSH32 0x4661696C656420746F2072657475726E2072656D61696E696E67207265776172 PUSH0 DUP3 ADD MSTORE PUSH32 0x64732E0000000000000000000000000000000000000000000000000000000000 PUSH1 0x20 DUP3 ADD MSTORE POP JUMP JUMPDEST PUSH0 PUSH2 0xFE2 PUSH1 0x23 DUP4 PUSH2 0xCCE JUMP JUMPDEST SWAP2 POP PUSH2 0xFED DUP3 PUSH2 0xF88 JUMP JUMPDEST PUSH1 0x40 DUP3 ADD SWAP1 POP SWAP2 SWAP1 POP JUMP JUMPDEST PUSH0 PUSH1 0x20 DUP3 ADD SWAP1 POP DUP2 DUP2 SUB PUSH0 DUP4 ADD MSTORE PUSH2 0x100F DUP2 PUSH2 0xFD6 JUMP JUMPDEST SWAP1 POP SWAP2 SWAP1 POP JUMP JUMPDEST PUSH0 PUSH2 0x1020 DUP3 PUSH2 0xC4C JUMP JUMPDEST PUSH2 0x102A DUP2 DUP6 PUSH2 0xCCE JUMP JUMPDEST SWAP4 POP PUSH2 0x103A DUP2 DUP6 PUSH1 0x20 DUP7 ADD PUSH2 0xC60 JUMP JUMPDEST PUSH2 0x1043 DUP2 PUSH2 0x929 JUMP JUMPDEST DUP5 ADD SWAP2 POP POP SWAP3 SWAP2 POP POP JUMP JUMPDEST PUSH0 PUSH1 0x40 DUP3 ADD SWAP1 POP DUP2 DUP2 SUB PUSH0 DUP4 ADD MSTORE PUSH2 0x1066 DUP2 DUP6 PUSH2 0x1016 JUMP JUMPDEST SWAP1 POP PUSH2 0x1075 PUSH1 0x20 DUP4 ADD DUP5 PUSH2 0xEE3 JUMP JUMPDEST SWAP4 SWAP3 POP POP POP JUMP JUMPDEST PUSH32 0x53757276657920646F6573206E6F742065786973740000000000000000000000 PUSH0 DUP3 ADD MSTORE POP JUMP JUMPDEST PUSH0 PUSH2 0x10B0 PUSH1 0x15 DUP4 PUSH2 0xCCE JUMP JUMPDEST SWAP2 POP PUSH2 0x10BB DUP3 PUSH2 0x107C JUMP JUMPDEST PUSH1 0x20 DUP3 ADD SWAP1 POP SWAP2 SWAP1 POP JUMP JUMPDEST PUSH0 PUSH1 0x20 DUP3 ADD SWAP1 POP DUP2 DUP2 SUB PUSH0 DUP4 ADD MSTORE PUSH2 0x10DD DUP2 PUSH2 0x10A4 JUMP JUMPDEST SWAP1 POP SWAP2 SWAP1 POP JUMP JUMPDEST PUSH32 0x4E487B7100000000000000000000000000000000000000000000000000000000 PUSH0 MSTORE PUSH1 0x22 PUSH1 0x4 MSTORE PUSH1 0x24 PUSH0 REVERT JUMPDEST PUSH0 PUSH1 0x2 DUP3 DIV SWAP1 POP PUSH1 0x1 DUP3 AND DUP1 PUSH2 0x1128 JUMPI PUSH1 0x7F DUP3 AND SWAP2 POP JUMPDEST PUSH1 0x20 DUP3 LT DUP2 SUB PUSH2 0x113B JUMPI PUSH2 0x113A PUSH2 0x10E4 JUMP JUMPDEST JUMPDEST POP SWAP2 SWAP1 POP JUMP JUMPDEST PUSH32 0x526573706F6E6465722068617320616C726561647920616E7377657265642074 PUSH0 DUP3 ADD MSTORE PUSH32 0x6869732073757276657900000000000000000000000000000000000000000000 PUSH1 0x20 DUP3 ADD MSTORE POP JUMP JUMPDEST PUSH0 PUSH2 0x119B PUSH1 0x2A DUP4 PUSH2 0xCCE JUMP JUMPDEST SWAP2 POP PUSH2 0x11A6 DUP3 PUSH2 0x1141 JUMP JUMPDEST PUSH1 0x40 DUP3 ADD SWAP1 POP SWAP2 SWAP1 POP JUMP JUMPDEST PUSH0 PUSH1 0x20 DUP3 ADD SWAP1 POP DUP2 DUP2 SUB PUSH0 DUP4 ADD MSTORE PUSH2 0x11C8 DUP2 PUSH2 0x118F JUMP JUMPDEST SWAP1 POP SWAP2 SWAP1 POP JUMP JUMPDEST PUSH32 0x5375727665792068617320616C72656164792072656163686564206974732065 PUSH0 DUP3 ADD MSTORE PUSH32 0x7870656374656420726573706F6E64656E747300000000000000000000000000 PUSH1 0x20 DUP3 ADD MSTORE POP JUMP JUMPDEST PUSH0 PUSH2 0x1229 PUSH1 0x33 DUP4 PUSH2 0xCCE JUMP JUMPDEST SWAP2 POP PUSH2 0x1234 DUP3 PUSH2 0x11CF JUMP JUMPDEST PUSH1 0x40 DUP3 ADD SWAP1 POP SWAP2 SWAP1 POP JUMP JUMPDEST PUSH0 PUSH1 0x20 DUP3 ADD SWAP1 POP DUP2 DUP2 SUB PUSH0 DUP4 ADD MSTORE PUSH2 0x1256 DUP2 PUSH2 0x121D JUMP JUMPDEST SWAP1 POP SWAP2 SWAP1 POP JUMP JUMPDEST PUSH0 DUP2 SWAP1 POP DUP2 PUSH0 MSTORE PUSH1 0x20 PUSH0 KECCAK256 SWAP1 POP SWAP2 SWAP1 POP JUMP JUMPDEST PUSH0 PUSH1 0x20 PUSH1 0x1F DUP4 ADD DIV SWAP1 POP SWAP2 SWAP1 POP JUMP JUMPDEST PUSH0 DUP3 DUP3 SHL SWAP1 POP SWAP3 SWAP2 POP POP JUMP JUMPDEST PUSH0 PUSH1 0x8 DUP4 MUL PUSH2 0x12B9 PUSH32 0xFFFFFFFFFFFFFFFFFFFFFFFFFFFFFFFFFFFFFFFFFFFFFFFFFFFFFFFFFFFFFFFF DUP3 PUSH2 0x127E JUMP JUMPDEST PUSH2 0x12C3 DUP7 DUP4 PUSH2 0x127E JUMP JUMPDEST SWAP6 POP DUP1 NOT DUP5 AND SWAP4 POP DUP1 DUP7 AND DUP5 OR SWAP3 POP POP POP SWAP4 SWAP3 POP POP POP JUMP JUMPDEST PUSH0 PUSH2 0x12F5 PUSH2 0x12F0 PUSH2 0x12EB DUP5 PUSH2 0xB1A JUMP JUMPDEST PUSH2 0xBD8 JUMP JUMPDEST PUSH2 0xB1A JUMP JUMPDEST SWAP1 POP SWAP2 SWAP1 POP JUMP JUMPDEST PUSH0 DUP2 SWAP1 POP SWAP2 SWAP1 POP JUMP JUMPDEST PUSH2 0x130E DUP4 PUSH2 0x12DB JUMP JUMPDEST PUSH2 0x1322 PUSH2 0x131A DUP3 PUSH2 0x12FC JUMP JUMPDEST DUP5 DUP5 SLOAD PUSH2 0x128A JUMP JUMPDEST DUP3 SSTORE POP POP POP POP JUMP JUMPDEST PUSH0 SWAP1 JUMP JUMPDEST PUSH2 0x1336 PUSH2 0x132A JUMP JUMPDEST PUSH2 0x1341 DUP2 DUP5 DUP5 PUSH2 0x1305 JUMP JUMPDEST POP POP POP JUMP JUMPDEST JUMPDEST DUP2 DUP2 LT ISZERO PUSH2 0x1364 JUMPI PUSH2 0x1359 PUSH0 DUP3 PUSH2 0x132E JUMP JUMPDEST PUSH1 0x1 DUP2 ADD SWAP1 POP PUSH2 0x1347 JUMP JUMPDEST POP POP JUMP JUMPDEST PUSH1 0x1F DUP3 GT ISZERO PUSH2 0x13A9 JUMPI PUSH2 0x137A DUP2 PUSH2 0x125D JUMP JUMPDEST PUSH2 0x1383 DUP5 PUSH2 0x126F JUMP JUMPDEST DUP2 ADD PUSH1 0x20 DUP6 LT ISZERO PUSH2 0x1392 JUMPI DUP2 SWAP1 POP JUMPDEST PUSH2 0x13A6 PUSH2 0x139E DUP6 PUSH2 0x126F JUMP JUMPDEST DUP4 ADD DUP3 PUSH2 0x1346 JUMP JUMPDEST POP POP JUMPDEST POP POP POP JUMP JUMPDEST PUSH0 DUP3 DUP3 SHR SWAP1 POP SWAP3 SWAP2 POP POP JUMP JUMPDEST PUSH0 PUSH2 0x13C9 PUSH0 NOT DUP5 PUSH1 0x8 MUL PUSH2 0x13AE JUMP JUMPDEST NOT DUP1 DUP4 AND SWAP2 POP POP SWAP3 SWAP2 POP POP JUMP JUMPDEST PUSH0 PUSH2 0x13E1 DUP4 DUP4 PUSH2 0x13BA JUMP JUMPDEST SWAP2 POP DUP3 PUSH1 0x2 MUL DUP3 OR SWAP1 POP SWAP3 SWAP2 POP POP JUMP JUMPDEST PUSH2 0x13FA DUP3 PUSH2 0xC4C JUMP JUMPDEST PUSH8 0xFFFFFFFFFFFFFFFF DUP2 GT ISZERO PUSH2 0x1413 JUMPI PUSH2 0x1412 PUSH2 0x939 JUMP JUMPDEST JUMPDEST PUSH2 0x141D DUP3 SLOAD PUSH2 0x1111 JUMP JUMPDEST PUSH2 0x1428 DUP3 DUP3 DUP6 PUSH2 0x1368 JUMP JUMPDEST PUSH0 PUSH1 0x20 SWAP1 POP PUSH1 0x1F DUP4 GT PUSH1 0x1 DUP2 EQ PUSH2 0x1459 JUMPI PUSH0 DUP5 ISZERO PUSH2 0x1447 JUMPI DUP3 DUP8 ADD MLOAD SWAP1 POP JUMPDEST PUSH2 0x1451 DUP6 DUP3 PUSH2 0x13D6 JUMP JUMPDEST DUP7 SSTORE POP PUSH2 0x14B8 JUMP JUMPDEST PUSH1 0x1F NOT DUP5 AND PUSH2 0x1467 DUP7 PUSH2 0x125D JUMP JUMPDEST PUSH0 JUMPDEST DUP3 DUP2 LT ISZERO PUSH2 0x148E JUMPI DUP5 DUP10 ADD MLOAD DUP3 SSTORE PUSH1 0x1 DUP3 ADD SWAP2 POP PUSH1 0x20 DUP6 ADD SWAP5 POP PUSH1 0x20 DUP2 ADD SWAP1 POP PUSH2 0x1469 JUMP JUMPDEST DUP7 DUP4 LT ISZERO PUSH2 0x14AB JUMPI DUP5 DUP10 ADD MLOAD PUSH2 0x14A7 PUSH1 0x1F DUP10 AND DUP3 PUSH2 0x13BA JUMP JUMPDEST DUP4 SSTORE POP JUMPDEST PUSH1 0x1 PUSH1 0x2 DUP9 MUL ADD DUP9 SSTORE POP POP POP JUMPDEST POP POP POP POP POP POP JUMP JUMPDEST PUSH0 PUSH2 0x14CA DUP3 PUSH2 0xB1A JUMP JUMPDEST SWAP2 POP PUSH32 0xFFFFFFFFFFFFFFFFFFFFFFFFFFFFFFFFFFFFFFFFFFFFFFFFFFFFFFFFFFFFFFFF DUP3 SUB PUSH2 0x14FC JUMPI PUSH2 0x14FB PUSH2 0xE01 JUMP JUMPDEST JUMPDEST PUSH1 0x1 DUP3 ADD SWAP1 POP SWAP2 SWAP1 POP JUMP JUMPDEST PUSH32 0x4661696C656420746F2064697374726962757465207265776172640000000000 PUSH0 DUP3 ADD MSTORE POP JUMP JUMPDEST PUSH0 PUSH2 0x153B PUSH1 0x1B DUP4 PUSH2 0xCCE JUMP JUMPDEST SWAP2 POP PUSH2 0x1546 DUP3 PUSH2 0x1507 JUMP JUMPDEST PUSH1 0x20 DUP3 ADD SWAP1 POP SWAP2 SWAP1 POP JUMP JUMPDEST PUSH0 PUSH1 0x20 DUP3 ADD SWAP1 POP DUP2 DUP2 SUB PUSH0 DUP4 ADD MSTORE PUSH2 0x1568 DUP2 PUSH2 0x152F JUMP JUMPDEST SWAP1 POP SWAP2 SWAP1 POP JUMP JUMPDEST PUSH0 PUSH1 0x60 DUP3 ADD SWAP1 POP DUP2 DUP2 SUB PUSH0 DUP4 ADD MSTORE PUSH2 0x1587 DUP2 DUP7 PUSH2 0x1016 JUMP JUMPDEST SWAP1 POP PUSH2 0x1596 PUSH1 0x20 DUP4 ADD DUP6 PUSH2 0xEE3 JUMP JUMPDEST DUP2 DUP2 SUB PUSH1 0x40 DUP4 ADD MSTORE PUSH2 0x15A8 DUP2 DUP5 PUSH2 0x1016 JUMP JUMPDEST SWAP1 POP SWAP5 SWAP4 POP POP POP POP JUMP JUMPDEST PUSH32 0x53757276657920616C7265616479206578697374730000000000000000000000 PUSH0 DUP3 ADD MSTORE POP JUMP JUMPDEST PUSH0 PUSH2 0x15E6 PUSH1 0x15 DUP4 PUSH2 0xCCE JUMP JUMPDEST SWAP2 POP PUSH2 0x15F1 DUP3 PUSH2 0x15B2 JUMP JUMPDEST PUSH1 0x20 DUP3 ADD SWAP1 POP SWAP2 SWAP1 POP JUMP JUMPDEST PUSH0 PUSH1 0x20 DUP3 ADD SWAP1 POP DUP2 DUP2 SUB PUSH0 DUP4 ADD MSTORE PUSH2 0x1613 DUP2 PUSH2 0x15DA JUMP JUMPDEST SWAP1 POP SWAP2 SWAP1 POP JUMP JUMPDEST PUSH32 0x457870656374656420726573706F6E64656E7473206D75737420626520677265 PUSH0 DUP3 ADD MSTORE PUSH32 0x61746572207468616E2030000000000000000000000000000000000000000000 PUSH1 0x20 DUP3 ADD MSTORE POP JUMP JUMPDEST PUSH0 PUSH2 0x1674 PUSH1 0x2B DUP4 PUSH2 0xCCE JUMP JUMPDEST SWAP2 POP PUSH2 0x167F DUP3 PUSH2 0x161A JUMP JUMPDEST PUSH1 0x40 DUP3 ADD SWAP1 POP SWAP2 SWAP1 POP JUMP JUMPDEST PUSH0 PUSH1 0x20 DUP3 ADD SWAP1 POP DUP2 DUP2 SUB PUSH0 DUP4 ADD MSTORE PUSH2 0x16A1 DUP2 PUSH2 0x1668 JUMP JUMPDEST SWAP1 POP SWAP2 SWAP1 POP JUMP JUMPDEST PUSH0 PUSH1 0x60 DUP3 ADD SWAP1 POP PUSH2 0x16BB PUSH0 DUP4 ADD DUP7 PUSH2 0xEE3 JUMP JUMPDEST PUSH2 0x16C8 PUSH1 0x20 DUP4 ADD DUP6 PUSH2 0xEE3 JUMP JUMPDEST PUSH2 0x16D5 PUSH1 0x40 DUP4 ADD DUP5 PUSH2 0xEF2 JUMP JUMPDEST SWAP5 SWAP4 POP POP POP POP JUMP JUMPDEST PUSH32 0x4661696C656420746F206C6F636B207375727665792072657761726473000000 PUSH0 DUP3 ADD MSTORE POP JUMP JUMPDEST PUSH0 PUSH2 0x1711 PUSH1 0x1D DUP4 PUSH2 0xCCE JUMP JUMPDEST SWAP2 POP PUSH2 0x171C DUP3 PUSH2 0x16DD JUMP JUMPDEST PUSH1 0x20 DUP3 ADD SWAP1 POP SWAP2 SWAP1 POP JUMP JUMPDEST PUSH0 PUSH1 0x20 DUP3 ADD SWAP1 POP DUP2 DUP2 SUB PUSH0 DUP4 ADD MSTORE PUSH2 0x173E DUP2 PUSH2 0x1705 JUMP JUMPDEST SWAP1 POP SWAP2 SWAP1 POP JUMP JUMPDEST PUSH0 PUSH1 0x80 DUP3 ADD SWAP1 POP DUP2 DUP2 SUB PUSH0 DUP4 ADD MSTORE PUSH2 0x175D DUP2 DUP8 PUSH2 0x1016 JUMP JUMPDEST SWAP1 POP PUSH2 0x176C PUSH1 0x20 DUP4 ADD DUP7 PUSH2 0xEF2 JUMP JUMPDEST PUSH2 0x1779 PUSH1 0x40 DUP4 ADD DUP6 PUSH2 0xEF2 JUMP JUMPDEST PUSH2 0x1786 PUSH1 0x60 DUP4 ADD DUP5 PUSH2 0xEE3 JUMP JUMPDEST SWAP6 SWAP5 POP POP POP POP POP JUMP INVALID LOG2 PUSH5 0x6970667358 0x22 SLT KECCAK256 0xC1 0xA5 0xE1 SLT SWAP14 0xE3 0xEA 0x23 GASPRICE RETURNDATACOPY 0xFC PUSH17 0x617B29064B67997DF9AF0C40264A4D70BB 0xF8 0xF9 DUP1 PUSH5 0x736F6C6343 STOP ADDMOD XOR STOP CALLER "
				},
				"gasEstimates": {
					"creation": {
						"codeDepositCost": "1217000",
						"executionCost": "infinite",
						"totalCost": "infinite"
					},
					"external": {
						"answerSurvey(string,string)": "infinite",
						"cancelSurvey(string)": "infinite",
						"createSurvey(string,uint256,uint256)": "infinite",
						"token()": "infinite"
					}
				},
				"methodIdentifiers": {
					"answerSurvey(string,string)": "c5b44712",
					"cancelSurvey(string)": "1d88311d",
					"createSurvey(string,uint256,uint256)": "d6b41d8c",
					"token()": "fc0c546a"
				}
			},
			"storageLayout": {
				"storage": [
					{
						"astId": 83,
						"contract": "contracts/SurveyRewardSystem.sol:SurveyRewardSystem",
						"label": "token",
						"offset": 0,
						"slot": "0",
						"type": "t_contract(IERC20)77"
					},
					{
						"astId": 105,
						"contract": "contracts/SurveyRewardSystem.sol:SurveyRewardSystem",
						"label": "surveys",
						"offset": 0,
						"slot": "1",
						"type": "t_mapping(t_string_memory_ptr,t_struct(Survey)100_storage)"
					}
				],
				"types": {
					"t_address": {
						"encoding": "inplace",
						"label": "address",
						"numberOfBytes": "20"
					},
					"t_bool": {
						"encoding": "inplace",
						"label": "bool",
						"numberOfBytes": "1"
					},
					"t_contract(IERC20)77": {
						"encoding": "inplace",
						"label": "contract IERC20",
						"numberOfBytes": "20"
					},
					"t_mapping(t_address,t_string_storage)": {
						"encoding": "mapping",
						"key": "t_address",
						"label": "mapping(address => string)",
						"numberOfBytes": "32",
						"value": "t_string_storage"
					},
					"t_mapping(t_string_memory_ptr,t_struct(Survey)100_storage)": {
						"encoding": "mapping",
						"key": "t_string_memory_ptr",
						"label": "mapping(string => struct SurveyRewardSystem.Survey)",
						"numberOfBytes": "32",
						"value": "t_struct(Survey)100_storage"
					},
					"t_string_memory_ptr": {
						"encoding": "bytes",
						"label": "string",
						"numberOfBytes": "32"
					},
					"t_string_storage": {
						"encoding": "bytes",
						"label": "string",
						"numberOfBytes": "32"
					},
					"t_struct(Survey)100_storage": {
						"encoding": "inplace",
						"label": "struct SurveyRewardSystem.Survey",
						"members": [
							{
								"astId": 85,
								"contract": "contracts/SurveyRewardSystem.sol:SurveyRewardSystem",
								"label": "ipfsHash",
								"offset": 0,
								"slot": "0",
								"type": "t_string_storage"
							},
							{
								"astId": 87,
								"contract": "contracts/SurveyRewardSystem.sol:SurveyRewardSystem",
								"label": "rewardPool",
								"offset": 0,
								"slot": "1",
								"type": "t_uint256"
							},
							{
								"astId": 89,
								"contract": "contracts/SurveyRewardSystem.sol:SurveyRewardSystem",
								"label": "expectedRespondents",
								"offset": 0,
								"slot": "2",
								"type": "t_uint256"
							},
							{
								"astId": 91,
								"contract": "contracts/SurveyRewardSystem.sol:SurveyRewardSystem",
								"label": "actualRespondents",
								"offset": 0,
								"slot": "3",
								"type": "t_uint256"
							},
							{
								"astId": 93,
								"contract": "contracts/SurveyRewardSystem.sol:SurveyRewardSystem",
								"label": "creator",
								"offset": 0,
								"slot": "4",
								"type": "t_address"
							},
							{
								"astId": 95,
								"contract": "contracts/SurveyRewardSystem.sol:SurveyRewardSystem",
								"label": "exists",
								"offset": 20,
								"slot": "4",
								"type": "t_bool"
							},
							{
								"astId": 99,
								"contract": "contracts/SurveyRewardSystem.sol:SurveyRewardSystem",
								"label": "answers",
								"offset": 0,
								"slot": "5",
								"type": "t_mapping(t_address,t_string_storage)"
							}
						],
						"numberOfBytes": "192"
					},
					"t_uint256": {
						"encoding": "inplace",
						"label": "uint256",
						"numberOfBytes": "32"
					}
				}
			},
			"userdoc": {
				"kind": "user",
				"methods": {},
				"version": 1
			}
		}
	}
}